:10000000F8FF02209901000059A4010011A4010089
:1000100011A4010011A4010011A4010011A4010008
:1000200011A4010011A4010011A4010059A40100B0
:1000300059A4010011A4010095F6010005FC01007E
:1000400059A4010059A4010059A4010059A40100B8
:1000500059A4010059A4010059A4010059A40100A8
:1000600059A4010059A4010059A4010059A4010098
:1000700059A4010059A4010059A4010059A4010088
:1000800059A4010059A4010059A4010059A4010078
:1000900059A4010059A4010059A4010059A4010068
:1000A000651802007118020059A4010059A401004A
:1000B00059A4010059A4010059A401007D8D01003B
:1000C00059A4010025B9010059A40100814A010089
:1000D00059A401005DAA010059A40100E13F0100FB
:1000E00059A4010059A4010059A4010059A4010018
:1000F00059A4010059A4010059A4010059A4010008
:1001000075FD010089FD01009DFD0100B1FD0100AB
:1001100059A40100614D010059A4010059A4010036
:1001200059A4010059A4010059A4010059A40100D7
:1001300059A4010059A4010059A4010059A40100C7
:1001400049D9010059A4010061A3010059A401008B
:100150002585010059A4010059A4010059A40100FA
:1001600059A40100114101007D18020059A40100A9
:1001700059A4010059A4010059A4010059A4010087
:1001800059A4010059A4010059A4010059A4010077
:1001900059A4010059A40100584B4CF2205210B54B
:1001A0001A804DF628121A8000BF00BF1AF058F9C5
:1001B000534B4FF030621A60524A9A60524ADA60EA
:1001C000524B4FF470021A60514A136813F4807353
:1001D00004D150490B604FF4A85313604E4B1A786A
:1001E000110703D51A7842F008021A704B4B4C499C
:1001F0002A221A704B4A4C4B8B4204D252F8040FFD
:1002000043F8040BF8E7494B494900228B4202D2DC
:1002100043F8042BFAE74749474A002352F82300E2
:1002200041F823000133662BF8D1444B444A802126
:1002300003F8011B9342FBD1424B3E4A1A60424BEA
:100240008A221A70A3F5805324225A70A0221A70B1
:100250009A799207FCD59A79D406FCD43B4A9379D3
:1002600003F00C03082B394BF9D103221A714622F3
:100270005A719A799006FCD5344A9179334B4906E4
:10028000FBD5334A4FF08271116009215160202261
:100290001A709A7902F00C020C2AFAD12D4B2E4AD0
:1002A0001A602E4B2E4A1A6000225A60072243F829
:1002B000042C2C4AC3F80C2D62B615F01FFC154B0C
:1002C0001B68DA0705D5284815F0D2FB274B284ACA
:1002D0001A60284B1B785B0609D5244C244B2268F6
:1002E0009A4204D1204815F0C3FB002323602DF06F
:1002F00015FB1AF0BBF813F0A3FFFEE70E20054034
:1003000030800440823F04000100002B88ED00E0B3
:1003100010D0034014D0034002D0074000E0074053
:10032000701FFF1F30B80300F806FF1F701FFF1F6C
:10033000DC6900200002FF1F0000000000E400E074
:1003400056E400E008ED00E00050064000400640A2
:100350004480044004800440C010050014E000E024
:10036000BFD401000000202000DD68501CE00340E5
:10037000A5C3945A00F00740FFFFFFFFFFFFFFFFF8
:10038000FFFFFFFFFFFFFFFFFFFFFFFFFFFFFFFF7D
:10039000FFFFFFFFFFFFFFFFFFFFFFFFFFFFFFFF6D
:1003A000FFFFFFFFFFFFFFFFFFFFFFFFFFFFFFFF5D
:1003B000FFFFFFFFFFFFFFFFFFFFFFFFFFFFFFFF4D
:1003C000FFFFFFFFFFFFFFFFFFFFFFFFFFFFFFFF3D
:1003D000FFFFFFFFFFFFFFFFFFFFFFFFFFFFFFFF2D
:1003E000FFFFFFFFFFFFFFFFFFFFFFFFFFFFFFFF1D
:1003F000FFFFFFFFFFFFFFFFFFFFFFFFFFFFFFFF0D
:10040000FFFFFFFFFFFFFFFFFFFFFFFFDEF9FFFF23
:1004100010B5054C237833B9044B13B10448AFF33E
:1004200000800123237010BD701FFF1F000000001B
:100430002CB80300084B10B51BB108490848AFF3AE
:1004400000800848036803B910BD074B002BFBD0A0
:10045000BDE81040184700BF00000000741FFF1FD8
:100460002CB80300701FFF1F00000000F0B4164EF0
:10047000164A174F06624262164E174A8762C662D4
:10048000164F174E0263174A4763866305271926DE
:10049000C2637D220780468040F2712740F63546D0
:1004A00082800022C7800681026442648264C26442
:1004B0000265C260026142618261C261426580F888
:1004C0005820F0BC704700BFB5280000C9290000C3
:1004D000D1C0000041D10000C12A0000CD2B000096
:1004E000D92C0000AD2D0000704700BF07291FD890
:1004F000042A1DD8F0B54FF0010E8469C76806695B
:1005000045690EFA01F1CB4304EA030CC469C0F853
:1005100018C000EB82021F401E401D402340C760F0
:1005200006614561C361D3681943D1607046F0BD6F
:1005300000207047072913D8F0B40123C768066963
:100540004469C56982698B40D9430F400E400C4015
:100550000A40C760294006614461F0BC8261C16104
:10056000704700BF2DE9F843444B93F90030002B4E
:1005700006466DDB18F088FB1428D4BF002001204C
:10058000002861D006F10800012150F8043FDFF88F
:10059000F0C0002B354606F1540E01F1FF374FDD58
:1005A000DCF80020446BB5F80090DFF8D480121B13
:1005B0004A4538D99EF80040013404F0070443FA54
:1005C00004F2D2074BD4013404F0070443FA04F2D6
:1005D000D20744D4013404F0070443FA04F2D207EA
:1005E0003DD4013404F0070443FA04F2D20736D4B0
:1005F000013404F0070443FA04F2D2072FD4013483
:1006000004F0070443FA04F2D20728D4013404F0BA
:10061000070443FA04F2D20721D4013404F007049A
:100620002341DB071BD4052910D050F8043F0131CA
:10063000002B05F102050EF1010E01F1FF37AFDCD1
:100640000529F2D1BDE8F883BDE8F883BDE8F88359
:100650001BF090FE3C28D4BF0020012090E704F15D
:10066000080356F823309847F2191037D8F80030AD
:1006700082F8544046F82730BDE8F883E407FF1FAE
:100680006C5F00202DE9F041861EA4B000F1080542
:10069000002455F8043F36F8022F0092C3F3801C63
:1006A000C3F3401EC3F3C000C3F38001C3F3400291
:1006B000C3F3C018C3F3001703F00103CDF81CC047
:1006C000CDF818E00490039102920193094ACDF805
:1006D00020802346642105970BA82DF0F9FF0134F3
:1006E00000210BA804F01EFD052CD2D124B0BDE8DA
:1006F000F08100BFF445030010B5044600F0F4FD9E
:100700000023C4F87431204610BD00BF70B400F55A
:10071000B876002501248662456280F82C40C161CC
:100720000262C0F8743170BC704700BF2DE970439D
:10073000044601F067F9D4F874519DB3224BD4F804
:1007400070611B7883B326F000402CF0F5F91F4B45
:100750008046186820F0004089462CF0EDF916A379
:10076000D3E900232CF03CFA15A3D3E900232CF0A5
:1007700085F802460B46404649462CF0A3FC98B942
:10078000002130462DF03EF830B1314630462CF095
:1007900075FD2860BDE8708306F1004108462CF025
:1007A0006DFD6860BDE870832E60D4F8703103F190
:1007B00000436B60BDE87083333333333333D33F4F
:1007C0009A9999999999B93F5C3300207833002020
:1007D00010B5044600F088FD4FF07C53C4F880311A
:1007E0000023C4F87431C4F87831204610BD00BF2E
:1007F000F0B4C16100F5B8770026012500F5BE749C
:1008000004998762466280F82C500462C0F8743103
:10081000C0F87821C0F88011F0BC70472DE9704312
:10082000D0F878615C497568044628462CF0CCFF06
:10083000002840D0594B1B78002B60D0584BD8680B
:1008400020F000402CF078F94BA3D3E900232CF0E2
:1008500039FC002840F08D803668E36930461D6819
:100860002CF06AF98046284689462CF065F944A3A5
:10087000D3E900232CF002F802460B4640464946D5
:100880002CF020FC002837D1C4F87C5100212046F0
:1008900001F0B8F8D4F8745165B3404BD4F87061E6
:1008A0001B78002B33D12E60D4F8703103F1004354
:1008B0006B60BDE870834FF07A5128462CF084FFBE
:1008C0000028C9D0354B1B78002BC5D1E6694FF005
:1008D0007A5128462CF0D0FC014630682CF0CEFC32
:1008E0000021C4F87C01204601F08CF8D4F8745142
:1008F000002DD2D1BDE87083C4F87C61C6E74FF00B
:100900007A5128462CF060FF0028DFD1A4E726F0BA
:1009100000402CF011F9234B8046186820F000406D
:1009200089462CF009F918A3D3E900232CF058F9D3
:1009300017A3D3E900232BF0A1FF02460B46404644
:1009400049462CF0BFFB0028ADD1002130462CF0E9
:1009500059FF30B1314630462CF090FC2860BDE89C
:10096000708306F1004108462CF088FC6860BDE801
:100970007083E6690849ACE7333333333333C33F1D
:10098000EC51B81E85EBB13F333333333333D33FB0
:100990009A9999999999B93F3333B33E5C330020C2
:1009A000B83300207833002010B5044600F09CFCDA
:1009B0000023C4F87431C4F87C31C4F88031204677
:1009C00010BD00BFF0B4059CC16100F5B87700F51B
:1009D000BC7600250499C0F87C21069A87620662DD
:1009E0004562C0F87441C0F88031C0F88411C0F885
:1009F0008821F0BC704700BF2DE9F843D0F884315E
:100A00001B78044623B13A4B93F90030002B44D0B5
:100A10000021204600F0F6FFD4F87451002775B38A
:100A2000344BD4F870611B7883B326F000402CF06F
:100A300083F8314B8046186820F0004089462CF03E
:100A40007BF827A3D3E900232CF0CAF826A3D3E927
:100A500000232BF013FF02460B46404649462CF07C
:100A600031FB98B9002130462CF0CCFE40B3314622
:100A700030462CF003FC28600FB1BDE8F883A26A71
:100A800000232B606B601360BDE8F8832E60D4F800
:100A9000703103F100436B60EEE7D0F888311B78CA
:100AA000ABB9D0F880311B68C0F8783100212046FE
:100AB00000F0A8FFD4F87451002DDED00127AFE775
:100AC00006F1004108462CF0D9FB6860D4E7D0F865
:100AD0007C311B68C0F87831E8E700BFAFF30080D5
:100AE000333333333333D33F9A9999999999B93F33
:100AF0009D3900205C3300207833002010B5044677
:100B000000F0F2FB0023C4F87431C4F878312046B9
:100B100010BD00BF70B4161D00F5B8750024C0F8F4
:100B2000786105624462C161C0F87421836270BC5F
:100B3000704700BFD0F87421D0F8783170B51568CF
:100B40001E680446314628462CF05CFE00B9354646
:100B5000C4F8705120460021BDE8704000F052BF3B
:100B600010B5044600F0C0FB204610BDF0B4049C54
:100B7000C0F8784100F5BE77002600F5C075076221
:100B800046628562C161C0F87021C0F87431F0BC62
:100B9000704700BFD0F87431D0F87021196870B573
:100BA000044610682CF068FB0021C4F87C01204644
:100BB00000F028FFA26A0C4B16681D6830462946D3
:100BC0002CF020FE50B905F10045294630462CF0A6
:100BD000FBFD18B9D4F878311E6070BDD4F87821C7
:100BE00001231560637070BD7833002010B5044692
:100BF00000F07AFB00220023C4F87021C4F874319D
:100C0000204610BD70B582B000261546009600F54E
:100C1000BA72044600F0EEFEC4F8705102B070BD26
:100C200070B5144B93F90030032B0446D0F87031A3
:100C300008D05B68C0F8743100212046BDE87040E0
:100C400000F0E0BE1E685D68304629462CF0BCFD11
:100C500038B1C4F8746120460021BDE8704000F04E
:100C6000D1BEC4F8745120460021BDE8704000F0A8
:100C7000C9BE00BF7C3300200449C1604FF07E52E2
:100C80000021017082604260704700BF6F12833A9A
:100C90002DE9F041416004460F468260002118466C
:100CA00090461E462CF09AFD78B903460025237025
:100CB000304629462CF092FD50B94FF07E53256105
:100CC0006561A361E361BDE8F0814FF00103EDE7E9
:100CD000414640462CF0D2FAE668314680462CF078
:100CE000CDFA41460546A06130462CF0C5FA2946AA
:100CF0002CF080FC3946E06138462CF0BFFA014602
:100D0000074630462CF0BAFA29462CF073FC3946D7
:100D1000206130462CF0B0FA29462CF06BFC606163
:100D2000BDE8F081F8B503783BB94FF07E5200235F
:100D30008261C26103614361F8BD8168044608466F
:100D40002CF09CFAE668314607462CF097FA3946B3
:100D50000546A06130462CF08FFA29462CF04AFC5B
:100D60006168E06108462CF089FA01460746304682
:100D70002CF084FA29462CF03DFC3946206130469F
:100D80002CF07AFA29462CF035FC6061F8BD00BFE2
:100D90000023036243628362C3627047037870B5C5
:100DA000044613B90020A06270BDC069E16A256ADB
:100DB00000F100402CF06AFB2169064628462CF021
:100DC00065FB014630462CF059FA616A06466069B7
:100DD0002CF05CFB014630462CF050FA6562E06274
:100DE000A06270BD2DE9F0430E4683B0044601A910
:100DF000304600222FF0CCFA019D031C18BF0123BE
:100E0000AE4223700ED303BB4FF07E520023A2618B
:100E1000E26123616361AE4234BF2846002003B023
:100E2000BDE8F083284601A92FF0F4F92F46019D73
:100E30006060AF422E4632D2284601A92FF0EAF96F
:100E40002378019DA060002BDED0A16808462CF01D
:100E500015FAD4F80C80414681462CF00FFA494629
:100E60000746A06140462CF007FA39462CF0C2FB39
:100E70006168E06108462CF001FA0146814640466F
:100E80002CF0FCF939462CF0B5FB49462061404670
:100E90002CF0F2F939462CF0ADFB6061BBE73E4621
:100EA0002378B0E7F0B5044685B080682778164609
:100EB0000D462BF041FECDE9020160682BF03CFEAF
:100EC0003B46CDE90001054A314628462DF000FC9D
:100ED000284605B0BDE8F0402DF092BE1C46030048
:100EE000037803B9704710B50446416804480AF016
:100EF0008FF8A1680248BDE810400AF089B800BF29
:100F000010390020F8B5037804467BB1234BB3F9C0
:100F10000030002B12DD22480AF0D2F86060204831
:100F20000AF0CEF82378A060002B34D14FF07E5227
:100F30000023A261E26123616361F8BD184A816800
:100F4000D3680833D36008462CF098F9E668314638
:100F500007462CF093F939460546A06130462CF03F
:100F60008BF929462CF046FB6168E06108462CF0BD
:100F700085F90146074630462CF080F929462CF0C9
:100F800039FB3946206130462CF076F929462CF0A1
:100F900031FB6061F8BD0146D5E700BF2462002047
:100FA0001039002030B4074A074C82604FF07E555C
:100FB000002201214560C46041700270027430BC9F
:100FC000704700BF6F12833A0024744938B5047823
:100FD000C26041603CB94FF07E520023C2610262A0
:100FE0004361836138BD0446084615462CF046F936
:100FF0000A4B23620146E061A0682CF0FBFA084925
:101000006061A06128462CF0DFFB4FF0010308B1BE
:10101000237438BD0346237438BD00BF000080BF71
:101020000000C6422DE9F04383B002AF0E4647F8F8
:10103000041D04463946304600222FF0A9F9019DCF
:10104000003018BF0120AE42207010D32378002B4F
:1010500032D14FF07E520023E26122626361A361CC
:10106000AE4234BF2846002003B0BDE8F0832846D6
:1010700039462FF0CFF8A846019D6060A845A946E3
:1010800041D2284639462FF0C5F82049E060054690
:101090002CF09AFB48BB019D2E46A94531D228462B
:1010A000394600222FF074F92378019D003018BFD3
:1010B00001206070002BCCD0616808462CF0DEF86F
:1010C000134B23620146E061A0682CF093FA1149AA
:1010D0006061A061E0682CF077FB4FF0010308B17C
:1010E0002374BDE703462374BAE7284600212CF099
:1010F0007FFB019D18B101232E462374CDE72E46B8
:10110000CBE74E46A2E74646A0E700BF002474495D
:10111000000080BF0000C64270B5037C86B0044664
:101120000D461646CBB1C0682BF006FD02460B46B5
:10113000617860680491CDE902232BF0FDFC2378EF
:101140000B4ACDE90001314628462DF0C1FA284668
:1011500006B0BDE870402DF053BD03A3D3E90023D2
:10116000E6E700BFAFF300800000000080842E415E
:101170002846030003783BB94FF07E520023C2613A
:101180000262436183617047416810B504460846B6
:101190002CF074F80A4B23620146E061A0682CF041
:1011A00029FA08496061A061E0682CF00DFB4FF05E
:1011B000010308B1237410BD0346237410BD00BFA2
:1011C000000080BF0000C642002343628362C36206
:1011D00003637047F8B503783BB30446006A216B9C
:1011E000676A00F100402CF051F961690546384604
:1011F0002CF04CF9014628462CF040F8A16A05462F
:10120000A0692CF043F9014628462CF037F8237CDE
:10121000E062054633B1E66831462CF0F3FA38B1A6
:10122000E66235462563A762F8BD0023C362F8BDB8
:1012300006F10046314628462CF0C6FA0028EFD1C8
:10124000F0E700BF037803B9704710B50446416862
:10125000044809F0DDFEE1680248BDE8104009F0ED
:10126000D7BE00BF10390020037810B5044673B113
:10127000194BB3F90030002B11DD184809F020FF9D
:101280006060164809F01CFF2378E0605BB94FF0FE
:101290007E520023E26122626361A36110BD0F4AA6
:1012A000D3680833D360616808462BF0E7FF0C4B26
:1012B00023620146E061A0682CF09CF90949606155
:1012C000A061E0682CF080FA4FF0010308B12374AC
:1012D00010BD0346237410BD246200201039002085
:1012E000000080BF0000C642F8B5044600254FF05C
:1012F0007E56254B254F4FF0010E00220261E3631D
:10130000A366C4F8A030C4F8CC30C4F80431C4F8E3
:10131000343184F861E0062284F8305084F860505B
:1013200084F8705084F8945084F8C45084F8D450F1
:1013300084F8F85084F8285125702575A6636663F3
:101340006666C4F89C60C4F89860C4F8C860C4F8C5
:101350000061C4F8FC60C4F83061C4F82C61A66078
:10136000E766C4F8D070023084F8C5E0A7612DF0BC
:1013700035FD26612573E56125626562A56284F805
:101380002C502046F8BD00BF6F12833A00247449E8
:101390000023036543658365C365C0F88430C0F8E6
:1013A0008830C0F88C30C0F89030C0F8B430C0F845
:1013B000B830C0F8BC30C0F8C030C0F8E830C0F871
:1013C000EC30C0F8F030C0F8F430C0F81831C0F894
:1013D0001C31C0F82031C0F82431C0F84831C0F8C1
:1013E0004C31C0F85031C0F8543170472DE9F04706
:1013F000861C82B0044630460F462DF001FC314673
:101400000246054638462DF099FCB0F100080CBFA5
:101410000126002603D0304602B0BDE8F0873D44E7
:10142000284669460A222EF0B3FF009F003018BFFD
:101430000120BD422070EED2694638462EF0EAFE09
:101440000099A0608F42E6D204F1C400FFF7EAFDE4
:1014500005460028DFD0424601A92EF099FF019FE2
:10146000031C18BF0123BD4284F8F830B846C0F011
:101470009D80002B40F0F4804FF07E520023C4F892
:101480001021C4F81421C4F80831C4F80C31AF425B
:10149000C1D9002FBFD0002201A938462EF078FF15
:1014A000019D031C18BF0123AF4284F82831A846D0
:1014B00067D3002B40F004814FF07E520023C4F824
:1014C0004021C4F84421C4F83831C4F83C31BD424D
:1014D000A1D9002D9FD0002201A928462EF058FF47
:1014E000019F031C18BF0123BD4284F83030B84669
:1014F00034D3002B40F014814FF07E520023A264BD
:10150000E26423646364AF4285D9002F83D03946F7
:1015100004F16000FFF786FD054600283FF47BAF2D
:10152000002269462EF034FF009F003018BF0120D2
:10153000BD4220734FD30022694628462EF028FF73
:10154000009B003018BF0120AB4220757FF663AFCF
:10155000694618462EF05EFEA0615CE7384601A998
:101560002EF058FE019F6063B8453D4680F03481FF
:10157000384601A92EF04EFE94F83030019FA0634A
:10158000B7E7284601A92EF045FE019DC4F82C01BD
:10159000A8452F4680F02881284601A92EF03AFE62
:1015A00094F82831019DC4F8300182E7384601A93A
:1015B0002EF030FE019FC4F8FC00B8453D4680F097
:1015C0000F81384601A92EF025FE94F8F830019FCE
:1015D000C4F800014DE7694638462EF01BFE206135
:1015E000002F3FF418AFDDF80080474580F0F2800F
:1015F000002201A940462EF0CBFE019D031C18BF1E
:101600000123454584F894302F4614D8002B40F030
:10161000B1804FF07E520023C4F8AC20C4F8B02053
:10162000C4F8A430C4F8A83045457FF6F4AE002DC8
:101630003FF4F1AE7FE7284601A92EF0EBFD019DB6
:10164000C4F89800AF42A84680F0D280284601A98D
:101650002EF0E0FD94F89430019DC4F89C00D5E78D
:10166000D4F8001108462BF009FED4F8049149463D
:1016700082462BF003FE51468046C4F810014846CE
:101680002BF0FAFD41462BF0B5FFD4F8FC10C4F85E
:10169000140108462BF0F2FD0146824648462BF025
:1016A000EDFD41462BF0A6FF5146C4F8080148461F
:1016B0002BF0E2FD41462BF09DFFC4F80C01E6E65D
:1016C000D4F8301108462BF0D9FDD4F834914946AE
:1016D00082462BF0D3FD51468046C4F8400148466F
:1016E0002BF0CAFD41462BF085FFD4F82C11C4F82D
:1016F000440108462BF0C2FD0146824648462BF0C5
:10170000BDFD41462BF076FF5146C4F838014846EE
:101710002BF0B2FD41462BF06DFFC4F83C01D6E63C
:10172000A16B08462BF0AAFDD4F83C9049468246AE
:101730002BF0A4FD51468046A06448462BF09CFD4A
:1017400041462BF057FF616BE06408462BF096FD95
:101750000146824648462BF091FD41462BF04AFF58
:101760005146206448462BF087FD41462BF042FF4E
:101770006064C8E6D4F89C1008462BF07FFDD4F8CE
:10178000A090494682462BF079FD51460746C4F8A1
:10179000AC0048462BF070FD39462BF02BFFD4F8F7
:1017A0009810C4F8B00008462BF068FD0146824648
:1017B00048462BF063FD39462BF01CFF5146C4F818
:1017C000A40048462BF058FD39462BF013FFC4F80F
:1017D000A80029E73D46AEE6454694F8303088E655
:1017E000454694F8F83044E6474694F8283160E6D8
:1017F000B84694F8943009E72DE9F043054687B0E0
:10180000806817460E462BF097F92A780092CDE9AA
:101810000201AB1C39463046714A2CF059FF95F84D
:10182000D430044606EB0008C0EB0709002B00F09B
:10183000CB80D5F8D0002BF07FF902460B4695F807
:10184000C510D5F8C8000491CDE902232BF074F936
:1018500095F8C430634ACDE90001494640462CF072
:1018600037FF40462DF0CCF90444D5F8000195F837
:10187000F8902BF061F9CDE90201D5F8FC002BF0CE
:101880005BF906EB04083A1B4B46CDE90001114613
:101890004046554A2CF01CFF40462DF0B1F9044457
:1018A000D5F8300195F828912BF046F9CDE90201E1
:1018B000D5F82C012BF040F906EB04083A1B4B46F7
:1018C000CDE9000111464046474A2CF001FF404651
:1018D0002DF096F90444A86B95F830902BF02CF974
:1018E000CDE90201686B2BF027F906EB04083A1BDF
:1018F0004B46CDE90001114640463B4A2CF0E8FE3C
:1019000040462DF07DF995F87030044406EB04084C
:10191000C4EB0709002B5BD0E86E2BF00DF90246F3
:101920000B4695F86110686E0491CDE902232BF007
:1019300003F995F860302B4ACDE90001494640464D
:101940002CF0C6FE40462DF05BF90444286995F85A
:101950000C802BF0F1F8C4EB070E32194346CDE9A9
:10196000000171461046214A2CF0B2FE0444D5F81D
:101970009C0095F894902BF0DFF8CDE90201D5F8A2
:1019800098002BF0D9F806EB04083A1B4B46CDE93A
:10199000000111464046144A2CF09AFE40462DF0B4
:1019A0002FF90444A8692D7D2BF0C6F83F1B26446F
:1019B000CDE900012B46394630460D4A2CF088FE11
:1019C000204407B0BDE8F08303A3D3E9002336E742
:1019D00001A3D3E90023A4E70000000080842E4186
:1019E00038460300284603001C4603004446030013
:1019F0004C46030010B4019C4462C16102628362E0
:101A000010BC70472DE9F84F0378002B00F03081AF
:101A1000037B0E460446002B40F0C9800023C569B5
:101A2000C0F8583194F83030002B40F032812B68E8
:101A3000C4F85C3194F82831002B00F02381636AEC
:101A4000002B00F0C881D4F820801968D4F82C014C
:101A50002BF01CFDD8F800102BF010FC0746C4F842
:101A6000600194F82C30D4F85C512BB3D8F80010F6
:101A700028462BF001FC2BF05FF8A7A3D3E9002345
:101A8000804689462BF03CFB002840F022814046EE
:101A90004946A3A3D3E900232BF014FB60B12846E9
:101AA0002BF04AF8A0A3D3E900232AF0E7FE2BF09D
:101AB0008FFB0546C4F85C01394628462BF0DCFB59
:101AC000A1682BF0E3FC94F8F830C4F864010546F3
:101AD0008BB3002E40F00B81D4F81C71D4F8241184
:101AE000D4F81401C4F8185100F100402BF0CEFCDA
:101AF000D4F80811804628462BF0C8FC0146404621
:101B00002BF0BCFBD4F80C11804638462BF0BEFC01
:101B1000014640462BF0B2FBC4F81C51C4F820012A
:101B2000C4F82401C4F86401002E00F0EE80804B5C
:101B30009D61D861054694F8C430002B73D063785A
:101B4000C4F8E850002B67D1D4F8E400D4F8F410BE
:101B500000F100402BF09AFCD4F8D8100646284635
:101B60002BF094FC014630462BF088FBD4F8EC10A7
:101B70000646D4F8DC002BF089FC014630462BF0F9
:101B80007DFB94F8D430C4F8F000064653B1D4F885
:101B9000D07039462BF036FE002800F01281C4F8D0
:101BA000F0703E46C4F8F460C4F8EC5036E0C56905
:101BB000016928682BF06AFC94F89430C4F8580145
:101BC0000746002B3FF42EAFD4F8B000D4F8C01075
:101BD000C4F8B47000F100402BF058FCD4F8A41005
:101BE000804638462BF052FC014640462BF046FB1F
:101BF000D4F8B8108046D4F8A8002BF047FC014672
:101C000040462BF03BFBC4F8B870C4F8BC00C4F8E5
:101C1000C000C4F8580105E7D4F8F0602846314602
:101C20002BF02CFB05462846D4F858112BF026FB48
:101C300094F86030C4F868010546002B7AD1C4F8E6
:101C40006C51237DCBB1A669294630462BF0BCFDF3
:101C5000002854D106F10046304629462BF0D2FD2B
:101C6000A26A002853D0012316606370BDE8F88F84
:101C7000836A00221A60BDE8F88FA26A156063705B
:101C8000BDE8F88FD4F82080D8F80070C4F86071EF
:101C9000E7E6E06C2D68E16D256500F100402BF072
:101CA000F5FB216C074628462BF0F0FB0146384631
:101CB0002BF0E4FA616D0746606C2BF0E7FB014600
:101CC00038462BF0DBFA6565A065E065C4F85C0179
:101CD000B0E628462AF030FF13A3D3E900232AF008
:101CE000CBFD2BF075FA0546C4F85C01E4E6104B19
:101CF000D4F81C71D4F824111F615961F0E6A26A6E
:101D0000012316606370BDE8F88F054613E70023D2
:101D100015606370BDE8F88F182D4454FB2109400D
:101D2000182D4454FB2109C0182D4454FB2119409F
:101D3000F0320020D4F88000D4F89010C4F8845019
:101D400000F100402BF0A2FB616F064628462BF005
:101D50009DFB014630462BF091FAD4F888100646D8
:101D6000A06F2BF093FB014630462BF087FA94F8D6
:101D70007030C4F88C0006463BB1E76E39462BF054
:101D800041FDA8B1C4F88C703E4694F86130C4F8A7
:101D90009060C4F888503BB1284631462BF06EFA6B
:101DA0000546C4F86C014CE7C4F86C61354648E759
:101DB00007F10047394630462BF006FD0028E1D1F7
:101DC000E3E707F10047394630462BF0FDFC0028D9
:101DD0007FF4E5AEE6E6002E5FD1D4F84C71D4F87E
:101DE0005491D4F82080D8F80050394628462BF07A
:101DF00043FA2AF0A1FE40A3D3E9002382468B4692
:101E00002BF07EF9002851D038462AF095FE3CA3ED
:101E1000D3E900232AF032FD2BF0DAF9C4F84C01A3
:101E2000074648462AF088FE35A3D3E900232AF066
:101E300025FD2BF0CDF9C4F85401D8F800508146A7
:101E4000D4F84401C4F84851494600F100402BF051
:101E50001DFBD4F83811814628462BF017FB0146AC
:101E600048462BF00BFAD4F83C11814638462BF04B
:101E70000DFB014648462BF001FAC4F84C510746C9
:101E8000C4F85001C4F85401C4F86001002E3FF4B6
:101E9000E8AD1F4B9D60D860E3E51D4BD4F84C7155
:101EA000D4F854911F60C3F804909AE750465946FD
:101EB00015A3D3E900232BF005F90028C0D038463C
:101EC0002AF03AFE0EA3D3E900232AF0D5FC2BF02A
:101ED0007FF9C4F84C01074648462AF02DFE08A3B6
:101EE000D3E900232AF0C8FC2BF072F9C4F854019E
:101EF0008146D8F80050A3E7182D4454FB2109402F
:101F0000182D4454FB211940182D4454FB2109C0BD
:101F1000F032002090F8C430017810B504460BB1BF
:101F200041F0020194F8F8300BB141F0040194F84B
:101F300028310BB141F0080194F830300BB141F079
:101F4000100194F860300BB141F02001237B0BB1FC
:101F500041F0400194F894300BB141F08001237DB1
:101F60000BB141F4807194F861300BB141F4007110
:101F7000364809F085F8237803B910BDA1683348C5
:101F800009F046F894F8C430002B53D194F8F83097
:101F9000002B44D194F82831002B35D194F83030FF
:101FA0004BBB94F86030EBB9237B43B9237D002B06
:101FB000E3D0A1692548BDE8104009F029B821699E
:101FC000224809F025F894F89430002BEED0D4F88C
:101FD00098101E4809F01CF8D4F89C101B4809F012
:101FE00017F8E3E7616E194809F012F8E16E174837
:101FF00009F00EF8D8E7616B144809F009F8A16BF5
:10200000124809F005F8CCE7D4F82C110F4808F075
:10201000FFFFD4F830110D4808F0FAFFBEE7D4F8FE
:10202000FC100A4808F0F4FFD4F80011074808F043
:10203000EFFFAFE7D4F8C810044808F0E9FFD4F880
:10204000D010024808F0E4FFA0E700BF10390020DC
:102050002DE9F041B64D0446284609F055F8C0F385
:10206000001300F00107C0F34006C0F38001C0F385
:10207000C00284F83030C0F34023277084F8C46075
:10208000C0F34017C0F3801684F8F81084F82821B4
:10209000C0F3C011C0F3002284F86130C30784F894
:1020A0006070267384F89410227501D4BDE8F08125
:1020B000284609F005F894F8C430A060A3B19D4B00
:1020C000B3F90030002B40F3CD81284608F0F8FF2B
:1020D000C4F8C800284608F0F3FF94F8C430C4F8E8
:1020E000D000002B40F0C1814FF07E520023C4F895
:1020F000E020C4F8E420C4F8D830C4F8DC3094F808
:10210000F830A3B18B4BB3F90030002B40F377814B
:10211000874808F0D5FFC4F8FC00854808F0D0FFD8
:1021200094F8F830C4F80001002B40F0C0814FF063
:102130007E520023C4F81021C4F81421C4F80831D9
:10214000C4F80C3194F82831A3B17A4BB3F90030BC
:10215000002B40F32181764808F0B2FFC4F82C012F
:10216000734808F0ADFF94F82831C4F83001002B13
:1021700040F09F814FF07E520023C4F84021C4F804
:102180004421C4F83831C4F83C3194F8303093B16C
:10219000684BB3F90030002B40F3D280644808F05C
:1021A0008FFF6063624808F08BFF94F83030A063C3
:1021B000002B40F080814FF07E520023A264E26445
:1021C0002364636494F8603083B15A4BB3F90030F0
:1021D000002B56DD564808F073FF6066544808F03F
:1021E0006FFF94F86030E066002B4DD14FF07E52C7
:1021F0000023E267C4F880206367A367237B63B38F
:102200004C4EB6F90030002B58DD494F384608F0E7
:1022100057FF94F894302061A3B1B6F90030002B39
:10222000D8BFFB6851DD384608F04AFFC4F8980073
:10223000384608F045FF94F89430C4F89C00002B11
:1022400040F03B814FF07E520023C4F8AC20C4F82C
:10225000B020C4F8A430C4F8A830237D002B3FF48C
:1022600025AF344BB3F90030002B04DCEB680433AA
:10227000EB60BDE8F0812E4808F022FFA061BDE8C8
:10228000F081EB680833EB60616E08462AF0F6FFD8
:10229000294BC4F880300146E067A06E2BF0AAF904
:1022A00026496067A067E06E2BF08EFA4FF00103BD
:1022B000002800F0FA8084F870309FE7EB6894F80B
:1022C00094200433EB60002ABCD00833D4F89C106F
:1022D000EB6008462AF0D2FFD4F8A0703946804659
:1022E0002AF0CCFF41460646C4F8AC0038462AF036
:1022F000C3FF31462BF07EF9D4F89810C4F8B00033
:1023000008462AF0BBFF0146804638462AF0B6FF51
:1023100031462BF06FF94146C4F8A40038462AF044
:10232000ABFF31462BF066F9C4F8A80095E700BF73
:102330001039002024620020000080BF0000C64247
:10234000EB68A16B0833EB6008462AF097FFE76B58
:10235000394680462AF092FF41460646A064384638
:102360002AF08AFF31462BF045F9616BE06408469C
:102370002AF084FF0146804638462AF07FFF314626
:102380002BF038F94146206438462AF075FF314673
:102390002BF030F9606415E7EB68D4F8301108339E
:1023A000EB6008462AF06AFFD4F83471394680465B
:1023B0002AF064FF41460646C4F8400138462AF038
:1023C0005BFF31462BF016F9D4F82C11C4F8440108
:1023D00008462AF053FF0146804638462AF04EFF51
:1023E00031462BF007F94146C4F8380138462AF047
:1023F00043FF31462BF0FEF8C4F83C01C5E6EB681C
:10240000D4F800110833EB6008462AF037FFD4F8FF
:102410000471394680462AF031FF41460646C4F829
:10242000100138462AF028FF31462BF0E3F8D4F8A3
:10243000FC10C4F8140108462AF020FF014680462B
:1024400038462AF01BFF31462BF0D4F84146C4F839
:10245000080138462AF010FF31462BF0CBF8C4F8BB
:102460000C016FE6EB680833EB60D4F8C81008463F
:102470002AF004FF124BC4F8E4300146C4F8E0002F
:10248000D4F8CC002BF0B6F80E49C4F8D800C4F844
:10249000DC00D4F8D0002BF097F94FF0010310B115
:1024A00084F8D4302BE60346FAE7034603E70146F7
:1024B000AAE7014675E7014646E7014609E700BF7E
:1024C000000080BF0000C64238B5841C20460D467F
:1024D0002CF096FB2946024620462CF02FFCB0FA41
:1024E00080F0400938BD00BF70B5C3698AB00446AA
:1024F0000D46016A1868D4F86021D4F85C31009068
:102500000968D4F858610191184611460292049363
:1025100003962AF0B1FEA1682AF0B8FFD4F8F010B3
:10252000D4F86821D4F86461A36A059007910892F1
:1025300006961B68099328462822694604F008FB82
:102540000AB070BDFFFFFFFF2DE9F0410378232B98
:1025500082B0044620D02CF053FB274A127805465F
:102560005AB1264A92F90010052938D0CBB2042B73
:1025700008D9012002B0BDE8F0810146204619F0DB
:1025800025FEEEE7002000902B4622461C4808F06E
:102590000FFB02B0BDE8F081184DFF2395F90070E4
:1025A0002B702CF02DFB144A16788046A6B90146F4
:1025B000204619F00BFE95F90010052915D0CBB275
:1025C000042B09D80096434622460D4808F0F0FA3D
:1025D0002F7002B0BDE8F08101202F70F9E720468E
:1025E000294612F083F90120C4E72046414612F043
:1025F0007DF901202F70ECE78C1FFF1FE407FF1F00
:102600000834002008B50A22002104482DF0C0FE3D
:1026100000EB80004000013080B208BD644603003A
:10262000F0B54C4A4C4B14684C4918684C4BB1F906
:102630000E601B884B4A4C4DD5B004EB84041096B9
:10264000640000EB8000B1F90CE0B1F90A7012945B
:102650004000B1F908601190B1F90640CDF838E0BA
:10266000B1F904000C97B1F902700A96B2F90E6044
:102670000894B2F90C400690B2F90A000497B2F936
:1026800008700F96B2F906600D94B2F904400B90F1
:10269000B2F902000997079605940390B1F900007A
:1026A000B2F900102A8800920290019115A82F4AD1
:1026B000FA212CF00DF89DF85430232B1ED015A8CC
:1026C0002CF09EFA2A4A127804464AB1294A92F915
:1026D0000010052932D0CBB2042B06D955B0F0BD7D
:1026E000014615A819F072FDF0E70020009023467E
:1026F00015AA214808F05CFA55B0F0BD1D4CFF2327
:1027000015A894F9006023702CF07AFA184A15780D
:10271000074685B9014615A819F058FD94F900102F
:10272000052910D0CBB2042B05D800953B4615AA3D
:10273000114808F03DFA267055B0F0BD214615A8A5
:1027400012F0D4F8CAE7394615A812F0CFF826706F
:10275000F2E700BFEC600020F0600020240AFF1FB9
:10276000885F0020140AFF1F905F00208846030046
:102770008C1FFF1FE407FF1F083400202DE9F041E4
:10278000434A444B5788D3F80480434915881E6850
:102790000C88CAB0C8EB07002AF024FE3F4900F1BC
:1027A00000402AF073FE2AF0C7F9CDE90801A81B02
:1027B000CDF81C8006972AF015FE38492AF066FEEF
:1027C0002AF0BAF9CDE904012046039602952AF0D1
:1027D00009FE33492AF05AFE2AF0AEF92346CDE924
:1027E0000001304A0BA8FA212BF072FF9DF82C3023
:1027F000232B20D00BA82CF003FA2B4A1278044686
:1028000052B12A4A92F90010052935D0CBB2042BD7
:1028100007D94AB0BDE8F08101460BA819F0D6FCF3
:10282000EFE70020009023460BAA214808F0C0F9EA
:102830004AB0BDE8F0811D4CFF230BA894F900605D
:1028400023702CF0DDF9184A1578074685B9014642
:102850000BA819F0BBFC94F90010052911D0CBB2DC
:10286000042B05D800953B460BAA114808F0A0F9A7
:1028700026704AB0BDE8F08121460BA812F036F868
:10288000C7E739460BA812F031F82670F1E700BF10
:102890000C3F0020043F0020CA5F0020E62A3136AA
:1028A000B4A1013BD44603008C1FFF1FE407FF1FA8
:1028B00008340020F0B53A4B3A4C9B683A493B4A01
:1028C0003B480D780088B2F97C1092F87E2093B0D6
:1028D000A4FB03439B0907930492059106952AF0F4
:1028E00081FD3449344C2AF0D1FD2AF025F9CDE997
:1028F000020160682AF020F9304ACDE9000109A8F8
:1029000023212BF0E5FE9DF82430232B1DD009A8B0
:102910002CF076F9227805464AB1294A92F900103E
:10292000052931D0CBB2042B06D913B0F0BD014636
:1029300009A819F04BFCF0E7002000902B4609AAEB
:10294000204808F035F913B0F0BD1D4DFF2309A84C
:1029500095F900602B702CF053F92478074684B960
:10296000014609A819F032FC95F90010052910D08C
:10297000CBB2042B05D800943B4609AA114808F0B5
:1029800017F92E7013B0F0BD294609A811F0AEFF5B
:10299000CBE7394609A811F0A9FF2E70F2E700BF76
:1029A000806000208988888854330020D05F002010
:1029B000CA5F0020B4A1013B8C1FFF1FFC4603002F
:1029C000E407FF1F08340020F0B5374C9BB0E068E7
:1029D0002AF0B2F8CDE90801344B18682AF0ACF8B7
:1029E000CDE90601A0682AF0A7F8CDE904016068E6
:1029F0002AF0A2F8CDE9020120682AF09DF82C4ABD
:102A0000CDE900010AA840212BF062FE9DF8283094
:102A1000232B1ED00AA82CF0F3F8264A127804467D
:102A20004AB1254A92F90010052932D0CBB2042BC5
:102A300006D91BB0F0BD01460AA819F0C7FBF0E7A4
:102A40000020009023460AAA1C4808F0B1F81BB0E9
:102A5000F0BD194CFF230AA894F9006023702CF0F4
:102A6000CFF8144A1578074685B901460AA819F027
:102A7000ADFB94F90010052910D0CBB2042B05D87A
:102A800000953B460AAA0D4808F092F826701BB044
:102A9000F0BD21460AA811F029FFCAE739460AA865
:102AA00011F024FF2670F2E7B8330020C83300206D
:102AB000184703008C1FFF1FE407FF1F0834002086
:102AC000F0B53C4B3C4D1C68B5F9040097B02AF0BA
:102AD00089FC21462AF0DAFC2AF02EF8CDE904011F
:102AE000B5F902002AF07EFC21462AF0CFFC2AF03C
:102AF00023F8CDE90201B5F900002AF073FC214664
:102B00002AF0C4FC2AF018F82C4ACDE9000106A8E6
:102B100040212BF0DDFD9DF81830232B1ED006A898
:102B20002CF06EF8264A127804464AB1254A92F9EA
:102B30000010052932D0CBB2042B06D917B0F0BD56
:102B4000014606A819F042FBF0E70020009023465A
:102B500006AA1D4808F02CF817B0F0BD194CFF2349
:102B600006A894F9006023702CF04AF8144A1578EE
:102B7000074685B9014606A819F028FB94F900100C
:102B8000052910D0CBB2042B05D800953B4606AAE8
:102B90000D4808F00DF8267017B0F0BD214606A8C4
:102BA00011F0A4FECAE7394606A811F09FFE267070
:102BB000F2E700BFA49B0300443900203047030024
:102BC0008C1FFF1FE407FF1F08340020F0B53C4BAB
:102BD0003C4D1C68B5F9040097B02AF003FC21466F
:102BE0002AF054FC29F0A8FFCDE90401B5F9020050
:102BF0002AF0F8FB21462AF049FC29F09DFFCDE997
:102C00000201B5F900002AF0EDFB21462AF03EFC56
:102C100029F092FF2C4ACDE9000106A840212BF0B3
:102C200057FD9DF81830232B1ED006A82BF0E8FF87
:102C3000264A127804464AB1254A92F9001005291D
:102C400032D0CBB2042B06D917B0F0BD014606A88E
:102C500019F0BCFAF0E700200090234606AA1D48B0
:102C600007F0A6FF17B0F0BD194CFF2306A894F992
:102C7000006023702BF0C4FF144A1578074685B90D
:102C8000014606A819F0A2FA94F90010052910D0FF
:102C9000CBB2042B05D800953B4606AA0D4807F099
:102CA00087FF267017B0F0BD214606A811F01EFE62
:102CB000CAE7394606A811F019FE2670F2E700BFF0
:102CC000A89B03004C390020404703008C1FFF1FC6
:102CD000E407FF1F08340020F0B52F4C95B0606862
:102CE00029F02AFFCDE90201206829F025FF2B4AAF
:102CF000CDE9000104A840212BF0EAFC9DF810303A
:102D0000232B1ED004A82BF07BFF254A1278044603
:102D10004AB1244A92F90010052932D0CBB2042BD3
:102D200006D915B0F0BD014604A819F04FFAF0E736
:102D300000200090234604AA1B4807F039FF15B075
:102D4000F0BD184CFF2304A894F9006023702BF009
:102D500057FF134A1578074685B9014604A819F0AC
:102D600035FA94F90010052910D0CBB2042B05D800
:102D700000953B4604AA0C4807F01AFF267015B0D0
:102D8000F0BD214604A811F0B1FDCAE7394604A8F8
:102D900011F0ACFD2670F2E7103F00205047030011
:102DA0008C1FFF1FE407FF1F08340020F0B52F4CD5
:102DB00095B0606829F0C0FECDE90201206829F0D5
:102DC000BBFE2B4ACDE9000104A840212BF080FC7A
:102DD0009DF81030232B1ED004A82BF011FF254A9C
:102DE000127804464AB1244A92F90010052932D0DB
:102DF000CBB2042B06D915B0F0BD014604A819F0DA
:102E0000E5F9F0E700200090234604AA1B4807F0EC
:102E1000CFFE15B0F0BD184CFF2304A894F9006054
:102E200023702BF0EDFE134A1578074685B901464D
:102E300004A819F0CBF994F90010052910D0CBB2F1
:102E4000042B05D800953B4604AA0C4807F0B0FEB9
:102E5000267015B0F0BD214604A811F047FDCAE761
:102E6000394604A811F042FD2670F2E7F033002045
:102E70005C4703008C1FFF1FE407FF1F083400207E
:102E80002DE9F043ADF5337D0022431C8DF804217C
:102E9000112B45D8DFE813F04D00120029014F0136
:102EA000A601BC01C901D601EA0110021B022F02D2
:102EB0002F02640264029A02F2024800B44BB54D3C
:102EC0001C68B5F904002AF08DFA21462AF0DEFAD2
:102ED00029F032FECDE90401B5F902002AF082FAA8
:102EE00021462AF0D3FA29F027FECDE90201B5F9EF
:102EF00000002AF077FA21462AF0C8FA29F01CFED1
:102F0000CDE90001A44A402131A82BF0E1FB31A812
:102F1000FFF71AFB9DF8043113B141A8FFF714FB2A
:102F20000DF5337DBDE8F0830AF052FA9DF80431C7
:102F3000F2E79A49964A9A4B088816681C68994D98
:102F4000DFF89882984FDFF898922AF04BFA974969
:102F50002AF09CFA29F0F0FDCDE92E01944BE868A7
:102F60001B7A2C9329F0E8FDCDE92A01914B1868D2
:102F700029F0E2FDCDE92801A86829F0DDFDCDE9C1
:102F80002601686829F0D8FDCDE9240128688A4D1A
:102F900029F0D2FDCDE92201D8F8040029F0CCFDBA
:102FA000CDE92001D8F80000DFF8288229F0C4FD1F
:102FB000CDE91E01786829F0BFFDCDE91C01386814
:102FC00029F0BAFD6B68B9F802707C4ACDE91A01A4
:102FD000F81A0CCA199318922AF004FA7849794F12
:102FE00000F100402AF052FA29F0A6FDB9F80020BD
:102FF0002B68684DCDE91601D01A2AF0F3F9704913
:103000002AF044FA29F098FDCDE914016E4BD8F866
:1030100008001B7812932AF0E5F921462AF036FAC7
:1030200029F08AFDCDE91001D8F804002AF0DAF978
:1030300021462AF02BFA29F07FFDCDE90E01D8F8C0
:1030400000002AF0CFF921462AF020FA29F074FD79
:10305000CDE90C01B7F904002AF0C4F921462AF0A1
:1030600015FA29F069FDCDE90A01B7F902002AF045
:10307000B9F921462AF00AFA29F05EFDCDE90801E6
:10308000B7F900002AF0AEF921462AF0FFF929F03D
:1030900053FDCDE90601B5F904002AF0A3F9314644
:1030A0002AF0F4F929F048FDCDE90401B5F9020050
:1030B0002AF098F931462AF0E9F929F03DFDCDE9E9
:1030C0000201B5F900002AF08DF931462AF0DEF947
:1030D00029F032FD3D4ACDE900014FF4E17141A8EC
:1030E0002BF0F6FA9DF8043116E72D4B354D1C6890
:1030F000B5F904002AF076F921462AF0C7F929F03B
:103100001BFDCDE90401B5F902002AF06BF9214657
:103110002AF0BCF929F010FDCDE90201B5F9000053
:103120002AF060F921462AF0B1F929F005FD284A74
:10313000CDE90001E7E61A4A264D234B14681B78B7
:10314000A86806932AF04EF921462AF09FF929F043
:10315000F3FCCDE9040168682AF044F921462AF01D
:1031600095F929F0E9FCCDE9020128682AF03AF93D
:1031700021462AF08BF929F0DFFC174ACDE900013E
:103180004FF4E17141A82BF0A3FA9DF80431C3E696
:10319000A49B03004439002030470300CA5F00208D
:1031A000A89B0300B8330020F0330020B4A1013BFA
:1031B0008C1FFF1FC8330020043F0020D83B002095
:1031C000E62A31364C390020523900206847030086
:1031D0004047030054390020E4470300CC3300206B
:1031E0000C3F0020864C606829F0A6FCCDE9020166
:1031F000206829F0A1FCCDE90001824A402131A8D4
:103200002BF066FA31A8FFF79FF99DF8043183E6A9
:103210007D497E4A0B684968009141A84FF4E171ED
:103220002BF056FA9DF8043176E6794C606829F067
:1032300083FCCDE90201206829F07EFC754ACDE9C6
:103240000001DBE7744C606829F076FCCDE90201EF
:10325000206829F071FC714ACDE900014FF4E17159
:1032600041A82BF035FA9DF8043155E66C4CE06826
:1032700029F062FCCDE908016A4B186829F05CFC72
:10328000CDE90601A06829F057FCCDE9040160688A
:1032900029F052FCCDE90201206829F04DFC624A78
:1032A000CDE90001402131A82BF012FA31A8FFF737
:1032B0004BF99DF804312FE65C4B5D4A1B7A4FF4C5
:1032C000E17141A82BF004FA9DF8043124E6594B32
:1032D00018882AF087F858492AF0D8F829F02CFCE9
:1032E000564ACDE900014FF4E17141A82BF0F0F905
:1032F0009DF8043110E6A0F10A05514B01933022EC
:103300002B4600924FF4E1714E4A4F4F41A82BF0EB
:10331000DFF941A82BF074FC044605EB4500C00121
:10332000051F41ABBC303D441E19074455F8043F0E
:10333000464AC4F5E17130462BF0CAF930462BF00D
:103340005FFC41AB0444BD4203EB0406EED1C4F57F
:10335000E17130463E4A2BF0BBF99DF80431DBE5C4
:10336000A0F10C0530222B4600924FF4E171394A4E
:10337000394F41A82BF0ACF941A82BF041FC044691
:1033800005EB45008001051F41ABBC303D441E19D3
:10339000074455F8040F2AF021F829F0CDFB00224C
:1033A0002E4B29F047FDC4F5E173CDE900012C4A0D
:1033B000194630462BF08CF930462BF021FC41ABFE
:1033C0000444BD4203EB0406E3D1C0E7254A264C82
:1033D000127826482649274B0078097824681B78FC
:1033E000029082F00102019200910394224A4FF46C
:1033F000E17141A82BF06CF99DF804318CE500BF18
:10340000103F002050470300D83B0020F84703003E
:10341000F03300205C470300CC3300200C4803004D
:10342000B8330020C8330020184703008C1FFF1F4B
:1034300018480300CA5F0020B4A1013B24480300E0
:10344000000E270730480300EC3B00203C480300F7
:103450001450030044480300403A002000408F40CD
:103460004C480300E83B00205C0AFF1F580AFF1F7E
:10347000640AFF1FF83E0020504803002B4A2C49E5
:1034800092F900202B4B08681C921D682A4C29F0E9
:1034900053FBCDE91A01294B186829F04DFB284A46
:1034A000284B12681B681792CDE91801E069169342
:1034B00029F042FBCDE91401A06929F03DFBCDE9DB
:1034C0001201606929F038FBCDE91001206929F06B
:1034D00033FBCDE90E01E06829F02EFBCDE90C01AC
:1034E000A06829F029FBCDE90A01606829F024FBD6
:1034F000CDE90801206829F01FFB134A134B12780D
:103500000492CDE90601186829F016FB104B114A08
:103510001B680093CDE902012B464FF4E17141A8ED
:103520002BF0D6F89DF80431F6E400BF9C3900205A
:10353000283A00203C3A0020B03900202C3A0020E4
:10354000303A0020343A0020FD390020F8390020BC
:10355000383A002064480300F0B50A229FB00021E9
:1035600033482CF015FF00EB80004000314B013058
:103570001B78029380B229F031FF29F0DDFA2E4B3F
:10358000002229F057FC2D4ACDE9000105A864214D
:103590002BF09EF89DF81430232B1ED005A82BF09D
:1035A0002FFB274A127804464AB1264A92F90010A6
:1035B000052932D0CBB2042B06D91FB0F0BD01468D
:1035C00005A818F003FEF0E700200090234605AAA6
:1035D0001D4807F0EDFA1FB0F0BD1A4CFF2305A8F7
:1035E00094F9006023702BF00BFB154A1578074601
:1035F00085B9014605A818F0E9FD94F900100529E0
:1036000010D0CBB2042B05D800953B4605AA0E4836
:1036100007F0CEFA26701FB0F0BD214605A811F0C4
:1036200065F9CAE7394605A811F060F92670F2E796
:1036300064460300C85F00200000244020490300C6
:103640008C1FFF1FE407FF1F083400202DE9F047FF
:103650000422ADF5066D0D469C4904462BF06EFB29
:1036600070B99B4A9B4C9C49907200230120507278
:1036700023600B60994B1D700DF5066DBDE8F0875A
:103680000422974920462BF059FB38B923791F2B88
:1036900000F2A380934B01221A70EBE78C4FBB7AA8
:1036A000002BE9D163788D4E3D2B357000F0A08062
:1036B0002378782B00F0B68003228B4920462BF02C
:1036C0003DFB002859D02146884804F017FC00280B
:1036D000D2D1204609F0D0FF0028CDD1204608F0F5
:1036E0007DFD80460028C7D194F80090B9F13C0FC9
:1036F00000F01A81B9F1750F00F0C884B9F1760FA6
:1037000000F0498109F0DF02482A00F063810322BA
:10371000774920462BF012FB8246002800F00585F1
:103720000322744920462BF009FB8246002800F052
:1037300016850322704920462BF000FB002800F07C
:10374000418503226D4920462BF0F8FA8246002875
:1037500040F0198520463D212BF008F8002800F0A4
:10376000AA85514601300A222CF012FE20EAE071AF
:103770000122634807F0DEFE7EE703340A2220467A
:103780000EA90E9418942CF003FE0EA905460E986F
:103790002CF040FD18A906460E982CF03BFD189C15
:1037A0000E9A944207467FF667AF18A920460A2270
:1037B0000E942CF0EDFD0E9A189B003018BF0120DE
:1037C0009A4208BF0020291C00903B46324618BF91
:1037D0000121464803F054FF4EE701460A22601DCE
:1037E0002CF0D6FD3F4B003018BF0120187041E788
:1037F00023784D3B262B5CD8DFE803F04A5B5B5B0C
:103800005B5B5B5B5B5B5B5B5B5B5B5B5B5B5B5B08
:103810003E5B5B5B5B5B5B5B375B5B5B5B5B5B5B39
:103820005B5B1F00611C314804F0A0FB00287FF4A3
:1038300023AF3448FEF788FE1EE70EA90A22A01C1B
:103840002CF0A6FD304B186005F02EF90E98037889
:103850001F2B7FF611AF0EA90A222CF099FD2B4BDE
:10386000003018BF0120187006E7A01C0A220021B2
:103870002CF08EFDF872FFE62548FEF765FE08F095
:10388000BBF8D0B12348FEF75FFE07F013FFF3E665
:10389000164DB5F97C10A1B9A01C0A222CF078FDB8
:1038A0001D4BA8671B689842FFF6E6AE013BAB676D
:1038B000E2E61A48FEF748FEDEE61948FEF744FE47
:1038C000E3E71848FEF740FED6E600BF34490300A0
:1038D0008C1FFF1F6033002064330020E407FF1FAC
:1038E0003C4903001C620020084A0300D05F00200E
:1038F0009C5C0300B45C0300B85C0300BC5C030088
:1039000010390020E8490300EC07FF1FF807FF1FEC
:103910006C490300984903004C6B0300D049030035
:10392000B449030044490300651C28460522214987
:103930002BF004FA002800F0078403221E492846D1
:103940002BF0FCF9002800F0048405221B492846CE
:103950002BF0F4F9002800F02F84032218492846A0
:103960002BF0ECF90646002800F05F84154903228D
:1039700028462BF0E3F90146002800F08A84284607
:10398000052211492BF0DAF9002840F07D840F4818
:103990000FF0B6FF70E66378312B00F00884322B0D
:1039A00000F0FC83302B00F0FE830948FEF7CCFDCD
:1039B00062E600BF0C4A0300144A0300184A0300E1
:1039C000204A0300904A0300944A0300F860002054
:1039D000E04A0300A44918A82AF016FB18A8FEF72D
:1039E000B3FDA24BA24A9B6FDC2118A82AF070FEFF
:1039F00018A8FEF7A9FD97F90B309E4ADC2118A8FC
:103A00002AF066FE18A8FEF79FFD9B4A9B4B127892
:103A10001B680092DC219A4A18A82AF059FE18A8BF
:103A2000FEF792FD9749984A8C794B7848790D7941
:103A30000494CC78039088788DE831008C7B487BA7
:103A40000D7B0C94CC7A0B90887A0A954E7A099467
:103A50000D7ACC790890DC2118A807960695059474
:103A60002AF036FE18A8FEF76FFD884B1B781BB1B5
:103A7000874B1B7883F001038649874A09681268DF
:103A80000192009302914623844A854C854D864ECF
:103A9000DC2118A82AF01CFE18A8FEF755FDBB7AF9
:103AA000824A834FDC2118A82AF012FE18A8FEF7DC
:103AB0004BFD8049804AB1F90030B1F90210009104
:103AC00018A8DC212AF004FE18A8FEF73DFD606866
:103AD00029F032F8CDE90201206829F02DF8774A63
:103AE000CDE90001DC2118A82AF0F2FD18A8FEF7A4
:103AF0002BFD7349734A91F9003091F9011000913F
:103B000018A8DC212AF0E4FD18A8FEF71DFD6822A4
:103B10006D4918A82AF078FA18A8FEF715FD6C224E
:103B20006A4918A82AF070FA18A8FEF70DFD8C2231
:103B3000674918A82AF068FA18A8FEF705FDA3221D
:103B4000644918A82AF060FA18A8FEF7FDFC4E2276
:103B5000614918A82AF058FA18A8FEF7F5FCBE2209
:103B60005E4918A82AF050FA18A8FEF7EDFC5C4848
:103B7000FEF7EAFC5B48FEF7E7FC5B48FEF7E4FC77
:103B80007F225A4918A82AF03FFA18A8FEF7DCFC51
:103B90000FCD18AC0FC40FCD0FC40FCD0FC42B68C1
:103BA000237018A8FEF7D0FC0FCF18AD0FC50FCFAC
:103BB0000FC597E80F0007C525F8023B4C4F1B0CBB
:103BC0002B7018A8FEF7C0FC0FCF18AD0FC50FCF94
:103BD0000FC50FCF0FC525463B6825F8023B1B0CD0
:103BE0002B7018A8FEF7B0FC5B22424918A82AF0F7
:103BF0000BFA18A8FEF7A8FC8F223F4918A82AF054
:103C000003FA18A8FEF7A0FC3C493D4A0B880F892F
:103C1000CD88888849880091039702950190DC211E
:103C200018A8384F2AF054FD18A8FEF78DFC0FCFC6
:103C300018AD0FC50FCF0FC597E8070003C525F8CE
:103C4000022B120C2A70304D18A8FEF77DFC0FCD08
:103C500018AF0FC70FCD0FC795E80F0087E80F000B
:103C600018A8FEF771FC51E0004B0300D05F002064
:103C7000484B03009C4B0300F807FF1FEC07FF1F96
:103C8000004C0300E820FF1F4C4C03007D21FF1F68
:103C90007C21FF1F7421FF1F7821FF1FE04C0300D0
:103CA000CC3B0020B8520300F86000202C4D0300EC
:103CB000EC520300C03B0020604D0300984D030010
:103CC000C43B0020D84D0300144E03007C4E03007B
:103CD000E84E0300744F03001850030068500300BF
:103CE0002851030078510300E051030038520300CB
:103CF0001C53030050530300AC530300906000209A
:103D00003C540300AC540300D8540300DFF868E3CC
:103D1000BEE80F0018AD0FC5BEE80F000FC59EE846
:103D2000070003C518A82A80FEF70EFCDFF84CE355
:103D3000BEE80F000DF16008A8E80F00BEE80F0014
:103D4000A8E80F009EE80300B846386008F8041F92
:103D500018A8FEF7F9FBDFF828C3BCE80F000DF147
:103D6000600EAEE80F00BCE80F00AEE80F009CE864
:103D70000700AEE803002A7018A8FEF7E5FBA34A87
:103D8000A34B10681D7828F0D7FECDE90201A14BA6
:103D9000186828F0D1FE2B46CDE900019E4A9F4DC0
:103DA000DC2118A82AF094FC18A8FEF7CDFB3046B9
:103DB0000FF014FE96F818310093994A0346DC215F
:103DC00018A82AF085FC18A8FEF7BEFB55229549D5
:103DD00018A82AF019F918A8FEF7B6FB0FCD18AEEF
:103DE0000FC60FCD0FC695E80F008F4D8F4E87E899
:103DF0000F0018A8FEF7A8FB0FCD0DF16009A9E888
:103E00000F000FCDA9E80F0095E80F00A9E8070003
:103E100018A8A9F80030FEF797FB0FCE18AD0FC514
:103E20000FCE0FC50FCE0FC596E8070003C5804E15
:103E30002A7018A8FEF788FB0FCE0DF1600EAEE8D1
:103E40000F000FCEAEE80F000FCEAEE80F0096E8E1
:103E5000030084E8030018A8FEF776FB754E764948
:103E60005C2218A82AF0D0F818A8FEF76DFB0FCE38
:103E700018AC0FC40FCE0FC496E80F0007C4A9F802
:103E8000003018A8FEF760FB6C4E6D494B2218A855
:103E90002AF0BAF818A8FEF757FB0FCE18AC0FC4DB
:103EA0000FCE0FC40FCE0FC496E8070003C42C46F4
:103EB000130C2A8018A804F8023FFEF745FB614B5B
:103EC000614A1B78DC2118A82AF002FC18A8FEF72A
:103ED0003BFB41225D4918A82AF096F818A8FEF786
:103EE00033FB5B4B5B4A1B78DC2118A82AF0F0FB04
:103EF00018A8FEF729FBDFF88CE1BEE80F0018AE2A
:103F00000FC6BEE80F000FC6BEE80F000FC69EE842
:103F10000F0007C626F8023B18A81B0C3370FEF7EB
:103F200013FB4D494D4AB1F90E00B1F908C00B78A9
:103F3000B1F906E0B1F90A90B1F904600790069072
:103F4000887849780091CDF810C0CDF80CE0029641
:103F50000190DC21CDF8149018A8414E2AF0B8FB4E
:103F600018A8FEF7F1FA0FCE0DF1600EAEE80F00C3
:103F70000FCEAEE80F0096E80300386088F8001016
:103F800018A8FEF7E1FADFF800E1BEE80F0018AE6E
:103F90000FC6BEE80F000FC6BEE80F000FC69EE8B2
:103FA0000700130C03C62A8018A82370FEF7CCFA6A
:103FB00092222C492C4C18A82AF026F818A8FEF7B3
:103FC000C3FA5C22294918A82AF01EF818A8FEF79F
:103FD000BBFA6522264918A82AF016F818A8FEF799
:103FE000B3FA4D22234918A82AF00EF818A8FEF7B4
:103FF000ABFA0FCC18AD0FC50FCC0FC523683B80B3
:1040000018A8FEF7A1FAFFF737BB00BF6433002002
:10401000543300206033002088550300AC56030061
:10402000F855030054560300DC5603000C570300F8
:1040300048570300DC57030080570300585803001B
:104040000C5803001C62002094580300D45803004D
:104050008439002018590300945F00209059030010
:104060006C5A0300D05A0300785C0300645B0300C1
:10407000C05B0300285C03000855030034550300AF
:104080005C55030050590300945A0300601C0A2237
:1040900000212CF07DF943B21F2B00F24681DFE8AE
:1040A00003F0403A34302C2824201C16161616161D
:1040B00016101010101010101010101010101010FA
:1040C00010100F3840B2FEF7DBFEFFF7D5BA083804
:1040D00040B209F0B7F9FFF7CFBAFEF74FFBFFF791
:1040E000CBBAFEF79DFAFFF7C7BA07F0F9FBFFF767
:1040F000C3BAFEF7DFFBFFF7BFBA04F00BFFFFF711
:10410000BBBA03F06DFAFFF7B7BA01219B4803F081
:1041100003FBFFF7B1BA4FF0FF30FEF7B1FEFFF738
:10412000ABBAFFF719FAFFF7A7BA954C2060E06029
:10413000206116F0EBFC9348FEF706FA5146204644
:1041400006F0F4FFFFF798BA8F480FF04DFCFFF729
:1041500093BA211D8C480FF0B5FAFFF78DBA884C41
:1041600018AB204601212360C4F80CA0C4F810A0AD
:1041700006F0DCFF52465146204606F0D7FEC4F852
:1041800000A0FFF779BA0522804920462AF0D6FD23
:10419000F0B9012378727B73FFF76EBA7C4805F0A3
:1041A000BBFBFFF769BA07F093FFFFF765BA7848E2
:1041B00005F070FBFFF760BAA11D73480FF016FD04
:1041C000FFF75ABA01466E4807F064F8FFF754BA91
:1041D0000522704920462AF0B1FD002800F0A18098
:1041E00003226D4920462AF0A9FD002866D1E51C6E
:1041F000284666492AF094FF60B1604BB3F97C30E1
:104200000BB900237B600121002001F01DF8634BF6
:1042100001221A70624928462AF082FF002800F025
:10422000898001F07DF8FFF727BA04340EAD2046EF
:1042300029460A222CF0ACF82B689C4207B202D027
:104240001E1C18BF012618460A2229462CF0A0F889
:104250002B689C4202B222D00BB306B3002F1EDDA6
:10426000002A1CDD394648480FF0B8FA00287FF4D0
:1042700003AA18A84B4B4C4A64212AF029FA18A823
:10428000FEF762F9FFF7F8B94848FEF75DF9FFF766
:10429000F3B93D480FF00CFB3873FFF7EDB900920E
:1042A0003B4618A8424A64212AF012FA18A8FEF7E1
:1042B0004BF9FFF7E1B90121FFF75ABA04223D4952
:1042C00020462AF03BFD002800F0888004223A496D
:1042D00020462AF033FD00283DD0042237492046ED
:1042E0002AF02CFD002800F05B810422344920468E
:1042F0002AF024FD002800F01181032231492046D4
:104300002AF01CFD002800F05E8105222E4920467F
:104310002AF014FD002840F0DE802C4B1870FFF7C7
:10432000ABB904F0E1FCFFF7A7B92948FEF70CF997
:10433000FFF7A2B9284627492AF0F2FE002800F02C
:10434000AD80254B1B68002B00F0A38001237B72FE
:10435000BB72FFF791B9043418A920460A221894B9
:104360002CF016F818A904460A2208682CF010F858
:10437000C1B2E0B20AF04AFAFFF77EB9D05F00207E
:1043800010390020A05C0300F8600020C05C03002E
:1043900008340020C85C0300D05C0300F807FF1F4E
:1043A00034490300345F0020244A03009C4A030080
:1043B000484A0300485D0300505D0300585D030058
:1043C000605D0300845D0300885D030052390020B6
:1043D000C04A0300904A03007821FF1F04340EA94D
:1043E00020460A220E942BF0D3FFBB4C031C18BFAF
:1043F00001230EA90E98E3730A2223742BF0C8FF41
:10440000031C18BF01230EA90A220E9863742BF017
:10441000BFFF031C18BF01230EA90A220E98A37424
:104420002BF0B6FF031C18BF01230EA90A220E9819
:10443000E3742BF0ADFF031C18BF01230EA90A2261
:104440000E9823752BF0A4FF031C18BF01230EA99F
:104450000A220E9863752BF09BFF031C0EA918BF50
:1044600001230A220E98A3752BF092FF0EA9031CBC
:1044700018BF01230A220868E3752BF089FF031C8B
:1044800018BF01234FF47A70237602F015FBFFF773
:10449000F3B89248FEF758F8FFF7EEB8E578A5F1C3
:1044A0002B035D4204F104045D4126460134337858
:1044B000013B1F2BF9D90322894930462AF00EFC13
:1044C000002840F02B81844B5D704FF47A7002F02D
:1044D000F3FAFFF7D1B80322824920462AF02EFCD6
:1044E000002800F08580B9F13A0F77D004227E4988
:1044F00020462AF023FC002840F0B8802379202BA6
:1045000066D03D2B64D0794B93F8B124002A3FF458
:10451000B3A80A2283F8F823FFF7AEB804340EA933
:1045200020460E942BF076FE0EA9044608682BF068
:1045300071FE6F4B1C605860054628F0FDFACDE90E
:104540000201204628F0F8FA6A4ACDE90001642108
:1045500018A82AF0BDF818A8FDF7F6FF24F00040CF
:1045600028F0EAFA5AA3D3E9002328F0C9FD80B95C
:1045700025F0004028F0E0FA55A3D3E9002328F005
:10458000BFFD4FF0010300B9034683F001035FFA5A
:1045900083F8594B83F87E800AF0D8F9FFF76CB89E
:1045A000043418A920460A2218942BF0F1FE18A909
:1045B00004460A2208682BF0EBFE014620460AF06A
:1045C0009BF8FFF759B8201D04F09AFBFFF754B889
:1045D000611D464805F0CCF9FFF74EB820462AF099
:1045E0000FFB231813F8012D1F2A2BD80138F9E7E8
:1045F0000EA829F059FE18AC3969404A0E9B00916B
:10460000019264213E4A029420462AF061F8204635
:10461000FDF79AFF3B4B00933B4A3C4B64212046FD
:104620002AF056F82046FDF78FFF0123009320461D
:10463000A423374A64212AF04BF82046FDF784FF73
:10464000FFF71AB823180D210A22661C00252154F1
:104650005A709D7030462AF0D3FA0146304614F065
:10466000B1FA224B83F83954FFF706B804222949DE
:1046700020462AF063FB00286FD12379202B01D03C
:104680003D2B54D1631D0EAD184629460A222B60DE
:104690002BF07EFE2E683378202B074602D02C2B81
:1046A00040F016810136002300933246394601233B
:1046B0002E600E4806F07CFA00943B4618A8164A75
:1046C00064212AF005F818A8FDF73EFFFEF7D4BFD5
:1046D0007B14AE47E17A843FE820FF1FD45C0300DF
:1046E000E85C0300905D0300185E030008340020BE
:1046F000CC3B0020685D0300D05F0020901FFF1FAF
:10470000945D0300EF320020C05D03008021FF1F95
:10471000E45D0300205E0300285E03000322AB4932
:1047200030462AF0DBFA68B9A94B9D70CDE62346E6
:1047300018A8A84A642129F0CBFF18A8FDF704FFA8
:10474000FEF79ABF0422A44930462AF0C7FA00288F
:1047500040F0CA809E4BDD70B7E605229F49204697
:104760002AF0ECFA002800F0E08003229C49204661
:104770002AF0E4FA002800F09180032299492046AB
:104780002AF0DCFA002879D00622974920462AF040
:10479000D5FA00283CD00322944920462AF0CEFACC
:1047A000C8B93D21201D29F0E1FF189070B118A96A
:1047B00001300A222BF0ECFDE378632B00F0A4809B
:1047C000752B00F09A80612B00F0E7808848FDF798
:1047D000BBFEFEF751BF0322864920462AF0AEFAFF
:1047E00088BB0422844920462AF0A8FA20B3204638
:1047F000042282492AF0A2FAC8B9814B1B786BB116
:104800008048FDF7A1FE8048FDF79EFEFEF734BF0D
:10481000A11D7E4808F0AAFAFEF72EBF0AF0EAFBB7
:104820000028F0D07A48FDF78FFEFEF725BF042060
:10483000FEF726FBFEF720BF0AF0A4FB7548FDF744
:1048400083FEFEF719BF0622734920462AF076FA46
:10485000804600287DD1201D3D2129F087FF0028BA
:1048600075D0414601300A222BF092FD003018BF6E
:104870000120002370703B70FEF7FEBE033420461B
:1048800018A90A2218942BF083FD189B9C4215D07E
:1048900021465E4808F034FAFEF7EEBE03342046A7
:1048A00018A90A2218942BF073FD189B9C420AD079
:1048B0002146564808F088F9FEF7DEBE534808F056
:1048C00063F9FEF7D9BE514808F024F9FEF7D4BECB
:1048D0000346009418A8514A642129F0F9FE18A84B
:1048E000FDF732FEFEF7C8BE04224D4930462AF0DD
:1048F000F5F980B9364B5D71E7E50030494B18BFDB
:1049000001201870FEF7B8BEB0FA80F03C4B4009A9
:104910001870FEF7B1BE0422434930462AF0DEF992
:10492000002847D12A4B1D71CFE5053418A90A226A
:10493000204618942BF02CFDC0B2003018BF012087
:1049400007F052FE3948FDF7FFFDFEF795BE012046
:104950008CE70322364920462AF0F0F9002800F0BF
:1049600093800322334920462AF0E8F900286BD0CF
:1049700020462AF045F9012803467EF67DAE2E4AF0
:1049800001946421009518A829F0A2FE18A8FDF74B
:10499000DBFD17F0FFFBFEF76FBE0028274B14BFAF
:1049A000012200221A703EF467AE254B00221A70D5
:1049B000FEF762BE0422234930462AF08FF9002810
:1049C00040F09080024B9D717FE500BFEC5C0300DE
:1049D000E820FF1F805E0300F05C03009C5E030084
:1049E000B05E0300B45E0300B85E0300C05E030067
:1049F000C45E0300105D03001C5F0300745F0300CE
:104A0000E83B00207C5F0300DC5F0300945F002034
:104A1000C05F0300245F030024600300505E0300B6
:104A2000F85C0300580AFF1F005D0300A45E03004A
:104A30002C6003003060030070600300640AFF1FF5
:104A4000F83E0020085D03000334204618A90A221E
:104A50000E9418942BF09CFC189C0E9B0A22054681
:104A60000EA920461C1B18BF01242BF091FC0E9AA6
:104A7000189B9A423FD0002C3DD004283BD84E4B87
:104A800023F81050FEF7F8BD0334204618A90A2277
:104A90000E9418942BF07CFC189C0E9B0EA91D1BE9
:104AA0004FF00A020746204618BF01252BF070FC84
:104AB0000E9B189C0A22064618A918469C420CBF59
:104AC000002405F001042BF063FC0E9A189B9A4217
:104AD00014D09CB1BFB1C1B2F2B23748FBF706FDAA
:104AE000FEF7CABD0322354930462AF0F7F880B9EF
:104AF000334BDD71E9E43348FDF726FD2E48FBF723
:104B0000C1FDFEF7B9BDC1B22B48FBF713FDFEF79F
:104B1000B3BD04222C4930462AF0E0F810B9284BE6
:104B20001D72D2E40222294930462AF0D7F810B982
:104B3000234B5D72C9E40422254930462AF0CEF8A1
:104B400010B91F4B9D72C0E40422224930462AF05E
:104B5000C5F810B91A4BDD72B7E404221E4930467D
:104B60002AF0BCF810B9164B1D73AEE403221B49A2
:104B700030462AF0B3F810B9114B5D73A5E4022258
:104B8000174930462AF0AAF810B90D4B9D739CE4E2
:104B90000522144930462AF0A1F810B9084B5D7679
:104BA00093E43046052210492AF098F800287FF453
:104BB0008CAC034B9D7688E490600020105D030070
:104BC000E820FF1F34600300145D03001C5D030038
:104BD000205D0300DC710300285D0300305D0300ED
:104BE000345D0300385D0300405D030030B51F28CD
:104BF00091B005463C4C09D96369E218C62B107682
:104C000013DC0133E21800216361117694F90B3053
:104C1000354A012B14D00A2D22D00D2D20D06369E6
:104C2000314CC62B13DC11B030BD002363612376F9
:104C300094F90B300122012B84F8E0202A4AEAD1B2
:104C40001378002BE7D1284617F088FBE3E72344CD
:104C5000002526481D76FDF777FC656111B030BD53
:104C600094F8E000204D68BB6B69002B22DD2B44DB
:104C7000052218761E4905F118002AF05FF830B1B8
:104C800006221C4905F118002AF058F828BB1A4BD7
:104C9000586828F0A3FB194928F0ACFC27F04CFF1A
:104CA000174ACDE9000103A8322129F011FD03A81C
:104CB000FDF74AFC94F90B30012B0AD00023636105
:104CC00011B030BD00230F4885F8E030FDF73CFC03
:104CD000F4E70D48FDF738FCF0E705F118004FF058
:104CE000FF31FEF7B3FCE5E78C1FFF1FE460030014
:104CF000B4600300BC60030080600020C0E1E44CAD
:104D0000C460030098600300DC60030030B51F2816
:104D100091B00546394C06D9B4F9E230E218622B5D
:104D200082F8E4000FDD94F90B30344A012B17D0E0
:104D30000A2DB4F9E23025D00D2D23D0622B2F4C53
:104D400015DC11B030BD01331BB2E218A4F8E2301B
:104D500094F90B300021012B82F8E410274AE7D1A7
:104D60001378002BE4D1284617F0F8FAE0E7234443
:104D70000025234883F8E450FDF7E6FBA4F8E25051
:104D800011B030BD002B1D4D24DD2B44002083F8D5
:104D9000E40005221B4905F1E40029F0CFFF30B102
:104DA0000622194905F1E40029F0C8FFD8B9174BCC
:104DB000586828F013FB164928F01CFC27F0BCFEAD
:104DC000144ACDE9000103A8322129F081FC03A88F
:104DD000FDF7BAFB94F90B30012B0AD00023A4F89D
:104DE000E23011B030BD05F1E4000521FEF72EFCE4
:104DF000F0E70948FDF7A8FBF0E700BF8C1FFF1F95
:104E0000E4600300B4600300BC6003008060002025
:104E1000C0E1E44CC4600300DC6003002DE9F04312
:104E20009FB017F055F9142817DC0028064640F00B
:104E30000681864E337803BB854B5B78EBB1854B9F
:104E4000D6F848111A68521AB2F57A6F15D91B684C
:104E5000C6F84831012333700FE01426002417F000
:104E6000FBF8051E04F10104A5F10A0304DB752B10
:104E700040F2C580B442F2DB744E7748734C05F0C3
:104E800089FA337B002B40F0B48013F00BFF0A2823
:104E9000A8BF0A20002805466F4F6ADD0024B846E7
:104EA00052E0C1B26C4805F0DFFA002849D0337BEC
:104EB000002B43D1D8F8FC93B9F1000F33D0052271
:104EC0006649484629F03AFF28B106226449484617
:104ED00029F034FF38BB97F900345E4A6149126803
:104EE000486803F5827347F8232028F077FA5E4973
:104EF00028F080FB27F020FE5C4ACDE90001462126
:104F000005A829F0E5FB05A829F07AFE4FF0000E70
:104F100097F90014CDF800E0034605AA4E4805F0C5
:104F200047FED7F8FC9399F80030202B06D92B2B9D
:104F300076D097F900144846FEF788FB464805F0FE
:104F40002FFE0134A54214D013F0B8FE002810DB68
:104F5000431E7E2BF5D897F8B034002BA1D03378C0
:104F6000C1B2002B9ED10846039117F0F7F90399BF
:104F700098E7DFF8D8800A2505E0C4B22046FFF79D
:104F8000C5FE013D14D00FF02FFD002800F1FF33C6
:104F90000EDB7E2BF5D896F84C31002BEDD098F82F
:104FA0000030C4B2002BE9D1204617F0D7F9E5E76D
:104FB00097F83A34284C013B012B02D91FB0BDE8C9
:104FC000F083244AD4F8F41313685B1AB3F57A7F9C
:104FD000F4D91368264A0094642105A829F078FBC7
:104FE00005A8FDF7B1FA042384F83A341FB0BDE8F0
:104FF000F08301211F480EF05BFC207345E7134E40
:1050000033781BB10A2D1DD00D2D1BD0114B1B6801
:10501000C6F84831E8B200233370FFF7E7FD2CE70C
:1050200097F900340093144A4B46462105A829F00D
:105030004FFB05A8FDF788FAD7F8FC9379E73FF70F
:105040000DAF19E70D48FDF77FFADFE78C1FFF1F53
:10505000E407FF1F6C5F002008340020B4600300E9
:10506000BC60030080600020C0E1E44CC460030029
:1050700038610300F8600020146103000061030040
:105080002DE9F04F83B00C46834629F0B9FD214B42
:105090001B788246EBB994B31F4F0028D7F80080E5
:1050A00017DD5E46054640F2DC5917F063F9041E31
:1050B000304609DDAC42A8BF2C462D1B214617F017
:1050C00085F8002D264404DD3B68C8EB03034B45FF
:1050D000EBD9124B93F90010052915D0CBB2042B54
:1050E00003D9012003B0BDE8F08F002000905346A3
:1050F0005A460B4805F05CFD03B0BDE8F08F014651
:10510000584617F063F8E4E7584651460FF0EEFBB7
:105110000120E7E78C1FFF1F6C5F0020E407FF1FE3
:105120000834002038B50378232B03D0BDE838407D
:10513000FFF7A6BF044CFF2394F900502370FFF73C
:105140009FFF257038BD00BFE407FF1F2DE9F04F1A
:10515000384D394E394F9DB000241AE003A829F08C
:105160004FFD3A7880461AB9014603A817F02EF889
:1051700096F90010052952D0CBB2042B06D8002294
:105180000092434603AA2E4805F012FD01347F2CFD
:1051900042D0E1B227481BF0CDFB002125481AF090
:1051A00011FE4FF47A736A7B296900932148012329
:1051B0001BF0E4FC234601900094224A642103A8DA
:1051C00029F086FA9DF80C30232BC7D1FF2303A8C2
:1051D00096F90090337029F013FD97F80080DFF8FE
:1051E00058B08246B8F1000F11D1014603A816F05D
:1051F000EDFF9BF90010052916D0CBB2042B06D881
:10520000CDF80080534603AA0D4805F0D1FC0134C7
:105210007F2C86F80090BCD11DB0BDE8F08F4146D0
:1052200003A80FF063FBB1E7514603A80FF05EFB44
:10523000EDE700BFE0660020E407FF1F8C1FFF1FA3
:10524000083400206861030000282DE9F0410C4675
:1052500003DD2D4B186003F027FC2C4F94B901247B
:10526000FE212B4887F89540284D1EF025FE08B9F1
:10527000BDE8F08185F8964000212648BDE8F04160
:10528000FFF750BF3A46DFF880C0DFF890E0012119
:10529000002302F801194FF47A71CCF808109846EF
:1052A000CCF804301D4607F11C0007F1550107F149
:1052B0001A0612F8014F84B10B780580493BDBB226
:1052C000222B98BF1EF9038011F8013C88BF4FF0D4
:1052D000010808FB03531D46A046B24200F102003C
:1052E00001F10201E5D1B8F1000F0AD100220A4B09
:1052F000C7F8902093FBF5F587F89420C7F88C50F9
:10530000ADE7CCF80430F1E7EC07FF1FE820FF1F02
:105310001C670020D8610300701101008C6103003C
:10532000024B002283F89520704700BFE820FF1F42
:105330002DE9F04F054D2B7B95B01BB1044C94F833
:1053400094303BB115B0BDE8F08F00BFEC07FF1FF4
:10535000E820FF1FD4F89030D4F88C20934280F2DC
:10536000D381686804F1980600FB03F7F119B1F1E5
:10537000005F0AD20144B1F1005F06D901339A42BD
:10538000C4F8903040F3C0810744A28BBA48BB49AF
:1053900094F801E000683A440133C4F890300023E7
:1053A000B05084F8943001F19802BEF1000F40F043
:1053B0006E82A378B14A002B40F04382E378AF4A73
:1053C000002B40F035822379AC4A002B40F0288234
:1053D00063790BB3AA4B93F90000002800F0978281
:1053E000DFF8D892A749D9F8000028F04FF828F044
:1053F00029FAA4490FFA80F8D9F8040028F046F8F1
:1054000028F020FA00B214AAE38C22F82C8DADF813
:1054100026003B441068F050E379984A002B40F096
:105420002E82A379954A002B40F01C82237A934A5E
:10543000002B40F00F82637A904A002B40F0C68127
:10544000A37A8E4A002B40F0AE81E37A002B00F065
:10545000CE808D4A8D4B5088B3F802E0B3F80080BF
:10546000B2F800C09188CEEB000E9888ADF826E027
:10547000C8EB0C0C081AADF824C0D188B3F806C0EC
:10548000B3F808E0ADF82800CCEB0101B2F808C091
:105490005889ADF82A10CEEB0C0EB2F80AC09989E3
:1054A000DB89ADF82CE0C0EB0C00B2F80CC0D2895F
:1054B000DFF80CE2ADF82E00D31AC1EB0C017448F2
:1054C000DFF800C2734ADCF80080ADF83230DEF855
:1054D00000C0714BD0F800E01068704AADF8301091
:1054E000CDF83480CDF838C0CDF83CE0109012688B
:1054F0001B78119200228DF84820002B00F0EB81E0
:105500003D20019023200790332006901320059022
:105510002F2004903F20012303900F208DF8483066
:105520003122212311214FF02D0E4FF01D094FF094
:105530000D0C4FF01F0A02904FF0030BDFF888812B
:1055400098F80080B8F1000F0AD005A90EC9039899
:10555000DDF810E0DDF808C08DF848B00190D146C4
:10556000DFF8688198F80080B8F1000F04D0019A44
:105570008DF848C0734649464948007810B18DF807
:1055800048101346474A12780AB18DF84830464809
:105590004649474A474BB4F832E000780978126828
:1055A0001B688DF84A00BE448DF84B108DF84C20D6
:1055B0008DF84D30B6440DF124080DF14409C44670
:1055C000BCE80F00CC45CEF80000CEF80410CEF8B1
:1055D0000820CEF80C30E0460EF1100EEFD1B8E8FE
:1055E0000700CEF80000CEF80410CEF80820237B88
:1055F000224A002B40F09180637B204A002B40F030
:105600000981A37B1D4A002B40F0FA80E37B002B2D
:1056100040F0F080237C002B40F0E680637C002B80
:1056200040F0AD80A37C002B40F0A380E37C002BF6
:1056300040F09980237D002B40F08F80637D002B0C
:1056400040F08580A37D002B7BD1E37D002B72D1C0
:10565000237E002B69D1637E084A002B40F09580A1
:10566000A37E064C002B3FF46DAE134FD7F880306D
:105670000993D7E922012BE0901FFF1FE820FF1FAD
:10568000C43B002000007A44140AFF1F240AFF1FB5
:10569000143A0020F8390020DC09FF1F183A0020D6
:1056A000A1390020A03900209D3900209C3900201C
:1056B0003C3A0020383A0020D05F0020CC3B00204C
:1056C000A4390020A8390020AC390020FC39002082
:1056D00027F07EFD0A90D7E9240127F079FDD7F85D
:1056E0009830D5F804E0D4F890700B900C9309AD85
:1056F0000FCDB4F850407D1E0EFB054435193051D6
:105700006960AA60EB601DE60122002384F8942002
:1057100084F8953015B0BDE8F08F938E7D4A3B44F8
:1057200003CAF218F050516066E77B4B1821586AA3
:10573000FCF7DAFE8FE7784B1721186AFCF7D4FEE6
:1057400086E7754B1621D869FCF7CEFE7DE7724BD4
:105750001521D868FCF7C8FE74E76F4B142118694F
:10576000FCF7C2FE6AE76C4B13219869FCF7BCFE9C
:1057700060E7694B12215869FCF7B6FE56E7664BA5
:1057800011219868FCF7B0FE4CE7D2F890306868B9
:10579000B2F84E206149013B00FB03203044502207
:1057A00028F032FC5CE7DFF8A4E1B2F830C0BEE8D4
:1057B0000F000CEB070E06EB0E0C46F80E00CCF8B3
:1057C0000410CCF80820CCF80C303EE6544855497B
:1057D000D38D096802680A92099109AA03CA3B4459
:1057E000F218F05051602BE64B4B10215868FCF733
:1057F0007BFE13E7484B0F211868FCF775FE09E79D
:10580000494BB2F838E007CB7744F319F0515960AF
:105810009A60FBE6D38E454A3B441288F252F0E68A
:10582000938C434A3B4403CAF218F0505160CFE5D1
:10583000538C404A3B44F11810689288F0508A809B
:10584000C1E5138C3C4A3B44F11810689288F05033
:105850008A80B3E5938D394A3B4403CAF218F0506D
:105860005160E8E53649138D91E805000A920990E8
:1058700009AA03CA3B44F218F0505160D6E5538D93
:10588000304A3B4403CAF218F0505160C9E5DFF8D2
:10589000C090DFF8C080DFF880C02B48B1F81EE070
:1058A00099F80010BCF87CC000788DF82610D8F864
:1058B0002011ADF824C08DF827000A910DF1240CB9
:1058C000BE44BCE80300C8F8203102EB0E0342F8E6
:1058D0000E0059606DE53C20019022200790322097
:1058E0000690122005902E2004903E2003900E205A
:1058F0002023302210214FF02C0E4FF01C094FF0C6
:105900000C0C4FF01E0A02904FF0020B16E6804678
:1059100079E500BF88390020D05F0020F0320020F8
:105920008C600020F833002080600020CA5F0020D7
:105930003C6000204C39002044390020F033002026
:10594000DC20FF1FD83B002074330020B833002038
:1059500069330020F86000202DE9F041002984B06F
:1059600014461D4600680BDB27F0E6F8124ACDE925
:1059700000012946204628F0ABFE04B0BDE8F081C6
:105980000E4B0F4AD3F8D872B2F900600D4A791C59
:10599000C3F8D81252F8268027F0CEF80197CDE947
:1059A00002014346009629462046074A28F090FE09
:1059B00004B0BDE8F08100BF186203006830002029
:1059C000246200203C08FF1FF0610300F0B50029AD
:1059D00089B0044611DBB0F9006090F9035090F9EA
:1059E000024041680291104619468DE83000334666
:1059F000164A28F06DFE09B0F0BD154E1549D6F8CF
:105A0000D852896FD0F804C0039105F1030EAF1C82
:105A1000CDF808E0019719466B1C94F903E0009358
:105A200094F902701046B4F9002004922B46CDF888
:105A30001CC0CDF818E00597074A28F049FED6F8B3
:105A4000D8320433C6F8D83209B0F0BD88620300FA
:105A500068300020D05F0020206203002DE9F04371
:105A6000002904461F4689B01646324BB0F904009F
:105A700027DB1D6827F0B6FC294627F007FD27F035
:105A80005BF8CDE90401B4F9020027F0ABFC29462C
:105A900027F0FCFC27F050F8CDE90201B4F9000032
:105AA00027F0A0FC294627F0F1FC27F045F8224A10
:105AB000CDE900013946304628F00AFE09B0BDE8BC
:105AC000F083D3F800901D4D27F08CFC494627F059
:105AD000DDFC27F031F8CDE90601B4F90200D5F874
