:1000000000800020BD010000A19D0100599D01005C
:10001000599D0100599D0100599D0100599D010004
:10002000599D0100599D0100599D0100A19D0100AC
:10003000A19D0100599D0100A1BC010011C2010058
:10004000A19D0100A19D0100A19D0100A19D0100B4
:10005000A19D0100A19D0100A19D0100A19D0100A4
:10006000A19D0100A19D0100A19D0100A19D010094
:10007000A19D0100A19D0100A19D0100A19D010084
:10008000A19D0100A19D0100A19D0100A19D010074
:10009000A19D0100A19D0100A19D0100A19D010064
:1000A0000DC40100BDCA0100A19D0100A19D010078
:1000B000A19D0100A19D0100A19D0100A19D010044
:1000C000A19D0100A19D0100A19D0100A19D010034
:1000D000A19D0100A19D0100A19D0100A19D010024
:1000E000A19D0100A19D0100A19D0100A19D010014
:1000F000A19D0100E9850100A19D010001A401006D
:10010000A19D01003D4A0100A19D0100A19D0100AA
:10011000A19D0100A19D0100A19D0100A19D0100E3
:10012000A19D0100BD3F0100E1400100A19D010032
:10013000A19D0100A19D0100A19D0100A19D0100C3
:10014000A19D0100A19D0100A19D0100A19D0100B3
:1001500025B7010039B701004DB7010061B70100B3
:10016000A19D01001D4D0100A19D0100A19D010067
:10017000A19D0100A19D0100A19D0100A19D010083
:10018000A19D0100A19D0100A19D0100A19D010073
:10019000A19D0100A19D0100A19D0100A19D010063
:1001A000A19D0100A19D0100A19D0100A19D010053
:1001B000A19D0100A19D0100E1BA0100564B4CF246
:1001C000205210B51A804DF628121A8000BF00BFC9
:1001D00019F0EAFD514B4FF010621A60504A9A60D4
:1001E000504ADA60504A136813F4807304D14F49BF
:1001F0000B604FF4A85313604D4B1A78110703D5C9
:100200001A7842F008021A704A4B4B492A221A7097
:100210004A4A4B4B8B4204D252F8040F43F8040B6A
:10022000F8E7484B484900228B4202D243F8042B9E
:10023000FAE74649464A002352F8230041F82300D2
:1002400001336F2BF8D1434B434A802103F8011B44
:100250009342FBD1414B3D4A1A60414B8A221A70AE
:10026000A3F5805324225A70A0221A709A7992071B
:10027000FCD59A79D406FCD43A4A937903F00C035E
:10028000082B384BF9D103221A7140225A719A79FE
:100290009006FCD5334A9179324B4906FBD5324A58
:1002A000324911600221516020221A709A7902F0BD
:1002B0000C020C2AFAD12E4B2E4A1A602E4B2F4AD2
:1002C0001A6000225A60072243F8042C2C4AC3F813
:1002D0000C2D62B615F028FC144B1B68DA0705D507
:1002E000284815F0DBFB284B284A1A60284B1B785E
:1002F0005B0609D5244C254B22689A4204D121483B
:1003000015F0CCFB0023236024F0DCFD19F052FD36
:1003100013F078FFFEE700BF0E2005403080044058
:10032000823F04000100002B10D0034014D0034092
:1003300002D0074000E00740589BFF1F50230300F6
:100340002087FF1F589BFF1F3C4500200082FF1F96
:100350000000000000E400E05FE400E008ED00E0E1
:100360000050064000400640448004400000030165
:1003700004800440C010050014E000E0FF76010096
:100380000000202000DD68501CE00340A5C3945A03
:1003900000F00740FFFFFFFFFFFFFFFFFFFFFFFF32
:1003A000FFFFFFFFFFFFFFFFFFFFFFFFFFFFFFFF5D
:1003B000FFFFFFFFFFFFFFFFFFFFFFFFFFFFFFFF4D
:1003C000FFFFFFFFFFFFFFFFFFFFFFFFFFFFFFFF3D
:1003D000FFFFFFFFFFFFFFFFFFFFFFFFFFFFFFFF2D
:1003E000FFFFFFFFFFFFFFFFFFFFFFFFFFFFFFFF1D
:1003F000FFFFFFFFFFFFFFFFFFFFFFFFFFFFFFFF0D
:10040000FFFFFFFFFFFFFFFFFFFFFFFFDEF9FFFF23
:1004100010B5054C237833B9044B13B10448AFF33E
:1004200000800123237010BD589BFF1F00000000B7
:100430004C230300084B10B51BB108490848AFF323
:1004400000800848036803B910BD074B002BFBD0A0
:10045000BDE81040184700BF000000005C9BFF1F74
:100460004C230300589BFF1F00000000F0B4164E01
:10047000164A174F06624262164E174A8762C662D4
:10048000164F174E0263174A4763866305271926DE
:10049000C2637D220780468040F2712740F63546D0
:1004A00082800022C7800681026442648264C26442
:1004B0000265C260026142618261C261426580F888
:1004C0005820F0BC704700BFE50F0000F910000095
:1004D00089C00000F1C50000F1110000FD1200000C
:1004E00009140000DD140000704700BF07291FD861
:1004F000042A1DD8F0B54FF0010E8469C76806695B
:1005000045690EFA01F1CB4304EA030CC469C0F853
:1005100018C000EB82021F401E401D402340C760F0
:1005200006614561C361D3681943D1607046F0BD6F
:1005300000207047072913D8F0B40123C768066963
:100540004469C56982698B40D9430F400E400C4015
:100550000A40C760294006614461F0BC8261C16104
:10056000704700BF2DE9F843444B93F90030002B4E
:1005700006466DDB17F0BEFF1428D4BF0020012013
:10058000002861D006F10800012150F8043FDFF88F
:10059000F0C0002B354606F1540E01F1FF374FDD58
:1005A000DCF80020446BB5F80090DFF8D480121B13
:1005B0004A4538D99EF80040013404F0070443FA54
:1005C00004F2D2074BD4013404F0070443FA04F2D6
:1005D000D20744D4013404F0070443FA04F2D207EA
:1005E0003DD4013404F0070443FA04F2D20736D4B0
:1005F000013404F0070443FA04F2D2072FD4013483
:1006000004F0070443FA04F2D20728D4013404F0BA
:10061000070443FA04F2D20721D4013404F007049A
:100620002341DB071BD4052910D050F8043F0131CA
:10063000002B05F102050EF1010E01F1FF37AFDCD1
:100640000529F2D1BDE8F883BDE8F883BDE8F88359
:100650001AF008FD3C28D4BF0020012090E704F1E7
:10066000080356F823309847F2191037D8F80030AD
:1006700082F8544046F82730BDE8F8830488FF1F0D
:100680001C3F00202DE9F041861EA4B000F10805B2
:10069000002455F8043F36F8022F0092C3F3801C63
:1006A000C3F3401EC3F3C000C3F38001C3F3400291
:1006B000C3F3C018C3F3001703F00103CDF81CC047
:1006C000CDF818E00490039102920193094ACDF805
:1006D00020802346642105970BA825F06FFA01348A
:1006E00000210BA803F0BAF8052CD2D124B0BDE844
:1006F000F08100BFC8B5020010B5044609F090FEB5
:100700000023C4F87431204610BD00BF70B400F55A
:10071000B876002501248662456280F82C40C161CC
:100720000262C0F8743170BC704700BF2DE970439D
:1007300004460AF003FAD4F874519DB3224BD4F85E
:1007400070611B7883B326F0004023F0CDFC1F4B73
:100750008046186820F00040894623F0C5FC16A3A7
:10076000D3E9002323F014FD15A3D3E9002323F0DC
:100770005DFB02460B464046494623F07BFF98B995
:100780000021304624F016FB30B13146304624F0CB
:100790004DF82860BDE8708306F10041084624F05A
:1007A00045F86860BDE870832E60D4F8703103F1BD
:1007B00000436B60BDE87083333333333333D33F4F
:1007C0009A9999999999B93F081300202413002008
:1007D00010B5044609F024FE4FF07C53C4F8803174
:1007E0000023C4F87431C4F87831204610BD00BF2E
:1007F000F0B4C16100F5B8770026012500F5BE749C
:1008000004998762466280F82C500462C0F8743103
:10081000C0F87821C0F88011F0BC70472DE9704312
:10082000D0F878615C4975680446284624F0A4FA3B
:10083000002840D0594B1B78002B60D0584BD8680B
:1008400020F0004023F050FC4BA3D3E9002323F019
:1008500011FF002840F08D803668E36930461D683E
:1008600023F042FC80462846894623F03DFC44A301
:10087000D3E9002323F0DAFA02460B464046494604
:1008800023F0F8FE002837D1C4F87C51002120461F
:100890000AF054F9D4F8745165B3404BD4F8706140
:1008A0001B78002B33D12E60D4F8703103F1004354
:1008B0006B60BDE870834FF07A51284624F05CFAF3
:1008C0000028C9D0354B1B78002BC5D1E6694FF005
:1008D0007A51284623F0A8FF0146306823F0A6FF8E
:1008E0000021C4F87C0120460AF028F9D4F874519C
:1008F000002DD2D1BDE87083C4F87C61C6E74FF00B
:100900007A51284624F038FA0028DFD1A4E726F0EF
:10091000004023F0E9FB234B8046186820F000409C
:10092000894623F0E1FB18A3D3E9002323F030FC30
:1009300017A3D3E9002323F079FA02460B46404679
:10094000494623F097FE0028ADD10021304624F01F
:1009500031FA30B13146304623F068FF2860BDE8F7
:10096000708306F10041084623F060FF6860BDE82F
:100970007083E6690849ACE7333333333333C33F1D
:10098000EC51B81E85EBB13F333333333333D33FB0
:100990009A9999999999B93F3333B33E0813002036
:1009A000641300202413002010B5044609F038FD1C
:1009B0000023C4F87431C4F87C31C4F88031204677
:1009C00010BD00BFF0B4059CC16100F5B87700F51B
:1009D000BC7600250499C0F87C21069A87620662DD
:1009E0004562C0F87441C0F88031C0F88411C0F885
:1009F0008821F0BC704700BF2DE9F843D0F884315E
:100A00001B78044623B13A4B93F90030002B44D0B5
:100A1000002120460AF092F8D4F87451002775B3EB
:100A2000344BD4F870611B7883B326F0004023F078
:100A30005BFB314B8046186820F00040894623F06C
:100A400053FB27A3D3E9002323F0A2FB26A3D3E97A
:100A5000002323F0EBF902460B464046494623F0BB
:100A600009FE98B90021304624F0A4F940B331467C
:100A7000304623F0DBFE28600FB1BDE8F883A26AA0
:100A800000232B606B601360BDE8F8832E60D4F800
:100A9000703103F100436B60EEE7D0F888311B78CA
:100AA000ABB9D0F880311B68C0F8783100212046FE
:100AB0000AF044F8D4F87451002DDED00127AFE7D6
:100AC00006F10041084623F0B1FE6860D4E7D0F893
:100AD0007C311B68C0F87831E8E700BFAFF30080D5
:100AE000333333333333D33F9A9999999999B93F33
:100AF0002D190020081300202413002010B50446EF
:100B000009F08EFC0023C4F87431C4F87831204613
:100B100010BD00BF70B4161D00F5B8750024C0F8F4
:100B2000786105624462C161C0F87421836270BC5F
:100B3000704700BFD0F87421D0F8783170B51568CF
:100B40001E6804463146284624F034F900B935467B
:100B5000C4F8705120460021BDE8704009F0EEBF96
:100B600010B5044609F05CFC204610BDF0B4049CAE
:100B7000C0F8784100F5BE77002600F5C075076221
:100B800046628562C161C0F87021C0F87431F0BC62
:100B9000704700BFD0F87431D0F87021196870B573
:100BA0000446106823F040FE0021C4F87C01204672
:100BB00009F0C4FFA26A0C4B16681D68304629462E
:100BC00024F0F8F850B905F100452946304624F0E4
:100BD000D3F818B9D4F878311E6070BDD4F87821F4
:100BE00001231560637070BD2413002010B5044606
:100BF00009F016FC00220023C4F87021C4F87431F7
:100C0000204610BD70B582B000261546009600F54E
:100C1000BA72044609F08AFFC4F8705102B070BD80
:100C200070B5144B93F90030032B0446D0F87031A3
:100C300008D05B68C0F8743100212046BDE87040E0
:100C400009F07CBF1E685D683046294624F094F8A0
:100C500038B1C4F8746120460021BDE8704009F045
:100C60006DBFC4F8745120460021BDE8704009F002
:100C700065BF00BF281300202DE9F0410378232B26
:100C800082B0044620D025F05BF8274A127805464A
:100C90005AB1264A92F90010052938D0CBB2042B5C
:100CA00008D9012002B0BDE8F081014620461AF0C3
:100CB00005F9EEE7002000902B4622461C4808F07C
:100CC00003FB02B0BDE8F081184DFF2395F90070D9
:100CD0002B7025F035F8144A16788046A6B90146DF
:100CE00020461AF0EBF895F90010052915D0CBB283
:100CF000042B09D80096434622460D4808F0E4FA32
:100D00002F7002B0BDE8F08101202F70F9E7204676
:100D1000294613F0C9FD0120C4E72046414613F0DF
:100D2000C3FD01202F70ECE7749BFF1F0488FF1F99
:100D3000B413002008B50A220021044826F0B4FBB1
:100D400000EB80004000013080B208BD00B6020018
:100D5000F0B54C4A4C4B14684C4918684C4BB1F9EF
:100D60000E601B884B4A4C4DD5B004EB84041096A2
:100D7000640000EB8000B1F90CE0B1F90A70129444
:100D80004000B1F908601190B1F90640CDF838E0A3
:100D9000B1F904000C97B1F902700A96B2F90E602D
:100DA0000894B2F90C400690B2F90A000497B2F91F
:100DB00008700F96B2F906600D94B2F904400B90DA
:100DC000B2F902000997079605940390B1F9000063
:100DD000B2F900102A8800920290019115A82F4ABA
:100DE000FA2124F0EBFE9DF85430232B1ED015A8D9
:100DF00024F0A6FF2A4A127804464AB1294A92F9F9
:100E00000010052932D0CBB2042B06D955B0F0BD65
:100E1000014615A81AF052F8F0E70020009023468A
:100E200015AA214808F050FA55B0F0BD1D4CFF231B
:100E300015A894F90060237024F082FF184A1578F1
:100E4000074685B9014615A81AF038F894F900103C
:100E5000052910D0CBB2042B05D800953B4615AA26
:100E6000114808F031FA267055B0F0BD214615A89A
:100E700013F01AFDCAE7394615A813F015FD2670C0
:100E8000F2E700BF9C400020A0400020448AFF1FE2
:100E9000383F0020348AFF1F403F002024B6020064
:100EA000749BFF1F0488FF1FB41300202DE9F0413D
:100EB000434A444B5788D3F80480434915881E6839
:100EC0000C88CAB0C8EB070023F064FD3F4900F16D
:100ED000004023F0B3FD23F007F9CDE90801A81B7A
:100EE000CDF81C80069723F055FD384923F0A6FD68
:100EF00023F0FAF8CDE9040120460396029523F089
:100F000049FD334923F09AFD23F0EEF82346CDE95D
:100F10000001304A0BA8FA2124F050FE9DF82C3035
:100F2000232B20D00BA824F00BFF2B4A1278044669
:100F300052B12A4A92F90010052935D0CBB2042BC0
:100F400007D94AB0BDE8F08101460BA819F0B6FFF9
:100F5000EFE70020009023460BAA214808F0B4F9DF
:100F60004AB0BDE8F0811D4CFF230BA894F9006046
:100F7000237024F0E5FE184A1578074685B9014626
:100F80000BA819F09BFF94F90010052911D0CBB2E2
:100F9000042B05D800953B460BAA114808F094F99C
:100FA00026704AB0BDE8F08121460BA813F07CFC06
:100FB000C7E739460BA813F077FC2670F1E700BFAE
:100FC0009C1E0020941E00207A3F0020E62A313625
:100FD000B4A1013B70B60200749BFF1F0488FF1F81
:100FE000B4130020F0B53A4B3A4C9B683A493B4A5F
:100FF0003B480D780088B2F97C1092F87E2093B0BF
:10100000A4FB03439B09079304920591069523F0E3
:10101000C1FC3449344C23F011FD23F065F8CDE9CF
:101020000201606823F060F8304ACDE9000109A8A8
:10103000232124F0C3FD9DF82430232B1DD009A8C3
:1010400024F07EFE227805464AB1294A92F9001022
:10105000052931D0CBB2042B06D913B0F0BD01461F
:1010600009A819F02BFFF0E7002000902B4609AAF1
:10107000204808F029F913B0F0BD1D4DFF2309A841
:1010800095F900602B7024F05BFE2478074684B944
:10109000014609A819F012FF95F90010052910D092
:1010A000CBB2042B05D800943B4609AA114808F09E
:1010B0000BF92E7013B0F0BD294609A813F0F4FB0C
:1010C000CBE7394609A813F0EFFB2E70F2E700BF1B
:1010D00030400020ABAAAAAA00130020803F0020C5
:1010E0007A3F0020B4A1013B749BFF1F98B6020019
:1010F0000488FF1FB4130020F0B5374C9BB0E068A4
:1011000022F0F2FFCDE90801344B186822F0ECFF21
:10111000CDE90601A06822F0E7FFCDE9040160688F
:1011200022F0E2FFCDE90201206822F0DDFF2C4A27
:10113000CDE900010AA8402124F040FD9DF82830A7
:10114000232B1ED00AA824F0FBFD264A1278044661
:101150004AB1254A92F90010052932D0CBB2042BAE
:1011600006D91BB0F0BD01460AA819F0A7FEF0E7AA
:101170000020009023460AAA1C4808F0A5F81BB0DE
:10118000F0BD194CFF230AA894F90060237024F0E5
:10119000D7FD144A1578074685B901460AA819F003
:1011A0008DFE94F90010052910D0CBB2042B05D880
:1011B00000953B460AAA0D4808F086F826701BB039
:1011C000F0BD21460AA813F06FFBCAE739460AA80A
:1011D00013F06AFB2670F2E76413002074130020FA
:1011E000B4B60200749BFF1F0488FF1FB4130020D5
:1011F000F0B53C4B3C4D1C68B5F9040097B023F0AA
:10120000C9FB214623F01AFC22F06EFFCDE9040150
:10121000B5F9020023F0BEFB214623F00FFC22F0BB
:1012200063FFCDE90201B5F9000023F0B3FB2146CD
:1012300023F004FC22F058FF2C4ACDE9000106A857
:10124000402124F0BBFC9DF81830232B1ED006A8AB
:1012500024F076FD264A127804464AB1254A92F9CE
:101260000010052932D0CBB2042B06D917B0F0BD3F
:10127000014606A819F022FEF0E700200090234660
:1012800006AA1D4808F020F817B0F0BD194CFF233E
:1012900006A894F90060237024F052FD144A1578D2
:1012A000074685B9014606A819F008FE94F9001012
:1012B000052910D0CBB2042B05D800953B4606AAD1
:1012C0000D4808F001F8267017B0F0BD214606A8B9
:1012D00013F0EAFACAE7394606A813F0E5FA2670D1
:1012E000F2E700BF5C0B0300F0180020CCB6020050
:1012F000749BFF1F0488FF1FB4130020F0B53C4B04
:101300003C4D1C68B5F9040097B023F043FB21461F
:1013100023F094FB22F0E8FECDE90401B5F90200C8
:1013200023F038FB214623F089FB22F0DDFECDE9D6
:101330000201B5F9000023F02DFB214623F07EFBCE
:1013400022F0D2FE2C4ACDE9000106A8402124F06B
:1013500035FC9DF81830232B1ED006A824F0F0FC95
:10136000264A127804464AB1254A92F90010052906
:1013700032D0CBB2042B06D917B0F0BD014606A877
:1013800019F09CFDF0E700200090234606AA1D48B6
:1013900007F09AFF17B0F0BD194CFF2306A894F987
:1013A0000060237024F0CCFC144A1578074685B9F8
:1013B000014606A819F082FD94F90010052910D005
:1013C000CBB2042B05D800953B4606AA0D4807F082
:1013D0007BFF267017B0F0BD214606A813F064FA13
:1013E000CAE7394606A813F05FFA2670F2E700BF95
:1013F000600B0300F8180020DCB60200749BFF1F8E
:101400000488FF1FB4130020F0B52F4C95B060681E
:1014100022F06AFECDE90201206822F065FE2B4A27
:10142000CDE9000104A8402124F0C8FB9DF810304C
:10143000232B1ED004A824F083FC254A12780446EE
:101440004AB1244A92F90010052932D0CBB2042BBC
:1014500006D915B0F0BD014604A819F02FFDF0E73C
:1014600000200090234604AA1B4807F02DFF15B06A
:10147000F0BD184CFF2304A894F90060237024F0F9
:101480005FFC134A1578074685B9014604A819F090
:1014900015FD94F90010052910D0CBB2042B05D806
:1014A00000953B4604AA0C4807F00EFF267015B0C5
:1014B000F0BD214604A813F0F7F9CAE7394604A89D
:1014C00013F0F2F92670F2E7A01E0020ECB602003D
:1014D000749BFF1F0488FF1FB4130020F0B52F4C2E
:1014E00095B0606822F000FECDE90201206822F08C
:1014F000FBFD2B4ACDE9000104A8402124F05EFB4E
:101500009DF81030232B1ED004A824F019FC254A86
:10151000127804464AB1244A92F90010052932D0C3
:10152000CBB2042B06D915B0F0BD014604A819F0C2
:10153000C5FCF0E700200090234604AA1B4807F0F2
:10154000C3FE15B0F0BD184CFF2304A894F9006049
:10155000237024F0F5FB134A1578074685B9014638
:1015600004A819F0ABFC94F90010052910D0CBB2F7
:10157000042B05D800953B4604AA0C4807F0A4FEAE
:10158000267015B0F0BD214604A813F08DF9CAE706
:10159000394604A813F088F92670F2E79C1300205E
:1015A000F8B60200749BFF1F0488FF1FB4130020CD
:1015B0002DE9F043ADF5337D0022431C8DF8042165
:1015C000112B45D8DFE813F04D00120029014F011F
:1015D000A601BC01C901D601EA0110021B022F02BB
:1015E0002F02640264029A02F2024800B44BB54D25
:1015F0001C68B5F9040023F0CDF9214623F01EFA4A
:1016000022F072FDCDE90401B5F9020023F0C2F920
:10161000214623F013FA22F067FDCDE90201B5F966
:10162000000023F0B7F9214623F008FA22F05CFD10
:10163000CDE90001A44A402131A824F0BFFA31A825
:10164000FFF71AFB9DF8043113B141A8FFF714FB13
:101650000DF5337DBDE8F0830BF012F99DF80431F0
:10166000F2E79A49964A9A4B088816681C68994D81
:10167000DFF89882984FDFF8989223F08BF997491A
:1016800023F0DCF922F030FDCDE92E01944BE8681F
:101690001B7A2C9322F028FDCDE92A01914B186882
:1016A00022F022FDCDE92801A86822F01DFDCDE938
:1016B0002601686822F018FDCDE9240128688A4DCA
:1016C00022F012FDCDE92201D8F8040022F00CFD31
:1016D000CDE92001D8F80000DFF8288222F004FDCF
:1016E000CDE91E01786822F0FFFCCDE91C013868C5
:1016F00022F0FAFC6B68B9F802707C4ACDE91A0155
:10170000F81A0CCA1993189223F044F97849794FC2
:1017100000F1004023F092F922F0E6FCB9F8002035
:101720002B68684DCDE91601D01A23F033F97049C2
:1017300023F084F922F0D8FCCDE914016E4BD8F8DF
:1017400008001B78129323F025F9214623F076F93F
:1017500022F0CAFCCDE91001D8F8040023F01AF9F0
:10176000214623F06BF922F0BFFCCDE90E01D8F839
:10177000000023F00FF9214623F060F922F0B4FCB9
:10178000CDE90C01B7F9040023F004F9214623F058
:1017900055F922F0A9FCCDE90A01B7F9020023F0BE
:1017A000F9F8214623F04AF922F09EFCCDE9080120
:1017B000B7F9000023F0EEF8214623F03FF922F0BC
:1017C00093FCCDE90601B5F9040023F0E3F83146B6
:1017D00023F034F922F088FCCDE90401B5F90200C8
:1017E00023F0D8F8314623F029F922F07DFCCDE929
:1017F0000201B5F9000023F0CDF8314623F01EF9BF
:1018000022F072FC3D4ACDE900014FF4E17141A89C
:1018100024F0D4F99DF8043116E72D4B354D1C68A2
:10182000B5F9040023F0B6F8214623F007F922F0B9
:101830005BFCCDE90401B5F9020023F0ABF82146C9
:1018400023F0FCF822F050FCCDE90201B5F90000CC
:1018500023F0A0F8214623F0F1F822F045FC284AB5
:10186000CDE90001E7E61A4A264D234B14681B78A0
:10187000A868069323F08EF8214623F0DFF822F0C3
:1018800033FCCDE90401686823F084F8214623F095
:10189000D5F822F029FCCDE90201286823F07AF876
:1018A000214623F0CBF822F01FFC174ACDE90001B6
:1018B0004FF4E17141A824F081F99DF80431C3E6A9
:1018C0005C0B0300F0180020CCB602007A3F002029
:1018D000600B0300641300209C130020B4A1013BA3
:1018E000749BFF1F74130020941E0020681B0020AF
:1018F000E62A3136F8180020FE18002004B702004E
:10190000DCB602000019002080B702007813002026
:101910009C1E0020864C606822F0E6FBCDE90201A7
:10192000206822F0E1FBCDE90001824A402131A884
:1019300024F044F931A8FFF79FF99DF8043183E6BC
:101940007D497E4A0B684968009141A84FF4E171D6
:1019500024F034F99DF8043176E6794C606822F081
:10196000C3FBCDE90201206822F0BEFB754ACDE938
:101970000001DBE7744C606822F0B6FBCDE90201A0
:10198000206822F0B1FB714ACDE900014FF4E1710A
:1019900041A824F013F99DF8043155E66C4CE06839
:1019A00022F0A2FBCDE908016A4B186822F09CFBEB
:1019B000CDE90601A06822F097FBCDE9040160683B
:1019C00022F092FBCDE90201206822F08DFB624AF1
:1019D000CDE90001402131A824F0F0F831A8FFF74B
:1019E0004BF99DF804312FE65C4B5D4A1B7A4FF4AE
:1019F000E17141A824F0E2F89DF8043124E6594B46
:101A0000188822F0C7FF584923F018F822F06CFB21
:101A1000564ACDE900014FF4E17141A824F0CEF817
:101A20009DF8043110E6A0F10A05514B01933022D4
:101A30002B4600924FF4E1714E4A4F4F41A824F0DB
:101A4000BDF841A824F07CF9044605EB4500C0012F
:101A5000051F41ABBC303D441E19074455F8043FF7
:101A6000464AC4F5E171304624F0A8F8304624F027
:101A700067F941AB0444BD4203EB0406EED1C4F563
:101A8000E17130463E4A24F099F89DF80431DBE5D7
:101A9000A0F10C0530222B4600924FF4E171394A37
:101AA000394F41A824F08AF841A824F049F90446A6
:101AB00005EB45008001051F41ABBC303D441E19BC
:101AC000074455F8040F22F061FF22F00DFB0022BD
:101AD0002E4B22F087FCC4F5E173CDE900012C4ABE
:101AE0001946304624F06AF8304624F029F941AB13
:101AF0000444BD4203EB0406E3D1C0E7254A264C6B
:101B0000127826482649274B0078097824681B78E4
:101B1000029082F00102019200910394224A4FF454
:101B2000E17141A824F04AF89DF804318CE500BF2A
:101B3000A01E0020ECB60200681B002094B7020033
:101B40009C130020F8B6020078130020A8B702000A
:101B50006413002074130020B4B60200749BFF1FAE
:101B6000B4B702007A3F0020B4A1013BC0B7020025
:101B700000D8B805CCB702007C1B0020D8B7020003
:101B8000B0BF0200E0B70200D019002000408F4033
:101B9000E8B70200781B00207C8AFF1F788AFF1FAD
:101BA000848AFF1F881E0020ECB702002B4A2C49B4
:101BB00092F900202B4B08681C921D682A4C22F0D9
:101BC00093FACDE91A01294B186822F08DFA284AB8
:101BD000284B12681B681792CDE91801E06916932B
:101BE00022F082FACDE91401A06922F07DFACDE954
:101BF0001201606922F078FACDE91001206922F023
:101C000073FACDE90E01E06822F06EFACDE90C011D
:101C1000A06822F069FACDE90A01606822F064FA4E
:101C2000CDE90801206822F05FFA134A134B1278BD
:101C30000492CDE90601186822F056FA104B114AB9
:101C40001B680093CDE902012B464FF4E17141A8D6
:101C500023F0B4FF9DF80431F6E400BF2C190020F6
:101C6000B8190020CC19002040190020BC19002010
:101C7000C0190020C41900208D19002088190020E7
:101C8000C819002000B80200F0B50A229FB0002158
:101C9000334825F009FC00EB80004000314B013057
:101CA0001B78029380B222F071FE22F01DFA2E4BB7
:101CB000002222F097FB2D4ACDE9000105A86421FE
:101CC00023F07CFF9DF81430232B1ED005A824F0B0
:101CD00037F8274A127804464AB1264A92F900108A
:101CE000052932D0CBB2042B06D91FB0F0BD014676
:101CF00005A819F0E3F8F0E700200090234605AAB4
:101D00001D4807F0E1FA1FB0F0BD1A4CFF2305A8EB
:101D100094F90060237024F013F8154A15780746EB
:101D200085B9014605A819F0C9F894F900100529EC
:101D300010D0CBB2042B05D800953B4605AA0E481F
:101D400007F0C2FA26701FB0F0BD214605A812F0B8
:101D5000ABFDCAE7394605A812F0A6FD2670F2E7EA
:101D600000B60200783F002000002440BCB802000A
:101D7000749BFF1F0488FF1FB41300202DE9F04758
:101D80000422ADF5066D0D469C49044624F076F814
:101D900070B99B4A9B4C9C49907200230120507261
:101DA00023600B60994B1D700DF5066DBDE8F08743
:101DB00004229749204624F061F838B923791F2B73
:101DC00000F2A380934B01221A70EBE78C4FBB7A91
:101DD000002BE9D163788D4E3D2B357000F0A0804B
:101DE0002378782B00F0B68003228B49204624F01C
:101DF00045F8002859D02146884804F00FFC0028F7
:101E0000D2D120460AF090FE0028CDD120460AF01B
:101E1000C1F980460028C7D194F80090B9F13C0F71
:101E200000F01A81B9F1750F00F0CA84B9F1760F8C
:101E300000F0498109F0DF03482B00F063810322A1
:101E40007749204624F01AF88246002800F00785DA
:101E500003227449204624F011F88246002800F03D
:101E6000188503227049204624F008F8002800F065
:101E7000438503226D49204624F000F8824600285D
:101E800040F01B8520463D2123F0E6FE002800F0AF
:101E9000AC85514601300A2225F006FB20EAE071AC
:101EA0000122634807F0D2FE7EE703340A2220466F
:101EB0000EA90E94189425F0F7FA0EA905460E986F
:101EC00025F034FA18A906460E9825F02FFA189C2A
:101ED0000E9A944207467FF667AF18A920460A2259
:101EE0000E9425F0E1FA0E9A189B003018BF0120DD
:101EF0009A4208BF0020291C00903B46324618BF7A
:101F00000121464803F04CFF4EE701460A22601DBE
:101F100025F0CAFA3F4B003018BF0120187041E786
:101F200023784D3B262B5CD8DFE803F04A5B5B5BF4
:101F30005B5B5B5B5B5B5B5B5B5B5B5B5B5B5B5BF1
:101F40003E5B5B5B5B5B5B5B375B5B5B5B5B5B5B22
:101F50005B5B1F00611C314804F098FB00287FF494
:101F600023AF3448FEF788FE1EE70EA90A22A01C04
:101F700025F09AFA304B186005F026F90E98037890
:101F80001F2B7FF611AF0EA90A2225F08DFA2B4BDD
:101F9000003018BF0120187006E7A01C0A2200219B
:101FA00025F082FAF872FFE62548FEF765FE09F093
:101FB00015FDD0B12348FEF75FFE09F06DFBF3E697
:101FC000164DB5F97C10A1B9A01C0A2225F06CFAB7
:101FD0001D4BA8671B689842FFF6E6AE013BAB6756
:101FE000E2E61A48FEF748FEDEE61948FEF744FE30
:101FF000E3E71848FEF740FED6E600BFD0B802007F
:10200000749BFF1F0C130020101300200488FF1F77
:10201000D8B80200CC410020A4B90200803F0020C3
:1020200034CC02004CCC020050CC020054CC020054
:10203000BC18002084B902000C88FF1F1888FF1FFD
:1020400008B9020034B90200CCDA02006CB902000F
:1020500050B90200E0B80200651C2846052221495B
:1020600023F00CFF002800F0098403221E492846B3
:1020700023F004FF002800F0068405221B492846AF
:1020800023F0FCFE002800F0318403221849284682
:1020900023F0F4FE0646002800F06184154903226F
:1020A000284623F0EBFE0146002800F08C842846E9
:1020B0000522114923F0E2FE002840F07F840F48FA
:1020C00010F08EFE70E66378312B00F00A84322B1C
:1020D00000F0FE83302B00F000840948FEF7CCFDB1
:1020E00062E600BFA8B90200B0B90200B4B90200AC
:1020F000BCB902002CBA020030BA0200A84000208D
:102100007CBA02004722A54918A823F0FBF918A8B9
:10211000FEF7B2FDA24BA34A9B6FDC2118A823F067
:102120004DFD18A8FEF7A8FD97F90B309E4ADC215B
:1021300018A823F043FD18A8FEF79EFD9B4A9C4B70
:1021400012781B680092DC219A4A18A823F036FD09
:1021500018A8FEF791FD9849984A8C794B784879F0
:102160000D790494CC78039088788DE831008C7BCD
:10217000487B0D7B0C94CC7A0B90887A0A954E7A2A
:1021800009940D7ACC790890DC2118A80796069559
:10219000059423F013FD18A8FEF76EFD884B1B78FD
:1021A0001BB1884B1B7883F001038749874A096874
:1021B00012680192009302911E23854A854C864D38
:1021C000864EDC2118A823F0F9FC18A8FEF754FD70
:1021D000BB7A834A834FDC2118A823F0EFFC18A8B0
:1021E000FEF74AFD8049814AB1F90030B1F9021089
:1021F000009118A8DC2123F0E1FC18A8FEF73CFDB3
:10220000606821F071FFCDE90201206821F06CFFC8
:10221000774ACDE90001DC2118A823F0CFFC18A8EB
:10222000FEF72AFD7349744A91F9003091F90110C3
:10223000009118A8DC2123F0C1FC18A8FEF71CFDB2
:1022400068226E4918A823F05DF918A8FEF714FD5E
:102250006C226B4918A823F055F918A8FEF70CFD5D
:102260008C22684918A823F04DF918A8FEF704FD40
:10227000A322654918A823F045F918A8FEF7FCFC2D
:102280004E22624918A823F03DF918A8FEF7F4FC85
:10229000BE225F4918A823F035F918A8FEF7ECFC18
:1022A0005C48FEF7E9FC5C48FEF7E6FC5B48FEF79D
:1022B000E3FC7F225A4918A823F024F918A8FEF756
:1022C000DBFC0FCD18AC0FC40FCD0FC40FCD0FC466
:1022D0002B68237018A8FEF7CFFC0FCF18AD0FC5E1
:1022E0000FCF0FC597E80F0007C525F8023B4D4FEC
:1022F0001B0C2B7018A8FEF7BFFC0FCF18AD0FC535
:102300000FCF0FC50FCF0FC525463B6825F8023B01
:102310001B0C2B7018A8FEF7AFFC5B22424918A8D3
:1023200023F0F0F818A8FEF7A7FC8B223F4918A865
:1023300023F0E8F818A8FEF79FFC3D493D4A0B88BA
:102340000F89CD888888498800910397029501906C
:10235000DC2118A8384F23F031FC18A8FEF78CFCBC
:102360000FCF18AD0FC50FCF0FC597E8070003C5F6
:1023700025F8022B120C2A70304D18A8FEF77CFCB1
:102380000FCD18AF0FC70FCD0FC795E80F0087E827
:102390000F0018A8FEF770FC52E000BF9CBA0200C4
:1023A000803F0020E4BA020038BB02001888FF1FFB
:1023B0000C88FF1F9CBB0200D09CFF1FE8BB0200E3
:1023C000659DFF1F649DFF1F5C9DFF1F609DFF1F9C
:1023D0007CBC02005C1B002054C20200A84000200C
:1023E000C8BC020088C20200501B0020FCBC0200D6
:1023F00034BD0200541B002074BD0200B0BD0200B9
:1024000018BE020084BE020010BF0200B4BF02006A
:1024100004C00200C4C0020014C102007CC102005A
:10242000D4C10200B8C20200ECC2020048C30200DC
:1024300040400020D4C3020044C4020070C4020023
:10244000DFF868E3BEE80F0018AD0FC5BEE80F0067
:102450000FC59EE8070003C518A82A80FEF70CFCEC
:10246000DFF84CE3BEE80F000DF16008A8E80F00AC
:10247000BEE80F00A8E80F009EE80300B8463860E9
:1024800008F8041F18A8FEF7F7FBDFF828C3BCE81C
:102490000F000DF1600EAEE80F00BCE80F00AEE8D3
:1024A0000F009CE80700AEE803002A7018A8FEF7AA
:1024B000E3FBA34AA34B10681D7821F015FECDE97C
:1024C0000201A14B186821F00FFE2B46CDE9000157
:1024D0009E4A9F4DDC2118A823F070FB18A8FEF738
:1024E000CBFB304610F0EAFC96F818310093994A7D
:1024F0000346DC2118A823F061FB18A8FEF7BCFBFB
:102500005522954918A822F0FDFF18A8FEF7B4FB44
:102510000FCD18AE0FC60FCD0FC695E80F008F4D2B
:102520008F4E87E80F0018A8FEF7A6FB0FCD0DF120
:102530006009A9E80F000FCDA9E80F0095E80F008A
:10254000A9E8070018A8A9F80030FEF795FB0FCE00
:1025500018AD0FC50FCE0FC50FCE0FC596E80700FB
:1025600003C5804E2A7018A8FEF786FB0FCE0DF12A
:10257000600EAEE80F000FCEAEE80F000FCEAEE853
:102580000F0096E8030084E8030018A8FEF774FB28
:10259000754E76495C2218A822F0B4FF18A8FEF701
:1025A0006BFB0FCE18AC0FC40FCE0FC496E80F0014
:1025B00007C4A9F8003018A8FEF75EFB6C4E6D4901
:1025C0004B2218A822F09EFF18A8FEF755FB0FCE4D
:1025D00018AC0FC40FCE0FC40FCE0FC496E807007F
:1025E00003C42C46130C2A8018A804F8023FFEF7F7
:1025F00043FB614B614A1B78DC2118A823F0DEFA0B
:1026000018A8FEF739FB41225D4918A822F07AFF8D
:1026100018A8FEF731FB5B4B5B4A1B78DC2118A83E
:1026200023F0CCFA18A8FEF727FBDFF88CE1BEE810
:102630000F0018AE0FC6BEE80F000FC6BEE80F00B1
:102640000FC69EE80F0007C626F8023B18A81B0C11
:102650003370FEF711FB4D494D4AB1F90E00B1F947
:1026600008C00B78B1F906E0B1F90A90B1F904603D
:1026700007900690887849780091CDF810C0CDF881
:102680000CE002960190DC21CDF8149018A8414E80
:1026900023F094FA18A8FEF7EFFA0FCE0DF1600EB2
:1026A000AEE80F000FCEAEE80F0096E803003860EA
:1026B00088F8001018A8FEF7DFFADFF800E1BEE89E
:1026C0000F0018AE0FC6BEE80F000FC6BEE80F0021
:1026D0000FC69EE80700130C03C62A8018A82370B3
:1026E000FEF7CAFA92222C492C4C18A822F00AFFB5
:1026F00018A8FEF7C1FA5C22294918A822F002FFA7
:1027000018A8FEF7B9FA6522264918A822F0FAFEA1
:1027100018A8FEF7B1FA4D22234918A822F0F2FEBC
:1027200018A8FEF7A9FA0FCC18AD0FC50FCC0FC52E
:1027300023683B8018A8FEF79FFAFFF735BB00BF60
:1027400010130020001300200C13002020C50200ED
:1027500044C6020090C50200ECC5020074C6020027
:10276000A4C60200E0C6020074C7020018C7020037
:10277000F0C70200A4C70200CC4100202CC8020010
:102780006CC8020014190020B0C80200443F0020A9
:1027900028C9020004CA020068CA020010CC020064
:1027A000FCCA020058CB0200C0CB0200A0C4020049
:1027B000CCC40200F4C40200E8C802002CCA020023
:1027C000601C0A22002124F06FFE43B21F2B00F28E
:1027D0004681DFE803F0403A34302C2824201C16D0
:1027E00016161616161010101010101010101010CB
:1027F0001010101010100F3840B2FEF7D9FEFFF77E
:10280000D3BA083840B20AF075F8FFF7CDBAFEF730
:102810004DFBFFF7C9BAFEF79BFAFFF7C5BA09F0FF
:1028200051F8FFF7C1BAFEF7DDFBFFF7BDBA04F0C0
:1028300001FFFFF7B9BA03F063FAFFF7B5BA012158
:102840009B4803F0F9FAFFF7AFBA4FF0FF30FEF7FD
:10285000AFFEFFF7A9BAFFF717FAFFF7A5BA954C35
:102860002060E060206117F03FFE9348FEF704FA15
:102870005146204606F0E6FFFFF796BA8F4810F063
:1028800023FBFFF791BA211D8C4810F08BF9FFF75D
:102890008BBA884C18AB204601212360C4F80CA0E9
:1028A000C4F810A006F0CEFF52465146204606F06E
:1028B000C9FEC4F800A0FFF777BA05228049204678
:1028C00023F0DCFAF0B9012378727B73FFF76CBA5E
:1028D0007C4805F0ADFBFFF767BA09F0D5FBFFF7C1
:1028E00063BA784805F062FBFFF75EBAA11D734832
:1028F00010F0ECFBFFF758BA01466E4807F056F8A7
:10290000FFF752BA05227049204623F0B7FA002893
:1029100000F0A18003226D49204623F0AFFA002881
:1029200066D1E51C2846664923F088FC60B1604BFF
:10293000B3F97C300BB900237B600121002001F04A
:102940001FF8634B01221A706249284623F076FC77
:10295000002800F0898001F071F8FFF725BA0434EF
:102960000EAD204629460A2224F09EFD2B689C428B
:1029700007B202D01E1C18BF012618460A2229469B
:1029800024F092FD2B689C4202B222D00BB306B316
:10299000002F1EDD002A1CDD3946484810F08EF954
:1029A00000287FF401AA18A84B4B4C4A642123F05D
:1029B00005F918A8FEF760F9FFF7F6B94848FEF7E1
:1029C0005BF9FFF7F1B93D4810F0E2F93873FFF712
:1029D000EBB900923B4618A8424A642123F0EEF876
:1029E00018A8FEF749F9FFF7DFB90121FFF758BA38
:1029F00004223D49204623F041FA002800F0888057
:102A000004223A49204623F039FA00283DD0042216
:102A10003749204623F032FA002800F05B81042277
:102A20003449204623F02AFA002800F011810322BD
:102A30003149204623F022FA002800F05E81052269
:102A40002E49204623F01AFA002840F0DE802C4B55
:102A50001870FFF7A9B904F0D7FCFFF7A5B929480A
:102A6000FEF70AF9FFF7A0B92846274923F0E6FB4D
:102A7000002800F0AD80254B1B68002B00F0A380E0
:102A800001237B72BB72FFF78FB9043418A920466B
:102A90000A22189424F008FD18A904460A2208689E
:102AA00024F002FDC1B2E0B20BF008F9FFF77CB9E7
:102AB000803F0020BC18002038CC0200A840002035
:102AC00058CC0200B413002060CC020068CC020095
:102AD0001888FF1FD0B80200E03E0020C0B90200F5
:102AE00038BA0200E4B90200E0CC0200E8CC0200EF
:102AF000F0CC0200F8CC02001CCD020020CD020078
:102B0000FE1800205CBA02002CBA0200609DFF1F74
:102B100004340EA920460A220E9424F0C5FCBC4CB5
:102B2000031C18BF01230EA90E98E3730A22237415
:102B300024F0BAFC031C18BF01230EA90A220E9828
:102B4000637424F0B1FC031C18BF01230EA90A22F0
:102B50000E98A37424F0A8FC031C18BF01230EA92F
:102B60000A220E98E37424F09FFC031C18BF012373
:102B70000EA90A220E98237524F096FC031C18BF98
:102B800001230EA90A220E98637524F08DFC031C04
:102B90000EA918BF01230A220E98A37524F084FC05
:102BA0000EA9031C18BF01230A220868E37524F04C
:102BB0007BFC031C18BF01234FF47A70237602F0CC
:102BC0000BFBFFF7F1B89348FEF756F8FFF7ECB8A8
:102BD000E578A5F12B035D4204F104045D4126462E
:102BE00001343378013B1F2BF9D903228A4930463F
:102BF00023F014F9002840F02D81854B5D704FF4CF
:102C00007A7002F0E9FAFFF7CFB803228349204631
:102C100023F034F9002800F08580B9F13A0F77D01D
:102C200004227F49204623F029F9002840F0B8808B
:102C30002379202B66D03D2B64D07A4B93F8B124B6
:102C4000002A3FF4B1A80A2283F8F823FFF7ACB8B2
:102C500004340EA920460E9424F068FB0EA9044605
:102C6000086824F063FB704B1C605860054621F037
:102C70003BFACDE90201204621F036FA6B4ACDE954
:102C80000001642118A822F099FF18A8FDF7F4FFAD
:102C900024F0004021F028FA5BA3D3E9002321F0BF
:102CA00007FD80B925F0004021F01EFA56A3D3E9B4
:102CB000002321F0FDFC4FF0010300B9034683F02F
:102CC00001035FFA83F85A4B83F87E800BF096F885
:102CD000FFF76AB8043418A920460A22189424F091
:102CE000E3FB18A904460A22086824F0DDFB01462C
:102CF00020460AF059FFFFF757B8201D04F090FB5B
:102D0000FFF752B8611D474805F0BEF9FFF74CB810
:102D1000204623F015F8231813F8012D1F2A2BD86D
:102D20000138F9E70EA822F03DFD18AC3969414A97
:102D30000E9B0091019264213F4A0294204622F0AA
:102D40003DFF2046FDF798FF3C4B00933C4A3D4B2E
:102D50006421204622F032FF2046FDF78DFF01233B
:102D600000932046A423384A642122F027FF2046FE
:102D7000FDF782FFFFF718B823180D210A22661C01
:102D8000002521545A709D70304622F0D9FF01462B
:102D9000304615F04DFB234B83F83954FFF704B848
:102DA00004222A49204623F069F8002871D12379AA
:102DB000202B01D03D2B56D1631D0EAD1846294660
:102DC0000A222B6024F070FB2E683378202B0746F4
:102DD00002D02C2B40F0188101360023009332469C
:102DE000394601232E600F4806F06EFA00943B46E8
:102DF00018A8174A642122F0E1FE18A8FDF73CFF4D
:102E0000FEF7D2BFAFF300807B14AE47E17A843F78
:102E1000D09CFF1F6CCC020080CC020028CD0200A9
:102E2000B0CD0200B41300205C1B002000CD0200D6
:102E3000803F0020789BFF1F2CCD020097120020BE
:102E400058CD0200689DFF1F7CCD0200B8CD020066
:102E5000C0CD02000322AB49304622F0DFFF68B943
:102E6000A94B9D70CBE6234618A8A84A642122F0FE
:102E7000A5FE18A8FDF700FFFEF796BF0422A4499F
:102E8000304622F0CBFF002840F0CA809E4BDD7018
:102E9000B5E605229F49204622F0F0FF002800F009
:102EA000E08003229C49204622F0E8FF002800F041
:102EB000918003229949204622F0E0FF002879D032
:102EC00006229749204622F0D9FF00283CD0032251
:102ED0009449204622F0D2FFC8B93D21201D22F09E
:102EE000BBFE189070B118A901300A2224F0DCFA58
:102EF000E378632B00F0A480752B00F09A80612B9F
:102F000000F0E7808848FDF7B7FEFEF74DBF0322CB
:102F10008649204622F0B2FF88BB0422844920461D
:102F200022F0ACFF20B320460422824922F0A6FF03
:102F3000C8B9814B1B786BB18048FDF79DFE804876
:102F4000FDF79AFEFEF730BFA11D7E4810F0A8FCE9
:102F5000FEF72ABF0BF0A6FA0028F0D07A48FDF75A
:102F60008BFEFEF721BF0420FEF722FBFEF71CBFFD
:102F70000BF060FA7548FDF77FFEFEF715BF0622DD
:102F80007349204622F07AFF804600287DD1201D1B
:102F90003D2122F061FE002875D0414601300A2211
:102FA00024F082FA003018BF0120002370703B70BB
:102FB000FEF7FABE0334204618A90A22189424F01A
:102FC00073FA189B9C4215D021465E4810F032FCE3
:102FD000FEF7EABE0334204618A90A22189424F00A
:102FE00063FA189B9C420AD02146564810F088FB91
:102FF000FEF7DABE534810F063FBFEF7D5BE51482A
:1030000010F024FBFEF7D0BE0346009418A8514AE6
:10301000642122F0D3FD18A8FDF72EFEFEF7C4BEF2
:1030200004224D49304622F0F9FE80B9364B5D71DD
:10303000E5E50030494B18BF01201870FEF7B4BE1B
:10304000B0FA80F03C4B40091870FEF7ADBE042288
:103050004349304622F0E2FE002847D12A4B1D7139
:10306000CDE5053418A90A222046189424F01CFA4C
:10307000C0B2003018BF012009F092FA3948FDF7BC
:10308000FBFDFEF791BE01208CE703223649204666
:1030900022F0F4FE002800F09380032233492046FA
:1030A00022F0ECFE00286BD0204622F049FE0128D9
:1030B00003467EF679AE2E4A01946421009518A845
:1030C00022F07CFD18A8FDF7D7FD17F0DBFEFEF718
:1030D0006BBE0028274B14BF012200221A703EF459
:1030E00063AE254B00221A70FEF75EBE0422234910
:1030F000304622F093FE002840F09080024B9D71F4
:103100007DE500BF84CC0200D09CFF1F18CE0200DA
:1031100088CC020034CE020048CE02004CCE020021
:1031200050CE020058CE02005CCE0200A8CC0200B5
:10313000B4CE02000CCF0200781B002014CF020096
:1031400074CF0200443F002058CF0200BCCE0200E2
:10315000BCCF0200E8CD020090CC0200788AFF1FAD
:1031600098CC02003CCE0200C4CF0200C8CF0200BF
:1031700008D00200848AFF1F881E0020A0CC020015
:103180000334204618A90A220E94189424F08CF9CE
:10319000189C0E9B0A2205460EA920461C1B18BF30
:1031A000012424F081F90E9A189B9A423FD0002CFA
:1031B0003DD004283BD84E4B23F81050FEF7F4BD09
:1031C0000334204618A90A220E94189424F06CF9AE
:1031D000189C0E9B0EA91D1B4FF00A0207462046A5
:1031E00018BF012524F060F90E9B189C0A220646A0
:1031F00018A918469C420CBF002405F0010424F0D5
:1032000053F90E9A189B9A4214D09CB1BFB1C1B227
:10321000F2B23748FDF76AF9FEF7C6BD0322354919
:10322000304622F0FBFD80B9334BDD71E7E43348D3
:10323000FDF722FD2E48FDF725FAFEF7B5BDC1B218
:103240002B48FDF777F9FEF7AFBD04222C49304635
:1032500022F0E4FD10B9284B1D72D0E40222294966
:10326000304622F0DBFD10B9234B5D72C7E4042227
:103270002549304622F0D2FD10B91F4B9D72BEE4A5
:1032800004222249304622F0C9FD10B91A4BDD72E2
:10329000B5E404221E49304622F0C0FD10B9164B99
:1032A0001D73ACE403221B49304622F0B7FD10B970
:1032B000114B5D73A3E402221749304622F0AEFDA4
:1032C00010B90D4B9D739AE405221449304622F043
:1032D000A5FD10B9084B5D7691E4304605221049F2
:1032E00022F09CFD00287FF48AAC034B9D7686E497
:1032F00040400020A8CC0200D09CFF1FCCCF020091
:10330000ACCC0200B4CC0200B8CC02005CE10200FC
:10331000C0CC0200C8CC0200CCCC0200D0CC020051
:10332000D8CC020030B51F2891B005463C4C09D9D5
:103330006369E218C62B107613DC0133E218002112
:103340006361117694F90B30354A012B14D00A2DA4
:1033500022D00D2D20D06369314CC62B13DC11B067
:1033600030BD00236361237694F90B300122012BD9
:1033700084F8E0202A4AEAD11378002BE7D12846C6
:1033800017F064FEE3E72344002526481D76FDF789
:1033900073FC656111B030BD94F8E000204D68BB4E
:1033A0006B69002B22DD2B44052218761E4905F19E
:1033B000180022F063FD30B106221C4905F1180007
:1033C00022F05CFD28BB1A4B586821F0DFFA19493E
:1033D00021F0E8FB20F088FE174ACDE9000103A8A0
:1033E000322122F0EBFB03A8FDF746FC94F90B30E9
:1033F000012B0AD00023636111B030BD00230F48B8
:1034000085F8E030FDF738FCF4E70D48FDF734FCB3
:10341000F0E705F118004FF0FF31FEF7AFFCE5E7EC
:10342000749BFF1F7CD002004CD0020054D00200DD
:1034300030400020001BB74C5CD0020030D00200AE
:1034400074D0020030B51F2891B00546394C06D91A
:10345000B4F9E230E218622B82F8E4000FDD94F94F
:103460000B30344A012B17D00A2DB4F9E23025D0A5
:103470000D2D23D0622B2F4C15DC11B030BD013344
:103480001BB2E218A4F8E23094F90B300021012BB2
:1034900082F8E410274AE7D11378002BE4D12846BC
:1034A00017F0D4FDE0E723440025234883F8E450D7
:1034B000FDF7E2FBA4F8E25011B030BD002B1D4D2A
:1034C00024DD2B44002083F8E40005221B4905F18C
:1034D000E40022F0D3FC30B10622194905F1E400E2
:1034E00022F0CCFCD8B9174B586821F04FFA164996
:1034F00021F058FB20F0F8FD144ACDE9000103A8A3
:10350000322122F05BFB03A8FDF7B6FB94F90B30E8
:10351000012B0AD00023A4F8E23011B030BD05F130
:10352000E4000521FEF72AFCF0E70948FDF7A4FBBB
:10353000F0E700BF749BFF1F7CD002004CD002005C
:1035400054D0020030400020001BB74C5CD0020079
:1035500074D002002DE9F0439FB017F031FC14281D
:1035600017DC0028064640F00681864E337803BB00
:10357000854B5B78EBB1854BD6F848111A68521A27
:10358000B2F57A6F15D91B68C6F84831012333703C
:103590000FE01426002417F0D7FB051E04F10104E8
:1035A000A5F10A0304DB752B40F2C580B442F2DBBF
:1035B000744E7748734C05F079FA337B002B40F05A
:1035C000B48014F0A5FF0A28A8BF0A2000280546E9
:1035D0006F4F6ADD0024B84652E0C1B26C4805F076
:1035E000CFFA002849D0337B002B43D1D8F8FC9385
:1035F000B9F1000F33D005226649484622F03EFC5F
:1036000028B106226449484622F038FC38BB97F9B5
:1036100000345E4A61491268486803F5827347F8CE
:10362000232021F0B3F95E4921F0BCFA20F05CFDC3
:103630005C4ACDE90001462105A822F0BFFA05A8A1
:1036400022F07EFB4FF0000E97F90014CDF800E059
:10365000034605AA4E4805F037FED7F8FC9399F8C3
:103660000030202B06D92B2B76D097F90014484632
:10367000FEF784FB464805F01FFE0134A54214D036
:1036800014F052FF002810DB431E7E2BF5D897F86C
:10369000B034002BA1D03378C1B2002B9ED10846A4
:1036A000039117F0D3FC039998E7DFF8D8800A2537
:1036B00005E0C4B22046FFF7C5FE013D14D011F06D
:1036C00071F9002800F1FF330EDB7E2BF5D896F858
:1036D0004C31002BEDD098F80030C4B2002BE9D16A
:1036E000204617F0B3FCE5E797F83A34284C013B45
:1036F000012B02D91FB0BDE8F083244AD4F8F4139B
:1037000013685B1AB3F57A7FF4D91368264A0094DC
:10371000642105A822F052FA05A8FDF7ADFA0423AA
:1037200084F83A341FB0BDE8F08301211F480FF040
:103730002FFB207345E7134E33781BB10A2D1DD0A4
:103740000D2D1BD0114B1B68C6F84831E8B2002381
:103750003370FFF7E7FD2CE797F900340093144A24
:103760004B46462105A822F029FA05A8FDF784FA60
:10377000D7F8FC9379E73FF70DAF19E70D48FDF750
:103780007BFADFE7749BFF1F0488FF1F1C3F0020AC
:10379000B41300204CD0020054D00200304000206E
:1037A000001BB74C5CD00200D0D00200A840002023
:1037B000ACD0020098D002002DE9F04F83B00C4647
:1037C000834622F0BDFA214B1B788246EBB994B3B5
:1037D0001F4F0028D7F8008017DD5E46054640F2EF
:1037E000DC5917F03FFC041E304609DDAC42A8BF8F
:1037F0002C462D1B214617F061FB002D264404DDCD
:103800003B68C8EB03034B45EBD9124B93F900100F
:10381000052915D0CBB2042B03D9012003B0BDE894
:10382000F08F0020009053465A460B4805F04CFD9F
:1038300003B0BDE8F08F0146584617F03FFBE4E7C0
:103840005846514611F030F80120E7E7749BFF1FFE
:103850001C3F00200488FF1FB413002038B50378F4
:10386000232B03D0BDE83840FFF7A6BF044CFF234D
:1038700094F900502370FFF79FFF257038BD00BFFB
:103880000488FF1F2DE9F04F384D394E394F9DB058
:1038900000241AE003A822F053FA3A7880461AB9B5
:1038A000014603A817F00AFB96F90010052952D02B
:1038B000CBB2042B06D800220092434603AA2E481E
:1038C00005F002FD01347F2C42D0E1B227481AF006
:1038D000C5F80021254818F0E3FC4FF47A736A7BA1
:1038E00029690093214801231AF0D2F92346019057
:1038F0000094224A642103A822F060F99DF80C305C
:10390000232BC7D1FF2303A896F90090337022F030
:1039100017FA97F80080DFF858B08246B8F1000F28
:1039200011D1014603A817F0C9FA9BF90010052927
:1039300016D0CBB2042B06D8CDF80080534603AA8C
:103940000D4805F0C1FC01347F2C86F80090BCD1F5
:103950001DB0BDE8F08F414603A810F0A5FFB1E708
:10396000514603A810F0A0FFEDE700BFC8440020B7
:103970000488FF1F749BFF1FB413002000D10200B6
:1039800000282DE9F0410C4603DD294B186003F0B7
:103990001BFC284F24B9012387F89530BDE8F0813E
:1039A0003A46DFF88CC0DFF890E00121002302F8EE
:1039B00001194FF47A71CCF808109846CCF804300D
:1039C0001D4607F11C0007F1550107F11A0612F810
:1039D000014F84B10B780580493BDBB2222B98BFA5
:1039E0001EF9038011F8013C88BF4FF0010808FB65
:1039F00003531D46A046B24200F1020001F102014C
:103A0000E5D1B8F1000F0FD1002247F2305393FBFC
:103A1000F5F50123C7F8902087F89420C7F88C505B
:103A200087F89530BDE8F081CCF80430ECE700BFB2
:103A30000C88FF1FD09CFF1F24D10200024B0022E4
:103A400083F89520704700BFD09CFF1F2DE9F04FF1
:103A5000054D2B7B95B01BB1044C94F894303BB1D1
:103A600015B0BDE8F08F00BF0C88FF1FD09CFF1F72
:103A7000D4F89030D4F88C20934280F2D3816868D7
:103A800004F1980600FB03F7F119B1F1005F0AD2C7
:103A90000144B1F1005F06D901339A42C4F8903075
:103AA00040F3C0810744A28BBA48BB4994F801E0B7
:103AB00000683A440133C4F890300023B05084F8D1
:103AC000943001F19802BEF1000F40F06E82A378AD
:103AD000B14A002B40F04382E378AF4A002B40F01C
:103AE00035822379AC4A002B40F0288263790BB3EE
:103AF000AA4B93F90000002800F09782DFF8D892D3
:103B0000A749D9F8000020F099FF21F073F9A449E2
:103B10000FFA80F8D9F8040020F090FF21F06AF93C
:103B200000B214AAE38C22F82C8DADF826003B4499
:103B30001068F050E379984A002B40F02E82A37968
:103B4000954A002B40F01C82237A934A002B40F0C8
:103B50000F82637A904A002B40F0C681A37A8E4A86
:103B6000002B40F0AE81E37A002B00F0CE808D4A2E
:103B70008D4B5088B3F802E0B3F80080B2F800C073
:103B80009188CEEB000E9888ADF826E0C8EB0C0CBF
:103B9000081AADF824C0D188B3F806C0B3F808E01D
:103BA000ADF82800CCEB0101B2F808C05889ADF897
:103BB0002A10CEEB0C0EB2F80AC09989DB89ADF859
:103BC0002CE0C0EB0C00B2F80CC0D289DFF80CE29C
:103BD000ADF82E00D31AC1EB0C017448DFF800C217
:103BE000734ADCF80080ADF83230DEF800C0714B6B
:103BF000D0F800E01068704AADF83010CDF834808D
:103C0000CDF838C0CDF83CE0109012681B781192C6
:103C100000228DF84820002B00F0EB813D20019020
:103C20002320079033200690132005902F20049026
:103C30003F20012303900F208DF8483031222123AB
:103C400011214FF02D0E4FF01D094FF00D0C4FF0CC
:103C50001F0A02904FF0030BDFF8888198F800806C
:103C6000B8F1000F0AD005A90EC90398DDF810E0DD
:103C7000DDF808C08DF848B00190D146DFF86881C2
:103C800098F80080B8F1000F04D0019A8DF848C070
:103C9000734649464948007810B18DF848101346DC
:103CA000474A12780AB18DF8483046484649474A93
:103CB000474BB4F832E00078097812681B688DF839
:103CC0004A00BE448DF84B108DF84C208DF84D30D5
:103CD000B6440DF124080DF14409C446BCE80F00B8
:103CE000CC45CEF80000CEF80410CEF80820CEF86F
:103CF0000C30E0460EF1100EEFD1B8E80700CEF818
:103D00000000CEF80410CEF80820237B224A002BB6
:103D100040F09180637B204A002B40F00981A37B17
:103D20001D4A002B40F0FA80E37B002B40F0F0802E
:103D3000237C002B40F0E680637C002B40F0AD80BC
:103D4000A37C002B40F0A380E37C002B40F0998003
:103D5000237D002B40F08F80637D002B40F0858019
:103D6000A37D002B7BD1E37D002B72D1237E002B22
:103D700069D1637E084A002B40F09580A37E064CF3
:103D8000002B3FF46DAE134FD7F880300993D7E97D
:103D900022012BE0789BFF1FD09CFF1F541B0020AB
:103DA00000007A44348AFF1F448AFF1FA4190020B0
:103DB00088190020FC89FF1FA81900203119002054
:103DC000301900202D1900202C190020CC190020BA
:103DD000C8190020803F00205C1B002034190020FF
:103DE000381900203C1900208C19002020F0C8FC54
:103DF0000A90D7E9240120F0C3FCD7F89830D5F811
:103E000004E0D4F890700B900C9309AD0FCDB4F88A
:103E100050407D1E0EFB0544351930516960AA6083
:103E2000EB601DE60122002384F8942084F895308D
:103E300015B0BDE8F08F938E7D4A3B4403CAF2185B
:103E4000F050516066E77B4B1821586A07F0E8FB99
:103E50008FE7784B1721186A07F0E2FB86E7754B6E
:103E60001621D86907F0DCFB7DE7724B1521D86875
:103E700007F0D6FB74E76F4B1421186907F0D0FBED
:103E80006AE76C4B1321986907F0CAFB60E7694B3E
:103E90001221586907F0C4FB56E7664B1121986858
:103EA00007F0BEFB4CE7D2F890306868B2F84E20BD
:103EB0006149013B00FB03203044502221F022FBEA
:103EC0005CE7DFF8A4E1B2F830C0BEE80F000CEB0D
:103ED000070E06EB0E0C46F80E00CCF80410CCF8DA
:103EE0000820CCF80C303EE654485549D38D09687B
:103EF00002680A92099109AA03CA3B44F218F050D9
:103F000051602BE64B4B1021586807F089FB13E7F3
:103F1000484B0F21186807F083FB09E7494BB2F8BB
:103F200038E007CB7744F319F05159609A60FBE60B
:103F3000D38E454A3B441288F252F0E6938C434AB2
:103F40003B4403CAF218F0505160CFE5538C404A0D
:103F50003B44F11810689288F0508A80C1E5138CB8
:103F60003C4A3B44F11810689288F0508A80B3E5CF
:103F7000938D394A3B4403CAF218F0505160E8E58A
:103F80003649138D91E805000A92099009AA03CADF
:103F90003B44F218F0505160D6E5538D304A3B4413
:103FA00003CAF218F0505160C9E5DFF8C090DFF89D
:103FB000C080DFF880C02B48B1F81EE099F80010EF
:103FC000BCF87CC000788DF82610D8F82011ADF828
:103FD00024C08DF827000A910DF1240CBE44BCE8E2
:103FE0000300C8F8203102EB0E0342F80E005960BE
:103FF0006DE53C200190222007903220069012208F
:1040000005902E2004903E2003900E202023302285
:1040100010214FF02C0E4FF01C094FF00C0C4FF0FC
:104020001E0A02904FF0020B16E6804679E500BFAB
:1040300018190020803F0020981200203C400020EA
:10404000A4130020304000207A3F0020EC3F0020E5
:10405000F8180020F01800209C130020C49CFF1FBB
:10406000681B00202013002064130020151300207B
:10407000A84000202DE9F041002984B014461D46D7
:1040800000680BDB20F030F8124ACDE90001294628
:10409000204621F093FD04B0BDE8F0810E4B0F4A9D
:1040A00053F8B07CB2F900600D4A791C43F8B01C9B
:1040B00052F8268020F018F80197CDE90201434616
:1040C000009629462046074A21F078FD04B0BDE855
:1040D000F08100BF98D1020098130020D441002045
:1040E0005C88FF1F70D10200F0B5002989B004463A
:1040F00011DBB0F9006090F9035090F9024041687B
:104100000291104619468DE830003346164A21F0D8
:1041100055FD09B0F0BD154E154956F8B05C896FD4
:10412000D0F804C0039105F1030EAF1CCDF808E0F0
:10413000019719466B1C94F903E0009394F90270FF
:104140001046B4F9002004922B46CDF81CC0CDF8DF
:1041500018E00597074A21F031FD56F8B03C0433CA
:1041600046F8B03C09B0F0BD08D202009813002018
:10417000803F0020A0D102002DE9F0430029044631
:104180001F4689B01646324BB0F9040027DB1D6884
:1041900020F000FC294620F051FC1FF0A5FFCDE9DE
:1041A0000401B4F9020020F0F5FB294620F046FC9A
:1041B0001FF09AFFCDE90201B4F9000020F0EAFBFC
:1041C000294620F03BFC1FF08FFF224ACDE9000179
:1041D0003946304621F0F2FC09B0BDE8F083D3F84F
:1041E00000901D4D20F0D6FB494620F027FC1FF023
:1041F0007BFFCDE90601B4F9020055F8B08C20F040
:10420000C9FB494620F01AFC1FF06EFFCDE90401FE
:10421000B4F9000020F0BEFB494620F00FFC1FF06F
:1042200063FF08F1020208F10103CDE902010192E6
:104230000093394643463046084A21F0BFFC55F802
:10424000B03C033345F8B03C09B0BDE8F08300BF93
:104250005C0B030044D202009813002018D2020025
:104260002DE9F043002904461F4689B01646324B1B
:10427000B0F9040027DB1D6820F08CFB294620F0F4
:10428000DDFB1FF031FFCDE90401B4F9020020F09D
:1042900081FB294620F0D2FB1FF026FFCDE9020169
:1042A000B4F9000020F076FB294620F0C7FB1FF090
:1042B0001BFF224ACDE900013946304621F07EFC41
:1042C00009B0BDE8F083D3F800901D4D20F062FBEB
:1042D000494620F0B3FB1FF007FFCDE90601B4F912
:1042E000020055F8B08C20F055FB494620F0A6FBA3
:1042F0001FF0FAFECDE90401B4F9000020F04AFBFA
:10430000494620F09BFB1FF0EFFE08F1020208F186
:104310000103CDE90201019200933946434630463C
:10432000084A21F04BFC55F8B03C033345F8B03C4B
:1043300009B0BDE8F08300BF600B030044D2020067
:104340009813002050D20200F0B5002987B00FDB8F
:10435000B0F90050B0F90410B0F902400094019196
:1043600010461946134A2B4621F028FC07B0F0BD31
:10437000114CB0F9041054F8B05CB0F90270B0F907
:104380000060029605F1020C05F1010E0491104641
:104390001946CDF804C02B46CDF800E00397074A34
:1043A00021F00CFC54F8B03C033344F8B03C07B0A7
:1043B000F0BD00BFACD202009813002080D20200F2
:1043C0002DE9F043002987B0044616461F4622DB3C
:1043D0002A4D40686B68C01A20F0DCFA284900F1C9
:1043E000004020F02BFB1FF07FFE22682B68CDE9F8
:1043F0000201D01A20F0CEFA214920F01FFB1FF055
:1044000073FE204ACDE900013946304621F0D6FB43
:1044100007B0BDE8F083DFF864904068D9F8003059
:10442000194DC01A20F0B6FA154955F8B08C20F095
:1044300005FB1FF059FE2268D9F80430CDE90401CC
:10444000D01A20F0A7FA0E4900F1004020F0F6FA49
:104450001FF04AFE08F10103CDE90201009339463D
:1044600043463046094A21F0A9FB55F8B03C0233D7
:1044700045F8B03C07B0BDE8F08300BF941E0020B3
:10448000E62A3136F0D2020098130020B8D202009A
:10449000F0B50029044687B015461E4640680FDB7C
:1044A0001FF022FECDE9020120681FF01DFE124A16
:1044B000CDE900013146284621F080FB07B0F0BD70
:1044C0001FF012FECDE904010C4F206857F8B04CE4
:1044D0001FF00AFE631CCDE902010093314623461A
:1044E0002846074A21F06AFB57F8B03C023347F8E8
:1044F000B03C07B0F0BD00BF38D3020098130020D5
:10450000FCD20200F0B50029044687B015461E46CD
:1045100040680FDB1FF0E8FDCDE9020120681FF0C5
:10452000E3FD124ACDE900013146284621F046FB61
:1045300007B0F0BD1FF0D8FDCDE904010C4F206895
:1045400057F8B04C1FF0D0FD631CCDE90201009379
:10455000314623462846074A21F030FB57F8B03C45
:10456000023347F8B03C07B0F0BD00BF38D30200BB
:104570009813002044D30200F0B5002985B00ADB6F
:10458000046841680091104619460E4A234621F0FE
:1045900015FB05B0F0BD0C4C416854F8B05C0668E2
:1045A00001966F1C02911046194600972B46074A48
:1045B00021F004FB54F8B03C023344F8B03C05B0A1
:1045C000F0BD00BFACD302009813002080D30200DE
:1045D000F0B5002985B00CDBB0F90040B0F902104D
:1045E0000091104619460F4A234621F0E7FA05B01C
:1045F000F0BD0D4CB0F9021054F8B05CB0F9006099
:1046000001966F1C02911046194600972B46074AE7
:1046100021F0D4FA54F8B03C023344F8B03C05B071
:10462000F0BD00BFECD3020098130020B8D3020005
:10463000F0B50029044687B015461E4640680FDBDA
:104640001FF052FDCDE9020120681FF04DFD124A16
:10465000CDE900013146284621F0B0FA07B0F0BD9F
:104660001FF042FDCDE904010C4F206857F8B04C13
:104670001FF03AFD631CCDE9020100933146234649
:104680002846074A21F09AFA57F8B03C023347F817
:10469000B03C07B0F0BD00BF38D302009813002033
:1046A000F4D30200F0B50029044687B015461E4633
:1046B000B0F902001CDB20F06DF91FF015FD00229F
:1046C0001F4B1FF08FFECDE90201B4F9000020F06E
:1046D00061F91FF009FD1A4B00221FF083FE194AF1
:1046E000CDE900013146284621F068FA07B0F0BD57
:1046F00020F050F91FF0F8FC0022114B124F1FF070
:1047000071FECDE90401B4F9000057F8B04C20F077
:1047100041F91FF0E9FC0022094B1FF063FE631C06
:10472000CDE902010093314623462846074A21F08D
:1047300045FA57F8B03C023347F8B03C07B0F0BD3B
:1047400000408F4064D40200981300202CD4020053
:10475000F0B50029044689B015461E46B0F906009A
:104760001DDB1FF0AFFC0022214B1FF03BFED4F8F5
:1047700002300293CDE90401B4F9000020F00AF9F7
:104780001FF0B2FC1B4B00221FF02CFE1A4ACDE991
:1047900000013146284621F011FA09B0F0BD1FF0A2
:1047A00091FC0022124B154F1FF01CFED4F8023072
:1047B0000493CDE90601B4F9000057F8B04C1FF09E
:1047C00081FC00220B4B1FF00DFEA21C631CCDE9E7
:1047D000020101920093314623462846084A21F0FF
:1047E000EDF957F8B03C033347F8B03C09B0F0BDE1
:1047F0000000594000002440BCD40200981300205F
:1048000070D402002DE9F041002904468CB0154611
:104810001E46C0681ADB1FF067FCCDE90601A068E0
:104820001FF062FCCDE9040160681FF05DFCCDE97A
:10483000020120681FF058FC1A4ACDE900013146F8
:10484000284621F0BBF90CB0BDE8F0811FF04CFC0C
:10485000CDE90A01A068DFF854801FF045FCCDE9DE
:104860000801606858F8B07C1FF03EFCCDE90601F5
:1048700020681FF039FCFC1CBA1C7B1CCDE904012C
:104880000192009331463B4628460294064A21F0A5
:1048900095F958F8B03C043348F8B03C0CB0BDE88A
:1048A000F08100BF0CD50200CCD402009813002088
:1048B00070B5002982B014461D461FDB008820F029
:1048C00069F8254920F06EF91FF00EFC4FF03332E5
:1048D000224B1FF05DFC1EA3D3E900231FF058FC00
:1048E0001E4B4FF033321FF07DFD1D4ACDE9000114
:1048F0002946204621F062F902B070BD194B0088AC
:1049000053F8B06C721C43F8B02C20F043F81249F5
:1049100020F048F91FF0E8FB4FF033320F4B1FF047
:1049200037FC0BA3D3E900231FF032FC4FF03332E6
:104930000A4B1FF057FD3346CDE900010A4A2946CC
:10494000204621F03BF902B070BD00BFAFF30080FC
:10495000333333333333304000F0FF453333F33FE9
:104960004CD502009813002024D50200F0B5002990
:10497000044689B015461E46806835DB20F006F8EF
:104980001FF0B2FB00223C4B1FF002FC38A3D3E91E
:1049900000231FF027FDCDE9040160681FF0F6FF3A
:1049A0001FF0A2FB0022344B1FF0F2FB30A3D3E92F
:1049B00000231FF017FDCDE9020120681FF0E6FF7C
:1049C0001FF092FB00222C4B1FF0E2FB28A3D3E93F
:1049D00000231FF007FD294ACDE900013146284692
:1049E00021F0ECF809B0F0BD1FF0D0FF1FF07CFB08
:1049F0000022214B224F1FF0CBFB1DA3D3E9002344
:104A00001FF0F0FCCDE9060160681FF0BFFF1FF04A
:104A10006BFB0022184B1FF0BBFB15A3D3E900234F
:104A20001FF0E0FCCDE90401206857F8B04C1FF0FE
:104A3000ADFF1FF059FB00220F4B1FF0A9FB0CA389
:104A4000D3E900231FF0CEFCA31CCDE902010093A3
:104A50003146234628460B4A21F0B0F857F8B03CBF
:104A6000033347F8B03C09B0F0BD00BFAFF300809E
:104A70000000000060E3964100408F40A0D5020096
:104A80009813002054D502002DE9F043002997B077
:104A9000044615461E4639DB406A1FF025FBCDE96A
:104AA0001201206A1FF020FBCDE91001E0691FF020
:104AB0001BFBCDE90E01A0691FF016FBCDE90C012F
:104AC00060691FF011FBCDE90A0120691FF00CFBA2
:104AD000CDE90801E0681FF007FBCDE90601A068F9
:104AE0001FF002FBCDE9040160681FF0FDFACDE97B
:104AF000020120681FF0F8FA2E4ACDE90001314684
:104B0000284621F05BF817B0BDE8F0831E9B406A91
:104B1000294FA3F10F02092A97BF284BDFF8A49071
:104B200003EB8202D2F824901FF0DEFACDE91401E3
:104B3000206A57F8B08C1FF0D7FACDE91201E0696E
:104B40001FF0D2FACDE91001A0691FF0CDFACDE92E
:104B50000E0160691FF0C8FACDE90C0120691FF051
:104B6000C3FACDE90A01E0681FF0BEFACDE90801F9
:104B7000A0681FF0B9FACDE9060160681FF0B4FA29
:104B8000CDE9040120681FF0AFFA08F10903CDE96F
:104B900002010093CDF80490434631462846084A66
:104BA00021F00CF857F8B03C0A3347F8B03C17B086
:104BB000BDE8F0830CD602009813002024D1020037
:104BC000B8D50200B0D502002DE9F0430029044613
:104BD000AFB015461E46006C65DB1FF085FACDE9C7
:104BE0002401E06B1FF080FACDE92201A06B1FF0D9
:104BF0007BFACDE92001606B1FF076FACDE91E014A
:104C0000206B1FF071FACDE91C01E06A1FF06CFA0D
:104C1000CDE91A01A06A1FF067FACDE91801606AB0
:104C20001FF062FACDE91601A06C1FF05DFACDE924
:104C30001401606C1FF058FACDE91201206A1FF0D0
:104C400053FACDE91001E0691FF04EFACDE90E01EB
:104C5000A0691FF049FACDE90C0160691FF044FA20
:104C6000CDE90A0120691FF03FFACDE90801E068AB
:104C70001FF03AFACDE90601A0681FF035FACDE938
:104C8000040160681FF030FACDE9020120681FF0CE
:104C90002BFA474ACDE900013146284620F08EFF25
:104CA0002FB0BDE8F0831FF01FFACDE92C01E06BB7
:104CB000DFF804811FF018FACDE92A01A06B58F83B
:104CC000B07C1FF011FACDE92801606B1FF00CFADF
:104CD000CDE9260107F10F03206B249307F1120998
:104CE000CDF894901FF000FACDE92201E06A1FF0A0
:104CF000FBF9CDE92001A06A1FF0F6F9CDE91E010C
:104D0000606A1FF0F1F9CDE91C0107F10E02A06CF9
:104D10001B9207F10B031A931FF0E6F9CDE9180176
:104D2000606C1FF0E1F9CDE91601206A1FF0DCF993
:104D3000CDE91401E0691FF0D7F9CDE9120107F1BF
:104D40000A02FB1DA069119210931FF0CDF9CDE965
:104D50000E0160691FF0C8F9CDE90C0120691FF050
:104D6000C3F9CDE90A01E0681FF0BEF9CDE90801F9
:104D7000A0681FF0B9F9CDE9060160681FF0B4F929
:104D8000CDE9040120681FF0AFF93B46CDE90201EF
:104D9000CDF8009031462846064A20F00FFF58F81B
:104DA000B03C133348F8B03C2FB0BDE8F08300BFEF
:104DB00028D702002CD60200981300202DE9F041DC
:104DC000002982B007461446984619DB061F4C3767
:104DD000002556F8040F1FF087F9C5EB0803CDE94D
:104DE0000001224A1946204620F0E8FE204620F025
:104DF000A7FFBE4205440444EBD102B0BDE8F081F8
:104E00001B4D1C4A55F8B03C03F11301009120469C
:104E1000414620F0D3FE55F8B03C2046143345F807
:104E2000B03C20F08DFF3E1F034605464C3756F838
:104E3000040F1C441FF058F9C5EB0803CDE900012D
:104E40000A4A1946204620F0B9FE204620F078FF95
:104E5000B74203460544EAD1074AC5EB08012018CA
:104E600002B0BDE8F04120F0A9BE00BF9CD702000F
:104E70009813002080D70200B0BF02002DE9F04156
:104E8000002904468AB015461E46C0681ADB1FF08A
:104E90002BF9CDE90601A0681FF026F9CDE9040140
:104EA00060681FF021F9CDE9020120681FF01CF9AC
:104EB000184ACDE900013146284620F07FFE0AB0AD
:104EC000BDE8F0811FF010F9CDE90801A068124F8C
:104ED0001FF00AF957F8B08CCDE9060160681FF0A1
:104EE00003F9CDE9040120681FF0FEF808F103037F
:104EF000CDE902010093314643462846074A20F097
:104F00005DFE57F8B03C043347F8B03C0AB0BDE84A
:104F1000F08100BFF0D7020098130020A0D7020054
:104F20002DE9F0430029AFB0044616461F4690F81D
:104F3000245054DB006A1FF0D7F894F9292094F923
:104F400028301992CDE91A01E06918931FF0CCF8C6
:104F500094F9272094F926301592CDE91601A0691D
:104F600014931FF0C1F8CDE91201C5F3001EB4F986
:104F70000E30CDF844E005F00101B4F90C001091B9
:104F8000C5F34002B4F90A100F92B4F908200E9349
:104F9000B4F906300D90B4F904000C91B4F9021084
:104FA0000B92B4F900200A930990C5F3C00360691D
:104FB0000792069308911FF097F8CDE90401C5F315
:104FC0008005206902951FF08FF84F4ACDE9000156
:104FD0003946304620F0F2FD2FB0BDE8F0834B4A51
:104FE0004B4BB2F90E10B2F90C002D91B2F90A1028
:104FF0002C90B2F908002B91B2F906102A90B2F960
:1050000004E02991B2F90200B2F90010CDF8A0E055
:10501000B3F90E202790B3F90C002691B3F90A10CA
:105020002592B3F908202490B3F906002391B3F92F
:105030000410DFF8E4802292B3F90220B3F90030C3
:1050400058F8B09C1F92219020911E93206A1FF067
:105050004BF8CDE91C0194F9292094F92830E06936
:105060001B921A931FF040F8CDE9180194F92720FC
:1050700094F92630A069179216931FF035F8CDE900
:105080001401C5F30011139105F00102B4F90E10DB
:105090001292C5F34003B4F90C201193B4F90A300D
:1050A0001091B4F908100F92B4F906200E93B4F9D8
:1050B00004300D91B4F902100C92B4F900200B9356
:1050C0000A91C5F3C0036069099208931FF00CF8B8
:1050D000CDE90601C5F38005206904951FF004F8A9
:1050E00009F11503CDE90201009339464B463046DC
:1050F000084A20F063FD58F8B03C163348F8B03C3D
:105100002FB0BDE8F08300BF24D90200148AFF1F2E
:10511000048AFF1F00D80200981300202DE9F047F1
:10512000284D294C86B006460068904699460F46A1
:105130001FF02CFC29681FF081FC21681FF074FB14
:1051400001464FF07E501FF02DFD824670681FF023
:105150001DFC69681FF072FC61681FF065FB014669
:105160004FF07E501FF01EFD002F10DB1EF0BCFF25
:10517000CDE9020150461EF0B7FF144ACDE9000107
:105180004946404620F01AFD06B0BDE8F0871EF003
:10519000ABFF0F4CCDE9040150461EF0A5FF54F8BB
:1051A000B03C0C4A5D1CCDE90201009549464046E1
:1051B00020F004FD54F8B03C023344F8B03C06B093
:1051C000BDE8F087E889FF1FF089FF1FF0D20200D9
:1051D0009813002074D902002DE9F041204EDFF829
:1051E00088E0204FCEF8080032460023012102F863
:1051F00001199846CEF804301D4606F11C0006F150
:10520000550106F11A0C12F8014F84B10B78058094
:10521000493BDBB2222B98BF17F9038011F8013C00
:1052200088BF4FF0010808FB03531D46A0466245A6
:1052300000F1020001F10201E5D1B8F1000F0CD13B
:10524000002247F23053C6F8902093FBF5F586F81C
:105250009420C6F88C50BDE8F081CEF80430EFE71A
:10526000D09CFF1F24D102000C88FF1F70B4084D92
:10527000084CD5F89030666805EB40005C1E838BC7
:1052800005F1980006FB0433184470BC20F03AB9CD
:10529000D09CFF1F0C88FF1F114AD2F89030D2F823
:1052A0008C0083421ADA0F4910B44C6802F198015D
:1052B00004FB0311B1F1005F05D30133C2F8903054
:1052C000012010BC70472144B1F1005FF5D90133D2
:1052D0009842C2F89030F0DC0020F2E700207047DE
:1052E000D09CFF1F0C88FF1F034B03EB400080F88E
:1052F000541080F855207047D09CFF1F2DE9F04FC7
:10530000ADF2344D031E0D9340F39F82AC4A194613
:105310005268AC4B02FB01330E931A46B2F1005FA8
:1053200006D2A74B5B681344B3F1005F00F28282A0
:10533000A54F002407F11D06A0460DF1440917F8FA
:10534000012FE3B2002A37D0013B192B00F2F8817C
:10535000DFE813F0DE0113020902BE0197018D019F
:105360007B0154011301EC00E200A6007F007500F0
:105370006A006A006A006A006A006A006A006A00DD
:105380006A006A001A0043020E9A30880D99104490
:10539000C8F57A734A46FFF711FD484620F0D0FC65
:1053A00011AB804403EB08090D9B013300F0EF8142
:1053B000864D2868FEF7CEF801341B2C06F1020654
:1053C000BDD10D9D002D2ADB0D220A23002489F872
:1053D000002011A8012189F8013089F80240FEF768
:1053E0003DFA7B4A02F8AC0C002800F01D822346EF
:1053F000784C794E94F8F01342F8A83C376871B9AC
:105400003368DB1BC72B0AD8704D2868FEF7A2F85B
:1054100094F8F0331BB93368DB1BC72BF5D90D9813
:105420000DF2344DBDE8F08F30880E9B0094184487
:105430004A46C8F57A730D99FFF726FBADE70E9A39
:1054400030880D991044C8F57A734A46FFF78EFAF2
:10545000A3E70D9A3388002AC8F57A7AC0F2FD8155
:105460000E9AD05A1FF096FA5C491FF09BFB1EF073
:105470003BFE4FF033325A4B1EF08AFE4EA3D3E967
:1054800000231EF085FE4FF03332554B1EF0AAFF6D
:10549000544ACDE900015146484620F08FFB7CE795
:1054A0000E993388DFF850A1C8584F4D0B440F9325
:1054B0001FF06CFADAF800101FF0C0FA29681FF02C
:1054C000B3F901464FF07E501FF06CFB0F9B8346F3
:1054D00058681FF05BFADAF804101FF0AFFA696839
:1054E0001FF0A2F901464FF07E501FF05BFB0D9BB1
:1054F000002BC8F57A75C0F2D7811EF0F5FDCDE915
:10550000020158461EF0F0FD384ACDE90001294657
:10551000484620F053FB40E70E9A30880D9910441E
:10552000C8F57A734A46FFF7FBFC36E70E9BB6F8E0
:1055300000B003EB0B050D9BE868002BC8F57A7AE9
:10554000C0F2F8811EF0D0FDCDE90601A8681EF07A
:10555000CBFDCDE9040168681EF0C6FDCDE902016E
:105560000E9B53F80B001EF0BFFD214ACDE9000150
:105570005146484620F022FB0FE7B6F800B00E9BDC
:105580000D9A5B44002AC8F57A7A5868C0F24782BF
:105590001EF0AAFDCDE902010E9B53F80B001EF090
:1055A000A3FD144ACDE900015146484620F006FB10
:1055B000F3E600BFAFF3008033333333333330408F
:1055C0000C88FF1F689DFF1FCF9CFF1F28400020F5
:1055D00098130020B41300201C3F002000F0FF456A
:1055E0003333F33F4CD50200F089FF1FF0D20200A5
:1055F0000CD5020038D30200E889FF1FB6F800B0CE
:105600000E9B0D9A5B44002AC8F57A7A5868BFDA77
:105610001EF06AFDCDE904010E9BB34D53F80B005B
:1056200055F8B0BC1EF060FD0BF10103AF4A0093CA
:10563000CDE902015B465146484620F0BFFA55F8D5
:10564000B03C023345F8B03CA7E60E9B3288981870
:105650000D9B002BC8F57A71C0F237820E9B9B58C8
:10566000426800924846A24A20F0A8FA95E60E9AAF
:1056700030880D991044C8F57A734A46FEF7A0FEAB
:105680008BE635880E9B0D9A2B44002AC8F57A7A52
:10569000B3F90200C0F27A811FF07CF91EF024FDFC
:1056A0000022944B1EF09EFECDE902010E9B585F36
:1056B0001FF070F91EF018FD00228E4B1EF092FEB6
:1056C0008D4ACDE900015146484620F077FA64E65C
:1056D000B6F800B00E9B0D9A5B44002AC8F57A7AA2
:1056E0005868BFF655AF1EF0FFFCCDE904010E9BD4
:1056F0007D4D53F80B0055F8B0BC1EF0F5FC0BF1D6
:105700000103CDE90201009351465B467B4A93E7D2
:105710000E9B30881A180D9B002BC8F57A71C0F2C9
:1057200093810E9B55681B5E029592F903000190D0
:1057300092F9022000924846714A20F03FFA2CE686
:1057400033880E9AD0580D9B002BC8F57A75C0F29D
:105750009F811EF0C9FC6B4ACDE9000129464846ED
:1057600020F02CFA19E60E9A30880D991044C8F5ED
:105770007A734A46FEF774FD0FE60E9A30880D994B
:105780001044C8F57A734A46FEF7F6FC05E65E4B10
:10579000DFF89881D3F800A05C4DDFF84C91DFF87A
:1057A00090B10FE0FEF75AF809F8AC0C2868FDF745
:1057B000D1FE554B1B68CAEB0303642B08D89BF83A
:1057C000F0332BB998F80030012111A8002BE9D152
:1057D0004FF000080DF14409EBE50E9BB6F800B060
:1057E00003EB0B050D9BE868002BC8F57A7AC0F235
:1057F000F5801EF079FCCDE90601A8681EF074FC66
:10580000CDE9040168681EF06FFCCDE902010E9B32
:1058100053F80B001EF068FC3D4ACDE900015146EB
:10582000484620F0CBF9B8E552F8A83C691E0D9126
:105830000133DDE5374A0D99D2F8902001319142CC
:105840000D91BFF6ECAD0E9372E5334A264B0E92E6
:10585000012243F8B02C0E9A60E5234A0E9952F8C3
:10586000B05CC85A6B1C42F8B03C1FF093F82B494F
:105870001FF098F91EF038FC4FF03332284B1EF021
:1058800087FC17A3D3E900231EF082FC4FF03332CC
:10589000234B1EF0A7FD2B46CDE90001214A5146BE
:1058A000484620F08BF978E51EF01EFCDFF838A0A2
:1058B000CDE9040158461EF017FC5AF8B03C1A4ACC
:1058C000CDE90201581C00902946484620F076F99F
:1058D0005AF8B03C02334AF8B03C5EE5AFF30080C2
:1058E000333333333333304098130020FCD202007B
:1058F000ACD3020000408F4064D40200F4D3020015
:1059000008D2020098D102001C3F0020284000204D
:10591000F0D70200D09CFF1F689DFF1F00F0FF45DD
:105920003333F33F24D5020074D902007E9BFF1F5E
:10593000B41300201EF0D8FBCDE90A01A8681EF0C0
:10594000D3FBCDE908016B4B686853F8B05C1EF0DF
:10595000CBFBCDE906010E9B53F80B001EF0C4FBF8
:10596000EA1CCDE904016B1CA81C02920190009373
:1059700051462B46604A484620F020F95D4B5D4A6F
:1059800053F8B03C043342F8B03C06E51FF002F88F
:105990001EF0AAFB0022594BDFF858B11EF022FD81
:1059A000CDE904010E9B585F5BF8B05C1EF0F2FF7E
:1059B0001EF09AFB0022514B1EF014FD6B1CCDE92A
:1059C0000201009351462B464D4A484620F0F6F816
:1059D0005BF8B03C02334BF8B03CDEE41EF084FBD5
:1059E000CDE90801A8681EF07FFBCDE90601414B17
:1059F000686853F8B05C1EF077FBCDE904010E9B9C
:105A000053F80B001EF070FBEB1CCDE90201009374
:105A100051462B463B4A484620F0D0F8AEE71EF0F0
:105A200063FBCDE904010E9B324D53F80B0055F892
:105A3000B0BC1EF059FB0BF10103CDE9020100934C
:105A400051465B46304AF7E55368079392F90330B5
:105A50000693284D92F902E00E9A55F8B03CDFF813
:105A6000C0C0CDF814E0105E0490DCF878200392FA
:105A7000D81C9A1C0290581C8DE80500234A484601
:105A800020F09CF855F8B03C043345F8B03C84E471
:105A9000184B1F4A53F8B0ACB2F900201D490F92C1
:105AA0000AF1010E43F8B0EC51F822B01EF01CFBD5
:105AB0000F9A0092CDE90201CDF804A05B46294679
:105AC000154A484620F07AF867E40A4D406855F8D0
:105AD000B03C02900E98825801925A1C009248469F
