:10000000F8FF02209901000091D5010049D50100B7
:1000100049D5010049D5010049D5010049D5010064
:1000200049D5010049D5010049D5010091D501000C
:1000300091D5010049D50100CD2702003D2D0200D8
:1000400091D5010091D5010091D5010091D5010014
:1000500091D5010091D5010091D5010091D5010004
:1000600091D5010091D5010091D5010091D50100F4
:1000700091D5010091D5010091D5010091D50100E4
:1000800091D5010091D5010091D5010091D50100D4
:1000900091D5010091D5010091D5010091D50100C4
:1000A0009D490200A949020091D5010091D50100A6
:1000B00091D5010091D5010091D50100B5BE010097
:1000C00091D501005DEA010091D50100B97B0100E5
:1000D00091D5010095DB010091D501001971010056
:1000E00091D5010091D5010091D5010091D5010074
:1000F00091D5010091D5010091D5010091D5010064
:10010000AD2E0200C12E0200D52E0200E92E020003
:1001100091D50100997E010091D5010091D5010092
:1001200091D5010091D5010091D5010091D5010033
:1001300091D5010091D5010091D5010091D5010023
:10014000810A020091D5010099D4010091D50100E6
:100150005DB6010091D5010091D5010091D5010056
:1001600091D5010049720100B549020091D5010005
:1001700091D5010091D5010091D5010091D50100E3
:1001800091D5010091D5010091D5010091D50100D3
:1001900091D5010091D50100584B4CF2205210B579
:1001A0001A804DF628121A8000BF00BF1DF0F4F926
:1001B000534B4FF030621A60524A9A60524ADA60EA
:1001C000524B4FF470021A60514A136813F4807353
:1001D00004D150490B604FF4A85313604E4B1A786A
:1001E000110703D51A7842F008021A704B4B4C499C
:1001F0002A221A704B4A4C4B8B4204D252F8040FFD
:1002000043F8040BF8E7494B494900228B4202D2DC
:1002100043F8042BFAE74749474A002352F82300E2
:1002200041F823000133662BF8D1444B444A802126
:1002300003F8011B9342FBD1424B3E4A1A60424BEA
:100240008A221A70A3F5805324225A70A0221A70B1
:100250009A799207FCD59A79D406FCD43B4A9379D3
:1002600003F00C03082B394BF9D103221A714622F3
:100270005A719A799006FCD5344A9179334B4906E4
:10028000FBD5334A4FF08271116009215160202261
:100290001A709A7902F00C020C2AFAD12D4B2E4AD0
:1002A0001A602E4B2E4A1A6000225A60072243F829
:1002B000042C2C4AC3F80C2D62B618F0BBFC154B6D
:1002C0001B68DA0705D5284818F06EFC274B284A2A
:1002D0001A60284B1B785B0609D5244C244B2268F6
:1002E0009A4204D1204818F05FFC0023236030F0CC
:1002F000B1FB1DF057F917F03FF8FEE70E2005405F
:1003000030800440823F04000100002B88ED00E0B3
:1003100010D0034014D0034002D0074000E0074053
:10032000701FFF1FFCE90300F806FF1F701FFF1F6F
:10033000EC6900200002FF1F0000000000E400E064
:1003400056E400E008ED00E00050064000400640A2
:100350004480044004800440C010050014E000E024
:10036000BFD401000000202000DD68501CE00340E5
:10037000A5C3945A00F00740FFFFFFFFFFFFFFFFF8
:10038000FFFFFFFFFFFFFFFFFFFFFFFFFFFFFFFF7D
:10039000FFFFFFFFFFFFFFFFFFFFFFFFFFFFFFFF6D
:1003A000FFFFFFFFFFFFFFFFFFFFFFFFFFFFFFFF5D
:1003B000FFFFFFFFFFFFFFFFFFFFFFFFFFFFFFFF4D
:1003C000FFFFFFFFFFFFFFFFFFFFFFFFFFFFFFFF3D
:1003D000FFFFFFFFFFFFFFFFFFFFFFFFFFFFFFFF2D
:1003E000FFFFFFFFFFFFFFFFFFFFFFFFFFFFFFFF1D
:1003F000FFFFFFFFFFFFFFFFFFFFFFFFFFFFFFFF0D
:10040000FFFFFFFFFFFFFFFFFFFFFFFFDEF9FFFF23
:1004100010B5054C237833B9044B13B10448AFF33E
:1004200000800123237010BD701FFF1F000000001B
:10043000F8E90300084B10B51BB108490848AFF3B1
:1004400000800848036803B910BD074B002BFBD0A0
:10045000BDE81040184700BF00000000741FFF1FD8
:10046000F8E90300701FFF1F00000000F0B4164EF3
:10047000164A174F06624262164E174A8762C662D4
:10048000164F174E0263174A4763866305271926DE
:10049000C2637D220780468040F2712740F63546D0
:1004A00082800022C7800681026442648264C26442
:1004B0000265C260026142618261C261426580F888
:1004C0005820F0BC704700BFDD2A0000F12B00006F
:1004D00049C2000071F70000E92C0000F52D000072
:1004E000012F0000D52F0000704700BF07291FD83B
:1004F000042A1DD8F0B54FF0010E8469C76806695B
:1005000045690EFA01F1CB4304EA030CC469C0F853
:1005100018C000EB82021F401E401D402340C760F0
:1005200006614561C361D3681943D1607046F0BD6F
:1005300000207047072913D8F0B40123C768066963
:100540004469C56982698B40D9430F400E400C4015
:100550000A40C760294006614461F0BC8261C16104
:10056000704700BF2DE9F843444B93F90030002B4E
:1005700006466DDB1BF024FC1428D4BF00200120AC
:10058000002861D006F10800012150F8043FDFF88F
:10059000F0C0002B354606F1540E01F1FF374FDD58
:1005A000DCF80020446BB5F80090DFF8D480121B13
:1005B0004A4538D99EF80040013404F0070443FA54
:1005C00004F2D2074BD4013404F0070443FA04F2D6
:1005D000D20744D4013404F0070443FA04F2D207EA
:1005E0003DD4013404F0070443FA04F2D20736D4B0
:1005F000013404F0070443FA04F2D2072FD4013483
:1006000004F0070443FA04F2D20728D4013404F0BA
:10061000070443FA04F2D20721D4013404F007049A
:100620002341DB071BD4052910D050F8043F0131CA
:10063000002B05F102050EF1010E01F1FF37AFDCD1
:100640000529F2D1BDE8F883BDE8F883BDE8F88359
:100650001EF02CFF3C28D4BF0020012090E704F1BD
:10066000080356F823309847F2191037D8F80030AD
:1006700082F8544046F82730BDE8F883E407FF1FAE
:100680007C5F00202DE9F041861EA4B000F1080532
:10069000002455F8043F36F8022F0092C3F3801C63
:1006A000C3F3401EC3F3C000C3F38001C3F3400291
:1006B000C3F3C018C3F3001703F00103CDF81CC047
:1006C000CDF818E00490039102920193094ACDF805
:1006D00020802346642105970BA831F095F801345A
:1006E00000210BA804F058FE052CD2D124B0BDE89F
:1006F000F08100BF3477030010B5044600F0F4FD2C
:100700000023C4F87431204610BD00BF70B400F55A
:10071000B876002501248662456280F82C40C161CC
:100720000262C0F8743170BC704700BF2DE970439D
:10073000044601F067F9D4F874519DB3224BD4F804
:1007400070611B7883B326F000402FF091FA1F4BA5
:100750008046186820F0004089462FF089FA16A3D9
:10076000D3E900232FF0D8FA15A3D3E900232FF003
:1007700021F902460B46404649462FF03FFD98B905
:100780000021304630F0DAF830B1314630462FF0F3
:1007900011FE2860BDE8708306F1004108462FF085
:1007A00009FE6860BDE870832E60D4F8703103F1F3
:1007B00000436B60BDE87083333333333333D33F4F
:1007C0009A9999999999B93F5C3300207833002020
:1007D00010B5044600F088FD4FF07C53C4F880311A
:1007E0000023C4F87431C4F87831204610BD00BF2E
:1007F000F0B4C16100F5B8770026012500F5BE749C
:1008000004998762466280F82C500462C0F8743103
:10081000C0F87821C0F88011F0BC70472DE9704312
:10082000D0F878615C4975680446284630F068F86D
:10083000002840D0594B1B78002B60D0584BD8680B
:1008400020F000402FF014FA4BA3D3E900232FF03F
:10085000D5FC002840F08D803668E36930461D687D
:100860002FF006FA8046284689462FF001FA44A365
:10087000D3E900232FF09EF802460B464046494636
:100880002FF0BCFC002837D1C4F87C510021204651
:1008900001F0B8F8D4F8745165B3404BD4F87061E6
:1008A0001B78002B33D12E60D4F8703103F1004354
:1008B0006B60BDE870834FF07A51284630F020F825
:1008C0000028C9D0354B1B78002BC5D1E6694FF005
:1008D0007A5128462FF06CFD014630682FF06AFDF2
:1008E0000021C4F87C01204601F08CF8D4F8745142
:1008F000002DD2D1BDE87083C4F87C61C6E74FF00B
:100900007A5128462FF0FCFF0028DFD1A4E726F01B
:1009100000402FF0ADF9234B8046186820F00040CE
:1009200089462FF0A5F918A3D3E900232FF0F4F995
:1009300017A3D3E900232FF03DF802460B464046AB
:1009400049462FF05BFC0028ADD1002130462FF046
:10095000F5FF30B1314630462FF02CFD2860BDE860
:10096000708306F1004108462FF024FD6860BDE861
:100970007083E6690849ACE7333333333333C33F1D
:10098000EC51B81E85EBB13F333333333333D33FB0
:100990009A9999999999B93F3333B33E5C330020C2
:1009A000B83300207833002010B5044600F09CFCDA
:1009B0000023C4F87431C4F87C31C4F88031204677
:1009C00010BD00BFF0B4059CC16100F5B87700F51B
:1009D000BC7600250499C0F87C21069A87620662DD
:1009E0004562C0F87441C0F88031C0F88411C0F885
:1009F0008821F0BC704700BF2DE9F843D0F884315E
:100A00001B78044623B13A4B93F90030002B44D0B5
:100A10000021204600F0F6FFD4F87451002775B38A
:100A2000344BD4F870611B7883B326F000402FF06C
:100A30001FF9314B8046186820F0004089462FF09E
:100A400017F927A3D3E900232FF066F926A3D3E9EA
:100A500000232EF0AFFF02460B46404649462FF0DA
:100A6000CDFB98B9002130462FF068FF40B33146E6
:100A700030462FF09FFC28600FB1BDE8F883A26AD2
:100A800000232B606B601360BDE8F8832E60D4F800
:100A9000703103F100436B60EEE7D0F888311B78CA
:100AA000ABB9D0F880311B68C0F8783100212046FE
:100AB00000F0A8FFD4F87451002DDED00127AFE775
:100AC00006F1004108462FF075FC6860D4E7D0F8C5
:100AD0007C311B68C0F87831E8E700BFAFF30080D5
:100AE000333333333333D33F9A9999999999B93F33
:100AF000AD3900205C3300207833002010B5044667
:100B000000F0F2FB0023C4F87431C4F878312046B9
:100B100010BD00BF70B4161D00F5B8750024C0F8F4
:100B2000786105624462C161C0F87421836270BC5F
:100B3000704700BFD0F87421D0F8783170B51568CF
:100B40001E680446314628462FF0F8FE00B93546A7
:100B5000C4F8705120460021BDE8704000F052BF3B
:100B600010B5044600F0C0FB204610BDF0B4049C54
:100B7000C0F8784100F5BE77002600F5C075076221
:100B800046628562C161C0F87021C0F87431F0BC62
:100B9000704700BFD0F87431D0F87021196870B573
:100BA000044610682FF004FC0021C4F87C012046A4
:100BB00000F028FFA26A0C4B16681D6830462946D3
:100BC0002FF0BCFE50B905F10045294630462FF004
:100BD00097FE18B9D4F878311E6070BDD4F878212A
:100BE00001231560637070BD7833002010B5044692
:100BF00000F07AFB00220023C4F87021C4F874319D
:100C0000204610BD70B582B000261546009600F54E
:100C1000BA72044600F0EEFEC4F8705102B070BD26
:100C200070B5144B93F90030032B0446D0F87031A3
:100C300008D05B68C0F8743100212046BDE87040E0
:100C400000F0E0BE1E685D68304629462FF058FE71
:100C500038B1C4F8746120460021BDE8704000F04E
:100C6000D1BEC4F8745120460021BDE8704000F0A8
:100C7000C9BE00BF7C3300200449C1604FF07E52E2
:100C80000021017082604260704700BF6F12833A9A
:100C90002DE9F041416004460F468260002118466C
:100CA00090461E462FF036FE78B903460025237085
:100CB000304629462FF02EFE50B94FF07E53256165
:100CC0006561A361E361BDE8F0814FF00103EDE7E9
:100CD000414640462FF06EFBE668314680462FF0D5
:100CE00069FB41460546A06130462FF061FB29466D
:100CF0002FF01CFD3946E06138462FF05BFB0146C2
:100D0000074630462FF056FB29462FF00FFD394697
:100D1000206130462FF04CFB29462FF007FD606123
:100D2000BDE8F081F8B503783BB94FF07E5200235F
:100D30008261C26103614361F8BD8168044608466F
:100D40002FF038FBE668314607462FF033FB394673
:100D50000546A06130462FF02BFB29462FF0E6FC1C
:100D60006168E06108462FF025FB014607463046E2
:100D70002FF020FB29462FF0D9FC39462061304660
:100D80002FF016FB29462FF0D1FC6061F8BD00BFA3
:100D90000023036243628362C3627047037870B5C5
:100DA000044613B90020A06270BDC069E16A256ADB
:100DB00000F100402FF006FC2169064628462FF07E
:100DC00001FC014630462FF0F5FA616A064660697B
:100DD0002FF0F8FB014630462FF0ECFA6562E06236
:100DE000A06270BD2DE9F0430E4683B0044601A910
:100DF0003046002232F06CFB019D031C18BF01231A
:100E0000AE4223700ED303BB4FF07E520023A2618B
:100E1000E26123616361AE4234BF2846002003B023
:100E2000BDE8F083284601A932F094FA2F46019DCF
:100E30006060AF422E4632D2284601A932F08AFACB
:100E40002378019DA060002BDED0A16808462FF01A
:100E5000B1FAD4F80C80414681462FF0ABFA4946EE
:100E60000746A06140462FF0A3FA39462FF05EFCFA
:100E70006168E06108462FF09DFA014681464046D0
:100E80002FF098FA39462FF051FC49462061404630
:100E90002FF08EFA39462FF049FC6061BBE73E46E1
:100EA0002378B0E7F0B5044685B080682778164609
:100EB0000D462EF0DDFECDE9020160682EF0D8FE71
:100EC0003B46CDE90001054A3146284630F09CFCFE
:100ED000284605B0BDE8F04030F032BF5C77030033
:100EE000037803B9704710B50446416804480AF016
:100EF0004BF9A1680248BDE810400AF045B900BFAF
:100F000010390020F8B5037804467BB1234BB3F9C0
:100F10000030002B12DD22480AF08EF96060204874
:100F20000AF08AF92378A060002B34D14FF07E526A
:100F30000023A261E26123616361F8BD184A816800
:100F4000D3680833D36008462FF034FAE668314698
:100F500007462FF02FFA39460546A06130462FF09C
:100F600027FA29462FF0E2FB6168E06108462FF07E
:100F700021FA0146074630462FF01CFA29462FF089
:100F8000D5FB3946206130462FF012FA29462FF062
:100F9000CDFB6061F8BD0146D5E700BF3662002099
:100FA0001039002030B4074A074C82604FF07E555C
:100FB000002201214560C46041700270027430BC9F
:100FC000704700BF6F12833A0024744938B5047823
:100FD000C26041603CB94FF07E520023C2610262A0
:100FE0004361836138BD0446084615462FF0E2F997
:100FF0000A4B23620146E061A0682FF097FB084985
:101000006061A06128462FF07BFC4FF0010308B11E
:10101000237438BD0346237438BD00BF000080BF71
:101020000000C6422DE9F04383B002AF0E4647F8F8
:10103000041D044639463046002232F049FA019D2B
:10104000003018BF0120AE42207010D32378002B4F
:1010500032D14FF07E520023E26122626361A361CC
:10106000AE4234BF2846002003B0BDE8F0832846D6
:10107000394632F06FF9A846019D6060A845A9463F
:1010800041D22846394632F065F92049E0600546EC
:101090002FF036FC48BB019D2E46A94531D228468B
:1010A0003946002232F014FA2378019D003018BF2F
:1010B00001206070002BCCD0616808462FF07AF9CF
:1010C000134B23620146E061A0682FF02FFB11490A
:1010D0006061A061E0682FF013FC4FF0010308B1DC
:1010E0002374BDE703462374BAE7284600212FF096
:1010F0001BFC019D18B101232E462374CDE72E461B
:10110000CBE74E46A2E74646A0E700BF002474495D
:10111000000080BF0000C64270B5037C86B0044664
:101120000D461646CBB1C0682EF0A2FD02460B4616
:10113000617860680491CDE902232EF099FD23784F
:101140000B4ACDE900013146284630F05DFB2846C8
:1011500006B0BDE8704030F0F3BD03A3D3E900232F
:10116000E6E700BFAFF300800000000080842E415E
:101170006877030003783BB94FF07E520023C261C9
:101180000262436183617047416810B504460846B6
:101190002FF010F90A4B23620146E061A0682FF09E
:1011A000C5FA08496061A061E0682FF0A9FB4FF023
:1011B000010308B1237410BD0346237410BD00BFA2
:1011C000000080BF0000C642002343628362C36206
:1011D00003637047F8B503783BB30446006A216B9C
:1011E000676A00F100402FF0EDF961690546384665
:1011F0002FF0E8F9014628462FF0DCF8A16A0546F1
:10120000A0692FF0DFF9014628462FF0D3F8237CA0
:10121000E062054633B1E66831462FF08FFB38B106
:10122000E66235462563A762F8BD0023C362F8BDB8
:1012300006F10046314628462FF062FB0028EFD128
:10124000F0E700BF037803B9704710B50446416862
:10125000044809F099FFE1680248BDE8104009F030
:1012600093BF00BF10390020037810B5044673B156
:10127000194BB3F90030002B11DD184809F0DCFFE1
:101280006060164809F0D8FF2378E0605BB94FF042
:101290007E520023E26122626361A36110BD0F4AA6
:1012A000D3680833D360616808462FF083F80C4B8D
:1012B00023620146E061A0682FF038FA09496061B5
:1012C000A061E0682FF01CFB4FF0010308B123740C
:1012D00010BD0346237410BD366200201039002073
:1012E000000080BF0000C642F8B5044600254FF05C
:1012F0007E56254B254F4FF0010E00220261E3631D
:10130000A366C4F8A030C4F8CC30C4F80431C4F8E3
:10131000343184F861E0062284F8305084F860505B
:1013200084F8705084F8945084F8C45084F8D450F1
:1013300084F8F85084F8285125702575A6636663F3
:101340006666C4F89C60C4F89860C4F8C860C4F8C5
:101350000061C4F8FC60C4F83061C4F82C61A66078
:10136000E766C4F8D070023084F8C5E0A76130F0B9
:10137000D5FD26612573E56125626562A56284F865
:101380002C502046F8BD00BF6F12833A00247449E8
:101390000023036543658365C365C0F88430C0F8E6
:1013A0008830C0F88C30C0F89030C0F8B430C0F845
:1013B000B830C0F8BC30C0F8C030C0F8E830C0F871
:1013C000EC30C0F8F030C0F8F430C0F81831C0F894
:1013D0001C31C0F82031C0F82431C0F84831C0F8C1
:1013E0004C31C0F85031C0F8543170472DE9F04706
:1013F000861C82B0044630460F4630F0A1FC3146D0
:1014000002460546384630F039FDB0F100080CBF01
:101410000126002603D0304602B0BDE8F0873D44E7
:10142000284669460A2232F053F8009F003018BF60
:101430000120BD422070EED26946384631F08AFF65
:101440000099A0608F42E6D204F1C400FFF7EAFDE4
:1014500005460028DFD0424601A932F039F8019F45
:10146000031C18BF0123BD4284F8F830B846C0F011
:101470009D80002B40F0F4804FF07E520023C4F892
:101480001021C4F81421C4F80831C4F80C31AF425B
:10149000C1D9002FBFD0002201A9384632F018F878
:1014A000019D031C18BF0123AF4284F82831A846D0
:1014B00067D3002B40F004814FF07E520023C4F824
:1014C0004021C4F84421C4F83831C4F83C31BD424D
:1014D000A1D9002D9FD0002201A9284631F0F8FFA4
:1014E000019F031C18BF0123BD4284F83030B84669
:1014F00034D3002B40F014814FF07E520023A264BD
:10150000E26423646364AF4285D9002F83D03946F7
:1015100004F16000FFF786FD054600283FF47BAF2D
:101520000022694631F0D4FF009F003018BF01202F
:10153000BD4220734FD300226946284631F0C8FFD0
:10154000009B003018BF0120AB4220757FF663AFCF
:101550006946184631F0FEFEA0615CE7384601A9F5
:1015600031F0F8FE019F6063B8453D4680F034815C
:10157000384601A931F0EEFE94F83030019FA063A7
:10158000B7E7284601A931F0E5FE019DC4F82C011A
:10159000A8452F4680F02881284601A931F0DAFEBF
:1015A00094F82831019DC4F8300182E7384601A93A
:1015B00031F0D0FE019FC4F8FC00B8453D4680F0F4
:1015C0000F81384601A931F0C5FE94F8F830019F2B
:1015D000C4F800014DE76946384631F0BBFE206192
:1015E000002F3FF418AFDDF80080474580F0F2800F
:1015F000002201A9404631F06BFF019D031C18BF7A
:101600000123454584F894302F4614D8002B40F030
:10161000B1804FF07E520023C4F8AC20C4F8B02053
:10162000C4F8A430C4F8A83045457FF6F4AE002DC8
:101630003FF4F1AE7FE7284601A931F08BFE019D12
:10164000C4F89800AF42A84680F0D280284601A98D
:1016500031F080FE94F89430019DC4F89C00D5E7E9
:10166000D4F8001108462EF0A5FED4F8049149469E
:1016700082462EF09FFE51468046C4F8100148462F
:101680002EF096FE41462FF051F8D4F8FC10C4F825
:10169000140108462EF08EFE0146824648462EF082
:1016A00089FE41462FF042F85146C4F808014846E9
:1016B0002EF07EFE41462FF039F8C4F80C01E6E624
:1016C000D4F8301108462EF075FED4F8349149460E
:1016D00082462EF06FFE51468046C4F840014846CF
:1016E0002EF066FE41462FF021F8D4F82C11C4F8F4
:1016F000440108462EF05EFE0146824648462EF022
:1017000059FE41462FF012F85146C4F838014846B8
:101710002EF04EFE41462FF009F8C4F83C01D6E603
:10172000A16B08462EF046FED4F83C90494682460E
:101730002EF040FE51468046A06448462EF038FE0A
:1017400041462EF0F3FF616BE06408462EF032FE56
:101750000146824648462EF02DFE41462EF0E6FF19
:101760005146206448462EF023FE41462EF0DEFF0F
:101770006064C8E6D4F89C1008462EF01BFED4F82E
:10178000A090494682462EF015FE51460746C4F801
:10179000AC0048462EF00CFE39462EF0C7FFD4F8B8
:1017A0009810C4F8B00008462EF004FE01468246A8
:1017B00048462EF0FFFD39462EF0B8FF5146C4F8DA
:1017C000A40048462EF0F4FD39462EF0AFFFC4F8D1
:1017D000A80029E73D46AEE6454694F8303088E655
:1017E000454694F8F83044E6474694F8283160E6D8
:1017F000B84694F8943009E72DE9F043054687B0E0
:10180000806817460E462EF033FA2A780092CDE90A
:101810000201AB1C39463046714A2FF0F5FF95F8AE
:10182000D430044606EB0008C0EB0709002B00F09B
:10183000CB80D5F8D0002EF01BFA02460B4695F867
:10184000C510D5F8C8000491CDE902232EF010FA96
:1018500095F8C430634ACDE90001494640462FF06F
:10186000D3FF404630F06CFA0444D5F8000195F8F7
:10187000F8902EF0FDF9CDE90201D5F8FC002EF02C
:10188000F7F906EB04083A1B4B46CDE90001114677
:101890004046554A2FF0B8FF404630F051FA044414
:1018A000D5F8300195F828912EF0E2F9CDE9020142
:1018B000D5F82C012EF0DCF906EB04083A1B4B4658
:1018C000CDE9000111464046474A2FF09DFF4046B2
:1018D00030F036FA0444A86B95F830902EF0C8F931
:1018E000CDE90201686B2EF0C3F906EB04083A1B40
:1018F0004B46CDE90001114640463B4A2FF084FF9C
:10190000404630F01DFA95F87030044406EB0408A8
:10191000C4EB0709002B5BD0E86E2EF0A9F9024654
:101920000B4695F86110686E0491CDE902232EF004
:101930009FF995F860302B4ACDE9000149464046B1
:101940002FF062FF404630F0FBF90444286995F817
:101950000C802EF08DF9C4EB070E32194346CDE909
:10196000000171461046214A2FF04EFF0444D5F87D
:101970009C0095F894902EF07BF9CDE90201D5F802
:1019800098002EF075F906EB04083A1B4B46CDE99A
:10199000000111464046144A2FF036FF404630F011
:1019A000CFF90444A8692D7D2EF062F93F1B26442F
:1019B000CDE900012B46394630460D4A2FF024FF71
:1019C000204407B0BDE8F08303A3D3E9002336E742
:1019D00001A3D3E90023A4E70000000080842E4186
:1019E00078770300687703005C770300847703004F
:1019F0008C77030010B4019C4462C161026283626F
:101A000010BC70472DE9F84F0378002B00F03081AF
:101A1000037B0E460446002B40F0C9800023C569B5
:101A2000C0F8583194F83030002B40F032812B68E8
:101A3000C4F85C3194F82831002B00F02381636AEC
:101A4000002B00F0C881D4F820801968D4F82C014C
:101A50002EF0B8FDD8F800102EF0ACFC0746C4F804
:101A6000600194F82C30D4F85C512BB3D8F80010F6
:101A700028462EF09DFC2EF0FBF8A7A3D3E9002307
:101A8000804689462EF0D8FB002840F0228140464F
:101A90004946A3A3D3E900232EF0B0FB60B128464A
:101AA0002EF0E6F8A0A3D3E900232DF083FF2EF05B
:101AB0002BFC0546C4F85C01394628462EF078FC1C
:101AC000A1682EF07FFD94F8F830C4F86401054653
:101AD0008BB3002E40F00B81D4F81C71D4F8241184
:101AE000D4F81401C4F8185100F100402EF06AFD3A
:101AF000D4F80811804628462EF064FD0146404681
:101B00002EF058FCD4F80C11804638462EF05AFDC1
:101B1000014640462EF04EFCC4F81C51C4F820018A
:101B2000C4F82401C4F86401002E00F0EE80804B5C
:101B30009D61D861054694F8C430002B73D063785A
:101B4000C4F8E850002B67D1D4F8E400D4F8F410BE
:101B500000F100402EF036FDD4F8D8100646284695
:101B60002EF030FD014630462EF024FCD4F8EC1067
:101B70000646D4F8DC002EF025FD014630462EF056
:101B800019FC94F8D430C4F8F000064653B1D4F8E8
:101B9000D07039462EF0D2FE002800F01281C4F831
:101BA000F0703E46C4F8F460C4F8EC5036E0C56905
:101BB000016928682EF006FD94F89430C4F85801A5
:101BC0000746002B3FF42EAFD4F8B000D4F8C01075
:101BD000C4F8B47000F100402EF0F4FCD4F8A41066
:101BE000804638462EF0EEFC014640462EF0E2FBE1
:101BF000D4F8B8108046D4F8A8002EF0E3FC0146D3
:101C000040462EF0D7FBC4F8B870C4F8BC00C4F846
:101C1000C000C4F8580105E7D4F8F0602846314602
:101C20002EF0C8FB05462846D4F858112EF0C2FB0A
:101C300094F86030C4F868010546002B7AD1C4F8E6
:101C40006C51237DCBB1A669294630462EF058FE53
:101C5000002854D106F10046304629462EF06EFE8B
:101C6000A26A002853D0012316606370BDE8F88F84
:101C7000836A00221A60BDE8F88FA26A156063705B
:101C8000BDE8F88FD4F82080D8F80070C4F86071EF
:101C9000E7E6E06C2D68E16D256500F100402EF06F
:101CA00091FC216C074628462EF08CFC01463846F4
:101CB0002EF080FB616D0746606C2EF083FC0146C0
:101CC00038462EF077FB6565A065E065C4F85C01D9
:101CD000B0E628462DF0CCFF13A3D3E900232DF066
:101CE00067FE2EF011FB0546C4F85C01E4E6104BDC
:101CF000D4F81C71D4F824111F615961F0E6A26A6E
:101D0000012316606370BDE8F88F054613E70023D2
:101D100015606370BDE8F88F182D4454FB2109400D
:101D2000182D4454FB2109C0182D4454FB2119409F
:101D3000F0320020D4F88000D4F89010C4F8845019
:101D400000F100402EF03EFC616F064628462EF062
:101D500039FC014630462EF02DFBD4F8881006469B
:101D6000A06F2EF02FFC014630462EF023FB94F896
:101D70007030C4F88C0006463BB1E76E39462EF051
:101D8000DDFDA8B1C4F88C703E4694F86130C4F80B
:101D90009060C4F888503BB1284631462EF00AFBCB
:101DA0000546C4F86C014CE7C4F86C61354648E759
:101DB00007F10047394630462EF0A2FD0028E1D158
:101DC000E3E707F10047394630462EF099FD002839
:101DD0007FF4E5AEE6E6002E5FD1D4F84C71D4F87E
:101DE0005491D4F82080D8F80050394628462EF077
:101DF000DFFA2DF03DFF40A3D3E9002382468B4656
:101E00002EF01AFA002851D038462DF031FF3CA3AD
:101E1000D3E900232DF0CEFD2EF076FAC4F84C0164
:101E2000074648462DF024FF35A3D3E900232DF0C3
:101E3000C1FD2EF069FAC4F85401D8F8005081466B
:101E4000D4F84401C4F84851494600F100402EF04E
:101E5000B9FBD4F83811814628462EF0B3FB014671
:101E600048462EF0A7FAD4F83C11814638462EF0A9
:101E7000A9FB014648462EF09DFAC4F84C5107468E
:101E8000C4F85001C4F85401C4F86001002E3FF4B6
:101E9000E8AD1F4B9D60D860E3E51D4BD4F84C7155
:101EA000D4F854911F60C3F804909AE750465946FD
:101EB00015A3D3E900232EF0A1F90028C0D038469D
:101EC0002DF0D6FE0EA3D3E900232DF071FD2EF0E8
:101ED0001BFAC4F84C01074648462DF0C9FE08A37A
:101EE000D3E900232DF064FD2EF00EFAC4F854015E
:101EF0008146D8F80050A3E7182D4454FB2109402F
:101F0000182D4454FB211940182D4454FB2109C0BD
:101F1000F032002090F8C430017810B504460BB1BF
:101F200041F0020194F8F8300BB141F0040194F84B
:101F300028310BB141F0080194F830300BB141F079
:101F4000100194F860300BB141F02001237B0BB1FC
:101F500041F0400194F894300BB141F08001237DB1
:101F60000BB141F4807194F861300BB141F4007110
:101F7000364809F041F9237803B910BDA168334808
:101F800009F002F994F8C430002B53D194F8F830DA
:101F9000002B44D194F82831002B35D194F83030FF
:101FA0004BBB94F86030EBB9237B43B9237D002B06
:101FB000E3D0A1692548BDE8104009F0E5B82169E2
:101FC000224809F0E1F894F89430002BEED0D4F8D0
:101FD00098101E4809F0D8F8D4F89C101B4809F056
:101FE000D3F8E3E7616E194809F0CEF8E16E1748BF
:101FF00009F0CAF8D8E7616B144809F0C5F8A16B7D
:10200000124809F0C1F8CCE7D4F82C110F4809F0B8
:10201000BBF8D4F830110D4809F0B6F8BEE7D4F893
:10202000FC100A4809F0B0F8D4F80011074809F08C
:10203000ABF8AFE7D4F8C810044809F0A5F8D4F815
:10204000D010024809F0A0F8A0E700BF1039002026
:102050002DE9F041B64D0446284609F011F9C0F3C8
:10206000001300F00107C0F34006C0F38001C0F385
:10207000C00284F83030C0F34023277084F8C46075
:10208000C0F34017C0F3801684F8F81084F82821B4
:10209000C0F3C011C0F3002284F86130C30784F894
:1020A0006070267384F89410227501D4BDE8F08125
:1020B000284609F0C1F894F8C430A060A3B19D4B44
:1020C000B3F90030002B40F3CD81284609F0B4F875
:1020D000C4F8C800284609F0AFF894F8C430C4F832
:1020E000D000002B40F0C1814FF07E520023C4F895
:1020F000E020C4F8E420C4F8D830C4F8DC3094F808
:10210000F830A3B18B4BB3F90030002B40F377814B
:10211000874809F091F8C4F8FC00854809F08CF86C
:1021200094F8F830C4F80001002B40F0C0814FF063
:102130007E520023C4F81021C4F81421C4F80831D9
:10214000C4F80C3194F82831A3B17A4BB3F90030BC
:10215000002B40F32181764809F06EF8C4F82C0179
:10216000734809F069F894F82831C4F83001002B5D
:1021700040F09F814FF07E520023C4F84021C4F804
:102180004421C4F83831C4F83C3194F8303093B16C
:10219000684BB3F90030002B40F3D280644809F05B
:1021A0004BF86063624809F047F894F83030A06358
:1021B000002B40F080814FF07E520023A264E26445
:1021C0002364636494F8603083B15A4BB3F90030F0
:1021D000002B56DD564809F02FF86066544809F088
:1021E0002BF894F86030E066002B4DD14FF07E5212
:1021F0000023E267C4F880206367A367237B63B38F
:102200004C4EB6F90030002B58DD494F384609F0E6
:1022100013F894F894302061A3B1B6F90030002B84
:10222000D8BFFB6851DD384609F006F8C4F89800BD
:10223000384609F001F894F89430C4F89C00002B5B
:1022400040F03B814FF07E520023C4F8AC20C4F82C
:10225000B020C4F8A430C4F8A830237D002B3FF48C
:1022600025AF344BB3F90030002B04DCEB680433AA
:10227000EB60BDE8F0812E4808F0DEFFA061BDE80C
:10228000F081EB680833EB60616E08462EF092F83F
:10229000294BC4F880300146E067A06E2EF046FA64
:1022A00026496067A067E06E2EF02AFB4FF001031D
:1022B000002800F0FA8084F870309FE7EB6894F80B
:1022C00094200433EB60002ABCD00833D4F89C106F
:1022D000EB6008462EF06EF8D4F8A07039468046C0
:1022E0002EF068F841460646C4F8AC0038462EF099
:1022F0005FF831462EF01AFAD4F89810C4F8B000FE
:1023000008462EF057F80146804638462EF052F81F
:1023100031462EF00BFA4146C4F8A40038462EF0A0
:1023200047F831462EF002FAC4F8A80095E700BF3E
:102330001039002036620020000080BF0000C64235
:10234000EB68A16B0833EB6008462EF033F8E76BBF
:10235000394680462EF02EF841460646A06438469F
:102360002EF026F831462EF0E1F9616BE064084664
:102370002EF020F80146804638462EF01BF83146F4
:102380002EF0D4F94146206438462EF011F831463B
:102390002EF0CCF9606415E7EB68D4F830110833FF
:1023A000EB6008462EF006F8D4F8347139468046C2
:1023B0002EF000F841460646C4F8400138462DF09C
:1023C000F7FF31462EF0B2F9D4F82C11C4F84401CD
:1023D00008462DF0EFFF0146804638462DF0EAFF13
:1023E00031462EF0A3F94146C4F8380138462DF0A5
:1023F000DFFF31462EF09AF9C4F83C01C5E6EB68E0
:10240000D4F800110833EB6008462DF0D3FFD4F860
:102410000471394680462DF0CDFF41460646C4F88A
:10242000100138462DF0C4FF31462EF07FF9D4F864
:10243000FC10C4F8140108462DF0BCFF014680468C
:1024400038462DF0B7FF31462EF070F94146C4F8FA
:10245000080138462DF0ACFF31462EF067F9C4F87C
:102460000C016FE6EB680833EB60D4F8C81008463F
:102470002DF0A0FF124BC4F8E4300146C4F8E00090
:10248000D4F8CC002EF052F90E49C4F8D800C4F8A4
:10249000DC00D4F8D0002EF033FA4FF0010310B175
:1024A00084F8D4302BE60346FAE7034603E70146F7
:1024B000AAE7014675E7014646E7014609E700BF7E
:1024C000000080BF0000C64238B5841C20460D467F
:1024D0002FF036FC2946024620462FF0CFFCB0FAFA
:1024E00080F0400938BD00BF70B5C3698AB00446AA
:1024F0000D46016A1868D4F86021D4F85C31009068
:102500000968D4F858610191184611460292049363
:1025100003962DF04DFFA1682EF054F8D4F8F0107A
:10252000D4F86821D4F86461A36A059007910892F1
:1025300006961B68099328462822694604F0C4FBC6
:102540000AB070BDFFFFFFFF2DE9F0410378232B98
:1025500082B0044620D02FF0F3FB274A12780546BC
:102560005AB1264A92F90010052938D0CBB2042B73
:1025700008D9012002B0BDE8F081014620461CF0D8
:10258000C1FEEEE7002000902B4622461C4808F0D2
:10259000CBFB02B0BDE8F081184DFF2395F9007028
:1025A0002B702FF0CDFB144A16788046A6B9014651
:1025B00020461CF0A7FE95F90010052915D0CBB2D6
:1025C000042B09D80096434622460D4808F0ACFB80
:1025D0002F7002B0BDE8F08101202F70F9E720468E
:1025E000294615F01FFA0120C4E72046414615F0A0
:1025F00019FA01202F70ECE78C1FFF1FE407FF1F63
:102600000834002008B50A220021044830F060FF99
:1026100000EB80004000013080B208BDA4770300C9
:10262000F0B54C4A4C4B14684C4918684C4BB1F906
:102630000E601B884B4A4C4DD5B004EB84041096B9
:10264000640000EB8000B1F90CE0B1F90A7012945B
:102650004000B1F908601190B1F90640CDF838E0BA
:10266000B1F904000C97B1F902700A96B2F90E6044
:102670000894B2F90C400690B2F90A000497B2F936
:1026800008700F96B2F906600D94B2F904400B90F1
:10269000B2F902000997079605940390B1F900007A
:1026A000B2F900102A8800920290019115A82F4AD1
:1026B000FA212FF0A9F89DF85430232B1ED015A82D
:1026C0002FF03EFB2A4A127804464AB1294A92F971
:1026D0000010052932D0CBB2042B06D955B0F0BD7D
:1026E000014615A81CF00EFEF0E7002000902346DE
:1026F00015AA214808F018FB55B0F0BD1D4CFF236A
:1027000015A894F9006023702FF01AFB184A157869
:10271000074685B9014615A81CF0F4FD94F9001090
:10272000052910D0CBB2042B05D800953B4615AA3D
:10273000114808F0F9FA267055B0F0BD214615A8E9
:1027400015F070F9CAE7394615A815F06BF926702F
:10275000F2E700BFFC60002000610020240AFF1F98
:10276000985F0020140AFF1FA05F0020C8770300B5
:102770008C1FFF1FE407FF1F083400202DE9F041E4
:10278000434A444B5788D3F80480434915881E6850
:102790000C88CAB0C8EB07002DF0C0FE3F4900F11D
:1027A00000402DF00FFF2DF063FACDE90801A81BC2
:1027B000CDF81C8006972DF0B1FE38492DF002FFB0
:1027C0002DF056FACDE904012046039602952DF02E
:1027D000A5FE33492DF0F6FE2DF04AFA2346CDE949
:1027E0000001304A0BA8FA212FF00EF89DF82C308A
:1027F000232B20D00BA82FF0A3FA2B4A12780446E3
:1028000052B12A4A92F90010052935D0CBB2042BD7
:1028100007D94AB0BDE8F08101460BA81CF072FD53
:10282000EFE70020009023460BAA214808F07CFA2D
:102830004AB0BDE8F0811D4CFF230BA894F900605D
:1028400023702FF07DFA184A1578074685B901469E
:102850000BA81CF057FD94F90010052911D0CBB23C
:10286000042B05D800953B460BAA114808F05CFAEA
:1028700026704AB0BDE8F08121460BA815F0D2F8C9
:10288000C7E739460BA815F0CDF82670F1E700BF71
:102890001C3F0020143F0020DA5F0020E62A31367A
:1028A000B4A1013B147803008C1FFF1FE407FF1F36
:1028B000083400202DE9F0474548464E464D9CB06F
:1028C000FFF742FE4548FFF73FFE01210D2016F0BD
:1028D000A5FDB0460124002704E093F855320134E9
:1028E000802C31D0E1B23C4821F0C0F800236A7B53
:1028F000009329693848012321F0DCF92B6993F80A
:102900005522002AE9D1234603A8354A64212EF036
:102910007BFF9DF80C30232B2FD003A82FF010FA4B
:10292000304A127807461AB9014603A81CF0EAFC9F
:1029300096F90010052940D0CBB2042B14D90134EC
:10294000802C4FF00107CDD100210D2016F066FD3F
:102950001FB9122124481CF0D5FC4FF4FA7018F06E
:10296000BFF81CB0BDE8F08700203B46009003AAEA
:102970001E4808F0D9F90127B1E7FF2303A896F90B
:10298000009033702FF0DCF9164A1778824687B929
:10299000014603A81CF0B6FC98F90010052912D0D6
:1029A000CBB2042B05D80097534603AA0F4808F072
:1029B000BBF986F80090012791E7394603A815F086
:1029C00031F801278BE7514603A815F02BF8F0E703
:1029D0003C780300E407FF1FF066002074780300D2
:1029E000887803008C1FFF1F9C78030008340020A8
:1029F000F0B5A1B003A809F0DFFE012103A80BF098
:102A00006BFD4FF4FA7303A8ADF80E300AF02CFEFC
:102A1000044603A809F0D6FE10B12B48FFF794FD39
:102A2000234607A8294A64212EF0EEFE9DF81C30AB
:102A3000232B1ED007A82FF083F9254A12780446CD
:102A40004AB1244A92F90010052932D0CBB2042BA6
:102A500006D921B0F0BD014607A81CF053FCF0E7F1
:102A600000200090234607AA1B4808F05DF921B01A
:102A7000F0BD184CFF2307A894F9006023702FF0D5
:102A80005FF9134A1578074685B9014607A81CF077
:102A900039FC94F90010052910D0CBB2042B05D8CD
:102AA00000953B4607AA0C4808F03EF9267021B075
:102AB000F0BD214607A814F0B5FFCAE7394607A8BC
:102AC00014F0B0FF2670F2E7B0780300BC78030082
:102AD0008C1FFF1FE407FF1F08340020F0B53A4B9E
:102AE0003A4C9B683A493B4A3B480D780088B2F91A
:102AF0007C1092F87E2093B0A4FB03439B090793BC
:102B00000492059106952DF009FD3449344C2DF0C1
:102B100059FD2DF0ADF8CDE9020160682DF0A8F85F
:102B2000304ACDE9000109A823212EF06DFE9DF861
:102B30002430232B1DD009A82FF002F92278054656
:102B40004AB1294A92F90010052931D0CBB2042BA1
:102B500006D913B0F0BD014609A81CF0D3FBF0E77D
:102B6000002000902B4609AA204808F0DDF813B099
:102B7000F0BD1D4DFF2309A895F900602B702FF0C3
:102B8000DFF82478074684B9014609A81CF0BAFB8F
:102B900095F90010052910D0CBB2042B05D800946C
:102BA0003B4609AA114808F0BFF82E7013B0F0BDDB
:102BB000294609A814F036FFCBE7394609A814F0D6
:102BC00031FF2E70F2E700BF90600020898888886E
:102BD00054330020E05F0020DA5F0020B4A1013B05
:102BE0008C1FFF1FC8780300E407FF1F0834002074
:102BF000F0B5374C9BB0E0682DF03AF8CDE908010C
:102C0000344B18682DF034F8CDE90601A0682DF09A
:102C10002FF8CDE9040160682DF02AF8CDE9020112
:102C200020682DF025F82C4ACDE900010AA84021A2
:102C30002EF0EAFD9DF82830232B1ED00AA82FF095
:102C40007FF8264A127804464AB1254A92F90010C4
:102C5000052932D0CBB2042B06D91BB0F0BD0146FA
:102C60000AA81CF04FFBF0E70020009023460AAAB8
:102C70001C4808F059F81BB0F0BD194CFF230AA8F6
:102C800094F9006023702FF05BF8144A157807461A
:102C900085B901460AA81CF035FB94F900100529F6
:102CA00010D0CBB2042B05D800953B460AAA0D489C
:102CB00008F03AF826701BB0F0BD21460AA814F0BF
:102CC000B1FECAE739460AA814F0ACFE2670F2E756
:102CD000B8330020C8330020E47803008C1FFF1FA6
:102CE000E407FF1F08340020F0B53C4B3C4D1C6846
:102CF000B5F9040097B02DF011FC21462DF062FCCF
:102D00002CF0B6FFCDE90401B5F902002DF006FC68
:102D100021462DF057FC2CF0ABFFCDE90201B5F9AF
:102D200000002DF0FBFB21462DF04CFC2CF0A0FF09
:102D30002C4ACDE9000106A840212EF065FD9DF842
:102D40001830232B1ED006A82EF0FAFF264A127840
:102D500004464AB1254A92F90010052932D0CBB277
:102D6000042B06D917B0F0BD014606A81CF0CAFA1C
:102D7000F0E700200090234606AA1D4807F0D4FF84
:102D800017B0F0BD194CFF2306A894F9006023701A
:102D90002EF0D6FF144A1578074685B9014606A8D5
:102DA0001CF0B0FA94F90010052910D0CBB2042B16
:102DB00005D800953B4606AA0D4807F0B5FF2670DA
:102DC00017B0F0BD214606A814F02CFECAE739461C
:102DD00006A814F027FE2670F2E700BF70CD0300AE
:102DE00044390020FC7803008C1FFF1FE407FF1FFD
:102DF00008340020F0B53C4B3C4D1C68B5F904008C
:102E000097B02DF08BFB21462DF0DCFB2CF030FF32
:102E1000CDE90401B5F902002DF080FB21462DF02B
:102E2000D1FB2CF025FFCDE90201B5F900002DF012
:102E300075FB21462DF0C6FB2CF01AFF2C4ACDE97C
:102E4000000106A840212EF0DFFC9DF81830232B4E
:102E50001ED006A82EF074FF264A127804464AB106
:102E6000254A92F90010052932D0CBB2042B06D99D
:102E700017B0F0BD014606A81CF044FAF0E70020A8
:102E80000090234606AA1D4807F04EFF17B0F0BD7C
:102E9000194CFF2306A894F9006023702EF050FF10
:102EA000144A1578074685B9014606A81CF02AFA87
:102EB00094F90010052910D0CBB2042B05D8009549
:102EC0003B4606AA0D4807F02FFF267017B0F0BD4D
:102ED000214606A814F0A6FDCAE7394606A814F054
:102EE000A1FD2670F2E700BF74CD03004C3900202D
:102EF0000C7903008C1FFF1FE407FF1F083400201C
:102F0000F0B52F4C95B060682CF0B2FECDE902010F
:102F100020682CF0ADFE2B4ACDE9000104A8402129
:102F20002EF072FC9DF81030232B1ED004A82EF03A
:102F300007FF254A127804464AB1244A92F9001044
:102F4000052932D0CBB2042B06D915B0F0BD01460D
:102F500004A81CF0D7F9F0E700200090234604AA4B
:102F60001B4807F0E1FE15B0F0BD184CFF2304A884
:102F700094F9006023702EF0E3FE134A157807469B
:102F800085B9014604A81CF0BDF994F90010052983
:102F900010D0CBB2042B05D800953B4604AA0C48B0
:102FA00007F0C2FE267015B0F0BD214604A814F04B
:102FB00039FDCAE7394604A814F034FD2670F2E75B
:102FC000203F00201C7903008C1FFF1FE407FF1F18
:102FD00008340020F0B52F4C95B060682CF048FE06
:102FE000CDE9020120682CF043FE2B4ACDE9000117
:102FF00004A840212EF008FC9DF81030232B1ED091
:1030000004A82EF09DFE254A127804464AB1244AAF
:1030100092F90010052932D0CBB2042B06D915B095
:10302000F0BD014604A81CF06DF9F0E70020009007
:10303000234604AA1B4807F077FE15B0F0BD184CD4
:10304000FF2304A894F9006023702EF079FE134A40
:103050001578074685B9014604A81CF053F994F980
:103060000010052910D0CBB2042B05D800953B46A3
:1030700004AA0C4807F058FE267015B0F0BD214692
:1030800004A814F0CFFCCAE7394604A814F0CAFC1F
:103090002670F2E7F0330020287903008C1FFF1F11
:1030A000E407FF1F083400202DE9F043ADF5337D20
:1030B0000022431C8DF80421112B45D8DFE813F0C2
:1030C0004D00120029014F01A601BC01C901D60122
:1030D000EA0110021B022F022F02640264029A020C
:1030E000F2024800B44BB54D1C68B5F904002DF050
:1030F00015FA21462DF066FA2CF0BAFDCDE904014F
:10310000B5F902002DF00AFA21462DF05BFA2CF0F9
:10311000AFFDCDE90201B5F900002DF0FFF9214620
:103120002DF050FA2CF0A4FDCDE90001A44A402175
:1031300031A82EF069FB31A8FFF706FA9DF804319B
:1031400013B141A8FFF700FA0DF5337DBDE8F08318
:103150000CF056FC9DF80431F2E79A49964A9A4BD6
:10316000088816681C68994DDFF89882984FDFF838
:1031700098922DF0D3F997492DF024FA2CF078FD90
:10318000CDE92E01944BE8681B7A2C932CF070FD4E
:10319000CDE92A01914B18682CF06AFDCDE9280190
:1031A000A8682CF065FDCDE9260168682CF060FD6B
:1031B000CDE9240128688A4D2CF05AFDCDE9220181
:1031C000D8F804002CF054FDCDE92001D8F8000017
:1031D000DFF828822CF04CFDCDE91E0178682CF038
:1031E00047FDCDE91C0138682CF042FD6B68B9F849
:1031F00002707C4ACDE91A01F81A0CCA1993189288
:103200002DF08CF97849794F00F100402DF0DAF972
:103210002CF02EFDB9F800202B68684DCDE9160181
:10322000D01A2DF07BF970492DF0CCF92CF020FD4F
:10323000CDE914016E4BD8F808001B7812932DF0DD
:103240006DF921462DF0BEF92CF012FDCDE91001EB
:10325000D8F804002DF062F921462DF0B3F92CF0D6
:1032600007FDCDE90E01D8F800002DF057F92146F1
:103270002DF0A8F92CF0FCFCCDE90C01B7F9040005
:103280002DF04CF921462DF09DF92CF0F1FCCDE903
:103290000A01B7F902002DF041F921462DF092F90B
:1032A0002CF0E6FCCDE90801B7F900002DF036F965
:1032B00021462DF087F92CF0DBFCCDE90601B5F9AC
:1032C00004002DF02BF931462DF07CF92CF0D0FCC8
:1032D000CDE90401B5F902002DF020F931462DF0B9
:1032E00071F92CF0C5FCCDE90201B5F900002DF013
:1032F00015F931462DF066F92CF0BAFC3D4ACDE9BE
:1033000000014FF4E17141A82EF07EFA9DF80431DE
:1033100016E72D4B354D1C68B5F904002DF0FEF86D
:1033200021462DF04FF92CF0A3FCCDE90401B5F9AD
:1033300002002DF0F3F821462DF044F92CF098FC12
:10334000CDE90201B5F900002DF0E8F821462DF095
:1033500039F92CF08DFC284ACDE90001E7E61A4A3C
:10336000264D234B14681B78A86806932DF0D6F8D9
:1033700021462DF027F92CF07BFCCDE9040168688B
:103380002DF0CCF821462DF01DF92CF071FCCDE983
:10339000020128682DF0C2F821462DF013F92CF017
:1033A00067FC174ACDE900014FF4E17141A82EF006
:1033B0002BFA9DF80431C3E670CD03004439002098
:1033C000FC780300DA5F002074CD0300B8330020DE
:1033D000F0330020B4A1013B8C1FFF1FC833002035
:1033E000143F0020E83B0020E62A31364C3900200B
:1033F00052390020347903000C790300543900203D
:10340000B0790300CC3300201C3F0020864C60685C
:103410002CF02EFCCDE9020120682CF029FCCDE92E
:103420000001824A402131A82EF0EEF931A8FFF7C1
:103430008BF89DF8043183E67D497E4A0B68496824
:10344000009141A84FF4E1712EF0DEF99DF80431AE
:1034500076E6794C60682CF00BFCCDE9020120681F
:103460002CF006FC754ACDE90001DBE7744C60687E
:103470002CF0FEFBCDE9020120682CF0F9FB714A2B
:10348000CDE900014FF4E17141A82EF0BDF99DF89E
:10349000043155E66C4CE0682CF0EAFBCDE90801FC
:1034A0006A4B18682CF0E4FBCDE90601A0682CF00B
:1034B000DFFBCDE9040160682CF0DAFBCDE9020105
:1034C00020682CF0D5FB624ACDE90001402131A8EB
:1034D0002EF09AF931A8FFF737F89DF804312FE65E
:1034E0005C4B5D4A1B7A4FF4E17141A82EF08CF9D8
:1034F0009DF8043124E6594B18882DF00FF85849EF
:103500002DF060F82CF0B4FB564ACDE900014FF4E1
:10351000E17141A82EF078F99DF8043110E6A0F190
:103520000A05514B019330222B4600924FF4E17172
:103530004E4A4F4F41A82EF067F941A82EF000FCEB
:10354000044605EB4500C001051F41ABBC303D44BE
:103550001E19074455F8043F464AC4F5E171304648
:103560002EF052F930462EF0EBFB41AB0444BD4245
:1035700003EB0406EED1C4F5E17130463E4A2EF06D
:1035800043F99DF80431DBE5A0F10C0530222B4610
:1035900000924FF4E171394A394F41A82EF034F9C5
:1035A00041A82EF0CDFB044605EB45008001051F28
:1035B00041ABBC303D441E19074455F8040F2CF0B4
:1035C000A9FF2CF055FB00222E4B2CF0CFFCC4F5AC
:1035D000E173CDE900012C4A194630462EF014F96A
:1035E00030462EF0ADFB41AB0444BD4203EB040674
:1035F000E3D1C0E7254A264C127826482649274BB6
:103600000078097824681B78029082F00102019208
:1036100000910394224A4FF4E17141A82EF0F4F88E
:103620009DF804318CE500BF203F00201C79030089
:10363000E83B0020C4790300F03300202879030020
:10364000CC330020D8790300B8330020C8330020E1
:10365000E47803008C1FFF1FE4790300DA5F002089
:10366000B4A1013BF0790300000E2707FC790300A9
:10367000FC3B0020087A0300E0810300107A03007D
:10368000503A002000408F40187A0300F83B002099
:103690005C0AFF1F580AFF1F640AFF1F083F002033
:1036A0001C7A03002B4A2C4992F900202B4B086806
:1036B0001C921D682A4C2CF0DBFACDE91A01294B2B
:1036C00018682CF0D5FA284A284B12681B68179204
:1036D000CDE91801E06916932CF0CAFACDE914017E
:1036E000A0692CF0C5FACDE9120160692CF0C0FA8E
:1036F000CDE9100120692CF0BBFACDE90E01E0689C
:103700002CF0B6FACDE90C01A0682CF0B1FACDE9A5
:103710000A0160682CF0ACFACDE9080120682CF0B1
:10372000A7FA134A134B12780492CDE906011868E0
:103730002CF09EFA104B114A1B680093CDE9020150
:103740002B464FF4E17141A82EF05EF89DF804314C
:10375000F6E400BFAC390020383A00204C3A002093
:10376000C03900203C3A0020403A0020443A002072
:103770000D3A0020083A0020483A0020307A030031
:10378000F0B50A229FB0002133482FF0A1FE00EBD4
:1037900080004000314B01301B78029380B22CF046
:1037A000B9FE2CF065FA2E4B00222CF0DFFB2D4ADF
:1037B000CDE9000105A864212EF026F89DF814300B
:1037C000232B1ED005A82EF0BBFA274A12780446F8
:1037D0004AB1264A92F90010052932D0CBB2042B07
:1037E00006D91FB0F0BD014605A81BF08BFDF0E720
:1037F00000200090234605AA1D4807F095FA1FB047
:10380000F0BD1A4CFF2305A894F9006023702EF038
:1038100097FA154A1578074685B9014605A81BF0A1
:1038200071FD94F90010052910D0CBB2042B05D8F6
:1038300000953B4605AA0E4807F076FA26701FB0A1
:10384000F0BD214605A814F0EDF8CAE7394605A8F1
:1038500014F0E8F82670F2E7A4770300D85F0020A0
:1038600000002440EC7A03008C1FFF1FE407FF1FB9
:10387000083400202DE9F0470422ADF5066D0D4611
:103880009C4904462EF0FAFA70B99B4A9B4C9C491D
:10389000907200230120507223600B60994B1D70C1
:1038A0000DF5066DBDE8F0870422974920462EF0FD
:1038B000E5FA38B923791F2B00F2A380934B01223C
:1038C0001A70EBE78C4FBB7A002BE9D163788D4EF1
:1038D0003D2B357000F0A0802378782B00F0B68067
:1038E00003228B4920462EF0C9FA002859D02146E0
:1038F000884804F0BFFB0028D2D120460CF0D4F950
:103900000028CDD1204608F025FD80460028C7D1EB
:1039100094F80090B9F13C0F00F01A81B9F1750FDD
:1039200000F0C884B9F1760F00F0498109F0DF0298
:10393000482A00F063810322774920462EF09EFA40
:103940008246002800F005850322744920462EF0A7
:1039500095FA8246002800F0168503227049204619
:103960002EF08CFA002800F0418503226D49204694
:103970002EF084FA8246002840F0198520463D2129
:103980002DF090FF002800F0AA85514601300A2250
:103990002FF09EFD20EAE0710122634807F086FEC9
:1039A0007EE703340A2220460EA90E9418942FF0C5
:1039B0008FFD0EA905460E982FF0CCFC18A90646DF
:1039C0000E982FF0C7FC189C0E9A944207467FF67B
:1039D00067AF18A920460A220E942FF079FD0E9A9F
:1039E000189B003018BF01209A4208BF0020291CF4
:1039F00000903B46324618BF0121464803F0FCFECA
:103A00004EE701460A22601D2FF062FD3F4B003059
:103A100018BF0120187041E723784D3B262B5CD856
:103A2000DFE803F04A5B5B5B5B5B5B5B5B5B5B5BA9
:103A30005B5B5B5B5B5B5B5B3E5B5B5B5B5B5B5BF3
:103A4000375B5B5B5B5B5B5B5B5B1F00611C3148F7
:103A500004F048FB00287FF423AF3448FEF774FDE0
:103A60001EE70EA90A22A01C2FF032FD304B186071
:103A700005F0D6F80E9803781F2B7FF611AF0EA92C
:103A80000A222FF025FD2B4B003018BF01201870A3
:103A900006E7A01C0A2200212FF01AFDF872FFE6AB
:103AA0002548FEF751FD08F063F8D0B12348FEF732
:103AB0004BFD07F0BBFEF3E6164DB5F97C10A1B93E
:103AC000A01C0A222FF004FD1D4BA8671B6898421A
:103AD000FFF6E6AE013BAB67E2E61A48FEF734FDBF
:103AE000DEE61948FEF730FDE3E71848FEF72CFD47
:103AF000D6E600BF007B03008C1FFF1F6033002051
:103B000064330020E407FF1F087B03002C620020C1
:103B1000D47B0300E05F0020688E0300808E0300EA
:103B2000848E0300888E030010390020B47B0300CC
:103B3000EC07FF1FF807FF1F387B0300647B0300BF
:103B4000189D03009C7B0300807B0300107B030017
:103B5000651C2846052221492EF090F9002800F026
:103B6000078403221E4928462EF088F9002800F019
:103B7000048405221B4928462EF080F9002800F015
:103B80002F840322184928462EF078F9064600288B
:103B900000F05F841549032228462EF06FF9014694
:103BA000002800F08A842846052211492EF066F983
:103BB000002840F07D840F4812F0BAF970E663786F
:103BC000312B00F00884322B00F0FC83302B00F006
:103BD000FE830948FEF7B8FC62E600BFD87B03000D
:103BE000E07B0300E47B0300EC7B03005C7C0300D0
:103BF000607C030008610020AC7C0300A44918A885
:103C00002DF09EFA18A8FEF79FFCA24BA24A9B6FCC
:103C1000DC2118A82DF0F8FD18A8FEF795FC97F9FF
:103C20000B309E4ADC2118A82DF0EEFD18A8FEF7F7
:103C30008BFC9B4A9B4B12781B680092DC219A4AB2
:103C400018A82DF0E1FD18A8FEF77EFC9749984AC8
:103C50008C794B7848790D790494CC7803908878E6
:103C60008DE831008C7B487B0D7B0C94CC7A0B90DB
:103C7000887A0A954E7A09940D7ACC790890DC21DD
:103C800018A80796069505942DF0BEFD18A8FEF716
:103C90005BFC884B1B781BB1874B1B7883F00103BF
:103CA0008649874A09681268019200930291462367
:103CB000844A854C854D864EDC2118A82DF0A4FD44
:103CC00018A8FEF741FCBB7A824A834FDC2118A872
:103CD0002DF09AFD18A8FEF737FC8049804AB1F90B
:103CE0000030B1F90210009118A8DC212DF08CFDF4
:103CF00018A8FEF729FC60682BF0BAFFCDE9020195
:103D000020682BF0B5FF774ACDE90001DC2118A827
:103D10002DF07AFD18A8FEF717FC7349734A91F944
:103D2000003091F90110009118A8DC212DF06CFDF4
:103D300018A8FEF709FC68226D4918A82DF000FAB2
:103D400018A8FEF701FC6C226A4918A82DF0F8F9B2
:103D500018A8FEF7F9FB8C22674918A82DF0F0F996
:103D600018A8FEF7F1FBA322644918A82DF0E8F982
:103D700018A8FEF7E9FB4E22614918A82DF0E0F9DA
:103D800018A8FEF7E1FBBE225E4918A82DF0D8F96D
:103D900018A8FEF7D9FB5C48FEF7D6FB5B48FEF798
:103DA000D3FB5B48FEF7D0FB7F225A4918A82DF0C1
:103DB000C7F918A8FEF7C8FB0FCD18AC0FC40FCD7C
:103DC0000FC40FCD0FC42B68237018A8FEF7BCFBDF
:103DD0000FCF18AD0FC50FCF0FC597E80F0007C560
:103DE00025F8023B4C4F1B0C2B7018A8FEF7ACFBC0
:103DF0000FCF18AD0FC50FCF0FC50FCF0FC525467D
:103E00003B6825F8023B1B0C2B7018A8FEF79CFBA7
:103E10005B22424918A82DF093F918A8FEF794FBED
:103E20008F223F4918A82DF08BF918A8FEF78CFBBC
:103E30003C493D4A0B880F89CD8888884988009184
:103E4000039702950190DC2118A8384F2DF0DCFC77
:103E500018A8FEF779FB0FCF18AD0FC50FCF0FC510
:103E600097E8070003C525F8022B120C2A70304D85
:103E700018A8FEF769FB0FCD18AF0FC70FCD0FC7FE
:103E800095E80F0087E80F0018A8FEF75DFB51E0EA
:103E9000CC7C0300E05F0020147D0300687D0300FC
:103EA000F807FF1FEC07FF1FCC7D0300E820FF1F72
:103EB000187E03007D21FF1F7C21FF1F7421FF1F3F
:103EC0007821FF1FAC7E0300DC3B002084840300CC
:103ED00008610020F87E0300B8840300D03B002076
:103EE0002C7F0300647F0300D43B0020A47F0300E9
:103EF000E07F030048800300B4800300408103009A
:103F0000E481030034820300F4820300448303004D
:103F1000AC83030004840300E88403001C850300D1
:103F200078850300A06000200886030078860300DF
:103F3000A4860300DFF868E3BEE80F0018AD0FC5E4
:103F4000BEE80F000FC59EE8070003C518A82A8029
:103F5000FEF7FAFADFF84CE3BEE80F000DF1600857
:103F6000A8E80F00BEE80F00A8E80F009EE80300D5
:103F7000B846386008F8041F18A8FEF7E5FADFF81D
:103F800028C3BCE80F000DF1600EAEE80F00BCE8DE
:103F90000F00AEE80F009CE80700AEE803002A70AF
:103FA00018A8FEF7D1FAA34AA34B10681D782BF08E
:103FB0005FFECDE90201A14B18682BF059FE2B469C
:103FC000CDE900019E4A9F4DDC2118A82DF01CFC74
:103FD00018A8FEF7B9FA304612F018F896F818311A
:103FE0000093994A0346DC2118A82DF00DFC18A86F
:103FF000FEF7AAFA5522954918A82DF0A1F818A89D
:10400000FEF7A2FA0FCD18AE0FC60FCD0FC695E87A
:104010000F008F4D8F4E87E80F0018A8FEF794FA17
:104020000FCD0DF16009A9E80F000FCDA9E80F0031
:1040300095E80F00A9E8070018A8A9F80030FEF7D6
:1040400083FA0FCE18AD0FC50FCE0FC50FCE0FC51B
:1040500096E8070003C5804E2A7018A8FEF774FA88
:104060000FCE0DF1600EAEE80F000FCEAEE80F00E0
:104070000FCEAEE80F0096E8030084E8030018A80E
:10408000FEF762FA754E76495C2218A82DF058F8B2
:1040900018A8FEF759FA0FCE18AC0FC40FCE0FC4F4
:1040A00096E80F0007C4A9F8003018A8FEF74CFAEC
:1040B0006C4E6D494B2218A82DF042F818A8FEF757
:1040C00043FA0FCE18AC0FC40FCE0FC40FCE0FC4DF
:1040D00096E8070003C42C46130C2A8018A804F89D
:1040E000023FFEF731FA614B614A1B78DC2118A8C8
:1040F0002DF08AFB18A8FEF727FA41225D4918A87F
:104100002DF01EF818A8FEF71FFA5B4B5B4A1B78D0
:10411000DC2118A82DF078FB18A8FEF715FADFF8B7
:104120008CE1BEE80F0018AE0FC6BEE80F000FC648
:10413000BEE80F000FC69EE80F0007C626F8023B38
:1041400018A81B0C3370FEF7FFF94D494D4AB1F921
:104150000E00B1F908C00B78B1F906E0B1F90A9088
:10416000B1F9046007900690887849780091CDF8FD
:1041700010C0CDF80CE002960190DC21CDF814902F
:1041800018A8414E2DF040FB18A8FEF7DDF90FCE20
:104190000DF1600EAEE80F000FCEAEE80F0096E80E
:1041A0000300386088F8001018A8FEF7CDF9DFF892
:1041B00000E1BEE80F0018AE0FC6BEE80F000FC644
:1041C000BEE80F000FC69EE80700130C03C62A8046
:1041D00018A82370FEF7B8F992222C492C4C18A885
:1041E0002CF0AEFF18A8FEF7AFF95C22294918A8F9
:1041F0002CF0A6FF18A8FEF7A7F96522264918A8F3
:104200002CF09EFF18A8FEF79FF94D22234918A80D
:104210002CF096FF18A8FEF797F90FCC18AD0FC534
:104220000FCC0FC523683B8018A8FEF78DF9FFF768
:1042300037BB00BF643300205433002060330020BC
:104240005487030078880300C48703002088030094
:10425000A8880300D888030014890300A8890300F4
:104260004C890300248A0300D88903002C620020B3
:10427000608A0300A08A030084390020E48A0300D6
:10428000A45F00205C8B0300388C03009C8C03002F
:10429000448E0300308D03008C8D0300F48D0300E9
:1042A000D486030000870300288703001C8B0300CB
:1042B000608C0300601C0A2200212FF009F943B230
:1042C0001F2B00F24681DFE803F0403A34302C28FF
:1042D00024201C161616161616101010101010108A
:1042E000101010101010101010100F3840B2FEF700
:1042F000DBFEFFF7D5BA083840B20BF0BBFBFFF787
:10430000CFBAFEF73BFAFFF7CBBAFEF789F9FFF712
:10431000C7BA07F0A1FBFFF7C3BAFEF7DFFBFFF751
:10432000BFBA04F0B3FEFFF7BBBA03F015FAFFF70C
:10433000B7BA01219B4803F0ABFAFFF7B1BA4FF0CF
:10434000FF30FEF7B1FEFFF7ABBAFFF719FAFFF740
:10435000A7BA954C2060E060206119F073FC934887
:10436000FEF7F2F85146204606F09CFFFFF798BA98
:104370008F4811F051FEFFF793BA211D8C4811F0C0
:10438000B9FCFFF78DBA884C18AB20460121236099
:10439000C4F80CA0C4F810A006F084FF52465146A1
:1043A000204606F07FFEC4F800A0FFF779BA052288
:1043B000804920462DF062FDF0B9012378727B73AD
:1043C000FFF76EBA7C4805F063FBFFF769BA07F0A8
:1043D0003BFFFFF765BA784805F018FBFFF760BAB6
:1043E000A11D734811F01AFFFFF75ABA01466E4833
:1043F00007F00CF8FFF754BA0522704920462DF05B
:104400003DFD002800F0A18003226D4920462DF0DB
:1044100035FD002866D1E51C284666492DF020FFB1
:1044200060B1604BB3F97C300BB900237B60012194
:10443000002000F0C5FF634B01221A706249284634
:104440002DF00EFF002800F0898001F025F8FFF71D
:1044500027BA04340EAD204629460A222FF038F838
:104460002B689C4207B202D01E1C18BF01261846BA
:104470000A2229462FF02CF82B689C4202B222D047
:104480000BB306B3002F1EDD002A1CDD3946484859
:1044900011F0BCFC00287FF403AA18A84B4B4C4A2F
:1044A00064212DF0B1F918A8FEF74EF8FFF7F8B91E
:1044B0004848FEF749F8FFF7F3B93D4811F010FD01
:1044C0003873FFF7EDB900923B4618A8424A6421C1
:1044D0002DF09AF918A8FEF737F8FFF7E1B9012196
:1044E000FFF75ABA04223D4920462DF0C7FC0028A8
:1044F00000F0888004223A4920462DF0BFFC0028B5
:104500003DD00422374920462DF0B8FC002800F0A9
:104510005B810422344920462DF0B0FC002800F0D5
:1045200011810322314920462DF0A8FC002800F01B
:104530005E8105222E4920462DF0A0FC002840F087
:10454000DE802C4B1870FFF7ABB904F089FCFFF745
:10455000A7B92948FDF7F8FFFFF7A2B92846274970
:104560002DF07EFE002800F0AD80254B1B68002B4F
:1045700000F0A38001237B72BB72FFF791B9043472
:1045800018A920460A2218942EF0A2FF18A9044662
:104590000A2208682EF09CFFC1B2E0B20CF04EFC7B
:1045A000FFF77EB9E05F0020103900206C8E030019
:1045B000086100208C8E030008340020948E0300D4
:1045C0009C8E0300F807FF1F007B0300445F002060
:1045D000F07B0300687C0300147C0300148F03004D
:1045E0001C8F0300248F03002C8F0300508F0300C7
:1045F000548F0300523900208C7C03005C7C030044
:104600007821FF1F04340EA920460A220E942EF0B2
:104610005FFFBB4C031C18BF01230EA90E98E37368
:104620000A2223742EF054FF031C18BF01230EA985
:104630000A220E9863742EF04BFF031C18BF01234F
:104640000EA90A220E98A3742EF042FF031C18BF75
:1046500001230EA90A220E98E3742EF039FF031CE1
:1046600018BF01230EA90A220E9823752EF030FFE1
:10467000031C18BF01230EA90A220E9863752EF0A1
:1046800027FF031C0EA918BF01230A220E98A37549
:104690002EF01EFF0EA9031C18BF01230A22086872
:1046A000E3752EF015FF031C18BF01234FF47A7039
:1046B000237602F0BDFAFFF7F3B89248FDF744FF06
:1046C000FFF7EEB8E578A5F12B035D4204F1040491
:1046D0005D41264601343378013B1F2BF9D9032273
:1046E000894930462DF09AFB002840F02B81844BFD
:1046F0005D704FF47A7002F09BFAFFF7D1B8032295
:10470000824920462DF0BAFB002800F08580B9F1DF
:104710003A0F77D004227E4920462DF0AFFB0028C7
:1047200040F0B8802379202B66D03D2B64D0794BA4
:1047300093F8B124002A3FF4B3A80A2283F8F8239F
:10474000FFF7AEB804340EA920460E942EF002FEF8
:104750000EA9044608682EF0FDFD6F4B1C605860E2
:1047600005462BF085FACDE9020120462BF080FAB0
:104770006A4ACDE90001642118A82DF045F818A86F
:10478000FDF7E2FE24F000402BF072FA5AA3D3E9C1
:1047900000232BF051FD80B925F000402BF068FA82
:1047A00055A3D3E900232BF047FD4FF0010300B9D7
:1047B000034683F001035FFA83F8594B83F87E8048
:1047C0000CF0DCFBFFF76CB8043418A920460A2271
:1047D00018942EF07DFE18A904460A2208682EF0CF
:1047E00077FE014620460CF09FFAFFF759B8201DCE
:1047F00004F042FBFFF754B8611D464805F074F918
:10480000FFF74EB820462DF09BFA231813F8012D20
:104810001F2A2BD80138F9E70EA82CF0E1FD18ACBF
:104820003969404A0E9B0091019264213E4A0294EC
:1048300020462CF0E9FF2046FDF786FE3B4B009317
:104840003B4A3C4B642120462CF0DEFF2046FDF71E
:104850007BFE012300932046A423374A64212CF0D9
:10486000D3FF2046FDF770FEFFF71AB823180D217D
:104870000A22661C002521545A709D7030462DF086
:104880005FFA0146304617F039FA224B83F8395463
:10489000FFF706B80422294920462DF0EFFA002838
:1048A0006FD12379202B01D03D2B54D1631D0EAD48
:1048B000184629460A222B602EF00AFE2E6833780D
:1048C000202B074602D02C2B40F016810136002306
:1048D00000933246394601232E600E4806F024FA32
:1048E00000943B4618A8164A64212CF08DFF18A8A6
:1048F000FDF72AFEFEF7D4BF7B14AE47E17A843F72
:10490000E820FF1FA08E0300B48E03005C8F03001D
:10491000E48F030008340020DC3B0020348F0300C8
:10492000E05F0020901FFF1F608F0300EF32002028
:104930008C8F03008021FF1FB08F0300EC8F0300DA
:10494000F48F03000322B24930462DF067FA68B9AC
:10495000B04B9D70CDE6234618A8AF4A64212CF0D9
:1049600053FF18A8FDF7F0FDFEF79ABF0422AB49EC
:1049700030462DF053FA002840F0CA80A54BDD7078
:10498000B7E60522A64920462DF078FA002800F067
:10499000E0800322A34920462DF070FA002800F0A1
:1049A00091800322A04920462DF068FA002879D092
:1049B00006229E4920462DF061FA00283CD00322B1
:1049C0009B4920462DF05AFAC8B93D21201D2CF0F4
:1049D00069FF189070B118A901300A222EF078FDF5
:1049E000E378632B00F0A480752B00F09A80612B94
:1049F00000F0F7808F48FDF7A7FDFEF751BF0322B7
:104A00008D4920462DF03AFA88BB04228B49204676
:104A10002DF034FA20B32046042289492DF02EFAD5
:104A2000C8B9884B1B786BB18748FDF78DFD874867
:104A3000FDF78AFDFEF734BFA11D854811F0DAFFAE
:104A4000FEF72EBF0CF0EEFD0028F0D08148FDF7F8
:104A50007BFDFEF725BF0420FEF726FBFEF720BFF7
:104A60000CF0A8FD7C48FDF76FFDFEF719BF06228C
:104A70007A4920462DF002FA804600287DD1201D7B
:104A80003D212CF00FFF002875D0414601300A224D
:104A90002EF01EFD003018BF0120002370703B7007
:104AA000FEF7FEBE0334204618A90A2218942EF001
:104AB0000FFD189B9C4215D02146654811F064FFFC
:104AC000FEF7EEBE0334204618A90A2218942EF0F1
:104AD000FFFC189B9C420AD021465D4811F0B8FEAD
:104AE000FEF7DEBE5A4811F093FEFEF7D9BE5848D5
:104AF00011F054FEFEF7D4BE0346009418A8584A9D
:104B000064212CF081FE18A8FDF71EFDFEF7C8BE3B
:104B10000422544930462DF081F980B93D4B5D7136
:104B2000E7E50030504B18BF01201870FEF7B8BE03
:104B3000B0FA80F0434B40091870FEF7B1BE042272
:104B40004A4930462DF06AF9002857D1314B1D7182
:104B5000CFE5053418A90A22204618942EF0B8FC97
:104B6000C0B2003018BF012007F0FAFD4048FDF741
:104B7000EBFCFEF795BE01208CE703223D49204661
:104B80002DF07CF9002800F0BD8003223A49204630
:104B90002DF074F9002800F09D800322374920464B
:104BA0002DF06CF9002800F09C8003223449204647
:104BB0002DF064F900286DD020462DF0C1F80128B1
:104BC00003467EF66DAE2F4A01946421009518A825
:104BD0002CF01AFE18A8FDF7B7FC1AF077FBFEF7C9
:104BE0005FBE0028284B14BF012200221A703EF439
:104BF00057AE264B00221A70FEF752BE04222449FB
:104C000030462DF00BF9002872D1024B9D7170E5F2
:104C1000B88E0300E820FF1F4C900300BC8E0300F9
:104C2000689003007C900300809003008490030050
:104C30008C90030090900300DC8E0300E89003004A
:104C400040910300F83B002048910300A891030025
:104C5000A45F00208C910300F0900300F09103000A
:104C60001C900300C48E0300580AFF1FCC8E030063
:104C700070900300F8910300FC9103000C92030074
:104C80001C9203005C920300640AFF1F083F00208F
:104C9000D48E03000334204618A90A220E941894D7
:104CA0002EF016FC189C0E9B0A2205460EA92046E3
:104CB0001C1B18BF01242EF00BFC0E9A189B9A4265
:104CC0004ED0002C4CD004284AD8564B23F8105014
:104CD000FEF7E6BDFDF7EEFD5348FDF735FCFEF7A8
:104CE000DFBDFDF785FE5148FDF72EFCFEF7D8BD70
:104CF00003224F4930462DF091F800283ED14D4B0C
:104D0000DD71F6E40334204618A90A220E941894A3
:104D10002EF0DEFB189C0E9B0EA91D1B4FF00A0205
:104D20000746204618BF01252EF0D2FB0E9B189C8B
:104D30000A22064618A918469C420CBF002405F01A
:104D400001042EF0C5FB0E9A189B9A420BD054B169
:104D500077B1C1B2F2B23348FBF7C8FBFEF7A0BD92
:104D60003548FDF7F1FB2F48FBF78CFCFEF798BDAB
:104D7000C1B22C48FBF7DEFBFEF792BD04222F499F
:104D800030462DF04BF810B92A4B1D72B1E40222C7
:104D90002B4930462DF042F810B9264B5D72A8E43D
:104DA0000422284930462DF039F810B9214B9D7264
:104DB0009FE40422244930462DF030F810B91D4BF1
:104DC000DD7296E40422214930462DF027F810B90F
:104DD000184B1D738DE403221D4930462DF01EF83B
:104DE00010B9144B5D7384E402221A4930462DF049
:104DF00015F810B90F4B9D737BE405221649304618
:104E00002DF00CF810B90B4B5D7672E4304605229C
:104E100012492DF003F800287FF46BAC054B9D760A
:104E200067E400BFA060002000920300109203001E
:104E3000DC8E0300E820FF1F20920300E08E0300B9
:104E4000E88E0300EC8E0300A8A30300F48E030099
:104E5000FC8E0300008F0300048F03000C8F0300FF
:104E600030B51F2891B005463C4C09D96369E2185A
:104E7000C62B107613DC0133E21800216361117632
:104E800094F90B30354A012B14D00A2D22D00D2D68
:104E900020D06369314CC62B13DC11B030BD002328
:104EA0006361237694F90B300122012B84F8E02012
:104EB0002A4AEAD11378002BE7D128461AF0EAFAF9
:104EC000E3E72344002526481D76FDF73DFB656199
:104ED00011B030BD94F8E000204D68BB6B69002B29
:104EE00022DD2B44052218761E4905F118002CF00E
:104EF000C5FF30B106221C4905F118002CF0BEFF99
:104F000028BB1A4B58682BF005FB19492BF00EFCF7
:104F10002AF0AEFE174ACDE9000103A832212CF099
:104F200073FC03A8FDF710FB94F90B30012B0AD09A
:104F30000023636111B030BD00230F4885F8E030D5
:104F4000FDF702FBF4E70D48FDF7FEFAF0E705F187
:104F500018004FF0FF31FEF78DFCE5E78C1FFF1FB7
:104F6000D0920300A0920300A8920300906000205A
:104F7000C0E1E44CB092030084920300C8920300A5
:104F800030B51F2891B00546394C06D9B4F9E23046
:104F9000E218622B82F8E4000FDD94F90B30344AFA
:104FA000012B17D00A2DB4F9E23025D00D2D23D0D6
:104FB000622B2F4C15DC11B030BD01331BB2E2184F
:104FC000A4F8E23094F90B300021012B82F8E410B0
:104FD000274AE7D11378002BE4D128461AF05AFA71
:104FE000E0E723440025234883F8E450FDF7ACFABA
:104FF000A4F8E25011B030BD002B1D4D24DD2B4430
:10500000002083F8E40005221B4905F1E4002CF0A0
:1050100035FF30B10622194905F1E4002CF02EFFCE
:10502000D8B9174B58682BF075FA16492BF07EFB50
:105030002AF01EFE144ACDE9000103A832212CF00B
:10504000E3FB03A8FDF780FA94F90B30012B0AD09B
:105050000023A4F8E23011B030BD05F1E4000521D1
:10506000FEF708FCF0E70948FDF76EFAF0E700BF2D
:105070008C1FFF1FD0920300A0920300A892030090
:1050800090600020C0E1E44CB0920300C89203009D
:105090002DE9F0439FB01AF0B7F8142817DC002868
:1050A000064640F00681864E337803BB854B5B781D
:1050B000EBB1854BD6F848111A68521AB2F57A6FDF
:1050C00015D91B68C6F84831012333700FE0142648
:1050D00000241AF05DF8051E04F10104A5F10A038D
:1050E00004DB752B40F2C580B442F2DB744E774886
:1050F000734C05F00BFA337B002B40F0B48016F0B4
:105100006DFE0A28A8BF0A20002805466F4F6ADDF9
:105110000024B84652E0C1B26C4805F061FA00289C
:1051200049D0337B002B43D1D8F8FC93B9F1000F61
:1051300033D00522664948462CF0A0FE28B106224D
:10514000644948462CF09AFE38BB97F900345E4A11
:1051500061491268486803F5827347F823202BF0F1
:10516000D9F95E492BF0E2FA2AF082FD5C4ACDE9DA
:105170000001462105A82CF047FB05A82CF0E0FD16
:105180004FF0000E97F90014CDF800E0034605AA91
:105190004E4805F0C9FDD7F8FC9399F80030202B54
:1051A00006D92B2B76D097F900144846FEF762FB00
:1051B000464805F0B1FD0134A54214D016F01AFEA0
:1051C000002810DB431E7E2BF5D897F8B034002B57
:1051D000A1D03378C1B2002B9ED1084603911AF0BA
:1051E00059F9039998E7DFF8D8800A2505E0C4B299
:1051F0002046FFF7C5FE013D14D012F091FC0028B7
:1052000000F1FF330EDB7E2BF5D896F84C31002BE6
:10521000EDD098F80030C4B2002BE9D120461AF046
:1052200039F9E5E797F83A34284C013B012B02D9CC
:105230001FB0BDE8F083244AD4F8F41313685B1A56
:10524000B3F57A7FF4D91368264A0094642105A83F
:105250002CF0DAFA05A8FDF777F9042384F83A343C
:105260001FB0BDE8F08301211F4810F039FE207304
:1052700045E7134E33781BB10A2D1DD00D2D1BD0E1
:10528000114B1B68C6F84831E8B200233370FFF7B2
:10529000E7FD2CE797F900340093144A4B4646216A
:1052A00005A82CF0B1FA05A8FDF74EF9D7F8FC9344
:1052B00079E73FF70DAF19E70D48FDF745F9DFE74F
:1052C0008C1FFF1FE407FF1F7C5F002008340020B5
:1052D000A0920300A892030090600020C0E1E44C7B
:1052E000B0920300249303000861002000930300A0
:1052F000EC9203002DE9F04F83B00C4683462CF06E
:105300001FFD214B1B788246EBB994B31F4F002839
:10531000D7F8008017DD5E46054640F2DC591AF0EA
:10532000C5F8041E304609DDAC42A8BF2C462D1B33
:10533000214619F0E7FF002D264404DD3B68C8EB49
:1053400003034B45EBD9124B93F90010052915D0F7
:10535000CBB2042B03D9012003B0BDE8F08F0020AD
:10536000009053465A460B4805F0DEFC03B0BDE8FA
:10537000F08F0146584619F0C5FFE4E758465146FC
:1053800012F050FB0120E7E78C1FFF1F7C5F00201D
:10539000E407FF1F0834002038B50378232B03D01F
:1053A000BDE83840FFF7A6BF044CFF2394F9005036
:1053B0002370FFF79FFF257038BD00BFE407FF1F74
:1053C00000282DE9F0410C4603DD2D4B186003F059
:1053D00027FC2C4F94B90124FE212B4887F89540D7
:1053E000284D21F005FE08B9BDE8F08185F896400A
:1053F00000212648BDE8F041FFF7CEBF3A46DFF86E
:1054000080C0DFF890E00121002302F801194FF479
:105410007A71CCF808109846CCF804301D4607F194
:105420001C0007F1550107F11A0612F8014F84B16B
:105430000B780580493BDBB2222B98BF1EF9038015
:1054400011F8013C88BF4FF0010808FB03531D46CB
:10545000A046B24200F1020001F10201E5D1B8F12B
:10546000000F0AD100220A4BC7F8902093FBF5F5F4
:1054700087F89420C7F88C50ADE7CCF80430F1E7FA
:10548000EC07FF1FE820FF1F2C670020A4930300F8
:105490007011010058930300024B002283F89520FD
:1054A000704700BFE820FF1F2DE9F04F054D2B7B13
:1054B00095B01BB1044C94F894303BB115B0BDE8E5
:1054C000F08F00BFEC07FF1FE820FF1FD4F89030DB
:1054D000D4F88C20934280F2D381686804F1980656
:1054E00000FB03F7F119B1F1005F0AD20144B1F1F9
:1054F000005F06D901339A42C4F8903040F3C0816E
:105500000744A28BBA48BB4994F801E000683A44CA
:105510000133C4F890300023B05084F8943001F186
:105520009802BEF1000F40F06E82A378B14A002BC2
:1055300040F04382E378AF4A002B40F03582237974
:10554000AC4A002B40F0288263790BB3AA4B93F945
:105550000000002800F09782DFF8D892A749D9F818
:1055600000002BF02FF82BF009FAA4490FFA80F86D
:10557000D9F804002BF026F82BF000FA00B214AA98
:10558000E38C22F82C8DADF826003B441068F050D7
:10559000E379984A002B40F02E82A379954A002B9C
:1055A00040F01C82237A934A002B40F00F82637AEA
:1055B000904A002B40F0C681A37A8E4A002B40F01F
:1055C000AE81E37A002B00F0CE808D4A8D4B50885F
:1055D000B3F802E0B3F80080B2F800C09188CEEBD7
:1055E000000E9888ADF826E0C8EB0C0C081AADF850
:1055F00024C0D188B3F806C0B3F808E0ADF828009D
:10560000CCEB0101B2F808C05889ADF82A10CEEBF6
:105610000C0EB2F80AC09989DB89ADF82CE0C0EB1A
:105620000C00B2F80CC0D289DFF80CE2ADF82E0005
:10563000D31AC1EB0C017448DFF800C2734ADCF8DE
:105640000080ADF83230DEF800C0714BD0F800E0D9
:105650001068704AADF83010CDF83480CDF838C0FD
:10566000CDF83CE0109012681B78119200228DF862
:105670004820002B00F0EB813D2001902320079073
:1056800033200690132005902F2004903F20012303
:1056900003900F208DF848303122212311214FF043
:1056A0002D0E4FF01D094FF00D0C4FF01F0A029008
:1056B0004FF0030BDFF8888198F80080B8F1000FF5
:1056C0000AD005A90EC90398DDF810E0DDF808C07E
:1056D0008DF848B00190D146DFF8688198F80080D5
:1056E000B8F1000F04D0019A8DF848C073464946BE
:1056F0004948007810B18DF848101346474A12788F
:105700000AB18DF8483046484649474A474BB4F8F5
:1057100032E00078097812681B688DF84A00BE44B0
:105720008DF84B108DF84C208DF84D30B6440DF1AE
:1057300024080DF14409C446BCE80F00CC45CEF85E
:105740000000CEF80410CEF80820CEF80C30E04669
:105750000EF1100EEFD1B8E80700CEF80000CEF839
:105760000410CEF80820237B224A002B40F09180C1
:10577000637B204A002B40F00981A37B1D4A002B4C
:1057800040F0FA80E37B002B40F0F080237C002B7C
:1057900040F0E680637C002B40F0AD80A37C002BC2
:1057A00040F0A380E37C002B40F09980237D002B08
:1057B00040F08F80637D002B40F08580A37D002B1F
:1057C0007BD1E37D002B72D1237E002B69D1637ED8
:1057D000084A002B40F09580A37E064C002B3FF436
:1057E0006DAE134FD7F880300993D7E922012BE033
:1057F000901FFF1FE820FF1FD43B002000007A44C9
:10580000140AFF1F240AFF1F243A0020083A002030
:10581000DC09FF1F283A0020B1390020B0390020F0
:10582000AD390020AC3900204C3A0020483A002025
:10583000E05F0020DC3B0020B4390020B8390020B4
:10584000BC3900200C3A00202AF05EFD0A90D7E90E
:1058500024012AF059FDD7F89830D5F804E0D4F89F
:1058600090700B900C9309AD0FCDB4F850407D1E95
:105870000EFB0544351930516960AA60EB601DE6E6
:105880000122002384F8942084F8953015B0BDE8F7
:10589000F08F938E7D4A3B4403CAF218F05051605A
:1058A00066E77B4B1821586AFCF71EFE8FE7784BA2
:1058B0001721186AFCF718FE86E7754B1621D86980
:1058C000FCF712FE7DE7724B1521D868FCF70CFE41
:1058D00074E76F4B14211869FCF706FE6AE76C4BFE
:1058E00013219869FCF700FE60E7694B12215869A3
:1058F000FCF7FAFD56E7664B11219868FCF7F4FDBA
:105900004CE7D2F890306868B2F84E206149013B0C
:1059100000FB0320304450222BF012FC5CE7DFF840
:10592000A4E1B2F830C0BEE80F000CEB070E06EBA6
:105930000E0C46F80E00CCF80410CCF80820CCF879
:105940000C303EE654485549D38D096802680A92E6
:10595000099109AA03CA3B44F218F05051602BE6A2
:105960004B4B10215868FCF7BFFD13E7484B0F2144
:105970001868FCF7B9FD09E7494BB2F838E007CBE6
:105980007744F319F05159609A60FBE6D38E454A8B
:105990003B441288F252F0E6938C434A3B4403CADC
:1059A000F218F0505160CFE5538C404A3B44F11857
:1059B00010689288F0508A80C1E5138C3C4A3B44C1
:1059C000F11810689288F0508A80B3E5938D394AB7
:1059D0003B4403CAF218F0505160E8E53649138D94
:1059E00091E805000A92099009AA03CA3B44F218FB
:1059F000F0505160D6E5538D304A3B4403CAF2184B
:105A0000F0505160C9E5DFF8C090DFF8C080DFF8E2
:105A100080C02B48B1F81EE099F80010BCF87CC09B
:105A200000788DF82610D8F82011ADF824C08DF834
:105A300027000A910DF1240CBE44BCE80300C8F80D
:105A4000203102EB0E0342F80E0059606DE53C2058
:105A500001902220079032200690122005902E20DF
:105A600004903E2003900E202023302210214FF07E
:105A70002C0E4FF01C094FF00C0C4FF01E0A029038
:105A80004FF0020B16E6804679E500BF883900200A
:105A9000E05F0020F03200209C600020F8330020FE
:105AA00090600020DA5F00204C6000204C3900201C
:105AB00044390020F0330020DC20FF1FE83B0020A9
:105AC00074330020B83300206933002008610020BF
:105AD0002DE9F041002984B014461D4600680BDB17
