:10000000F8FF02209901000069D1010021D101000F
:1000100021D1010021D1010021D1010021D1010014
:1000200021D1010021D1010021D1010069D10100BC
:1000300069D1010021D10100A52302001529020088
:1000400069D1010069D1010069D1010069D10100C4
:1000500069D1010069D1010069D1010069D10100B4
:1000600069D1010069D1010069D1010069D10100A4
:1000700069D1010069D1010069D1010069D1010094
:1000800069D1010069D1010069D1010069D1010084
:1000900069D1010069D1010069D1010069D1010074
:1000A000754502008145020069D1010069D1010056
:1000B00069D1010069D1010069D101008DBA010047
:1000C00069D1010035E6010069D101009177010095
:1000D00069D101006DD7010069D10100F16C010007
:1000E00069D1010069D1010069D1010069D1010024
:1000F00069D1010069D1010069D1010069D1010014
:10010000852A0200992A0200AD2A0200C12A0200B3
:1001100069D10100717A010069D1010069D1010042
:1001200069D1010069D1010069D1010069D10100E3
:1001300069D1010069D1010069D1010069D10100D3
:100140005906020069D1010071D0010069D1010096
:1001500035B2010069D1010069D1010069D1010006
:1001600069D10100216E01008D45020069D10100B5
:1001700069D1010069D1010069D1010069D1010093
:1001800069D1010069D1010069D1010069D1010083
:1001900069D1010069D10100584B4CF2205210B5D1
:1001A0001A804DF628121A8000BF00BF1CF0E0FF35
:1001B000534B4FF030621A60524A9A60524ADA60EA
:1001C000524B4FF470021A60514A136813F4807353
:1001D00004D150490B604FF4A85313604E4B1A786A
:1001E000110703D51A7842F008021A704B4B4C499C
:1001F0002A221A704B4A4C4B8B4204D252F8040FFD
:1002000043F8040BF8E7494B494900228B4202D2DC
:1002100043F8042BFAE74749474A002352F82300E2
:1002200041F823000133662BF8D1444B444A802126
:1002300003F8011B9342FBD1424B3E4A1A60424BEA
:100240008A221A70A3F5805324225A70A0221A70B1
:100250009A799207FCD59A79D406FCD43B4A9379D3
:1002600003F00C03082B394BF9D103221A714622F3
:100270005A719A799006FCD5344A9179334B4906E4
:10028000FBD5334A4FF08271116009215160202261
:100290001A709A7902F00C020C2AFAD12D4B2E4AD0
:1002A0001A602E4B2E4A1A6000225A60072243F829
:1002B000042C2C4AC3F80C2D62B618F0A7FA154B83
:1002C0001B68DA0705D5284818F05AFA274B284A40
:1002D0001A60284B1B785B0609D5244C244B2268F6
:1002E0009A4204D1204818F04BFA0023236030F0E2
:1002F0009DF91CF043FF16F02BFEFEE70E20054093
:1003000030800440823F04000100002B88ED00E0B3
:1003100010D0034014D0034002D0074000E0074053
:10032000681FFF1F0CE50300F806FF1F681FFF1F73
:10033000E46900200002FF1F0000000000E400E06C
:1003400056E400E008ED00E00050064000400640A2
:100350004480044004800440C010050014E000E024
:10036000BFD401000000202000DD68501CE00340E5
:10037000A5C3945A00F00740FFFFFFFFFFFFFFFFF8
:10038000FFFFFFFFFFFFFFFFFFFFFFFFFFFFFFFF7D
:10039000FFFFFFFFFFFFFFFFFFFFFFFFFFFFFFFF6D
:1003A000FFFFFFFFFFFFFFFFFFFFFFFFFFFFFFFF5D
:1003B000FFFFFFFFFFFFFFFFFFFFFFFFFFFFFFFF4D
:1003C000FFFFFFFFFFFFFFFFFFFFFFFFFFFFFFFF3D
:1003D000FFFFFFFFFFFFFFFFFFFFFFFFFFFFFFFF2D
:1003E000FFFFFFFFFFFFFFFFFFFFFFFFFFFFFFFF1D
:1003F000FFFFFFFFFFFFFFFFFFFFFFFFFFFFFFFF0D
:10040000FFFFFFFFFFFFFFFFFFFFFFFFDEF9FFFF23
:1004100010B5054C237833B9044B13B10448AFF33E
:1004200000800123237010BD681FFF1F0000000023
:1004300008E50300084B10B51BB108490848AFF3A5
:1004400000800848036803B910BD074B002BFBD0A0
:10045000BDE81040184700BF000000006C1FFF1FE0
:1004600008E50300681FFF1F00000000F0B4164EEF
:10047000164A174F06624262164E174A8762C662D4
:10048000164F174E0263174A4763866305271926DE
:10049000C2637D220780468040F2712740F63546D0
:1004A00082800022C7800681026442648264C26442
:1004B0000265C260026142618261C261426580F888
:1004C0005820F0BC704700BFB5280000C9290000C3
:1004D000EDC1000049F30000C12A0000CD2B00004F
:1004E000D92C0000AD2D0000704700BF07291FD890
:1004F000042A1DD8F0B54FF0010E8469C76806695B
:1005000045690EFA01F1CB4304EA030CC469C0F853
:1005100018C000EB82021F401E401D402340C760F0
:1005200006614561C361D3681943D1607046F0BD6F
:1005300000207047072913D8F0B40123C768066963
:100540004469C56982698B40D9430F400E400C4015
:100550000A40C760294006614461F0BC8261C16104
:10056000704700BF2DE9F843444B93F90030002B4E
:1005700006466DDB1BF010FA1428D4BF00200120C2
:10058000002861D006F10800012150F8043FDFF88F
:10059000F0C0002B354606F1540E01F1FF374FDD58
:1005A000DCF80020446BB5F80090DFF8D480121B13
:1005B0004A4538D99EF80040013404F0070443FA54
:1005C00004F2D2074BD4013404F0070443FA04F2D6
:1005D000D20744D4013404F0070443FA04F2D207EA
:1005E0003DD4013404F0070443FA04F2D20736D4B0
:1005F000013404F0070443FA04F2D2072FD4013483
:1006000004F0070443FA04F2D20728D4013404F0BA
:10061000070443FA04F2D20721D4013404F007049A
:100620002341DB071BD4052910D050F8043F0131CA
:10063000002B05F102050EF1010E01F1FF37AFDCD1
:100640000529F2D1BDE8F883BDE8F883BDE8F88359
:100650001EF018FD3C28D4BF0020012090E704F1D3
:10066000080356F823309847F2191037D8F80030AD
:1006700082F8544046F82730BDE8F883E407FF1FAE
:10068000745F00202DE9F041861EA4B000F108053A
:10069000002455F8043F36F8022F0092C3F3801C63
:1006A000C3F3401EC3F3C000C3F38001C3F3400291
:1006B000C3F3C018C3F3001703F00103CDF81CC047
:1006C000CDF818E00490039102920193094ACDF805
:1006D00020802346642105970BA830F081FE013469
:1006E00000210BA804F01EFD052CD2D124B0BDE8DA
:1006F000F08100BFF472030010B5044600F0F4FD71
:100700000023C4F87431204610BD00BF70B400F55A
:10071000B876002501248662456280F82C40C161CC
:100720000262C0F8743170BC704700BF2DE970439D
:10073000044601F067F9D4F874519DB3224BD4F804
:1007400070611B7883B326F000402FF07DF81F4BBB
:100750008046186820F0004089462FF075F816A3EF
:10076000D3E900232FF0C4F815A3D3E900232EF01A
:100770000DFF02460B46404649462FF02BFB98B929
:10078000002130462FF0C6FE30B1314630462FF002
:10079000FDFB2860BDE8708306F1004108462FF09C
:1007A000F5FB6860BDE870832E60D4F8703103F10A
:1007B00000436B60BDE87083333333333333D33F4F
:1007C0009A9999999999B93F543300207033002030
:1007D00010B5044600F088FD4FF07C53C4F880311A
:1007E0000023C4F87431C4F87831204610BD00BF2E
:1007F000F0B4C16100F5B8770026012500F5BE749C
:1008000004998762466280F82C500462C0F8743103
:10081000C0F87821C0F88011F0BC70472DE9704312
:10082000D0F878615C497568044628462FF054FE7C
:10083000002840D0594B1B78002B60D0584BD8680B
:1008400020F000402FF000F84BA3D3E900232FF055
:10085000C1FA002840F08D803668E36930461D6893
:100860002EF0F2FF8046284689462EF0EDFF44A385
:10087000D3E900232EF08AFE02460B464046494645
:100880002FF0A8FA002837D1C4F87C510021204667
:1008900001F0B8F8D4F8745165B3404BD4F87061E6
:1008A0001B78002B33D12E60D4F8703103F1004354
:1008B0006B60BDE870834FF07A5128462FF00CFE34
:1008C0000028C9D0354B1B78002BC5D1E6694FF005
:1008D0007A5128462FF058FB014630682FF056FB1E
:1008E0000021C4F87C01204601F08CF8D4F8745142
:1008F000002DD2D1BDE87083C4F87C61C6E74FF00B
:100900007A5128462FF0E8FD0028DFD1A4E726F031
:1009100000402EF099FF234B8046186820F00040DD
:1009200089462EF091FF18A3D3E900232EF0E0FFB3
:1009300017A3D3E900232EF029FE02460B464046BA
:1009400049462FF047FA0028ADD1002130462FF05C
:10095000E1FD30B1314630462FF018FB2860BDE88C
:10096000708306F1004108462FF010FB6860BDE877
:100970007083E6690849ACE7333333333333C33F1D
:10098000EC51B81E85EBB13F333333333333D33FB0
:100990009A9999999999B93F3333B33E54330020CA
:1009A000B03300207033002010B5044600F09CFCEA
:1009B0000023C4F87431C4F87C31C4F88031204677
:1009C00010BD00BFF0B4059CC16100F5B87700F51B
:1009D000BC7600250499C0F87C21069A87620662DD
:1009E0004562C0F87441C0F88031C0F88411C0F885
:1009F0008821F0BC704700BF2DE9F843D0F884315E
:100A00001B78044623B13A4B93F90030002B44D0B5
:100A10000021204600F0F6FFD4F87451002775B38A
:100A2000344BD4F870611B7883B326F000402EF06D
:100A30000BFF314B8046186820F0004089462EF0AD
:100A400003FF27A3D3E900232EF052FF26A3D3E907
:100A500000232EF09BFD02460B46404649462FF0F0
:100A6000B9F998B9002130462FF054FD40B3314612
:100A700030462FF08BFA28600FB1BDE8F883A26AE8
:100A800000232B606B601360BDE8F8832E60D4F800
:100A9000703103F100436B60EEE7D0F888311B78CA
:100AA000ABB9D0F880311B68C0F8783100212046FE
:100AB00000F0A8FFD4F87451002DDED00127AFE775
:100AC00006F1004108462FF061FA6860D4E7D0F8DB
:100AD0007C311B68C0F87831E8E700BFAFF30080D5
:100AE000333333333333D33F9A9999999999B93F33
:100AF000A5390020543300207033002010B504467F
:100B000000F0F2FB0023C4F87431C4F878312046B9
:100B100010BD00BF70B4161D00F5B8750024C0F8F4
:100B2000786105624462C161C0F87421836270BC5F
:100B3000704700BFD0F87421D0F8783170B51568CF
:100B40001E680446314628462FF0E4FC00B93546BD
:100B5000C4F8705120460021BDE8704000F052BF3B
:100B600010B5044600F0C0FB204610BDF0B4049C54
:100B7000C0F8784100F5BE77002600F5C075076221
:100B800046628562C161C0F87021C0F87431F0BC62
:100B9000704700BFD0F87431D0F87021196870B573
:100BA000044610682FF0F0F90021C4F87C012046BB
:100BB00000F028FFA26A0C4B16681D6830462946D3
:100BC0002FF0A8FC50B905F10045294630462FF01A
:100BD00083FC18B9D4F878311E6070BDD4F8782140
:100BE00001231560637070BD7033002010B504469A
:100BF00000F07AFB00220023C4F87021C4F874319D
:100C0000204610BD70B582B000261546009600F54E
:100C1000BA72044600F0EEFEC4F8705102B070BD26
:100C200070B5144B93F90030032B0446D0F87031A3
:100C300008D05B68C0F8743100212046BDE87040E0
:100C400000F0E0BE1E685D68304629462FF044FC87
:100C500038B1C4F8746120460021BDE8704000F04E
:100C6000D1BEC4F8745120460021BDE8704000F0A8
:100C7000C9BE00BF743300200449C1604FF07E52EA
:100C80000021017082604260704700BF6F12833A9A
:100C90002DE9F041416004460F468260002118466C
:100CA00090461E462FF022FC78B90346002523709B
:100CB000304629462FF01AFC50B94FF07E5325617B
:100CC0006561A361E361BDE8F0814FF00103EDE7E9
:100CD000414640462FF05AF9E668314680462FF0EB
:100CE00055F941460546A06130462FF04DF9294699
:100CF0002FF008FB3946E06138462FF047F90146EE
:100D0000074630462FF042F929462FF0FBFA3946C4
:100D1000206130462FF038F929462FF0F3FA606150
:100D2000BDE8F081F8B503783BB94FF07E5200235F
:100D30008261C26103614361F8BD8168044608466F
:100D40002FF024F9E668314607462FF01FF939469F
:100D50000546A06130462FF017F929462FF0D2FA48
:100D60006168E06108462FF011F9014607463046F8
:100D70002FF00CF929462FF0C5FA3946206130468C
:100D80002FF002F929462FF0BDFA6061F8BD00BFCF
:100D90000023036243628362C3627047037870B5C5
:100DA000044613B90020A06270BDC069E16A256ADB
:100DB00000F100402FF0F2F92169064628462FF095
:100DC000EDF9014630462FF0E1F8616A06466069A8
:100DD0002FF0E4F9014630462FF0D8F86562E06262
:100DE000A06270BD2DE9F0430E4683B0044601A910
:100DF0003046002232F04CF9019D031C18BF01233C
:100E0000AE4223700ED303BB4FF07E520023A2618B
:100E1000E26123616361AE4234BF2846002003B023
:100E2000BDE8F083284601A932F074F82F46019DF1
:100E30006060AF422E4632D2284601A932F06AF8ED
:100E40002378019DA060002BDED0A16808462FF01A
:100E50009DF8D4F80C80414681462FF097F849461A
:100E60000746A06140462FF08FF839462FF04AFA26
:100E70006168E06108462FF089F8014681464046E6
:100E80002FF084F839462FF03DFA4946206140465C
:100E90002FF07AF839462FF035FA6061BBE73E460D
:100EA0002378B0E7F0B5044685B080682778164609
:100EB0000D462EF0C9FCCDE9020160682EF0C4FC9D
:100EC0003B46CDE90001054A3146284630F088FA14
:100ED000284605B0BDE8F04030F012BD1C73030099
:100EE000037803B9704710B50446416804480AF016
:100EF0008FF8A1680248BDE810400AF089B800BF29
:100F000008390020F8B5037804467BB1234BB3F9C8
:100F10000030002B12DD22480AF0D2F86060204831
:100F20000AF0CEF82378A060002B34D14FF07E5227
:100F30000023A261E26123616361F8BD184A816800
:100F4000D3680833D36008462FF020F8E6683146AE
:100F500007462FF01BF839460546A06130462FF0B2
:100F600013F829462FF0CEF96168E06108462FF0AA
:100F70000DF80146074630462FF008F829462FF0B5
:100F8000C1F93946206130462EF0FEFF29462FF088
:100F9000B9F96061F8BD0146D5E700BF2C620020B9
:100FA0000839002030B4074A074C82604FF07E5564
:100FB000002201214560C46041700270027430BC9F
:100FC000704700BF6F12833A0024744938B5047823
:100FD000C26041603CB94FF07E520023C2610262A0
:100FE0004361836138BD0446084615462EF0CEFFA6
:100FF0000A4B23620146E061A0682FF083F908499B
:101000006061A06128462FF067FA4FF0010308B134
:10101000237438BD0346237438BD00BF000080BF71
:101020000000C6422DE9F04383B002AF0E4647F8F8
:10103000041D044639463046002232F029F8019D4D
:10104000003018BF0120AE42207010D32378002B4F
:1010500032D14FF07E520023E26122626361A361CC
:10106000AE4234BF2846002003B0BDE8F0832846D6
:10107000394631F04FFFA846019D6060A845A9465A
:1010800041D22846394631F045FF2049E060054607
:101090002FF022FA48BB019D2E46A94531D22846A1
:1010A0003946002231F0F4FF2378019D003018BF4B
:1010B00001206070002BCCD0616808462EF066FFDE
:1010C000134B23620146E061A0682FF01BF9114920
:1010D0006061A061E0682FF0FFF94FF0010308B1F3
:1010E0002374BDE703462374BAE7284600212FF096
:1010F00007FA019D18B101232E462374CDE72E4631
:10110000CBE74E46A2E74646A0E700BF002474495D
:10111000000080BF0000C64270B5037C86B0044664
:101120000D461646CBB1C0682EF08EFB02460B462C
:10113000617860680491CDE902232EF085FB237865
:101140000B4ACDE900013146284630F049F92846DE
:1011500006B0BDE8704030F0D3BB03A3D3E9002351
:10116000E6E700BFAFF300800000000080842E415E
:101170002873030003783BB94FF07E520023C2610D
:101180000262436183617047416810B504460846B6
:101190002EF0FCFE0A4B23620146E061A0682FF0AE
:1011A000B1F808496061A061E0682FF095F94FF04F
:1011B000010308B1237410BD0346237410BD00BFA2
:1011C000000080BF0000C642002343628362C36206
:1011D00003637047F8B503783BB30446006A216B9C
:1011E000676A00F100402EF0D9FF61690546384674
:1011F0002EF0D4FF014628462EF0C8FEA16A05460F
:10120000A0692EF0CBFF014628462EF0BFFE237CBE
:10121000E062054633B1E66831462FF07BF938B11C
:10122000E66235462563A762F8BD0023C362F8BDB8
:1012300006F10046314628462FF04EF90028EFD13E
:10124000F0E700BF037803B9704710B50446416862
:10125000044809F0DDFEE1680248BDE8104009F0ED
:10126000D7BE00BF08390020037810B5044673B11B
:10127000194BB3F90030002B11DD184809F020FF9D
:101280006060164809F01CFF2378E0605BB94FF0FE
:101290007E520023E26122626361A36110BD0F4AA6
:1012A000D3680833D360616808462EF06FFE0C4B9C
:1012B00023620146E061A0682FF024F809496061CB
:1012C000A061E0682FF008F94FF0010308B1237422
:1012D00010BD0346237410BD2C6200200839002085
:1012E000000080BF0000C642F8B5044600254FF05C
:1012F0007E56254B254F4FF0010E00220261E3631D
:10130000A366C4F8A030C4F8CC30C4F80431C4F8E3
:10131000343184F861E0062284F8305084F860505B
:1013200084F8705084F8945084F8C45084F8D450F1
:1013300084F8F85084F8285125702575A6636663F3
:101340006666C4F89C60C4F89860C4F8C860C4F8C5
:101350000061C4F8FC60C4F83061C4F82C61A66078
:10136000E766C4F8D070023084F8C5E0A76130F0B9
:10137000B5FB26612573E56125626562A56284F887
:101380002C502046F8BD00BF6F12833A00247449E8
:101390000023036543658365C365C0F88430C0F8E6
:1013A0008830C0F88C30C0F89030C0F8B430C0F845
:1013B000B830C0F8BC30C0F8C030C0F8E830C0F871
:1013C000EC30C0F8F030C0F8F430C0F81831C0F894
:1013D0001C31C0F82031C0F82431C0F84831C0F8C1
:1013E0004C31C0F85031C0F8543170472DE9F04706
:1013F000861C82B0044630460F4630F081FA3146F2
:1014000002460546384630F019FBB0F100080CBF23
:101410000126002603D0304602B0BDE8F0873D44E7
:10142000284669460A2231F033FE009F003018BF7B
:101430000120BD422070EED26946384631F06AFD87
:101440000099A0608F42E6D204F1C400FFF7EAFDE4
:1014500005460028DFD0424601A931F019FE019F60
:10146000031C18BF0123BD4284F8F830B846C0F011
:101470009D80002B40F0F4804FF07E520023C4F892
:101480001021C4F81421C4F80831C4F80C31AF425B
:10149000C1D9002FBFD0002201A9384631F0F8FD94
:1014A000019D031C18BF0123AF4284F82831A846D0
:1014B00067D3002B40F004814FF07E520023C4F824
:1014C0004021C4F84421C4F83831C4F83C31BD424D
:1014D000A1D9002D9FD0002201A9284631F0D8FDC6
:1014E000019F031C18BF0123BD4284F83030B84669
:1014F00034D3002B40F014814FF07E520023A264BD
:10150000E26423646364AF4285D9002F83D03946F7
:1015100004F16000FFF786FD054600283FF47BAF2D
:101520000022694631F0B4FD009F003018BF012051
:10153000BD4220734FD300226946284631F0A8FDF2
:10154000009B003018BF0120AB4220757FF663AFCF
:101550006946184631F0DEFCA0615CE7384601A917
:1015600031F0D8FC019F6063B8453D4680F034817E
:10157000384601A931F0CEFC94F83030019FA063C9
:10158000B7E7284601A931F0C5FC019DC4F82C013C
:10159000A8452F4680F02881284601A931F0BAFCE1
:1015A00094F82831019DC4F8300182E7384601A93A
:1015B00031F0B0FC019FC4F8FC00B8453D4680F016
:1015C0000F81384601A931F0A5FC94F8F830019F4D
:1015D000C4F800014DE76946384631F09BFC2061B4
:1015E000002F3FF418AFDDF80080474580F0F2800F
:1015F000002201A9404631F04BFD019D031C18BF9C
:101600000123454584F894302F4614D8002B40F030
:10161000B1804FF07E520023C4F8AC20C4F8B02053
:10162000C4F8A430C4F8A83045457FF6F4AE002DC8
:101630003FF4F1AE7FE7284601A931F06BFC019D34
:10164000C4F89800AF42A84680F0D280284601A98D
:1016500031F060FC94F89430019DC4F89C00D5E70B
:10166000D4F8001108462EF091FCD4F804914946B4
:1016700082462EF08BFC51468046C4F81001484645
:101680002EF082FC41462EF03DFED4F8FC10C4F84A
:10169000140108462EF07AFC0146824648462EF098
:1016A00075FC41462EF02EFE5146C4F8080148460E
:1016B0002EF06AFC41462EF025FEC4F80C01E6E649
:1016C000D4F8301108462EF061FCD4F83491494624
:1016D00082462EF05BFC51468046C4F840014846E5
:1016E0002EF052FC41462EF00DFED4F82C11C4F819
:1016F000440108462EF04AFC0146824648462EF038
:1017000045FC41462EF0FEFD5146C4F838014846DE
:101710002EF03AFC41462EF0F5FDC4F83C01D6E629
:10172000A16B08462EF032FCD4F83C904946824624
:101730002EF02CFC51468046A06448462EF024FC36
:1017400041462EF0DFFD616BE06408462EF01EFC82
:101750000146824648462EF019FC41462EF0D2FD45
:101760005146206448462EF00FFC41462EF0CAFD3B
:101770006064C8E6D4F89C1008462EF007FCD4F844
:10178000A090494682462EF001FC51460746C4F817
:10179000AC0048462EF0F8FB39462EF0B3FDD4F8E5
:1017A0009810C4F8B00008462EF0F0FB01468246BF
:1017B00048462EF0EBFB39462EF0A4FD5146C4F806
:1017C000A40048462EF0E0FB39462EF09BFDC4F8FD
:1017D000A80029E73D46AEE6454694F8303088E655
:1017E000454694F8F83044E6474694F8283160E6D8
:1017F000B84694F8943009E72DE9F043054687B0E0
:10180000806817460E462EF01FF82A780092CDE920
:101810000201AB1C39463046714A2FF0E1FD95F8C4
:10182000D430044606EB0008C0EB0709002B00F09B
:10183000CB80D5F8D0002EF007F802460B4695F87D
:10184000C510D5F8C8000491CDE902232DF0FCFFA6
:1018500095F8C430634ACDE90001494640462FF06F
:10186000BFFD404630F04CF80444D5F8000195F82F
:10187000F8902DF0E9FFCDE90201D5F8FC002DF03C
:10188000E3FF06EB04083A1B4B46CDE90001114685
:101890004046554A2FF0A4FD404630F031F804444C
:1018A000D5F8300195F828912DF0CEFFCDE9020151
:1018B000D5F82C012DF0C8FF06EB04083A1B4B4667
:1018C000CDE9000111464046474A2FF089FD4046C8
:1018D00030F016F80444A86B95F830902DF0B4FF62
:1018E000CDE90201686B2DF0AFFF06EB04083A1B4F
:1018F0004B46CDE90001114640463B4A2FF070FDB2
:1019000040462FF0FDFF95F87030044406EB0408C4
:10191000C4EB0709002B5BD0E86E2DF095FF024663
:101920000B4695F86110686E0491CDE902232DF005
:101930008BFF95F860302B4ACDE9000149464046BF
:101940002FF04EFD40462FF0DBFF0444286995F848
:101950000C802DF079FFC4EB070E32194346CDE918
:10196000000171461046214A2FF03AFD0444D5F893
:101970009C0095F894902DF067FFCDE90201D5F811
:1019800098002DF061FF06EB04083A1B4B46CDE9A9
:10199000000111464046144A2FF022FD40462FF028
:1019A000AFFF0444A8692D7D2DF04EFF3F1B264458
:1019B000CDE900012B46394630460D4A2FF010FD87
:1019C000204407B0BDE8F08303A3D3E9002336E742
:1019D00001A3D3E90023A4E70000000080842E4186
:1019E00038730300287303001C730300447303005F
:1019F0004C73030010B4019C4462C16102628362B3
:101A000010BC70472DE9F84F0378002B00F03081AF
:101A1000037B0E460446002B40F0C9800023C569B5
:101A2000C0F8583194F83030002B40F032812B68E8
:101A3000C4F85C3194F82831002B00F02381636AEC
:101A4000002B00F0C881D4F820801968D4F82C014C
:101A50002EF0A4FBD8F800102EF098FA0746C4F830
:101A6000600194F82C30D4F85C512BB3D8F80010F6
:101A700028462EF089FA2DF0E7FEA7A3D3E900232C
:101A8000804689462EF0C4F9002840F02281404665
:101A90004946A3A3D3E900232EF09CF960B1284660
:101AA0002DF0D2FEA0A3D3E900232DF06FFD2EF080
:101AB00017FA0546C4F85C01394628462EF064FA48
:101AC000A1682EF06BFB94F8F830C4F86401054669
:101AD0008BB3002E40F00B81D4F81C71D4F8241184
:101AE000D4F81401C4F8185100F100402EF056FB50
:101AF000D4F80811804628462EF050FB0146404697
:101B00002EF044FAD4F80C11804638462EF046FBED
:101B1000014640462EF03AFAC4F81C51C4F82001A0
:101B2000C4F82401C4F86401002E00F0EE80804B5C
:101B30009D61D861054694F8C430002B73D063785A
:101B4000C4F8E850002B67D1D4F8E400D4F8F410BE
:101B500000F100402EF022FBD4F8D81006462846AB
:101B60002EF01CFB014630462EF010FAD4F8EC1093
:101B70000646D4F8DC002EF011FB014630462EF06C
:101B800005FA94F8D430C4F8F000064653B1D4F8FE
:101B9000D07039462EF0BEFC002800F01281C4F847
:101BA000F0703E46C4F8F460C4F8EC5036E0C56905
:101BB000016928682EF0F2FA94F89430C4F85801BC
:101BC0000746002B3FF42EAFD4F8B000D4F8C01075
:101BD000C4F8B47000F100402EF0E0FAD4F8A4107C
:101BE000804638462EF0DAFA014640462EF0CEF90D
:101BF000D4F8B8108046D4F8A8002EF0CFFA0146E9
:101C000040462EF0C3F9C4F8B870C4F8BC00C4F85C
:101C1000C000C4F8580105E7D4F8F0602846314602
:101C20002EF0B4F905462846D4F858112EF0AEF936
:101C300094F86030C4F868010546002B7AD1C4F8E6
:101C40006C51237DCBB1A669294630462EF044FC69
:101C5000002854D106F10046304629462EF05AFCA1
:101C6000A26A002853D0012316606370BDE8F88F84
:101C7000836A00221A60BDE8F88FA26A156063705B
:101C8000BDE8F88FD4F82080D8F80070C4F86071EF
:101C9000E7E6E06C2D68E16D256500F100402EF06F
:101CA0007DFA216C074628462EF078FA0146384620
:101CB0002EF06CF9616D0746606C2EF06FFA0146EC
:101CC00038462EF063F96565A065E065C4F85C01EF
:101CD000B0E628462DF0B8FD13A3D3E900232DF07C
:101CE00053FC2EF0FDF80546C4F85C01E4E6104B09
:101CF000D4F81C71D4F824111F615961F0E6A26A6E
:101D0000012316606370BDE8F88F054613E70023D2
:101D100015606370BDE8F88F182D4454FB2109400D
:101D2000182D4454FB2109C0182D4454FB2119409F
:101D3000E8320020D4F88000D4F89010C4F8845021
:101D400000F100402EF02AFA616F064628462EF078
:101D500025FA014630462EF019F9D4F888100646C7
:101D6000A06F2EF01BFA014630462EF00FF994F8C2
:101D70007030C4F88C0006463BB1E76E39462EF051
:101D8000C9FBA8B1C4F88C703E4694F86130C4F821
:101D90009060C4F888503BB1284631462EF0F6F8E2
:101DA0000546C4F86C014CE7C4F86C61354648E759
:101DB00007F10047394630462EF08EFB0028E1D16E
:101DC000E3E707F10047394630462EF085FB00284F
:101DD0007FF4E5AEE6E6002E5FD1D4F84C71D4F87E
:101DE0005491D4F82080D8F80050394628462EF077
:101DF000CBF82DF029FD40A3D3E9002382468B4682
:101E00002EF006F8002851D038462DF01DFD3CA3D9
:101E1000D3E900232DF0BAFB2EF062F8C4F84C0190
:101E2000074648462DF010FD35A3D3E900232DF0D9
:101E3000ADFB2EF055F8C4F85401D8F80050814697
:101E4000D4F84401C4F84851494600F100402EF04E
:101E5000A5F9D4F83811814628462EF09FF901469D
:101E600048462EF093F8D4F83C11814638462EF0BF
:101E700095F9014648462EF089F8C4F84C510746BA
:101E8000C4F85001C4F85401C4F86001002E3FF4B6
:101E9000E8AD1F4B9D60D860E3E51D4BD4F84C7155
:101EA000D4F854911F60C3F804909AE750465946FD
:101EB00015A3D3E900232DF08DFF0028C0D03846AC
:101EC0002DF0C2FC0EA3D3E900232DF05DFB2EF014
:101ED00007F8C4F84C01074648462DF0B5FC08A3A6
:101EE000D3E900232DF050FB2DF0FAFFC4F8540184
:101EF0008146D8F80050A3E7182D4454FB2109402F
:101F0000182D4454FB211940182D4454FB2109C0BD
:101F1000E832002090F8C430017810B504460BB1C7
:101F200041F0020194F8F8300BB141F0040194F84B
:101F300028310BB141F0080194F830300BB141F079
:101F4000100194F860300BB141F02001237B0BB1FC
:101F500041F0400194F894300BB141F08001237DB1
:101F60000BB141F4807194F861300BB141F4007110
:101F7000364809F085F8237803B910BDA1683348C5
:101F800009F046F894F8C430002B53D194F8F83097
:101F9000002B44D194F82831002B35D194F83030FF
:101FA0004BBB94F86030EBB9237B43B9237D002B06
:101FB000E3D0A1692548BDE8104009F029B821699E
:101FC000224809F025F894F89430002BEED0D4F88C
:101FD00098101E4809F01CF8D4F89C101B4809F012
:101FE00017F8E3E7616E194809F012F8E16E174837
:101FF00009F00EF8D8E7616B144809F009F8A16BF5
:10200000124809F005F8CCE7D4F82C110F4808F075
:10201000FFFFD4F830110D4808F0FAFFBEE7D4F8FE
:10202000FC100A4808F0F4FFD4F80011074808F043
:10203000EFFFAFE7D4F8C810044808F0E9FFD4F880
:10204000D010024808F0E4FFA0E700BF08390020E4
:102050002DE9F041B64D0446284609F055F8C0F385
:10206000001300F00107C0F34006C0F38001C0F385
:10207000C00284F83030C0F34023277084F8C46075
:10208000C0F34017C0F3801684F8F81084F82821B4
:10209000C0F3C011C0F3002284F86130C30784F894
:1020A0006070267384F89410227501D4BDE8F08125
:1020B000284609F005F894F8C430A060A3B19D4B00
:1020C000B3F90030002B40F3CD81284608F0F8FF2B
:1020D000C4F8C800284608F0F3FF94F8C430C4F8E8
:1020E000D000002B40F0C1814FF07E520023C4F895
:1020F000E020C4F8E420C4F8D830C4F8DC3094F808
:10210000F830A3B18B4BB3F90030002B40F377814B
:10211000874808F0D5FFC4F8FC00854808F0D0FFD8
:1021200094F8F830C4F80001002B40F0C0814FF063
:102130007E520023C4F81021C4F81421C4F80831D9
:10214000C4F80C3194F82831A3B17A4BB3F90030BC
:10215000002B40F32181764808F0B2FFC4F82C012F
:10216000734808F0ADFF94F82831C4F83001002B13
:1021700040F09F814FF07E520023C4F84021C4F804
:102180004421C4F83831C4F83C3194F8303093B16C
:10219000684BB3F90030002B40F3D280644808F05C
:1021A0008FFF6063624808F08BFF94F83030A063C3
:1021B000002B40F080814FF07E520023A264E26445
:1021C0002364636494F8603083B15A4BB3F90030F0
:1021D000002B56DD564808F073FF6066544808F03F
:1021E0006FFF94F86030E066002B4DD14FF07E52C7
:1021F0000023E267C4F880206367A367237B63B38F
:102200004C4EB6F90030002B58DD494F384608F0E7
:1022100057FF94F894302061A3B1B6F90030002B39
:10222000D8BFFB6851DD384608F04AFFC4F8980073
:10223000384608F045FF94F89430C4F89C00002B11
:1022400040F03B814FF07E520023C4F8AC20C4F82C
:10225000B020C4F8A430C4F8A830237D002B3FF48C
:1022600025AF344BB3F90030002B04DCEB680433AA
:10227000EB60BDE8F0812E4808F022FFA061BDE8C8
:10228000F081EB680833EB60616E08462DF07EFE4E
:10229000294BC4F880300146E067A06E2EF032F87A
:1022A00026496067A067E06E2EF016F94FF0010333
:1022B000002800F0FA8084F870309FE7EB6894F80B
:1022C00094200433EB60002ABCD00833D4F89C106F
:1022D000EB6008462DF05AFED4F8A07039468046CF
:1022E0002DF054FE41460646C4F8AC0038462DF0A9
:1022F0004BFE31462EF006F8D4F89810C4F8B00022
:1023000008462DF043FE0146804638462DF03EFE3D
:1023100031462DF0F7FF4146C4F8A40038462DF0B1
:1023200033FE31462DF0EEFFC4F8A80095E700BF5C
:10233000083900202C620020000080BF0000C64247
:10234000EB68A16B0833EB6008462DF01FFEE76BCE
:10235000394680462DF01AFE41460646A0643846AE
:102360002DF012FE31462DF0CDFF616BE064084682
:102370002DF00CFE0146804638462DF007FE314612
:102380002DF0C0FF4146206438462DF0FDFD31465A
:102390002DF0B8FF606415E7EB68D4F8301108330E
:1023A000EB6008462DF0F2FDD4F8347139468046D2
:1023B0002DF0ECFD41460646C4F8400138462DF0AC
:1023C000E3FD31462DF09EFFD4F82C11C4F84401F2
:1023D00008462DF0DBFD0146804638462DF0D6FD3F
:1023E00031462DF08FFF4146C4F8380138462DF0B4
:1023F000CBFD31462DF086FFC4F83C01C5E6EB6805
:10240000D4F800110833EB6008462DF0BFFDD4F876
:102410000471394680462DF0B9FD41460646C4F8A0
:10242000100138462DF0B0FD31462DF06BFFD4F889
:10243000FC10C4F8140108462DF0A8FD01468046A2
:1024400038462DF0A3FD31462DF05CFF4146C4F81F
:10245000080138462DF098FD31462DF053FFC4F8A1
:102460000C016FE6EB680833EB60D4F8C81008463F
:102470002DF08CFD124BC4F8E4300146C4F8E000A6
:10248000D4F8CC002DF03EFF0E49C4F8D800C4F8B3
:10249000DC00D4F8D0002EF01FF84FF0010310B18B
:1024A00084F8D4302BE60346FAE7034603E70146F7
:1024B000AAE7014675E7014646E7014609E700BF7E
:1024C000000080BF0000C64238B5841C20460D467F
:1024D0002FF016FA2946024620462FF0AFFAB0FA3E
:1024E00080F0400938BD00BF70B5C3698AB00446AA
:1024F0000D46016A1868D4F86021D4F85C31009068
:102500000968D4F858610191184611460292049363
:1025100003962DF039FDA1682DF040FED4F8F0109F
:10252000D4F86821D4F86461A36A059007910892F1
:1025300006961B68099328462822694604F008FB82
:102540000AB070BDFFFFFFFF2DE9F0410378232B98
:1025500082B0044620D02FF0D3F9274A12780546DE
:102560005AB1264A92F90010052938D0CBB2042B73
:1025700008D9012002B0BDE8F081014620461CF0D8
:10258000ADFCEEE7002000902B4622461C4808F0E8
:102590000FFB02B0BDE8F081184DFF2395F90070E4
:1025A0002B702FF0ADF9144A16788046A6B9014673
:1025B00020461CF093FC95F90010052915D0CBB2EC
:1025C000042B09D80096434622460D4808F0F0FA3D
:1025D0002F7002B0BDE8F08101202F70F9E720468E
:1025E000294615F00BF80120C4E72046414615F0B6
:1025F00005F801202F70ECE7841FFF1FE407FF1F81
:102600000034002008B50A220021044830F040FDC3
:1026100000EB80004000013080B208BD647303000D
:10262000F0B54C4A4C4B14684C4918684C4BB1F906
:102630000E601B884B4A4C4DD5B004EB84041096B9
:10264000640000EB8000B1F90CE0B1F90A7012945B
:102650004000B1F908601190B1F90640CDF838E0BA
:10266000B1F904000C97B1F902700A96B2F90E6044
:102670000894B2F90C400690B2F90A000497B2F936
:1026800008700F96B2F906600D94B2F904400B90F1
:10269000B2F902000997079605940390B1F900007A
:1026A000B2F900102A8800920290019115A82F4AD1
:1026B000FA212EF095FE9DF85430232B1ED015A83C
:1026C0002FF01EF92A4A127804464AB1294A92F993
:1026D0000010052932D0CBB2042B06D955B0F0BD7D
:1026E000014615A81CF0FAFBF0E7002000902346F5
:1026F00015AA214808F05CFA55B0F0BD1D4CFF2327
:1027000015A894F9006023702FF0FAF8184A15788C
:10271000074685B9014615A81CF0E0FB94F90010A6
:10272000052910D0CBB2042B05D800953B4615AA3D
:10273000114808F03DFA267055B0F0BD214615A8A5
:1027400014F05CFFCAE7394615A814F057FF26704D
:10275000F2E700BFF4600020F8600020200AFF1FAD
:10276000905F0020100AFF1F985F0020887303000D
:10277000841FFF1FE407FF1F003400202DE9F041F4
:10278000434A444B5788D3F80480434915881E6850
:102790000C88CAB0C8EB07002DF0ACFC3F4900F133
:1027A00000402DF0FBFC2DF04FF8CDE90801A81BEF
:1027B000CDF81C8006972DF09DFC38492DF0EEFCDD
:1027C0002DF042F8CDE904012046039602952DF044
:1027D00091FC33492DF0E2FC2DF036F82346CDE98B
:1027E0000001304A0BA8FA212EF0FAFD9DF82C309A
:1027F000232B20D00BA82FF083F82B4A1278044605
:1028000052B12A4A92F90010052935D0CBB2042BD7
:1028100007D94AB0BDE8F08101460BA81CF05EFB69
:10282000EFE70020009023460BAA214808F0C0F9EA
:102830004AB0BDE8F0811D4CFF230BA894F900605D
:1028400023702FF05DF8184A1578074685B90146C0
:102850000BA81CF043FB94F90010052911D0CBB252
:10286000042B05D800953B460BAA114808F0A0F9A7
:1028700026704AB0BDE8F08121460BA814F0BEFED8
:10288000C7E739460BA814F0B9FE2670F1E700BF80
:10289000143F00200C3F0020D25F0020E62A313692
:1028A000B4A1013BD4730300841FFF1FE407FF1F83
:1028B00000340020F0B53A4B3A4C9B683A493B4A09
:1028C0003B480D780088B2F97C1092F87E2093B0D6
:1028D000A4FB03439B0907930492059106952DF0F1
:1028E00009FC3449344C2DF059FC2CF0ADFFCDE9F6
:1028F000020160682CF0A8FF304ACDE9000109A868
:1029000023212EF06DFD9DF82430232B1DD009A826
:102910002EF0F6FF227805464AB1294A92F90010B6
:10292000052931D0CBB2042B06D913B0F0BD014636
:1029300009A81CF0D3FAF0E7002000902B4609AA62
:10294000204808F035F913B0F0BD1D4DFF2309A84C
:1029500095F900602B702EF0D3FF2478074684B9D8
:10296000014609A81CF0BAFA95F90010052910D003
:10297000CBB2042B05D800943B4609AA114808F0B5
:1029800017F92E7013B0F0BD294609A814F036FED1
:10299000CBE7394609A814F031FE2E70F2E700BFEC
:1029A00088600020898888884C330020D85F002008
:1029B000D25F0020B4A1013B841FFF1FFC73030002
:1029C000E407FF1F00340020F0B5374C9BB0E068EF
:1029D0002CF03AFFCDE90801344B18682CF034FF95
:1029E000CDE90601A0682CF02FFFCDE90401606855
:1029F0002CF02AFFCDE9020120682CF025FF2C4A9B
:102A0000CDE900010AA840212EF0EAFC9DF828300B
:102A1000232B1ED00AA82EF073FF264A12780446F4
:102A20004AB1254A92F90010052932D0CBB2042BC5
:102A300006D91BB0F0BD01460AA81CF04FFAF0E71A
:102A40000020009023460AAA1C4808F0B1F81BB0E9
:102A5000F0BD194CFF230AA894F9006023702EF0F2
:102A60004FFF144A1578074685B901460AA81CF09D
:102A700035FA94F90010052910D0CBB2042B05D8F3
:102A800000953B460AAA0D4808F092F826701BB044
:102A9000F0BD21460AA814F0B1FDCAE739460AA8DC
:102AA00014F0ACFD2670F2E7B0330020C0330020F4
:102AB00018740300841FFF1FE407FF1F0034002069
:102AC000F0B53C4B3C4D1C68B5F9040097B02DF0B7
:102AD00011FB21462DF062FB2CF0B6FECDE904017E
:102AE000B5F902002DF006FB21462DF057FB2CF026
:102AF000ABFECDE90201B5F900002DF0FBFA21464D
:102B00002DF04CFB2CF0A0FE2C4ACDE9000106A8CC
:102B100040212EF065FC9DF81830232B1ED006A80E
:102B20002EF0EEFE264A127804464AB1254A92F962
:102B30000010052932D0CBB2042B06D917B0F0BD56
:102B4000014606A81CF0CAF9F0E7002000902346D1
:102B500006AA1D4808F02CF817B0F0BD194CFF2349
:102B600006A894F9006023702EF0CAFE144A157866
:102B7000074685B9014606A81CF0B0F994F9001083
:102B8000052910D0CBB2042B05D800953B4606AAE8
:102B90000D4808F00DF8267017B0F0BD214606A8C4
:102BA00014F02CFDCAE7394606A814F027FD26705C
:102BB000F2E700BFA4C803003C39002030740300D2
:102BC000841FFF1FE407FF1F00340020F0B53C4BBB
:102BD0003C4D1C68B5F9040097B02DF08BFA2146E6
:102BE0002DF0DCFA2CF030FECDE90401B5F902003D
:102BF0002DF080FA21462DF0D1FA2CF025FECDE9FA
:102C00000201B5F900002DF075FA21462DF0C6FA43
:102C10002CF01AFE2C4ACDE9000106A840212EF026
:102C2000DFFB9DF81830232B1ED006A82EF068FE7F
:102C3000264A127804464AB1254A92F9001005291D
:102C400032D0CBB2042B06D917B0F0BD014606A88E
:102C50001CF044F9F0E700200090234606AA1D4826
:102C600007F0A6FF17B0F0BD194CFF2306A894F992
:102C7000006023702EF044FE144A1578074685B98B
:102C8000014606A81CF02AF994F90010052910D075
:102C9000CBB2042B05D800953B4606AA0D4807F099
:102CA00087FF267017B0F0BD214606A814F0A6FCD9
:102CB000CAE7394606A814F0A1FC2670F2E700BF67
:102CC000A8C803004439002040740300841FFF1F7C
:102CD000E407FF1F00340020F0B52F4C95B060686A
:102CE0002CF0B2FDCDE9020120682CF0ADFD2B4A9D
:102CF000CDE9000104A840212EF072FB9DF81030B0
:102D0000232B1ED004A82EF0FBFD254A1278044682
:102D10004AB1244A92F90010052932D0CBB2042BD3
:102D200006D915B0F0BD014604A81CF0D7F8F0E7AD
:102D300000200090234604AA1B4807F039FF15B075
:102D4000F0BD184CFF2304A894F9006023702EF006
:102D5000D7FD134A1578074685B9014604A81CF02B
:102D6000BDF894F90010052910D0CBB2042B05D87A
:102D700000953B4604AA0C4807F01AFF267015B0D0
:102D8000F0BD214604A814F039FCCAE7394604A86E
:102D900014F034FC2670F2E7183F00205074030052
:102DA000841FFF1FE407FF1F00340020F0B52F4CE5
:102DB00095B060682CF048FDCDE9020120682CF048
:102DC00043FD2B4ACDE9000104A840212EF008FB69
:102DD0009DF81030232B1ED004A82EF091FD254A1B
:102DE000127804464AB1244A92F90010052932D0DB
:102DF000CBB2042B06D915B0F0BD014604A81CF0D7
:102E00006DF8F0E700200090234604AA1B4807F065
:102E1000CFFE15B0F0BD184CFF2304A894F9006054
:102E200023702EF06DFD134A1578074685B90146CB
:102E300004A81CF053F894F90010052910D0CBB267
:102E4000042B05D800953B4604AA0C4807F0B0FEB9
:102E5000267015B0F0BD214604A814F0CFFBCAE7D8
:102E6000394604A814F0CAFB2670F2E7E8330020C4
:102E70005C740300841FFF1FE407FF1F0034002061
:102E80002DE9F043ADF5337D0022431C8DF804217C
:102E9000112B45D8DFE813F04D00120029014F0136
:102EA000A601BC01C901D601EA0110021B022F02D2
:102EB0002F02640264029A02F2024800B44BB54D3C
:102EC0001C68B5F904002DF015F921462DF066F9BE
:102ED0002CF0BAFCCDE90401B5F902002DF00AF995
:102EE00021462DF05BF92CF0AFFCCDE90201B5F9DC
:102EF00000002DF0FFF821462DF050F92CF0A4FC35
:102F0000CDE90001A44A402131A82EF069FA31A888
:102F1000FFF71AFB9DF8043113B141A8FFF714FB2A
:102F20000DF5337DBDE8F0830CF056FB9DF80431C0
:102F3000F2E79A49964A9A4B088816681C68994D98
:102F4000DFF89882984FDFF898922DF0D3F89749E0
:102F50002DF024F92CF078FCCDE92E01944BE86893
:102F60001B7A2C932CF070FCCDE92A01914B186848
:102F70002CF06AFCCDE92801A8682CF065FCCDE9AD
:102F8000260168682CF060FCCDE9240128688A4D90
:102F90002CF05AFCCDE92201D8F804002CF054FCA6
:102FA000CDE92001D8F80000DFF828822CF04CFC95
:102FB000CDE91E0178682CF047FCCDE91C0138688A
:102FC0002CF042FC6B68B9F802707C4ACDE91A011A
:102FD000F81A0CCA199318922DF08CF87849794F89
:102FE00000F100402DF0DAF82CF02EFCB9F80020AA
:102FF0002B68684DCDE91601D01A2DF07BF8704989
:103000002DF0CCF82CF020FCCDE914016E4BD8F853
:1030100008001B7812932DF06DF821462DF0BEF8B4
:103020002CF012FCCDE91001D8F804002DF062F864
:1030300021462DF0B3F82CF007FCCDE90E01D8F8AD
:1030400000002DF057F821462DF0A8F82CF0FCFBDD
:10305000CDE90C01B7F904002DF04CF821462DF014
:103060009DF82CF0F1FBCDE90A01B7F902002DF033
:1030700041F821462DF092F82CF0E6FBCDE908014D
:10308000B7F900002DF036F821462DF087F82CF026
:10309000DBFBCDE90601B5F904002DF02BF8314634
:1030A0002DF07CF82CF0D0FBCDE90401B5F902003D
:1030B0002DF020F831462DF071F82CF0C5FBCDE94C
:1030C0000201B5F900002DF015F831462DF066F833
:1030D0002CF0BAFB3D4ACDE900014FF4E17141A863
:1030E0002EF07EF99DF8043116E72D4B354D1C6806
:1030F000B5F904002CF0FEFF21462DF04FF82CF01E
:10310000A3FBCDE90401B5F902002CF0F3FF214641
:103110002DF044F82CF098FBCDE90201B5F9000040
:103120002CF0E8FF21462DF039F82CF08DFB284AD1
:10313000CDE90001E7E61A4A264D234B14681B78B7
:10314000A86806932CF0D6FF21462DF027F82CF026
:103150007BFBCDE9040168682CF0CCFF21462DF003
:103160001DF82CF071FBCDE9020128682CF0C2FF9C
:1031700021462DF013F82CF067FB174ACDE900012A
:103180004FF4E17141A82EF02BF99DF80431C3E60C
:10319000A4C803003C39002030740300D25F002033
:1031A000A8C80300B0330020E8330020B4A1013BDD
:1031B000841FFF1FC03300200C3F0020E03B002095
:1031C000E62A3136443900204A3900206874030069
:1031D000407403004C390020E4740300C433002021
:1031E000143F0020864C60682CF02EFBCDE90201D4
:1031F00020682CF029FBCDE90001824A402131A84A
:103200002EF0EEF831A8FFF79FF99DF8043183E620
:103210007D497E4A0B684968009141A84FF4E171ED
:103220002EF0DEF89DF8043176E6794C60682CF0DB
:103230000BFBCDE9020120682CF006FB754ACDE9B5
:103240000001DBE7744C60682CF0FEFACDE9020166
:1032500020682CF0F9FA714ACDE900014FF4E171D0
:1032600041A82EF0BDF89DF8043155E66C4CE0689D
:103270002CF0EAFACDE908016A4B18682CF0E4FA60
:10328000CDE90601A0682CF0DFFACDE90401606801
:103290002CF0DAFACDE9020120682CF0D5FA624A66
:1032A000CDE90001402131A82EF09AF831A8FFF7AE
:1032B0004BF99DF804312FE65C4B5D4A1B7A4FF4C5
:1032C000E17141A82EF08CF89DF8043124E6594BA9
:1032D00018882CF00FFF58492CF060FF2CF0B4FA3E
:1032E000564ACDE900014FF4E17141A82EF078F87B
:1032F0009DF8043110E6A0F10A05514B01933022EC
:103300002B4600924FF4E1714E4A4F4F41A82EF0E8
:1033100067F841A82EF0F4FA044605EB4500C00119
:10332000051F41ABBC303D441E19074455F8043F0E
:10333000464AC4F5E17130462EF052F830462EF080
:10334000DFFA41AB0444BD4203EB0406EED1C4F501
:10335000E17130463E4A2EF043F89DF80431DBE53A
:10336000A0F10C0530222B4600924FF4E171394A4E
:10337000394F41A82EF034F841A82EF0C1FA044686
:1033800005EB45008001051F41ABBC303D441E19D3
:10339000074455F8040F2CF0A9FE2CF055FA002232
:1033A0002E4B2CF0CFFBC4F5E173CDE900012C4A84
:1033B000194630462EF014F830462EF0A1FA41ABF3
:1033C0000444BD4203EB0406E3D1C0E7254A264C82
:1033D000127826482649274B0078097824681B78FC
:1033E000029082F00102019200910394224A4FF46C
:1033F000E17141A82DF0F4FF9DF804318CE500BF88
:10340000183F002050740300E03B0020F8740300D4
:10341000E83300205C740300C43300200C75030003
:10342000B0330020C033002018740300841FFF1F36
:1034300018750300D25F0020B4A1013B247503007E
:10344000000E270730750300F43B00203C75030095
:10345000147D030044750300483A002000408F406B
:103460004C750300F03B0020580AFF1F540AFF1F51
:10347000600AFF1F003F0020507503002B4A2C49B3
:1034800092F900202B4B08681C921D682A4C2CF0E6
:10349000DBF9CDE91A01294B18682CF0D5F9284A37
:1034A000284B12681B681792CDE91801E069169342
:1034B0002CF0CAF9CDE91401A0692CF0C5F9CDE9C9
:1034C000120160692CF0C0F9CDE9100120692CF0DF
:1034D000BBF9CDE90E01E0682CF0B6F9CDE90C019D
:1034E000A0682CF0B1F9CDE90A0160682CF0ACF9C4
:1034F000CDE9080120682CF0A7F9134A134B127884
:103500000492CDE9060118682CF09EF9104B114A7F
:103510001B680093CDE902012B464FF4E17141A8ED
:103520002DF05EFF9DF80431F6E400BFA4390020C1
:10353000303A0020443A0020B8390020343A0020C4
:10354000383A00203C3A0020053A0020003A00209A
:10355000403A002064750300F0B50A229FB00021B4
:1035600033482FF095FD00EB80004000314B0130D7
:103570001B78029380B22CF0B9FD2CF065F92E4B2C
:1035800000222CF0DFFA2D4ACDE9000105A86421C4
:103590002DF026FF9DF81430232B1ED005A82EF009
:1035A000AFF9274A127804464AB1264A92F9001028
:1035B000052932D0CBB2042B06D91FB0F0BD01468D
:1035C00005A81BF08BFCF0E700200090234605AA1D
:1035D0001D4807F0EDFA1FB0F0BD1A4CFF2305A8F7
:1035E00094F9006023702EF08BF9154A1578074680
:1035F00085B9014605A81BF071FC94F90010052956
:1036000010D0CBB2042B05D800953B4605AA0E4836
:1036100007F0CEFA26701FB0F0BD214605A813F0C2
:10362000EDFFCAE7394605A813F0E8FF2670F2E778
:1036300064730300D05F0020000024402076030064
:10364000841FFF1FE407FF1F003400202DE9F0470F
:103650000422ADF5066D0D469C4904462EF0EEF9A8
:1036600070B99B4A9B4C9C49907200230120507278
:1036700023600B60994B1D700DF5066DBDE8F0875A
:103680000422974920462EF0D9F938B923791F2B07
:1036900000F2A380934B01221A70EBE78C4FBB7AA8
:1036A000002BE9D163788D4E3D2B357000F0A08062
:1036B0002378782B00F0B68003228B4920462EF029
:1036C000BDF9002859D02146884804F017FC00288D
:1036D000D2D120460CF0D4F80028CDD1204608F0F5
:1036E000B7FD80460028C7D194F80090B9F13C0F8F
:1036F00000F01A81B9F1750F00F0C884B9F1760FA6
:1037000000F0498109F0DF02482A00F063810322BA
:10371000774920462EF092F98246002800F0058570
:103720000322744920462EF089F98246002800F0D1
:1037300016850322704920462EF080F9002800F0FB
:10374000418503226D4920462EF078F982460028F3
:1037500040F0198520463D212DF090FE002800F014
:10376000AA85514601300A222FF092FC20EAE0712E
:103770000122634807F0DEFE7EE703340A2220467A
:103780000EA90E9418942FF083FC0EA905460E98EE
:103790002FF0C0FB18A906460E982FF0BBFB189C13
:1037A0000E9A944207467FF667AF18A920460A2270
:1037B0000E942FF06DFC0E9A189B003018BF01205C
:1037C0009A4208BF0020291C00903B46324618BF91
:1037D0000121464803F054FF4EE701460A22601DCE
:1037E0002FF056FC3F4B003018BF0120187041E706
:1037F00023784D3B262B5CD8DFE803F04A5B5B5B0C
:103800005B5B5B5B5B5B5B5B5B5B5B5B5B5B5B5B08
:103810003E5B5B5B5B5B5B5B375B5B5B5B5B5B5B39
:103820005B5B1F00611C314804F0A0FB00287FF4A3
:1038300023AF3448FEF788FE1EE70EA90A22A01C1B
:103840002FF026FC304B186005F02EF90E98037807
:103850001F2B7FF611AF0EA90A222FF019FC2B4B5C
:10386000003018BF0120187006E7A01C0A220021B2
:103870002FF00EFCF872FFE62548FEF765FE08F013
:10388000BBF8D0B12348FEF75FFE07F013FFF3E665
:10389000164DB5F97C10A1B9A01C0A222FF0F8FB37
:1038A0001D4BA8671B689842FFF6E6AE013BAB676D
:1038B000E2E61A48FEF748FEDEE61948FEF744FE47
:1038C000E3E71848FEF740FED6E600BF3476030073
:1038D000841FFF1F583300205C330020E407FF1FC4
:1038E0003C7603002462002008770300D85F0020A4
:1038F0009C890300B4890300B8890300BC890300D4
:1039000008390020E8760300EC07FF1FF807FF1FC7
:103910006C760300987603004C980300D076030081
:10392000B476030044760300651C2846052221492D
:103930002EF084F8002800F0078403221E49284650
:103940002EF07CF8002800F0048405221B4928464C
:103950002EF074F8002800F02F840322184928461E
:103960002EF06CF80646002800F05F84154903220B
:1039700028462EF063F80146002800F08A84284685
:10398000052211492EF05AF8002840F07D840F4896
:1039900012F0BAF870E66378312B00F00884322B0D
:1039A00000F0FC83302B00F0FE830948FEF7CCFDCD
:1039B00062E600BF0C77030014770300187703005A
:1039C00020770300907703009477030000610020C4
:1039D000E0770300A44918A82DF09EF918A8FEF777
:1039E000B3FDA24BA24A9B6FDC2118A82DF0F8FC76
:1039F00018A8FEF7A9FD97F90B309E4ADC2118A8FC
:103A00002DF0EEFC18A8FEF79FFD9B4A9B4B127809
:103A10001B680092DC219A4A18A82DF0E1FC18A836
:103A2000FEF792FD9749984A8C794B7848790D7941
:103A30000494CC78039088788DE831008C7B487BA7
:103A40000D7B0C94CC7A0B90887A0A954E7A099467
:103A50000D7ACC790890DC2118A807960695059474
:103A60002DF0BEFC18A8FEF76FFD884B1B781BB12C
:103A7000874B1B7883F001038649874A09681268DF
:103A80000192009302914623844A854C854D864ECF
:103A9000DC2118A82DF0A4FC18A8FEF755FDBB7A70
:103AA000824A834FDC2118A82DF09AFC18A8FEF753
:103AB0004BFD8049804AB1F90030B1F90210009104
:103AC00018A8DC212DF08CFC18A8FEF73DFD6068DD
:103AD0002BF0BAFECDE9020120682BF0B5FE774A43
:103AE000CDE90001DC2118A82DF07AFC18A8FEF71A
:103AF0002BFD7349734A91F9003091F9011000913F
:103B000018A8DC212DF06CFC18A8FEF71DFD68221A
:103B10006D4918A82DF000F918A8FEF715FD6C22C4
:103B20006A4918A82DF0F8F818A8FEF70DFD8C22A8
:103B3000674918A82DF0F0F818A8FEF705FDA32294
:103B4000644918A82DF0E8F818A8FEF7FDFC4E22ED
:103B5000614918A82DF0E0F818A8FEF7F5FCBE2280
:103B60005E4918A82DF0D8F818A8FEF7EDFC5C48BF
:103B7000FEF7EAFC5B48FEF7E7FC5B48FEF7E4FC77
:103B80007F225A4918A82DF0C7F818A8FEF7DCFCC8
:103B90000FCD18AC0FC40FCD0FC40FCD0FC42B68C1
:103BA000237018A8FEF7D0FC0FCF18AD0FC50FCFAC
:103BB0000FC597E80F0007C525F8023B4C4F1B0CBB
:103BC0002B7018A8FEF7C0FC0FCF18AD0FC50FCF94
:103BD0000FC50FCF0FC525463B6825F8023B1B0CD0
:103BE0002B7018A8FEF7B0FC5B22424918A82DF0F4
:103BF00093F818A8FEF7A8FC8F223F4918A82DF0CB
:103C00008BF818A8FEF7A0FC3C493D4A0B880F89A9
:103C1000CD88888849880091039702950190DC211E
:103C200018A8384F2DF0DCFB18A8FEF78DFC0FCF3D
:103C300018AD0FC50FCF0FC597E8070003C525F8CE
:103C4000022B120C2A70304D18A8FEF77DFC0FCD08
:103C500018AF0FC70FCD0FC795E80F0087E80F000B
:103C600018A8FEF771FC51E000780300D85F00202F
:103C7000487803009C780300F807FF1FEC07FF1F3C
:103C800000790300E020FF1F4C7903007521FF1F1E
:103C90007421FF1F6C21FF1F7021FF1FE0790300BB
:103CA000D43B0020B87F0300006100202C7A030081
:103CB000EC7F0300C83B0020607A0300987A030081
:103CC000CC3B0020D87A0300147B03007C7B0300EC
:103CD000E87B0300747C0300187D0300687D03000B
:103CE000287E0300787E0300E07E0300387F030017
:103CF0001C80030050800300AC800300986000200B
:103D00003C810300AC810300D8810300DFF868E345
:103D1000BEE80F0018AD0FC5BEE80F000FC59EE846
:103D2000070003C518A82A80FEF70EFCDFF84CE355
:103D3000BEE80F000DF16008A8E80F00BEE80F0014
:103D4000A8E80F009EE80300B846386008F8041F92
:103D500018A8FEF7F9FBDFF828C3BCE80F000DF147
:103D6000600EAEE80F00BCE80F00AEE80F009CE864
:103D70000700AEE803002A7018A8FEF7E5FBA34A87
:103D8000A34B10681D782BF05FFDCDE90201A14B1C
:103D900018682BF059FD2B46CDE900019E4A9F4D36
:103DA000DC2118A82DF01CFB18A8FEF7CDFB30462F
:103DB00011F018FF96F818310093994A0346DC2158
:103DC00018A82DF00DFB18A8FEF7BEFB552295494B
:103DD00018A82CF0A1FF18A8FEF7B6FB0FCD18AE5F
:103DE0000FC60FCD0FC695E80F008F4D8F4E87E899
:103DF0000F0018A8FEF7A8FB0FCD0DF16009A9E888
:103E00000F000FCDA9E80F0095E80F00A9E8070003
:103E100018A8A9F80030FEF797FB0FCE18AD0FC514
:103E20000FCE0FC50FCE0FC596E8070003C5804E15
:103E30002A7018A8FEF788FB0FCE0DF1600EAEE8D1
:103E40000F000FCEAEE80F000FCEAEE80F0096E8E1
:103E5000030084E8030018A8FEF776FB754E764948
:103E60005C2218A82CF058FF18A8FEF76DFB0FCEA7
:103E700018AC0FC40FCE0FC496E80F0007C4A9F802
:103E8000003018A8FEF760FB6C4E6D494B2218A855
:103E90002CF042FF18A8FEF757FB0FCE18AC0FC44A
:103EA0000FCE0FC40FCE0FC496E8070003C42C46F4
:103EB000130C2A8018A804F8023FFEF745FB614B5B
:103EC000614A1B78DC2118A82DF08AFA18A8FEF7A1
:103ED0003BFB41225D4918A82CF01EFF18A8FEF7F5
:103EE00033FB5B4B5B4A1B78DC2118A82DF078FA7A
:103EF00018A8FEF729FBDFF88CE1BEE80F0018AE2A
:103F00000FC6BEE80F000FC6BEE80F000FC69EE842
:103F10000F0007C626F8023B18A81B0C3370FEF7EB
:103F200013FB4D494D4AB1F90E00B1F908C00B78A9
:103F3000B1F906E0B1F90A90B1F904600790069072
:103F4000887849780091CDF810C0CDF80CE0029641
:103F50000190DC21CDF8149018A8414E2DF040FAC4
:103F600018A8FEF7F1FA0FCE0DF1600EAEE80F00C3
:103F70000FCEAEE80F0096E80300386088F8001016
:103F800018A8FEF7E1FADFF800E1BEE80F0018AE6E
:103F90000FC6BEE80F000FC6BEE80F000FC69EE8B2
:103FA0000700130C03C62A8018A82370FEF7CCFA6A
:103FB00092222C492C4C18A82CF0AEFE18A8FEF723
:103FC000C3FA5C22294918A82CF0A6FE18A8FEF70F
:103FD000BBFA6522264918A82CF09EFE18A8FEF709
:103FE000B3FA4D22234918A82CF096FE18A8FEF724
:103FF000ABFA0FCC18AD0FC50FCC0FC523683B80B3
:1040000018A8FEF7A1FAFFF737BB00BF5C3300200A
:104010004C3300205833002088820300AC83030017
:10402000F882030054830300DC8303000C84030044
:1040300048840300DC840300808403005885030067
:104040000C8503002462002094850300D4850300BE
:104050007C390020188603009C5F002090860300B6
:104060006C870300D087030078890300648803000D
:10407000C0880300288903000882030034820300FB
:104080005C8203005086030094870300601C0A22B0
:1040900000212EF0FDFF43B21F2B00F24681DFE826
:1040A00003F0403A34302C2824201C16161616161D
:1040B00016101010101010101010101010101010FA
:1040C00010100F3840B2FEF7DBFEFFF7D5BA083804
:1040D00040B20BF0BBFAFFF7CFBAFEF74FFBFFF78A
:1040E000CBBAFEF79DFAFFF7C7BA07F0F9FBFFF767
:1040F000C3BAFEF7DFFBFFF7BFBA04F00BFFFFF711
:10410000BBBA03F06DFAFFF7B7BA01219B4803F081
:1041100003FBFFF7B1BA4FF0FF30FEF7B1FEFFF738
:10412000ABBAFFF719FAFFF7A7BA954C2060E06029
:10413000206119F073FB9348FEF706FA51462046BA
:1041400006F0F4FFFFF798BA8F4811F051FDFFF722
:1041500093BA211D8C4811F0B9FBFFF78DBA884C3A
:1041600018AB204601212360C4F80CA0C4F810A0AD
:1041700006F0DCFF52465146204606F0D7FEC4F852
:1041800000A0FFF779BA0522804920462DF056FCA1
:10419000F0B9012378727B73FFF76EBA7C4805F0A3
:1041A000BBFBFFF769BA08F021F8FFF765BA78485A
:1041B00005F070FBFFF760BAA11D734811F01AFEFD
:1041C000FFF75ABA01466E4807F064F8FFF754BA91
:1041D0000522704920462DF031FC002800F0A18016
:1041E00003226D4920462DF029FC002866D1E51CEC
:1041F000284666492DF014FE60B1604BB3F97C305F
:104200000BB900237B600121002001F01DF8634BF6
:1042100001221A70624928462DF002FE002800F0A3
:10422000898001F07DF8FFF727BA04340EAD2046EF
:1042300029460A222EF02CFF2B689C4207B202D09E
:104240001E1C18BF012618460A2229462EF020FF00
:104250002B689C4202B222D00BB306B3002F1EDDA6
:10426000002A1CDD3946484811F0BCFB00287FF4C9
:1042700003AA18A84B4B4C4A64212DF0B1F818A89A
:10428000FEF762F9FFF7F8B94848FEF75DF9FFF766
:10429000F3B93D4811F010FC3873FFF7EDB9009207
:1042A0003B4618A8424A64212DF09AF818A8FEF758
:1042B0004BF9FFF7E1B90121FFF75ABA04223D4952
:1042C00020462DF0BBFB002800F0888004223A49EC
:1042D00020462DF0B3FB00283DD00422374920466C
:1042E0002DF0ACFB002800F05B810422344920460D
:1042F0002DF0A4FB002800F0118103223149204653
:104300002DF09CFB002800F05E8105222E492046FE
:104310002DF094FB002840F0DE802C4B1870FFF746
:10432000ABB904F0E1FCFFF7A7B92948FEF70CF997
:10433000FFF7A2B9284627492DF072FD002800F0AA
:10434000AD80254B1B68002B00F0A38001237B72FE
:10435000BB72FFF791B9043418A920460A221894B9
:104360002EF096FE18A904460A2208682EF090FE48
:10437000C1B2E0B20CF04EFBFFF77EB9D85F00206F
:1043800008390020A089030000610020C0890300D3
:1043900000340020C8890300D0890300F807FF1FFC
:1043A000347603003C5F0020247703009C770300F1
:1043B00048770300488A0300508A0300588A0300A4
:1043C000608A0300848A0300888A03004A39002037
:1043D000C0770300907703007021FF1F04340EA9FB
:1043E00020460A220E942EF053FEBB4C031C18BF2D
:1043F00001230EA90E98E3730A2223742EF048FEBF
:10440000031C18BF01230EA90A220E9863742EF014
:104410003FFE031C18BF01230EA90A220E98A374A5
:104420002EF036FE031C18BF01230EA90A220E9897
:10443000E3742EF02DFE031C18BF01230EA90A22DF
:104440000E9823752EF024FE031C18BF01230EA91D
:104450000A220E9863752EF01BFE031C0EA918BFCE
:1044600001230A220E98A3752EF012FE0EA9031C3A
:1044700018BF01230A220868E3752EF009FE031C09
:1044800018BF01234FF47A70237602F015FBFFF773
:10449000F3B89248FEF758F8FFF7EEB8E578A5F1C3
:1044A0002B035D4204F104045D4126460134337858
:1044B000013B1F2BF9D90322894930462DF08EFA92
:1044C000002840F02B81844B5D704FF47A7002F02D
:1044D000F3FAFFF7D1B80322824920462DF0AEFA55
:1044E000002800F08580B9F13A0F77D004227E4988
:1044F00020462DF0A3FA002840F0B8802379202B25
:1045000066D03D2B64D0794B93F8B124002A3FF458
:10451000B3A80A2283F8F823FFF7AEB804340EA933
:1045200020460E942EF0F6FC0EA9044608682EF0E4
:10453000F1FC6F4B1C60586005462BF085F9CDE906
:10454000020120462BF080F96A4ACDE9000164217E
:1045500018A82CF045FF18A8FDF7F6FF24F000403E
:104560002BF072F95AA3D3E900232BF051FC80B948
:1045700025F000402BF068F955A3D3E900232BF078
:1045800047FC4FF0010300B9034683F001035FFAD3
:1045900083F8594B83F87E800CF0DCFAFFF76CB897
:1045A000043418A920460A2218942EF071FD18A987
:1045B00004460A2208682EF06BFD014620460CF0E6
:1045C0009FF9FFF759B8201D04F09AFBFFF754B884
:1045D000611D464805F0CCF9FFF74EB820462DF096
:1045E0008FF9231813F8012D1F2A2BD80138F9E76A
:1045F0000EA82CF0E1FC18AC3969404A0E9B0091E2
:10460000019264213E4A029420462CF0E9FE2046A5
:10461000FDF79AFF3B4B00933B4A3C4B64212046FD
:104620002CF0DEFE2046FDF78FFF0123009320468D
:10463000A423374A64212CF0D3FE2046FDF784FFE3
:10464000FFF71AB823180D210A22661C00252154F1
:104650005A709D7030462DF053F90146304617F0E0
:1046600039F9224B83F83954FFF706B80422294957
:1046700020462DF0E3F900286FD12379202B01D0BB
:104680003D2B54D1631D0EAD184629460A222B60DE
:104690002EF0FEFC2E683378202B074602D02C2B00
:1046A00040F016810136002300933246394601233B
:1046B0002E600E4806F07CFA00943B4618A8164A75
:1046C00064212CF08DFE18A8FDF73EFFFEF7D4BF45
:1046D0007B14AE47E17A843FE020FF1FD4890300BA
:1046E000E8890300908A0300188B0300003400203F
:1046F000D43B0020688A0300D85F0020881FFF1F7A
:10470000948A0300E7320020C08A03007821FF1F4B
:10471000E48A0300208B0300288B03000322AB49AB
:1047200030462DF05BF968B9A94B9D70CDE6234664
:1047300018A8A84A64212CF053FE18A8FDF704FF1E
:10474000FEF79ABF0422A44930462DF047F900280D
:1047500040F0CA809E4BDD70B7E605229F49204697
:104760002DF06CF9002800F0E08003229C492046DF
:104770002DF064F9002800F0918003229949204629
:104780002DF05CF9002879D00622974920462DF0BB
:1047900055F900283CD00322944920462DF04EF9CB
:1047A000C8B93D21201D2CF069FE189070B118A9E0
:1047B00001300A222EF06CFCE378632B00F0A48019
:1047C000752B00F09A80612B00F0E7808848FDF798
:1047D000BBFEFEF751BF0322864920462DF02EF97D
:1047E00088BB0422844920462DF028F920B32046B6
:1047F000042282492DF022F9C8B9814B1B786BB194
:104800008048FDF7A1FE8048FDF79EFEFEF734BF0D
:10481000A11D7E4811F0DAFEFEF72EBF0CF0EEFC73
:104820000028F0D07A48FDF78FFEFEF725BF042060
:10483000FEF726FBFEF720BF0CF0A8FC7548FDF73D
:1048400083FEFEF719BF0622734920462DF0F6F8C5
:10485000804600287DD1201D3D212CF00FFE002830
:1048600075D0414601300A222EF012FC003018BFEC
:104870000120002370703B70FEF7FEBE033420461B
:1048800018A90A2218942EF003FC189B9C4215D0FC
:1048900021465E4811F064FEFEF7EEBE033420466A
:1048A00018A90A2218942EF0F3FB189B9C420AD0F8
:1048B0002146564811F0B8FDFEF7DEBE534811F010
:1048C00093FDFEF7D9BE514811F054FDFEF7D4BE5A
:1048D0000346009418A8514A64212CF081FD18A8C1
:1048E000FDF732FEFEF7C8BE04224D4930462DF0DA
:1048F00075F880B9364B5D71E7E50030494B18BF5C
:1049000001201870FEF7B8BEB0FA80F03C4B4009A9
:104910001870FEF7B1BE0422434930462DF05EF810
:10492000002847D12A4B1D71CFE5053418A90A226A
:10493000204618942EF0ACFBC0B2003018BF012006
:1049400007F01EFC3948FDF7FFFDFEF795BE01207C
:104950008CE70322364920462DF070F8002800F03D
:1049600093800322334920462DF068F800286BD04D
:1049700020462CF0C5FF012803467EF67DAE2E4A68
:1049800001946421009518A82CF02AFD18A8FDF7C1
:10499000DBFD1AF087FAFEF76FBE0028274B14BF25
:1049A000012200221A703EF467AE254B00221A70D5
:1049B000FEF762BE0422234930462DF00FF800288E
:1049C00040F09080024B9D717FE500BFEC890300B1
:1049D000E020FF1F808B0300F08903009C8B030005
:1049E000B08B0300B48B0300B88B0300C08B0300B3
:1049F000C48B0300108A03001C8C0300748C03001A
:104A0000F03B00207C8C0300DC8C03009C5F0020CA
:104A1000C08C0300248C0300248D0300508B030002
:104A2000F8890300540AFF1F008A0300A48B0300C7
:104A30002C8D0300308D0300708D0300600AFF1F72
:104A4000003F0020088A03000334204618A90A22E8
:104A50000E9418942EF01CFB189C0E9B0A220546FF
:104A60000EA920461C1B18BF01242EF011FB0E9A24
:104A7000189B9A423FD0002C3DD004283BD84E4B87
:104A800023F81050FEF7F8BD0334204618A90A2277
:104A90000E9418942EF0FCFA189C0E9B0EA91D1B68
:104AA0004FF00A020746204618BF01252EF0F0FA03
:104AB0000E9B189C0A22064618A918469C420CBF59
:104AC000002405F001042EF0E3FA0E9A189B9A4296
:104AD00014D09CB1BFB1C1B2F2B23748FBF706FDAA
:104AE000FEF7CABD0322354930462CF077FF80B966
:104AF000334BDD71E9E43348FDF726FD2E48FBF723
:104B0000C1FDFEF7B9BDC1B22B48FBF713FDFEF79F
:104B1000B3BD04222C4930462CF060FF10B9284B5D
:104B20001D72D2E40222294930462CF057FF10B9F9
:104B3000234B5D72C9E40422254930462CF04EFF18
:104B400010B91F4B9D72C0E40422224930462CF05C
:104B500045FF10B91A4BDD72B7E404221E493046F6
:104B60002CF03CFF10B9164B1D73AEE403221B4919
:104B700030462CF033FF10B9114B5D73A5E40222CF
:104B8000174930462CF02AFF10B90D4B9D739CE459
:104B90000522144930462CF021FF10B9084B5D76F0
:104BA00093E43046052210492CF018FF00287FF4CA
:104BB0008CAC034B9D7688E498600020108A03003B
:104BC000E020FF1F348D0300148A03001C8A0300B9
:104BD000208A0300DC9E0300288A0300308A030039
:104BE000348A0300388A0300408A030030B51F2846
:104BF00091B005463C4C09D96369E218C62B107682
:104C000013DC0133E21800216361117694F90B3053
:104C1000354A012B14D00A2D22D00D2D20D06369E6
:104C2000314CC62B13DC11B030BD002363612376F9
:104C300094F90B300122012B84F8E0202A4AEAD1B2
:104C40001378002BE7D128461AF010FAE3E7234443
:104C5000002526481D76FDF777FC656111B030BD53
:104C600094F8E000204D68BB6B69002B22DD2B44DB
:104C7000052218761E4905F118002CF0DFFE30B130
:104C800006221C4905F118002CF0D8FE28BB1A4B4F
:104C900058682BF02BFA19492BF034FB2AF0D4FD7D
:104CA000174ACDE9000103A832212CF099FB03A893
:104CB000FDF74AFC94F90B30012B0AD00023636105
:104CC00011B030BD00230F4885F8E030FDF73CFC03
:104CD000F4E70D48FDF738FCF0E705F118004FF058
:104CE000FF31FEF7B3FCE5E7841FFF1FE48D0300EF
:104CF000B48D0300BC8D030088600020C0E1E44C4B
:104D0000C48D0300988D0300DC8D030030B51F288F
:104D100091B00546394C06D9B4F9E230E218622B5D
:104D200082F8E4000FDD94F90B30344A012B17D0E0
:104D30000A2DB4F9E23025D00D2D23D0622B2F4C53
:104D400015DC11B030BD01331BB2E218A4F8E2301B
:104D500094F90B300021012B82F8E410274AE7D1A7
:104D60001378002BE4D128461AF080F9E0E72344B9
:104D70000025234883F8E450FDF7E6FBA4F8E25051
:104D800011B030BD002B1D4D24DD2B44002083F8D5
:104D9000E40005221B4905F1E4002CF04FFE30B180
:104DA0000622194905F1E4002CF048FED8B9174B4A
:104DB00058682BF09BF916492BF0A4FA2AF044FD11
:104DC000144ACDE9000103A832212CF009FB03A805
:104DD000FDF7BAFB94F90B30012B0AD00023A4F89D
:104DE000E23011B030BD05F1E4000521FEF72EFCE4
:104DF000F0E70948FDF7A8FBF0E700BF841FFF1F9D
:104E0000E48D0300B48D0300BC8D03008860002096
:104E1000C0E1E44CC48D0300DC8D03002DE9F043B8
:104E20009FB019F0DDFF142817DC0028064640F07B
:104E30000681864E337803BB854B5B78EBB1854B9F
:104E4000D6F848111A68521AB2F57A6F15D91B684C
:104E5000C6F84831012333700FE01426002419F0FE
:104E600083FF051E04F10104A5F10A0304DB752B81
:104E700040F2C580B442F2DB744E7748734C05F0C3
:104E800089FA337B002B40F0B48016F093FD0A289A
:104E9000A8BF0A20002805466F4F6ADD0024B846E7
:104EA00052E0C1B26C4805F0DFFA002849D0337BEC
:104EB000002B43D1D8F8FC93B9F1000F33D0052271
:104EC000664948462CF0BAFD28B106226449484696
:104ED0002CF0B4FD38BB97F900345E4A6149126882
:104EE000486803F5827347F823202BF0FFF85E49EA
:104EF0002BF008FA2AF0A8FC5C4ACDE90001462113
:104F000005A82CF06DFA05A82CF0FAFC4FF0000E65
:104F100097F90014CDF800E0034605AA4E4805F0C5
:104F200047FED7F8FC9399F80030202B06D92B2B9D
:104F300076D097F900144846FEF788FB464805F0FE
:104F40002FFE0134A54214D016F040FD002810DBDE
:104F5000431E7E2BF5D897F8B034002BA1D03378C0
:104F6000C1B2002B9ED1084603911AF07FF8039935
:104F700098E7DFF8D8800A2505E0C4B22046FFF79D
:104F8000C5FE013D14D012F0B7FB002800F1FF333D
:104F90000EDB7E2BF5D896F84C31002BEDD098F82F
:104FA0000030C4B2002BE9D120461AF05FF8E5E7E3
:104FB00097F83A34284C013B012B02D91FB0BDE8C9
:104FC000F083244AD4F8F41313685B1AB3F57A7F9C
:104FD000F4D91368264A0094642105A82CF000FA3D
:104FE00005A8FDF7B1FA042384F83A341FB0BDE8F0
:104FF000F08301211F4810F05FFD207345E7134E39
:1050000033781BB10A2D1DD00D2D1BD0114B1B6801
:10501000C6F84831E8B200233370FFF7E7FD2CE70C
:1050200097F900340093144A4B46462105A82CF00A
:10503000D7F905A8FDF788FAD7F8FC9379E73FF789
:105040000DAF19E70D48FDF77FFADFE7841FFF1F5B
:10505000E407FF1F745F002000340020B48D0300BC
:10506000BC8D030088600020C0E1E44CC48D0300C7
:10507000388E030000610020148E0300008E0300B0
:105080002DE9F04F83B00C4683462CF039FC214BC0
:105090001B788246EBB994B31F4F0028D7F80080E5
:1050A00017DD5E46054640F2DC5919F0EBFF041EA1
:1050B000304609DDAC42A8BF2C462D1B214619F015
:1050C0000DFF002D264404DD3B68C8EB03034B4570
:1050D000EBD9124B93F90010052915D0CBB2042B54
:1050E00003D9012003B0BDE8F08F002000905346A3
:1050F0005A460B4805F05CFD03B0BDE8F08F014651
:10510000584619F0EBFEE4E75846514612F076FA9D
:105110000120E7E7841FFF1F745F0020E407FF1FE3
:105120000034002038B50378232B03D0BDE8384085
:10513000FFF7A6BF044CFF2394F900502370FFF73C
:105140009FFF257038BD00BFE407FF1F2DE9F04F1A
:10515000384D394E394F9DB000241AE003A82CF089
:10516000CFFB3A7880461AB9014603A819F0B6FE7B
:1051700096F90010052952D0CBB2042B06D8002294
:105180000092434603AA2E4805F012FD01347F2CFD
:1051900042D0E1B227481EF055FA002125481DF003
:1051A00099FC4FF47A736A7B2969009321480123A3
:1051B0001EF06CFB234601900094224A642103A850
:1051C0002CF00EF99DF80C30232BC7D1FF2303A838
:1051D00096F9009033702CF093FB97F80080DFF87D
:1051E00058B08246B8F1000F11D1014603A819F05A
:1051F00075FE9BF90010052916D0CBB2042B06D8FA
:10520000CDF80080534603AA0D4805F0D1FC0134C7
:105210007F2C86F80090BCD11DB0BDE8F08F4146D0
:1052200003A812F0EBF9B1E7514603A812F0E6F932
:10523000EDE700BFE8660020E407FF1F841FFF1FA3
:1052400000340020688E030000282DE9F0410C4650
:1052500003DD2D4B186003F027FC2C4F94B901247B
:10526000FE212B4887F89540284D21F0ADFC08B968
:10527000BDE8F08185F8964000212648BDE8F04160
:10528000FFF750BF3A46DFF880C0DFF890E0012119
:10529000002302F801194FF47A71CCF808109846EF
:1052A000CCF804301D4607F11C0007F1550107F149
:1052B0001A0612F8014F84B10B780580493BDBB226
:1052C000222B98BF1EF9038011F8013C88BF4FF0D4
:1052D000010808FB03531D46A046B24200F102003C
:1052E00001F10201E5D1B8F1000F0AD100220A4B09
:1052F000C7F8902093FBF5F587F89420C7F88C50F9
:10530000ADE7CCF80430F1E7EC07FF1FE020FF1F0A
:1053100024670020D88E0300701101008C8E0300DA
:10532000024B002283F89520704700BFE020FF1F4A
:105330002DE9F04F054D2B7B95B01BB1044C94F833
:1053400094303BB115B0BDE8F08F00BFEC07FF1FF4
:10535000E020FF1FD4F89030D4F88C20934280F2E4
:10536000D381686804F1980600FB03F7F119B1F1E5
:10537000005F0AD20144B1F1005F06D901339A42BD
:10538000C4F8903040F3C0810744A28BBA48BB49AF
:1053900094F801E000683A440133C4F890300023E7
:1053A000B05084F8943001F19802BEF1000F40F043
:1053B0006E82A378B14A002B40F04382E378AF4A73
:1053C000002B40F035822379AC4A002B40F0288234
:1053D00063790BB3AA4B93F90000002800F0978281
:1053E000DFF8D892A749D9F800002AF0D7FE2BF0B1
:1053F000B1F8A4490FFA80F8D9F804002AF0CEFEDB
:105400002BF0A8F800B214AAE38C22F82C8DADF88A
:1054100026003B441068F050E379984A002B40F096
:105420002E82A379954A002B40F01C82237A934A5E
:10543000002B40F00F82637A904A002B40F0C68127
:10544000A37A8E4A002B40F0AE81E37A002B00F065
:10545000CE808D4A8D4B5088B3F802E0B3F80080BF
:10546000B2F800C09188CEEB000E9888ADF826E027
:10547000C8EB0C0C081AADF824C0D188B3F806C0EC
:10548000B3F808E0ADF82800CCEB0101B2F808C091
:105490005889ADF82A10CEEB0C0EB2F80AC09989E3
:1054A000DB89ADF82CE0C0EB0C00B2F80CC0D2895F
:1054B000DFF80CE2ADF82E00D31AC1EB0C017448F2
:1054C000DFF800C2734ADCF80080ADF83230DEF855
:1054D00000C0714BD0F800E01068704AADF8301091
:1054E000CDF83480CDF838C0CDF83CE0109012688B
:1054F0001B78119200228DF84820002B00F0EB81E0
:105500003D20019023200790332006901320059022
:105510002F2004903F20012303900F208DF8483066
:105520003122212311214FF02D0E4FF01D094FF094
:105530000D0C4FF01F0A02904FF0030BDFF888812B
:1055400098F80080B8F1000F0AD005A90EC9039899
:10555000DDF810E0DDF808C08DF848B00190D146C4
:10556000DFF8688198F80080B8F1000F04D0019A44
:105570008DF848C0734649464948007810B18DF807
:1055800048101346474A12780AB18DF84830464809
:105590004649474A474BB4F832E000780978126828
:1055A0001B688DF84A00BE448DF84B108DF84C20D6
:1055B0008DF84D30B6440DF124080DF14409C44670
:1055C000BCE80F00CC45CEF80000CEF80410CEF8B1
:1055D0000820CEF80C30E0460EF1100EEFD1B8E8FE
:1055E0000700CEF80000CEF80410CEF80820237B88
:1055F000224A002B40F09180637B204A002B40F030
:105600000981A37B1D4A002B40F0FA80E37B002B2D
:1056100040F0F080237C002B40F0E680637C002B80
:1056200040F0AD80A37C002B40F0A380E37C002BF6
:1056300040F09980237D002B40F08F80637D002B0C
:1056400040F08580A37D002B7BD1E37D002B72D1C0
:10565000237E002B69D1637E084A002B40F09580A1
:10566000A37E064C002B3FF46DAE134FD7F880306D
:105670000993D7E922012BE0881FFF1FE020FF1FBD
:10568000CC3B002000007A44100AFF1F200AFF1FB5
:105690001C3A0020003A0020D809FF1F203A0020C1
:1056A000A9390020A8390020A5390020A4390020FC
:1056B000443A0020403A0020D85F0020D43B00202C
:1056C000AC390020B0390020B4390020043A002061
:1056D0002AF006FC0A90D7E924012AF001FCD7F849
:1056E0009830D5F804E0D4F890700B900C9309AD85
:1056F0000FCDB4F850407D1E0EFB054435193051D6
:105700006960AA60EB601DE60122002384F8942002
:1057100084F8953015B0BDE8F08F938E7D4A3B44F8
:1057200003CAF218F050516066E77B4B1821586AA3
:10573000FCF7DAFE8FE7784B1721186AFCF7D4FEE6
:1057400086E7754B1621D869FCF7CEFE7DE7724BD4
:105750001521D868FCF7C8FE74E76F4B142118694F
:10576000FCF7C2FE6AE76C4B13219869FCF7BCFE9C
:1057700060E7694B12215869FCF7B6FE56E7664BA5
:1057800011219868FCF7B0FE4CE7D2F890306868B9
:10579000B2F84E206149013B00FB03203044502207
:1057A0002BF0BAFA5CE7DFF8A4E1B2F830C0BEE84B
:1057B0000F000CEB070E06EB0E0C46F80E00CCF8B3
:1057C0000410CCF80820CCF80C303EE6544855497B
:1057D000D38D096802680A92099109AA03CA3B4459
:1057E000F218F05051602BE64B4B10215868FCF733
:1057F0007BFE13E7484B0F211868FCF775FE09E79D
:10580000494BB2F838E007CB7744F319F0515960AF
:105810009A60FBE6D38E454A3B441288F252F0E68A
:10582000938C434A3B4403CAF218F0505160CFE5D1
:10583000538C404A3B44F11810689288F0508A809B
:10584000C1E5138C3C4A3B44F11810689288F05033
:105850008A80B3E5938D394A3B4403CAF218F0506D
:105860005160E8E53649138D91E805000A920990E8
:1058700009AA03CA3B44F218F0505160D6E5538D93
:10588000304A3B4403CAF218F0505160C9E5DFF8D2
:10589000C090DFF8C080DFF880C02B48B1F81EE070
:1058A00099F80010BCF87CC000788DF82610D8F864
:1058B0002011ADF824C08DF827000A910DF1240CB9
:1058C000BE44BCE80300C8F8203102EB0E0342F8E6
:1058D0000E0059606DE53C20019022200790322097
:1058E0000690122005902E2004903E2003900E205A
:1058F0002023302210214FF02C0E4FF01C094FF0C6
:105900000C0C4FF01E0A02904FF0020B16E6804678
:1059100079E500BF84390020D85F0020E8320020FC
:1059200094600020F033002088600020D25F0020C7
:1059300044600020443900203C390020E833002036
:10594000D420FF1FE03B00206C330020B033002048
:1059500061330020006100202DE9F041002984B06E
:1059600014461D4600680BDB29F06EFF124ACDE994
:105970000001294620462BF033FD04B0BDE8F0813C
:105980000E4B0F4AD3F8D872B2F900600D4A791C59
:10599000C3F8D81252F8268029F056FF0197CDE9B6
:1059A00002014346009629462046074A2BF018FD7F
:1059B00004B0BDE8F08100BF188F03006030002004
:1059C0002C6200203C08FF1FF08E0300F0B5002978
:1059D00089B0044611DBB0F9006090F9035090F9EA
:1059E000024041680291104619468DE83000334666
:1059F000164A2BF0F5FC09B0F0BD154E1549D6F846
:105A0000D852896FD0F804C0039105F1030EAF1C82
:105A1000CDF808E0019719466B1C94F903E0009358
:105A200094F902701046B4F9002004922B46CDF888
:105A30001CC0CDF818E00597074A2BF0D1FCD6F82A
:105A4000D8320433C6F8D83209B0F0BD888F0300CD
:105A500060300020D85F0020208F03002DE9F04344
:105A6000002904461F4689B01646324BB0F904009F
:105A700027DB1D682AF03EFB29462AF08FFB29F020
:105A8000E3FECDE90401B4F902002AF033FB294614
:105A90002AF084FB29F0D8FECDE90201B4F9000018
:105AA0002AF028FB29462AF079FB29F0CDFE224A6C
:105AB000CDE90001394630462BF092FC09B0BDE833
:105AC000F083D3F800901D4D2AF014FB49462AF0CC
:105AD00065FB29F0B9FECDE90601B4F90200D5F85D
