:10000000F8FF022099010000A1D5010059D5010097
:1000100059D5010059D5010059D5010059D5010024
:1000200059D5010059D5010059D50100A1D50100CC
:10003000A1D5010059D50100DD2702004D2D020098
:10004000A1D50100A1D50100A1D50100A1D50100D4
:10005000A1D50100A1D50100A1D50100A1D50100C4
:10006000A1D50100A1D50100A1D50100A1D50100B4
:10007000A1D50100A1D50100A1D50100A1D50100A4
:10008000A1D50100A1D50100A1D50100A1D5010094
:10009000A1D50100A1D50100A1D50100A1D5010084
:1000A000AD490200B9490200A1D50100A1D5010066
:1000B000A1D50100A1D50100A1D50100C5BE010057
:1000C000A1D501006DEA0100A1D50100C97B0100A5
:1000D000A1D50100A5DB0100A1D501002971010016
:1000E000A1D50100A1D50100A1D50100A1D5010034
:1000F000A1D50100A1D50100A1D50100A1D5010024
:10010000BD2E0200D12E0200E52E0200F92E0200C3
:10011000A1D50100A97E0100A1D50100A1D5010052
:10012000A1D50100A1D50100A1D50100A1D50100F3
:10013000A1D50100A1D50100A1D50100A1D50100E3
:10014000910A0200A1D50100A9D40100A1D50100A6
:100150006DB60100A1D50100A1D50100A1D5010016
:10016000A1D5010059720100C5490200A1D50100C5
:10017000A1D50100A1D50100A1D50100A1D50100A3
:10018000A1D50100A1D50100A1D50100A1D5010093
:10019000A1D50100A1D50100584B4CF2205210B559
:1001A0001A804DF628121A8000BF00BF1DF0FCF91E
:1001B000534B4FF030621A60524A9A60524ADA60EA
:1001C000524B4FF470021A60514A136813F4807353
:1001D00004D150490B604FF4A85313604E4B1A786A
:1001E000110703D51A7842F008021A704B4B4C499C
:1001F0002A221A704B4A4C4B8B4204D252F8040FFD
:1002000043F8040BF8E7494B494900228B4202D2DC
:1002100043F8042BFAE74749474A002352F82300E2
:1002200041F823000133662BF8D1444B444A802126
:1002300003F8011B9342FBD1424B3E4A1A60424BEA
:100240008A221A70A3F5805324225A70A0221A70B1
:100250009A799207FCD59A79D406FCD43B4A9379D3
:1002600003F00C03082B394BF9D103221A714622F3
:100270005A719A799006FCD5344A9179334B4906E4
:10028000FBD5334A4FF08271116009215160202261
:100290001A709A7902F00C020C2AFAD12D4B2E4AD0
:1002A0001A602E4B2E4A1A6000225A60072243F829
:1002B000042C2C4AC3F80C2D62B618F0C3FC154B65
:1002C0001B68DA0705D5284818F076FC274B284A22
:1002D0001A60284B1B785B0609D5244C244B2268F6
:1002E0009A4204D1204818F067FC0023236030F0C4
:1002F000B9FB1DF05FF917F047F8FEE70E20054047
:1003000030800440823F04000100002B88ED00E0B3
:1003100010D0034014D0034002D0074000E0074053
:10032000701FFF1FF8E90300F806FF1F701FFF1F73
:10033000DC6900200002FF1F0000000000E400E074
:1003400056E400E008ED00E00050064000400640A2
:100350004480044004800440C010050014E000E024
:10036000BFD401000000202000DD68501CE00340E5
:10037000A5C3945A00F00740FFFFFFFFFFFFFFFFF8
:10038000FFFFFFFFFFFFFFFFFFFFFFFFFFFFFFFF7D
:10039000FFFFFFFFFFFFFFFFFFFFFFFFFFFFFFFF6D
:1003A000FFFFFFFFFFFFFFFFFFFFFFFFFFFFFFFF5D
:1003B000FFFFFFFFFFFFFFFFFFFFFFFFFFFFFFFF4D
:1003C000FFFFFFFFFFFFFFFFFFFFFFFFFFFFFFFF3D
:1003D000FFFFFFFFFFFFFFFFFFFFFFFFFFFFFFFF2D
:1003E000FFFFFFFFFFFFFFFFFFFFFFFFFFFFFFFF1D
:1003F000FFFFFFFFFFFFFFFFFFFFFFFFFFFFFFFF0D
:10040000FFFFFFFFFFFFFFFFFFFFFFFFDEF9FFFF23
:1004100010B5054C237833B9044B13B10448AFF33E
:1004200000800123237010BD701FFF1F000000001B
:10043000F4E90300084B10B51BB108490848AFF3B5
:1004400000800848036803B910BD074B002BFBD0A0
:10045000BDE81040184700BF00000000741FFF1FD8
:10046000F4E90300701FFF1F00000000F0B4164EF7
:10047000164A174F06624262164E174A8762C662D4
:10048000164F174E0263174A4763866305271926DE
:10049000C2637D220780468040F2712740F63546D0
:1004A00082800022C7800681026442648264C26442
:1004B0000265C260026142618261C261426580F888
:1004C0005820F0BC704700BFF12A0000052C000046
:1004D00061C2000081F70000FD2C0000092E000021
:1004E000152F0000E92F0000704700BF07291FD813
:1004F000042A1DD8F0B54FF0010E8469C76806695B
:1005000045690EFA01F1CB4304EA030CC469C0F853
:1005100018C000EB82021F401E401D402340C760F0
:1005200006614561C361D3681943D1607046F0BD6F
:1005300000207047072913D8F0B40123C768066963
:100540004469C56982698B40D9430F400E400C4015
:100550000A40C760294006614461F0BC8261C16104
:10056000704700BF2DE9F843444B93F90030002B4E
:1005700006466DDB1BF02CFC1428D4BF00200120A4
:10058000002861D006F10800012150F8043FDFF88F
:10059000F0C0002B354606F1540E01F1FF374FDD58
:1005A000DCF80020446BB5F80090DFF8D480121B13
:1005B0004A4538D99EF80040013404F0070443FA54
:1005C00004F2D2074BD4013404F0070443FA04F2D6
:1005D000D20744D4013404F0070443FA04F2D207EA
:1005E0003DD4013404F0070443FA04F2D20736D4B0
:1005F000013404F0070443FA04F2D2072FD4013483
:1006000004F0070443FA04F2D20728D4013404F0BA
:10061000070443FA04F2D20721D4013404F007049A
:100620002341DB071BD4052910D050F8043F0131CA
:10063000002B05F102050EF1010E01F1FF37AFDCD1
:100640000529F2D1BDE8F883BDE8F883BDE8F88359
:100650001EF034FF3C28D4BF0020012090E704F1B5
:10066000080356F823309847F2191037D8F80030AD
:1006700082F8544046F82730BDE8F883E407FF1FAE
:100680006C5F00202DE9F041861EA4B000F1080542
:10069000002455F8043F36F8022F0092C3F3801C63
:1006A000C3F3401EC3F3C000C3F38001C3F3400291
:1006B000C3F3C018C3F3001703F00103CDF81CC047
:1006C000CDF818E00490039102920193094ACDF805
:1006D00020802346642105970BA831F09DF8013452
:1006E00000210BA804F064FE052CD2D124B0BDE893
:1006F000F08100BF3477030010B5044600F0F4FD2C
:100700000023C4F87431204610BD00BF70B400F55A
:10071000B876002501248662456280F82C40C161CC
:100720000262C0F8743170BC704700BF2DE970439D
:10073000044601F067F9D4F874519DB3224BD4F804
:1007400070611B7883B326F000402FF099FA1F4B9D
:100750008046186820F0004089462FF091FA16A3D1
:10076000D3E900232FF0E0FA15A3D3E900232FF0FB
:1007700029F902460B46404649462FF047FD98B9F5
:100780000021304630F0E2F830B1314630462FF0EB
:1007900019FE2860BDE8708306F1004108462FF07D
:1007A00011FE6860BDE870832E60D4F8703103F1EB
:1007B00000436B60BDE87083333333333333D33F4F
:1007C0009A9999999999B93F5C3300207833002020
:1007D00010B5044600F088FD4FF07C53C4F880311A
:1007E0000023C4F87431C4F87831204610BD00BF2E
:1007F000F0B4C16100F5B8770026012500F5BE749C
:1008000004998762466280F82C500462C0F8743103
:10081000C0F87821C0F88011F0BC70472DE9704312
:10082000D0F878615C4975680446284630F070F865
:10083000002840D0594B1B78002B60D0584BD8680B
:1008400020F000402FF01CFA4BA3D3E900232FF037
:10085000DDFC002840F08D803668E36930461D6875
:100860002FF00EFA8046284689462FF009FA44A355
:10087000D3E900232FF0A6F802460B46404649462E
:100880002FF0C4FC002837D1C4F87C510021204649
:1008900001F0B8F8D4F8745165B3404BD4F87061E6
:1008A0001B78002B33D12E60D4F8703103F1004354
:1008B0006B60BDE870834FF07A51284630F028F81D
:1008C0000028C9D0354B1B78002BC5D1E6694FF005
:1008D0007A5128462FF074FD014630682FF072FDE2
:1008E0000021C4F87C01204601F08CF8D4F8745142
:1008F000002DD2D1BDE87083C4F87C61C6E74FF00B
:100900007A51284630F004F80028DFD1A4E726F019
:1009100000402FF0B5F9234B8046186820F00040C6
:1009200089462FF0ADF918A3D3E900232FF0FCF985
:1009300017A3D3E900232FF045F802460B464046A3
:1009400049462FF063FC0028ADD1002130462FF03E
:10095000FDFF30B1314630462FF034FD2860BDE850
:10096000708306F1004108462FF02CFD6860BDE859
:100970007083E6690849ACE7333333333333C33F1D
:10098000EC51B81E85EBB13F333333333333D33FB0
:100990009A9999999999B93F3333B33E5C330020C2
:1009A000B83300207833002010B5044600F09CFCDA
:1009B0000023C4F87431C4F87C31C4F88031204677
:1009C00010BD00BFF0B4059CC16100F5B87700F51B
:1009D000BC7600250499C0F87C21069A87620662DD
:1009E0004562C0F87441C0F88031C0F88411C0F885
:1009F0008821F0BC704700BF2DE9F843D0F884315E
:100A00001B78044623B13A4B93F90030002B44D0B5
:100A10000021204600F0F6FFD4F87451002775B38A
:100A2000344BD4F870611B7883B326F000402FF06C
:100A300027F9314B8046186820F0004089462FF096
:100A40001FF927A3D3E900232FF06EF926A3D3E9DA
:100A500000232EF0B7FF02460B46404649462FF0D2
:100A6000D5FB98B9002130462FF070FF40B33146D6
:100A700030462FF0A7FC28600FB1BDE8F883A26ACA
:100A800000232B606B601360BDE8F8832E60D4F800
:100A9000703103F100436B60EEE7D0F888311B78CA
:100AA000ABB9D0F880311B68C0F8783100212046FE
:100AB00000F0A8FFD4F87451002DDED00127AFE775
:100AC00006F1004108462FF07DFC6860D4E7D0F8BD
:100AD0007C311B68C0F87831E8E700BFAFF30080D5
:100AE000333333333333D33F9A9999999999B93F33
:100AF0009D3900205C3300207833002010B5044677
:100B000000F0F2FB0023C4F87431C4F878312046B9
:100B100010BD00BF70B4161D00F5B8750024C0F8F4
:100B2000786105624462C161C0F87421836270BC5F
:100B3000704700BFD0F87421D0F8783170B51568CF
:100B40001E680446314628462FF000FF00B935469E
:100B5000C4F8705120460021BDE8704000F052BF3B
:100B600010B5044600F0C0FB204610BDF0B4049C54
:100B7000C0F8784100F5BE77002600F5C075076221
:100B800046628562C161C0F87021C0F87431F0BC62
:100B9000704700BFD0F87431D0F87021196870B573
:100BA000044610682FF00CFC0021C4F87C0120469C
:100BB00000F028FFA26A0C4B16681D6830462946D3
:100BC0002FF0C4FE50B905F10045294630462FF0FC
:100BD0009FFE18B9D4F878311E6070BDD4F8782122
:100BE00001231560637070BD7833002010B5044692
:100BF00000F07AFB00220023C4F87021C4F874319D
:100C0000204610BD70B582B000261546009600F54E
:100C1000BA72044600F0EEFEC4F8705102B070BD26
:100C200070B5144B93F90030032B0446D0F87031A3
:100C300008D05B68C0F8743100212046BDE87040E0
:100C400000F0E0BE1E685D68304629462FF060FE69
:100C500038B1C4F8746120460021BDE8704000F04E
:100C6000D1BEC4F8745120460021BDE8704000F0A8
:100C7000C9BE00BF7C3300200449C1604FF07E52E2
:100C80000021017082604260704700BF6F12833A9A
:100C90002DE9F041416004460F468260002118466C
:100CA00090461E462FF03EFE78B90346002523707D
:100CB000304629462FF036FE50B94FF07E5325615D
:100CC0006561A361E361BDE8F0814FF00103EDE7E9
:100CD000414640462FF076FBE668314680462FF0CD
:100CE00071FB41460546A06130462FF069FB29465D
:100CF0002FF024FD3946E06138462FF063FB0146B2
:100D0000074630462FF05EFB29462FF017FD394687
:100D1000206130462FF054FB29462FF00FFD606113
:100D2000BDE8F081F8B503783BB94FF07E5200235F
:100D30008261C26103614361F8BD8168044608466F
:100D40002FF040FBE668314607462FF03BFB394663
:100D50000546A06130462FF033FB29462FF0EEFC0C
:100D60006168E06108462FF02DFB014607463046DA
:100D70002FF028FB29462FF0E1FC39462061304650
:100D80002FF01EFB29462FF0D9FC6061F8BD00BF93
:100D90000023036243628362C3627047037870B5C5
:100DA000044613B90020A06270BDC069E16A256ADB
:100DB00000F100402FF00EFC2169064628462FF076
:100DC00009FC014630462FF0FDFA616A064660696B
:100DD0002FF000FC014630462FF0F4FA6562E06225
:100DE000A06270BD2DE9F0430E4683B0044601A910
:100DF0003046002232F06CFB019D031C18BF01231A
:100E0000AE4223700ED303BB4FF07E520023A2618B
:100E1000E26123616361AE4234BF2846002003B023
:100E2000BDE8F083284601A932F094FA2F46019DCF
:100E30006060AF422E4632D2284601A932F08AFACB
:100E40002378019DA060002BDED0A16808462FF01A
:100E5000B9FAD4F80C80414681462FF0B3FA4946DE
:100E60000746A06140462FF0ABFA39462FF066FCEA
:100E70006168E06108462FF0A5FA014681464046C8
:100E80002FF0A0FA39462FF059FC49462061404620
:100E90002FF096FA39462FF051FC6061BBE73E46D1
:100EA0002378B0E7F0B5044685B080682778164609
:100EB0000D462EF0E5FECDE9020160682EF0E0FE61
:100EC0003B46CDE90001054A3146284630F0A4FCF6
:100ED000284605B0BDE8F04030F032BF5C77030033
:100EE000037803B9704710B50446416804480AF016
:100EF00057F9A1680248BDE810400AF051B900BF97
:100F000010390020F8B5037804467BB1234BB3F9C0
:100F10000030002B12DD22480AF09AF96060204868
:100F20000AF096F92378A060002B34D14FF07E525E
:100F30000023A261E26123616361F8BD184A816800
:100F4000D3680833D36008462FF03CFAE668314690
:100F500007462FF037FA39460546A06130462FF094
:100F60002FFA29462FF0EAFB6168E06108462FF06E
:100F700029FA0146074630462FF024FA29462FF079
:100F8000DDFB3946206130462FF01AFA29462FF052
:100F9000D5FB6061F8BD0146D5E700BF26620020A1
:100FA0001039002030B4074A074C82604FF07E555C
:100FB000002201214560C46041700270027430BC9F
:100FC000704700BF6F12833A0024744938B5047823
:100FD000C26041603CB94FF07E520023C2610262A0
:100FE0004361836138BD0446084615462FF0EAF98F
:100FF0000A4B23620146E061A0682FF09FFB08497D
:101000006061A06128462FF083FC4FF0010308B116
:10101000237438BD0346237438BD00BF000080BF71
:101020000000C6422DE9F04383B002AF0E4647F8F8
:10103000041D044639463046002232F049FA019D2B
:10104000003018BF0120AE42207010D32378002B4F
:1010500032D14FF07E520023E26122626361A361CC
:10106000AE4234BF2846002003B0BDE8F0832846D6
:10107000394632F06FF9A846019D6060A845A9463F
:1010800041D22846394632F065F92049E0600546EC
:101090002FF03EFC48BB019D2E46A94531D2284683
:1010A0003946002232F014FA2378019D003018BF2F
:1010B00001206070002BCCD0616808462FF082F9C7
:1010C000134B23620146E061A0682FF037FB114902
:1010D0006061A061E0682FF01BFC4FF0010308B1D4
:1010E0002374BDE703462374BAE7284600212FF096
:1010F00023FC019D18B101232E462374CDE72E4613
:10110000CBE74E46A2E74646A0E700BF002474495D
:10111000000080BF0000C64270B5037C86B0044664
:101120000D461646CBB1C0682EF0AAFD02460B460E
:10113000617860680491CDE902232EF0A1FD237847
:101140000B4ACDE900013146284630F065FB2846C0
:1011500006B0BDE8704030F0F3BD03A3D3E900232F
:10116000E6E700BFAFF300800000000080842E415E
:101170006877030003783BB94FF07E520023C261C9
:101180000262436183617047416810B504460846B6
:101190002FF018F90A4B23620146E061A0682FF096
:1011A000CDFA08496061A061E0682FF0B1FB4FF013
:1011B000010308B1237410BD0346237410BD00BFA2
:1011C000000080BF0000C642002343628362C36206
:1011D00003637047F8B503783BB30446006A216B9C
:1011E000676A00F100402FF0F5F96169054638465D
:1011F0002FF0F0F9014628462FF0E4F8A16A0546E1
:10120000A0692FF0E7F9014628462FF0DBF8237C90
:10121000E062054633B1E66831462FF097FB38B1FE
:10122000E66235462563A762F8BD0023C362F8BDB8
:1012300006F10046314628462FF06AFB0028EFD120
:10124000F0E700BF037803B9704710B50446416862
:10125000044809F0A5FFE1680248BDE8104009F024
:101260009FBF00BF10390020037810B5044673B14A
:10127000194BB3F90030002B11DD184809F0E8FFD5
:101280006060164809F0E4FF2378E0605BB94FF036
:101290007E520023E26122626361A36110BD0F4AA6
:1012A000D3680833D360616808462FF08BF80C4B85
:1012B00023620146E061A0682FF040FA09496061AD
:1012C000A061E0682FF024FB4FF0010308B1237404
:1012D00010BD0346237410BD266200201039002083
:1012E000000080BF0000C642F8B5044600254FF05C
:1012F0007E56254B254F4FF0010E00220261E3631D
:10130000A366C4F8A030C4F8CC30C4F80431C4F8E3
:10131000343184F861E0062284F8305084F860505B
:1013200084F8705084F8945084F8C45084F8D450F1
:1013300084F8F85084F8285125702575A6636663F3
:101340006666C4F89C60C4F89860C4F8C860C4F8C5
:101350000061C4F8FC60C4F83061C4F82C61A66078
:10136000E766C4F8D070023084F8C5E0A76130F0B9
:10137000D5FD26612573E56125626562A56284F865
:101380002C502046F8BD00BF6F12833A00247449E8
:101390000023036543658365C365C0F88430C0F8E6
:1013A0008830C0F88C30C0F89030C0F8B430C0F845
:1013B000B830C0F8BC30C0F8C030C0F8E830C0F871
:1013C000EC30C0F8F030C0F8F430C0F81831C0F894
:1013D0001C31C0F82031C0F82431C0F84831C0F8C1
:1013E0004C31C0F85031C0F8543170472DE9F04706
:1013F000861C82B0044630460F4630F0A1FC3146D0
:1014000002460546384630F039FDB0F100080CBF01
:101410000126002603D0304602B0BDE8F0873D44E7
:10142000284669460A2232F053F8009F003018BF60
:101430000120BD422070EED26946384631F08AFF65
:101440000099A0608F42E6D204F1C400FFF7EAFDE4
:1014500005460028DFD0424601A932F039F8019F45
:10146000031C18BF0123BD4284F8F830B846C0F011
:101470009D80002B40F0F4804FF07E520023C4F892
:101480001021C4F81421C4F80831C4F80C31AF425B
:10149000C1D9002FBFD0002201A9384632F018F878
:1014A000019D031C18BF0123AF4284F82831A846D0
:1014B00067D3002B40F004814FF07E520023C4F824
:1014C0004021C4F84421C4F83831C4F83C31BD424D
:1014D000A1D9002D9FD0002201A9284631F0F8FFA4
:1014E000019F031C18BF0123BD4284F83030B84669
:1014F00034D3002B40F014814FF07E520023A264BD
:10150000E26423646364AF4285D9002F83D03946F7
:1015100004F16000FFF786FD054600283FF47BAF2D
:101520000022694631F0D4FF009F003018BF01202F
:10153000BD4220734FD300226946284631F0C8FFD0
:10154000009B003018BF0120AB4220757FF663AFCF
:101550006946184631F0FEFEA0615CE7384601A9F5
:1015600031F0F8FE019F6063B8453D4680F034815C
:10157000384601A931F0EEFE94F83030019FA063A7
:10158000B7E7284601A931F0E5FE019DC4F82C011A
:10159000A8452F4680F02881284601A931F0DAFEBF
:1015A00094F82831019DC4F8300182E7384601A93A
:1015B00031F0D0FE019FC4F8FC00B8453D4680F0F4
:1015C0000F81384601A931F0C5FE94F8F830019F2B
:1015D000C4F800014DE76946384631F0BBFE206192
:1015E000002F3FF418AFDDF80080474580F0F2800F
:1015F000002201A9404631F06BFF019D031C18BF7A
:101600000123454584F894302F4614D8002B40F030
:10161000B1804FF07E520023C4F8AC20C4F8B02053
:10162000C4F8A430C4F8A83045457FF6F4AE002DC8
:101630003FF4F1AE7FE7284601A931F08BFE019D12
:10164000C4F89800AF42A84680F0D280284601A98D
:1016500031F080FE94F89430019DC4F89C00D5E7E9
:10166000D4F8001108462EF0ADFED4F80491494696
:1016700082462EF0A7FE51468046C4F81001484627
:101680002EF09EFE41462FF059F8D4F8FC10C4F815
:10169000140108462EF096FE0146824648462EF07A
:1016A00091FE41462FF04AF85146C4F808014846D9
:1016B0002EF086FE41462FF041F8C4F80C01E6E614
:1016C000D4F8301108462EF07DFED4F83491494606
:1016D00082462EF077FE51468046C4F840014846C7
:1016E0002EF06EFE41462FF029F8D4F82C11C4F8E4
:1016F000440108462EF066FE0146824648462EF01A
:1017000061FE41462FF01AF85146C4F838014846A8
:101710002EF056FE41462FF011F8C4F83C01D6E6F3
:10172000A16B08462EF04EFED4F83C904946824606
:101730002EF048FE51468046A06448462EF040FEFA
:1017400041462EF0FBFF616BE06408462EF03AFE46
:101750000146824648462EF035FE41462EF0EEFF09
:101760005146206448462EF02BFE41462EF0E6FFFF
:101770006064C8E6D4F89C1008462EF023FED4F826
:10178000A090494682462EF01DFE51460746C4F8F9
:10179000AC0048462EF014FE39462EF0CFFFD4F8A8
:1017A0009810C4F8B00008462EF00CFE01468246A0
:1017B00048462EF007FE39462EF0C0FF5146C4F8C9
:1017C000A40048462EF0FCFD39462EF0B7FFC4F8C1
:1017D000A80029E73D46AEE6454694F8303088E655
:1017E000454694F8F83044E6474694F8283160E6D8
:1017F000B84694F8943009E72DE9F043054687B0E0
:10180000806817460E462EF03BFA2A780092CDE902
:101810000201AB1C39463046714A2FF0FDFF95F8A6
:10182000D430044606EB0008C0EB0709002B00F09B
:10183000CB80D5F8D0002EF023FA02460B4695F85F
:10184000C510D5F8C8000491CDE902232EF018FA8E
:1018500095F8C430634ACDE90001494640462FF06F
:10186000DBFF404630F06CFA0444D5F8000195F8EF
:10187000F8902EF005FACDE90201D5F8FC002EF023
:10188000FFF906EB04083A1B4B46CDE9000111466F
:101890004046554A2FF0C0FF404630F051FA04440C
:1018A000D5F8300195F828912EF0EAF9CDE902013A
:1018B000D5F82C012EF0E4F906EB04083A1B4B4650
:1018C000CDE9000111464046474A2FF0A5FF4046AA
:1018D00030F036FA0444A86B95F830902EF0D0F929
:1018E000CDE90201686B2EF0CBF906EB04083A1B38
:1018F0004B46CDE90001114640463B4A2FF08CFF94
:10190000404630F01DFA95F87030044406EB0408A8
:10191000C4EB0709002B5BD0E86E2EF0B1F902464C
:101920000B4695F86110686E0491CDE902232EF004
:10193000A7F995F860302B4ACDE9000149464046A9
:101940002FF06AFF404630F0FBF90444286995F80F
:101950000C802EF095F9C4EB070E32194346CDE901
:10196000000171461046214A2FF056FF0444D5F875
:101970009C0095F894902EF083F9CDE90201D5F8FA
:1019800098002EF07DF906EB04083A1B4B46CDE992
:10199000000111464046144A2FF03EFF404630F009
:1019A000CFF90444A8692D7D2EF06AF93F1B264427
:1019B000CDE900012B46394630460D4A2FF02CFF69
:1019C000204407B0BDE8F08303A3D3E9002336E742
:1019D00001A3D3E90023A4E70000000080842E4186
:1019E00078770300687703005C770300847703004F
:1019F0008C77030010B4019C4462C161026283626F
:101A000010BC70472DE9F84F0378002B00F03081AF
:101A1000037B0E460446002B40F0C9800023C569B5
:101A2000C0F8583194F83030002B40F032812B68E8
:101A3000C4F85C3194F82831002B00F02381636AEC
:101A4000002B00F0C881D4F820801968D4F82C014C
:101A50002EF0C0FDD8F800102EF0B4FC0746C4F8F4
:101A6000600194F82C30D4F85C512BB3D8F80010F6
:101A700028462EF0A5FC2EF003F9A7A3D3E90023F6
:101A8000804689462EF0E0FB002840F02281404647
:101A90004946A3A3D3E900232EF0B8FB60B1284642
:101AA0002EF0EEF8A0A3D3E900232DF08BFF2EF04B
:101AB00033FC0546C4F85C01394628462EF080FC0C
:101AC000A1682EF087FD94F8F830C4F8640105464B
:101AD0008BB3002E40F00B81D4F81C71D4F8241184
:101AE000D4F81401C4F8185100F100402EF072FD32
:101AF000D4F80811804628462EF06CFD0146404679
:101B00002EF060FCD4F80C11804638462EF062FDB1
:101B1000014640462EF056FCC4F81C51C4F8200182
:101B2000C4F82401C4F86401002E00F0EE80804B5C
:101B30009D61D861054694F8C430002B73D063785A
:101B4000C4F8E850002B67D1D4F8E400D4F8F410BE
:101B500000F100402EF03EFDD4F8D810064628468D
:101B60002EF038FD014630462EF02CFCD4F8EC1057
:101B70000646D4F8DC002EF02DFD014630462EF04E
:101B800021FC94F8D430C4F8F000064653B1D4F8E0
:101B9000D07039462EF0DAFE002800F01281C4F829
:101BA000F0703E46C4F8F460C4F8EC5036E0C56905
:101BB000016928682EF00EFD94F89430C4F858019D
:101BC0000746002B3FF42EAFD4F8B000D4F8C01075
:101BD000C4F8B47000F100402EF0FCFCD4F8A4105E
:101BE000804638462EF0F6FC014640462EF0EAFBD1
:101BF000D4F8B8108046D4F8A8002EF0EBFC0146CB
:101C000040462EF0DFFBC4F8B870C4F8BC00C4F83E
:101C1000C000C4F8580105E7D4F8F0602846314602
:101C20002EF0D0FB05462846D4F858112EF0CAFBFA
:101C300094F86030C4F868010546002B7AD1C4F8E6
:101C40006C51237DCBB1A669294630462EF060FE4B
:101C5000002854D106F10046304629462EF076FE83
:101C6000A26A002853D0012316606370BDE8F88F84
:101C7000836A00221A60BDE8F88FA26A156063705B
:101C8000BDE8F88FD4F82080D8F80070C4F86071EF
:101C9000E7E6E06C2D68E16D256500F100402EF06F
:101CA00099FC216C074628462EF094FC01463846E4
:101CB0002EF088FB616D0746606C2EF08BFC0146B0
:101CC00038462EF07FFB6565A065E065C4F85C01D1
:101CD000B0E628462DF0D4FF13A3D3E900232DF05E
:101CE0006FFE2EF019FB0546C4F85C01E4E6104BCC
:101CF000D4F81C71D4F824111F615961F0E6A26A6E
:101D0000012316606370BDE8F88F054613E70023D2
:101D100015606370BDE8F88F182D4454FB2109400D
:101D2000182D4454FB2109C0182D4454FB2119409F
:101D3000F0320020D4F88000D4F89010C4F8845019
:101D400000F100402EF046FC616F064628462EF05A
:101D500041FC014630462EF035FBD4F8881006468B
:101D6000A06F2EF037FC014630462EF02BFB94F886
:101D70007030C4F88C0006463BB1E76E39462EF051
:101D8000E5FDA8B1C4F88C703E4694F86130C4F803
:101D90009060C4F888503BB1284631462EF012FBC3
:101DA0000546C4F86C014CE7C4F86C61354648E759
:101DB00007F10047394630462EF0AAFD0028E1D150
:101DC000E3E707F10047394630462EF0A1FD002831
:101DD0007FF4E5AEE6E6002E5FD1D4F84C71D4F87E
:101DE0005491D4F82080D8F80050394628462EF077
:101DF000E7FA2DF045FF40A3D3E9002382468B4646
:101E00002EF022FA002851D038462DF039FF3CA39D
:101E1000D3E900232DF0D6FD2EF07EFAC4F84C0154
:101E2000074648462DF02CFF35A3D3E900232DF0BB
:101E3000C9FD2EF071FAC4F85401D8F8005081465B
:101E4000D4F84401C4F84851494600F100402EF04E
:101E5000C1FBD4F83811814628462EF0BBFB014661
:101E600048462EF0AFFAD4F83C11814638462EF0A1
:101E7000B1FB014648462EF0A5FAC4F84C5107467E
:101E8000C4F85001C4F85401C4F86001002E3FF4B6
:101E9000E8AD1F4B9D60D860E3E51D4BD4F84C7155
:101EA000D4F854911F60C3F804909AE750465946FD
:101EB00015A3D3E900232EF0A9F90028C0D0384695
:101EC0002DF0DEFE0EA3D3E900232DF079FD2EF0D8
:101ED00023FAC4F84C01074648462DF0D1FE08A36A
:101EE000D3E900232DF06CFD2EF016FAC4F854014E
:101EF0008146D8F80050A3E7182D4454FB2109402F
:101F0000182D4454FB211940182D4454FB2109C0BD
:101F1000F032002090F8C430017810B504460BB1BF
:101F200041F0020194F8F8300BB141F0040194F84B
:101F300028310BB141F0080194F830300BB141F079
:101F4000100194F860300BB141F02001237B0BB1FC
:101F500041F0400194F894300BB141F08001237DB1
:101F60000BB141F4807194F861300BB141F4007110
:101F7000364809F04DF9237803B910BDA1683348FC
:101F800009F00EF994F8C430002B53D194F8F830CE
:101F9000002B44D194F82831002B35D194F83030FF
:101FA0004BBB94F86030EBB9237B43B9237D002B06
:101FB000E3D0A1692548BDE8104009F0F1B82169D6
:101FC000224809F0EDF894F89430002BEED0D4F8C4
:101FD00098101E4809F0E4F8D4F89C101B4809F04A
:101FE000DFF8E3E7616E194809F0DAF8E16E1748A7
:101FF00009F0D6F8D8E7616B144809F0D1F8A16B65
:10200000124809F0CDF8CCE7D4F82C110F4809F0AC
:10201000C7F8D4F830110D4809F0C2F8BEE7D4F87B
:10202000FC100A4809F0BCF8D4F80011074809F080
:10203000B7F8AFE7D4F8C810044809F0B1F8D4F8FD
:10204000D010024809F0ACF8A0E700BF103900201A
:102050002DE9F041B64D0446284609F01DF9C0F3BC
:10206000001300F00107C0F34006C0F38001C0F385
:10207000C00284F83030C0F34023277084F8C46075
:10208000C0F34017C0F3801684F8F81084F82821B4
:10209000C0F3C011C0F3002284F86130C30784F894
:1020A0006070267384F89410227501D4BDE8F08125
:1020B000284609F0CDF894F8C430A060A3B19D4B38
:1020C000B3F90030002B40F3CD81284609F0C0F869
:1020D000C4F8C800284609F0BBF894F8C430C4F826
:1020E000D000002B40F0C1814FF07E520023C4F895
:1020F000E020C4F8E420C4F8D830C4F8DC3094F808
:10210000F830A3B18B4BB3F90030002B40F377814B
:10211000874809F09DF8C4F8FC00854809F098F854
:1021200094F8F830C4F80001002B40F0C0814FF063
:102130007E520023C4F81021C4F81421C4F80831D9
:10214000C4F80C3194F82831A3B17A4BB3F90030BC
:10215000002B40F32181764809F07AF8C4F82C016D
:10216000734809F075F894F82831C4F83001002B51
:1021700040F09F814FF07E520023C4F84021C4F804
:102180004421C4F83831C4F83C3194F8303093B16C
:10219000684BB3F90030002B40F3D280644809F05B
:1021A00057F86063624809F053F894F83030A06340
:1021B000002B40F080814FF07E520023A264E26445
:1021C0002364636494F8603083B15A4BB3F90030F0
:1021D000002B56DD564809F03BF86066544809F07C
:1021E00037F894F86030E066002B4DD14FF07E5206
:1021F0000023E267C4F880206367A367237B63B38F
:102200004C4EB6F90030002B58DD494F384609F0E6
:102210001FF894F894302061A3B1B6F90030002B78
:10222000D8BFFB6851DD384609F012F8C4F89800B1
:10223000384609F00DF894F89430C4F89C00002B4F
:1022400040F03B814FF07E520023C4F8AC20C4F82C
:10225000B020C4F8A430C4F8A830237D002B3FF48C
:1022600025AF344BB3F90030002B04DCEB680433AA
:10227000EB60BDE8F0812E4808F0EAFFA061BDE800
:10228000F081EB680833EB60616E08462EF09AF837
:10229000294BC4F880300146E067A06E2EF04EFA5C
:1022A00026496067A067E06E2EF032FB4FF0010315
:1022B000002800F0FA8084F870309FE7EB6894F80B
:1022C00094200433EB60002ABCD00833D4F89C106F
:1022D000EB6008462EF076F8D4F8A07039468046B8
:1022E0002EF070F841460646C4F8AC0038462EF091
:1022F00067F831462EF022FAD4F89810C4F8B000EE
:1023000008462EF05FF80146804638462EF05AF80F
:1023100031462EF013FA4146C4F8A40038462EF098
:102320004FF831462EF00AFAC4F8A80095E700BF2E
:102330001039002026620020000080BF0000C64245
:10234000EB68A16B0833EB6008462EF03BF8E76BB7
:10235000394680462EF036F841460646A064384697
:102360002EF02EF831462EF0E9F9616BE064084654
:102370002EF028F80146804638462EF023F83146E4
:102380002EF0DCF94146206438462EF019F831462B
:102390002EF0D4F9606415E7EB68D4F830110833F7
:1023A000EB6008462EF00EF8D4F8347139468046BA
:1023B0002EF008F841460646C4F8400138462DF094
:1023C000FFFF31462EF0BAF9D4F82C11C4F84401BD
:1023D00008462DF0F7FF0146804638462DF0F2FF03
:1023E00031462EF0ABF94146C4F8380138462DF09D
:1023F000E7FF31462EF0A2F9C4F83C01C5E6EB68D0
:10240000D4F800110833EB6008462DF0DBFFD4F858
:102410000471394680462DF0D5FF41460646C4F882
:10242000100138462DF0CCFF31462EF087F9D4F854
:10243000FC10C4F8140108462DF0C4FF0146804684
:1024400038462DF0BFFF31462EF078F94146C4F8EA
:10245000080138462DF0B4FF31462EF06FF9C4F86C
:102460000C016FE6EB680833EB60D4F8C81008463F
:102470002DF0A8FF124BC4F8E4300146C4F8E00088
:10248000D4F8CC002EF05AF90E49C4F8D800C4F89C
:10249000DC00D4F8D0002EF03BFA4FF0010310B16D
:1024A00084F8D4302BE60346FAE7034603E70146F7
:1024B000AAE7014675E7014646E7014609E700BF7E
:1024C000000080BF0000C64238B5841C20460D467F
:1024D0002FF036FC2946024620462FF0CFFCB0FAFA
:1024E00080F0400938BD00BF70B5C3698AB00446AA
:1024F0000D46016A1868D4F86021D4F85C31009068
:102500000968D4F858610191184611460292049363
:1025100003962DF055FFA1682EF05CF8D4F8F0106A
:10252000D4F86821D4F86461A36A059007910892F1
:1025300006961B68099328462822694604F0D0FBBA
:102540000AB070BDFFFFFFFF2DE9F0410378232B98
:1025500082B0044620D02FF0F3FB274A12780546BC
:102560005AB1264A92F90010052938D0CBB2042B73
:1025700008D9012002B0BDE8F081014620461CF0D8
:10258000C9FEEEE7002000902B4622461C4808F0CA
:10259000D7FB02B0BDE8F081184DFF2395F900701C
:1025A0002B702FF0CDFB144A16788046A6B9014651
:1025B00020461CF0AFFE95F90010052915D0CBB2CE
:1025C000042B09D80096434622460D4808F0B8FB74
:1025D0002F7002B0BDE8F08101202F70F9E720468E
:1025E000294615F027FA0120C4E72046414615F098
:1025F00021FA01202F70ECE78C1FFF1FE407FF1F5B
:102600000834002008B50A220021044830F060FF99
:1026100000EB80004000013080B208BDA4770300C9
:10262000F0B54C4A4C4B14684C4918684C4BB1F906
:102630000E601B884B4A4C4DD5B004EB84041096B9
:10264000640000EB8000B1F90CE0B1F90A7012945B
:102650004000B1F908601190B1F90640CDF838E0BA
:10266000B1F904000C97B1F902700A96B2F90E6044
:102670000894B2F90C400690B2F90A000497B2F936
:1026800008700F96B2F906600D94B2F904400B90F1
:10269000B2F902000997079605940390B1F900007A
:1026A000B2F900102A8800920290019115A82F4AD1
:1026B000FA212FF0B1F89DF85430232B1ED015A825
:1026C0002FF03EFB2A4A127804464AB1294A92F971
:1026D0000010052932D0CBB2042B06D955B0F0BD7D
:1026E000014615A81CF016FEF0E7002000902346D6
:1026F00015AA214808F024FB55B0F0BD1D4CFF235E
:1027000015A894F9006023702FF01AFB184A157869
:10271000074685B9014615A81CF0FCFD94F9001088
:10272000052910D0CBB2042B05D800953B4615AA3D
:10273000114808F005FB267055B0F0BD214615A8DC
:1027400015F078F9CAE7394615A815F073F926701F
:10275000F2E700BFEC600020F0600020240AFF1FB9
:10276000885F0020140AFF1F905F0020C8770300D5
:102770008C1FFF1FE407FF1F083400202DE9F041E4
:10278000434A444B5788D3F80480434915881E6850
:102790000C88CAB0C8EB07002DF0C8FE3F4900F115
:1027A00000402DF017FF2DF06BFACDE90801A81BB2
:1027B000CDF81C8006972DF0B9FE38492DF00AFFA0
:1027C0002DF05EFACDE904012046039602952DF026
:1027D000ADFE33492DF0FEFE2DF052FA2346CDE931
:1027E0000001304A0BA8FA212FF016F89DF82C3082
:1027F000232B20D00BA82FF0A3FA2B4A12780446E3
:1028000052B12A4A92F90010052935D0CBB2042BD7
:1028100007D94AB0BDE8F08101460BA81CF07AFD4B
:10282000EFE70020009023460BAA214808F088FA21
:102830004AB0BDE8F0811D4CFF230BA894F900605D
:1028400023702FF07DFA184A1578074685B901469E
:102850000BA81CF05FFD94F90010052911D0CBB234
:10286000042B05D800953B460BAA114808F068FADE
:1028700026704AB0BDE8F08121460BA815F0DAF8C1
:10288000C7E739460BA815F0D5F82670F1E700BF69
:102890000C3F0020043F0020CA5F0020E62A3136AA
:1028A000B4A1013B147803008C1FFF1FE407FF1F36
:1028B000083400202DE9F0474548464E464D9CB06F
:1028C000FFF742FE4548FFF73FFE01210D2016F0BD
:1028D000ADFDB0460124002704E093F855320134E1
:1028E000802C31D0E1B23C4821F0C8F800236A7B4B
:1028F000009329693848012321F0E4F92B6993F802
:102900005522002AE9D1234603A8354A64212EF036
:1029100083FF9DF80C30232B2FD003A82FF010FA43
:10292000304A127807461AB9014603A81CF0F2FC97
:1029300096F90010052940D0CBB2042B14D90134EC
:10294000802C4FF00107CDD100210D2016F06EFD37
:102950001FB9122124481CF0DDFC4FF4FA7018F066
:10296000C7F81CB0BDE8F08700203B46009003AAE2
:102970001E4808F0E5F90127B1E7FF2303A896F9FF
:10298000009033702FF0DCF9164A1778824687B929
:10299000014603A81CF0BEFC98F90010052912D0CE
:1029A000CBB2042B05D80097534603AA0F4808F072
:1029B000C7F986F80090012791E7394603A815F07A
:1029C00039F801278BE7514603A815F033F8F0E7F3
:1029D0003C780300E407FF1FE066002074780300E2
:1029E000887803008C1FFF1F9C78030008340020A8
:1029F000F0B5A1B003A809F0E7FE012103A80BF090
:102A000073FD4FF4FA7303A8ADF80E300AF034FEEC
:102A1000044603A809F0DEFE10B12F48FFF794FD2D
:102A2000234607A82D4A64212EF0F6FE9DF81C309F
:102A3000232B26D007A82FF083F9294A12780446C1
:102A400092B1284A92F90010052939D0CBB2042B53
:102A50000FD9254841F28833427B01690093002356
:102A600021F030F921B0F0BD014607A81CF052FC5E
:102A7000E7E700200090234607AA1C4808F060F909
:102A8000E7E7184CFF2307A894F9006023702FF0A4
:102A900057F9134A1578074685B9014607A81CF06F
:102AA00039FC94F9001005290FD0CBB2042B05D8BE
:102AB00000953B4607AA0D4808F042F92670C8E782
:102AC000214607A814F0B6FFC3E7394607A814F05B
:102AD000B1FF2670BDE700BFB0780300BC780300EB
:102AE0008C1FFF1FE407FF1FE06600200834002052
:102AF000F0B53A4B3A4C9B683A493B4A3B480D7813
:102B00000088B2F97C1092F87E2093B0A4FB0343B6
:102B10009B0907930492059106952DF007FD344912
:102B2000344C2DF057FD2DF0ABF8CDE90201606873
:102B30002DF0A6F8304ACDE9000109A823212EF096
:102B40006BFE9DF82430232B1DD009A82FF0F8F838
:102B5000227805464AB1294A92F90010052931D058
:102B6000CBB2042B06D913B0F0BD014609A81CF066
:102B7000D1FBF0E7002000902B4609AA204808F07E
:102B8000DFF813B0F0BD1D4DFF2309A895F90060D3
:102B90002B702FF0D5F82478074684B9014609A890
:102BA0001CF0B8FB95F90010052910D0CBB2042B0E
:102BB00005D800943B4609AA114808F0C1F82E70C8
:102BC00013B0F0BD294609A814F034FFCBE739460D
:102BD00009A814F02FFF2E70F2E700BF80600020DC
:102BE0008988888854330020D05F0020CA5F002085
:102BF000B4A1013B8C1FFF1FC8780300E407FF1F2F
:102C000008340020F0B5374C9BB0E0682DF038F860
:102C1000CDE90801344B18682DF032F8CDE90601F2
:102C2000A0682DF02DF8CDE9040160682DF028F89A
:102C3000CDE9020120682DF023F82C4ACDE90001EE
:102C40000AA840212EF0E8FD9DF82830232B1ED045
:102C50000AA82FF075F8264A127804464AB1254A88
:102C600092F90010052932D0CBB2042B06D91BB043
:102C7000F0BD01460AA81CF04DFBF0E700200090D3
:102C800023460AAA1C4808F05BF81BB0F0BD194C9B
:102C9000FF230AA894F9006023702FF051F8144A1A
:102CA0001578074685B901460AA81CF033FB94F94C
:102CB0000010052910D0CBB2042B05D800953B4657
:102CC0000AAA0D4808F03CF826701BB0F0BD21465A
:102CD0000AA814F0AFFECAE739460AA814F0AAFE03
:102CE0002670F2E7B8330020C8330020E4780300F0
:102CF0008C1FFF1FE407FF1F08340020F0B53C4B7A
:102D00003C4D1C68B5F9040097B02DF00FFC21462E
:102D10002DF060FC2CF0B4FFCDE90401B5F9020000
:102D20002DF004FC21462DF055FC2CF0A9FFCDE937
:102D30000201B5F900002DF0F9FB21462DF04AFC07
:102D40002CF09EFF2C4ACDE9000106A840212EF070
:102D500063FD9DF81830232B1ED006A82EF0F0FF3F
:102D6000264A127804464AB1254A92F900100529EC
:102D700032D0CBB2042B06D917B0F0BD014606A85D
:102D80001CF0C8FAF0E700200090234606AA1D4870
:102D900007F0D6FF17B0F0BD194CFF2306A894F931
:102DA000006023702EF0CCFF144A1578074685B9D1
:102DB000014606A81CF0AEFA94F90010052910D0BF
:102DC000CBB2042B05D800953B4606AA0D4807F068
:102DD000B7FF267017B0F0BD214606A814F02AFEF2
:102DE000CAE7394606A814F025FE2670F2E700BFB0
:102DF00070CD030044390020FC7803008C1FFF1FB6
:102E0000E407FF1F08340020F0B53C4B3C4D1C6824
:102E1000B5F9040097B02DF089FB21462DF0DAFBBF
:102E20002CF02EFFCDE90401B5F902002DF07EFB58
:102E300021462DF0CFFB2CF023FFCDE90201B5F99F
:102E400000002DF073FB21462DF0C4FB2CF018FF81
:102E50002C4ACDE9000106A840212EF0DDFC9DF8AA
:102E60001830232B1ED006A82EF06AFF264A1278AF
:102E700004464AB1254A92F90010052932D0CBB256
:102E8000042B06D917B0F0BD014606A81CF042FA83
:102E9000F0E700200090234606AA1D4807F050FFE7
:102EA00017B0F0BD194CFF2306A894F900602370F9
:102EB0002EF046FF144A1578074685B9014606A844
:102EC0001CF028FA94F90010052910D0CBB2042B7D
:102ED00005D800953B4606AA0D4807F031FF26703D
:102EE00017B0F0BD214606A814F0A4FDCAE7394684
:102EF00006A814F09FFD2670F2E700BF74CD030012
:102F00004C3900200C7903008C1FFF1FE407FF1FC2
:102F100008340020F0B52F4C95B060682CF0B0FE5E
:102F2000CDE9020120682CF0ABFE2B4ACDE900016F
:102F300004A840212EF070FC9DF81030232B1ED0E9
:102F400004A82EF0FDFE254A127804464AB1244A10
:102F500092F90010052932D0CBB2042B06D915B056
:102F6000F0BD014604A81CF0D5F9F0E70020009060
:102F7000234604AA1B4807F0E3FE15B0F0BD184C29
:102F8000FF2304A894F9006023702EF0D9FE134AA1
:102F90001578074685B9014604A81CF0BBF994F9D9
:102FA0000010052910D0CBB2042B05D800953B4664
:102FB00004AA0C4807F0C4FE267015B0F0BD2146E7
:102FC00004A814F037FDCAE7394604A814F032FD0E
:102FD0002670F2E7103F00201C7903008C1FFF1FB2
:102FE000E407FF1F08340020F0B52F4C95B060684F
:102FF0002CF046FECDE9020120682CF041FE2B4A60
:10300000CDE9000104A840212EF006FC9DF8103007
:10301000232B1ED004A82EF093FE254A12780446D6
:103020004AB1244A92F90010052932D0CBB2042BC0
:1030300006D915B0F0BD014604A81CF06BF9F0E705
:1030400000200090234604AA1B4807F079FE15B023
:10305000F0BD184CFF2304A894F9006023702EF0F3
:103060006FFE134A1578074685B9014604A81CF07F
:1030700051F994F90010052910D0CBB2042B05D8D2
:1030800000953B4604AA0C4807F05AFE267015B07E
:10309000F0BD214604A814F0CDFCCAE7394604A8C7
:1030A00014F0C8FC2670F2E7F03300202879030002
:1030B0008C1FFF1FE407FF1F083400202DE9F04399
:1030C000ADF5337D0022431C8DF80421112B45D82A
:1030D000DFE813F04D00120029014F01A601BC01E9
:1030E000C901D601EA0110021B022F022F0264025D
:1030F00064029A02F2024800B44BB54D1C68B5F95F
:1031000004002DF013FA21462DF064FA2CF0B8FDDE
:10311000CDE90401B5F902002DF008FA21462DF0A1
:1031200059FA2CF0ADFDCDE90201B5F900002DF002
:10313000FDF921462DF04EFA2CF0A2FDCDE900015B
:10314000A44A402131A82EF067FB31A8FFF7FCF913
:103150009DF8043113B141A8FFF7F6F90DF5337D61
:10316000BDE8F0830CF054FC9DF80431F2E79A4975
:10317000964A9A4B088816681C68994DDFF8988221
:10318000984FDFF898922DF0D1F997492DF022FA57
:103190002CF076FDCDE92E01944BE8681B7A2C9338
:1031A0002CF06EFDCDE92A01914B18682CF068FDDA
:1031B000CDE92801A8682CF063FDCDE926016868F7
:1031C0002CF05EFDCDE9240128688A4D2CF058FDD5
:1031D000CDE92201D8F804002CF052FDCDE9200100
:1031E000D8F80000DFF828822CF04AFDCDE91E0156
:1031F00078682CF045FDCDE91C0138682CF040FDC5
:103200006B68B9F802707C4ACDE91A01F81A0CCA49
:10321000199318922DF08AF97849794F00F10040FE
:103220002DF0D8F92CF02CFDB9F800202B68684D52
:10323000CDE91601D01A2DF079F970492DF0CAF9AF
:103240002CF01EFDCDE914016E4BD8F808001B7858
:1032500012932DF06BF921462DF0BCF92CF010FDE6
:10326000CDE91001D8F804002DF060F921462DF0C9
:10327000B1F92CF005FDCDE90E01D8F800002DF0D4
:1032800055F921462DF0A6F92CF0FAFCCDE90C01F8
:10329000B7F904002DF04AF921462DF09BF92CF0E6
:1032A000EFFCCDE90A01B7F902002DF03FF9214604
:1032B0002DF090F92CF0E4FCCDE90801B7F90000FD
:1032C0002DF034F921462DF085F92CF0D9FCCDE90B
:1032D0000601B5F904002DF029F931462DF07AF9EF
:1032E0002CF0CEFCCDE90401B5F902002DF01EF959
:1032F00031462DF06FF92CF0C3FCCDE90201B5F990
:1033000000002DF013F931462DF064F92CF0B8FCD3
:103310003D4ACDE900014FF4E17141A82EF07CFA5D
:103320009DF8043116E72D4B354D1C68B5F90400A6
:103330002DF0FCF821462DF04DF92CF0A1FCCDE943
:103340000401B5F902002DF0F1F821462DF042F903
:103350002CF096FCCDE90201B5F900002DF0E6F85D
:1033600021462DF037F92CF08BFC284ACDE90001DD
:10337000E7E61A4A264D234B14681B78A868069383
:103380002DF0D4F821462DF025F92CF079FCCDE96B
:10339000040168682DF0CAF821462DF01BF92CF0C5
:1033A0006FFCCDE9020128682DF0C0F821462DF010
:1033B00011F92CF065FC174ACDE900014FF4E171D9
:1033C00041A82EF029FA9DF80431C3E670CD030020
:1033D00044390020FC780300CA5F002074CD03004C
:1033E000B8330020F0330020B4A1013B8C1FFF1F35
:1033F000C8330020043F0020D83B0020E62A3136A5
:103400004C39002052390020347903000C79030034
:1034100054390020B0790300CC3300200C3F002049
:10342000864C60682CF02CFCCDE9020120682CF061
:1034300027FCCDE90001824A402131A82EF0ECF9A9
:1034400031A8FFF781F89DF8043183E67D497E4A73
:103450000B684968009141A84FF4E1712EF0DCF946
:103460009DF8043176E6794C60682CF009FCCDE9D2
:10347000020120682CF004FC754ACDE90001DBE76D
:10348000744C60682CF0FCFBCDE9020120682CF044
:10349000F7FB714ACDE900014FF4E17141A82EF02C
:1034A000BBF99DF8043155E66C4CE0682CF0E8FB64
:1034B000CDE908016A4B18682CF0E2FBCDE9060162
:1034C000A0682CF0DDFBCDE9040160682CF0D8FB8E
:1034D000CDE9020120682CF0D3FB624ACDE900015E
:1034E000402131A82EF098F931A8FFF72DF89DF86A
:1034F00004312FE65C4B5D4A1B7A4FF4E17141A821
:103500002EF08AF99DF8043124E6594B18882DF0E5
:103510000DF858492DF05EF82CF0B2FB564ACDE973
:1035200000014FF4E17141A82EF076F99DF80431C5
:1035300010E6A0F10A05514B019330222B46009270
:103540004FF4E1714E4A4F4F41A82EF065F941A862
:103550002EF0F6FB044605EB4500C001051F41AB0C
:10356000BC303D441E19074455F8043F464AC4F593
:10357000E17130462EF050F930462EF0E1FB41ABC0
:103580000444BD4203EB0406EED1C4F5E1713046BC
:103590003E4A2EF041F99DF80431DBE5A0F10C051F
:1035A00030222B4600924FF4E171394A394F41A83D
:1035B0002EF032F941A82EF0C3FB044605EB45007E
:1035C0008001051F41ABBC303D441E19074455F82E
:1035D000040F2CF0A7FF2CF053FB00222E4B2CF0F5
:1035E000CDFCC4F5E173CDE900012C4A1946304603
:1035F0002EF012F930462EF0A3FB41AB0444BD423D
:1036000003EB0406E3D1C0E7254A264C127826488E
:103610002649274B0078097824681B78029082F0AD
:103620000102019200910394224A4FF4E17141A8F2
:103630002EF0F2F89DF804318CE500BF103F002019
:103640001C790300D83B0020C4790300F03300202C
:1036500028790300CC330020D8790300B833002048
:10366000C8330020E47803008C1FFF1FE4790300B7
:10367000CA5F0020B4A1013BF0790300000E2707C8
:10368000FC790300EC3B0020087A0300E081030092
:10369000107A0300403A002000408F40187A03005F
:1036A000E83B00205C0AFF1F580AFF1F640AFF1F47
:1036B000F83E00201C7A03002B4A2C4992F9002086
:1036C0002B4B08681C921D682A4C2CF0D9FACDE9C6
:1036D0001A01294B18682CF0D3FA284A284B126893
:1036E0001B681792CDE91801E06916932CF0C8FA0F
:1036F000CDE91401A0692CF0C3FACDE9120160698B
:103700002CF0BEFACDE9100120692CF0B9FACDE910
:103710000E01E0682CF0B4FACDE90C01A0682CF0A1
:10372000AFFACDE90A0160682CF0AAFACDE90801E8
:1037300020682CF0A5FA134A134B12780492CDE9B5
:10374000060118682CF09CFA104B114A1B68009374
:10375000CDE902012B464FF4E17141A82EF05CF84F
:103760009DF80431F6E400BF9C390020283A00207F
:103770003C3A0020B03900202C3A0020303A00209A
:10378000343A0020FD390020F8390020383A002072
:10379000307A0300F0B50A229FB0002133482FF0A1
:1037A00097FE00EB80004000314B01301B78029304
:1037B00080B22CF0B7FE2CF063FA2E4B00222CF0D6
:1037C000DDFB2D4ACDE9000105A864212EF024F887
:1037D0009DF81430232B1ED005A82EF0B1FA274AED
:1037E000127804464AB1264A92F90010052932D0CF
:1037F000CBB2042B06D91FB0F0BD014605A81BF0C3
:1038000089FDF0E700200090234605AA1D4807F037
:1038100097FA1FB0F0BD1A4CFF2305A894F9006079
:1038200023702EF08DFA154A1578074685B90146A2
:1038300005A81BF06FFD94F90010052910D0CBB23C
:10384000042B05D800953B4605AA0E4807F078FAE8
:1038500026701FB0F0BD214605A814F0EBF8CAE7AA
:10386000394605A814F0E6F82670F2E7A4770300BD
:10387000C85F002000002440EC7A03008C1FFF1F6B
:10388000E407FF1F083400202DE9F0470422ADF5BE
:10389000066D0D469C4904462EF0F0FA70B99B4A1D
:1038A0009B4C9C49907200230120507223600B6056
:1038B000994B1D700DF5066DBDE8F0870422974900
:1038C00020462EF0DBFA38B923791F2B00F2A380B3
:1038D000934B01221A70EBE78C4FBB7A002BE9D196
:1038E00063788D4E3D2B357000F0A0802378782BC7
:1038F00000F0B68003228B4920462EF0BFFA002844
:1039000059D02146884804F0C1FB0028D2D1204676
:103910000CF0D2F90028CDD1204608F027FD8046D2
:103920000028C7D194F80090B9F13C0F00F01A813B
:10393000B9F1750F00F0C884B9F1760F00F0498134
:1039400009F0DF02482A00F063810322774920460C
:103950002EF094FA8246002800F00585032274496F
:1039600020462EF08BFA8246002800F016850322AE
:10397000704920462EF082FA002800F0418503228B
:103980006D4920462EF07AFA8246002840F01985CB
:1039900020463D212DF08EFF002800F0AA855146DB
:1039A00001300A222FF094FD20EAE07101226348E1
:1039B00007F088FE7EE703340A2220460EA90E9403
:1039C00018942FF085FD0EA905460E982FF0C2FC25
:1039D00018A906460E982FF0BDFC189C0E9A94422A
:1039E00007467FF667AF18A920460A220E942FF0EB
:1039F0006FFD0E9A189B003018BF01209A4208BF35
:103A00000020291C00903B46324618BF0121464841
:103A100003F0FEFE4EE701460A22601D2FF058FD1E
:103A20003F4B003018BF0120187041E723784D3B11
:103A3000262B5CD8DFE803F04A5B5B5B5B5B5B5B80
:103A40005B5B5B5B5B5B5B5B5B5B5B5B3E5B5B5BE3
:103A50005B5B5B5B375B5B5B5B5B5B5B5B5B1F0071
:103A6000611C314804F04AFB00287FF423AF34483E
:103A7000FEF76AFD1EE70EA90A22A01C2FF028FD02
:103A8000304B186005F0D8F80E9803781F2B7FF69E
:103A900011AF0EA90A222FF01BFD2B4B003018BFCF
:103AA0000120187006E7A01C0A2200212FF010FD4B
:103AB000F872FFE62548FEF747FD08F065F8D0B13B
:103AC0002348FEF741FD07F0BDFEF3E6164DB5F9BC
:103AD0007C10A1B9A01C0A222FF0FAFC1D4BA8678C
:103AE0001B689842FFF6E6AE013BAB67E2E61A4878
:103AF000FEF72AFDDEE61948FEF726FDE3E7184843
:103B0000FEF722FDD6E600BF007B03008C1FFF1FDF
:103B10006033002064330020E407FF1F087B0300AC
:103B20001C620020D47B0300D05F0020688E03005D
:103B3000808E0300848E0300888E030010390020DD
:103B4000B47B0300EC07FF1FF807FF1F387B03005F
:103B5000647B0300189D03009C7B0300807B0300B3
:103B6000107B0300651C2846052221492EF086F9AA
:103B7000002800F0078403221E4928462EF07EF913
:103B8000002800F0048405221B4928462EF076F90F
:103B9000002800F02F840322184928462EF06EF9E1
:103BA0000646002800F05F841549032228462EF0BF
:103BB00065F90146002800F08A842846052211494B
:103BC0002EF05CF9002840F07D840F4812F0B8F91F
:103BD00070E66378312B00F00884322B00F0FC8310
:103BE000302B00F0FE830948FEF7AEFC62E600BF12
:103BF000D87B0300E07B0300E47B0300EC7B030045
:103C00005C7C0300607C0300F8600020AC7C030057
:103C1000A44918A82DF09CFA18A8FEF795FCA24B11
:103C2000A24A9B6FDC2118A82DF0F6FD18A8FEF71C
:103C30008BFC97F90B309E4ADC2118A82DF0ECFD87
:103C400018A8FEF781FC9B4A9B4B12781B680092D8
:103C5000DC219A4A18A82DF0DFFD18A8FEF774FCA5
:103C60009749984A8C794B7848790D790494CC78A7
:103C7000039088788DE831008C7B487B0D7B0C9419
:103C8000CC7A0B90887A0A954E7A09940D7ACC7981
:103C90000890DC2118A80796069505942DF0BCFD28
:103CA00018A8FEF751FC884B1B781BB1874B1B787B
:103CB00083F001038649874A0968126801920093DC
:103CC00002914623844A854C854D864EDC2118A8F6
:103CD0002DF0A2FD18A8FEF737FCBB7A824A834F6D
:103CE000DC2118A82DF098FD18A8FEF72DFC8049BE
:103CF000804AB1F90030B1F90210009118A8DC2116
:103D00002DF08AFD18A8FEF71FFC60682BF0B8FFA5
:103D1000CDE9020120682BF0B3FF774ACDE900011D
:103D2000DC2118A82DF078FD18A8FEF70DFC7349CA
:103D3000734A91F9003091F90110009118A8DC2123
:103D40002DF06AFD18A8FEF7FFFB68226D4918A840
:103D50002DF0FEF918A8FEF7F7FB6C226A4918A8A7
:103D60002DF0F6F918A8FEF7EFFB8C22674918A88A
:103D70002DF0EEF918A8FEF7E7FBA322644918A876
:103D80002DF0E6F918A8FEF7DFFB4E22614918A8CE
:103D90002DF0DEF918A8FEF7D7FBBE225E4918A861
:103DA0002DF0D6F918A8FEF7CFFB5C48FEF7CCFB48
:103DB0005B48FEF7C9FB5B48FEF7C6FB7F225A490A
:103DC00018A82DF0C5F918A8FEF7BEFB0FCD18AC4A
:103DD0000FC40FCD0FC40FCD0FC42B68237018A8CC
:103DE000FEF7B2FB0FCF18AD0FC50FCF0FC597E889
:103DF0000F0007C525F8023B4C4F1B0C2B7018A871
:103E0000FEF7A2FB0FCF18AD0FC50FCF0FC50FCF19
:103E10000FC525463B6825F8023B1B0C2B7018A8E4
:103E2000FEF792FB5B22424918A82DF091F918A8E1
:103E3000FEF78AFB8F223F4918A82DF089F918A8B0
:103E4000FEF782FB3C493D4A0B880F89CD88888864
:103E500049880091039702950190DC2118A8384FFA
:103E60002DF0DAFC18A8FEF76FFB0FCF18AD0FC5C9
:103E70000FCF0FC597E8070003C525F8022B120CDA
:103E80002A70304D18A8FEF75FFB0FCD18AF0FC793
:103E90000FCD0FC795E80F0087E80F0018A8FEF7B1
:103EA00053FB51E0CC7C0300D05F0020147D030065
:103EB000687D0300F807FF1FEC07FF1FCC7D0300A0
:103EC000E820FF1F187E03007D21FF1F7C21FF1FBC
:103ED0007421FF1F7821FF1FAC7E0300CC3B002024
:103EE00084840300F8600020F87E0300B884030097
:103EF000C03B00202C7F0300647F0300C43B0020F4
:103F0000A47F0300E07F030048800300B480030027
:103F100040810300E481030034820300F482030043
:103F200044830300AC83030004840300E88403009B
:103F30001C8503007885030090600020088603003C
:103F400078860300A4860300DFF868E3BEE80F006C
:103F500018AD0FC5BEE80F000FC59EE8070003C5EA
:103F600018A82A80FEF7F0FADFF84CE3BEE80F004D
:103F70000DF16008A8E80F00BEE80F00A8E80F00E8
:103F80009EE80300B846386008F8041F18A8FEF73A
:103F9000DBFADFF828C3BCE80F000DF1600EAEE8D5
:103FA0000F00BCE80F00AEE80F009CE80700AEE889
:103FB00003002A7018A8FEF7C7FAA34AA34B10689B
:103FC0001D782BF05DFECDE90201A14B18682BF0A6
:103FD00057FE2B46CDE900019E4A9F4DDC2118A8D3
:103FE0002DF01AFC18A8FEF7AFFA304612F016F8BA
:103FF00096F818310093994A0346DC2118A82DF051
:104000000BFC18A8FEF7A0FA5522954918A82DF028
:104010009FF818A8FEF798FA0FCD18AE0FC60FCD6F
:104020000FC695E80F008F4D8F4E87E80F0018A838
:10403000FEF78AFA0FCD0DF16009A9E80F000FCD48
:10404000A9E80F0095E80F00A9E8070018A8A9F84B
:104050000030FEF779FA0FCE18AD0FC50FCE0FC5A1
:104060000FCE0FC596E8070003C5804E2A7018A82A
:10407000FEF76AFA0FCE0DF1600EAEE80F000FCE1C
:10408000AEE80F000FCEAEE80F0096E8030084E81C
:10409000030018A8FEF758FA754E76495C2218A856
:1040A0002DF056F818A8FEF74FFA0FCE18AC0FC433
:1040B0000FCE0FC496E80F0007C4A9F8003018A867
:1040C000FEF742FA6C4E6D494B2218A82DF040F8CD
:1040D00018A8FEF739FA0FCE18AC0FC40FCE0FC4D4
:1040E0000FCE0FC496E8070003C42C46130C2A8099
:1040F00018A804F8023FFEF727FA614B614A1B78C3
:10410000DC2118A82DF088FB18A8FEF71DFA412223
:104110005D4918A82DF01CF818A8FEF715FA5B4B9E
:104120005B4A1B78DC2118A82DF076FB18A8FEF757
:104130000BFADFF88CE1BEE80F0018AE0FC6BEE840
:104140000F000FC6BEE80F000FC69EE80F0007C69F
:1041500026F8023B18A81B0C3370FEF7F5F94D4901
:104160004D4AB1F90E00B1F908C00B78B1F906E07B
:10417000B1F90A90B1F904600790069088784978FF
:104180000091CDF810C0CDF80CE002960190DC2132
:10419000CDF8149018A8414E2DF03EFB18A8FEF75C
:1041A000D3F90FCE0DF1600EAEE80F000FCEAEE8E2
:1041B0000F0096E80300386088F8001018A8FEF792
:1041C000C3F9DFF800E1BEE80F0018AE0FC6BEE885
:1041D0000F000FC6BEE80F000FC69EE80700130CC5
:1041E00003C62A8018A82370FEF7AEF992222C4944
:1041F0002C4C18A82CF0ACFF18A8FEF7A5F95C22EF
:10420000294918A82CF0A4FF18A8FEF79DF96522EB
:10421000264918A82CF09CFF18A8FEF795F94D2206
:10422000234918A82CF094FF18A8FEF78DF90FCC9D
:1042300018AD0FC50FCC0FC523683B8018A8FEF73B
:1042400083F9FFF737BB00BF6433002054330020ED
:10425000603300205487030078880300C48703007C
:1042600020880300A8880300D8880300148903006D
:10427000A88903004C890300248A0300D88903001D
:104280001C620020608A0300A08A03008439002099
:10429000E48A0300945F00205C8B0300388C0300E9
:1042A0009C8C0300448E0300308D03008C8D030032
:1042B000F48D0300D48603000087030028870300E1
:1042C0001C8B0300608C0300601C0A2200212FF06D
:1042D000FFF843B21F2B00F24681DFE803F0403ABB
:1042E00034302C2824201C16161616161610101002
:1042F00010101010101010101010101010100F3897
:1043000040B2FEF7DBFEFFF7D5BA083840B20BF03B
:10431000B9FBFFF7CFBAFEF731FAFFF7CBBAFEF7DA
:104320007FF9FFF7C7BA07F0A3FBFFF7C3BAFEF7A1
:10433000DFFBFFF7BFBA04F0B5FEFFF7BBBA03F02F
:1043400017FAFFF7B7BA01219B4803F0ADFAFFF760
:10435000B1BA4FF0FF30FEF7B1FEFFF7ABBAFFF78F
:1043600019FAFFF7A7BA954C2060E060206119F0B8
:1043700071FC9348FEF7E8F85146204606F09EFF90
:10438000FFF798BA8F4811F04FFEFFF793BA211D3F
:104390008C4811F0B7FCFFF78DBA884C18AB20465B
:1043A00001212360C4F80CA0C4F810A006F086FF19
:1043B00052465146204606F081FEC4F800A0FFF7A1
:1043C00079BA0522804920462DF058FDF0B9012325
:1043D00078727B73FFF76EBA7C4805F065FBFFF7D8
:1043E00069BA07F03DFFFFF765BA784805F01AFB98
:1043F000FFF760BAA11D734811F018FFFFF75ABA12
:1044000001466E4807F00EF8FFF754BA05227049CE
:1044100020462DF033FD002800F0A18003226D49D5
:1044200020462DF02BFD002866D1E51C2846664964
:104430002DF016FF60B1604BB3F97C300BB900234F
:104440007B600121002000F0C7FF634B01221A703E
:10445000624928462DF004FF002800F0898001F011
:1044600027F8FFF727BA04340EAD204629460A2262
:104470002FF02EF82B689C4207B202D01E1C18BFEA
:10448000012618460A2229462FF022F82B689C4262
:1044900002B222D00BB306B3002F1EDD002A1CDDB2
:1044A0003946484811F0BAFC00287FF403AA18A83E
:1044B0004B4B4C4A64212DF0AFF918A8FEF744F895
:1044C000FFF7F8B94848FEF73FF8FFF7F3B93D4862
:1044D00011F00EFD3873FFF7EDB900923B4618A8B6
:1044E000424A64212DF098F918A8FEF72DF8FFF73D
:1044F000E1B90121FFF75ABA04223D4920462DF0C7
:10450000BDFC002800F0888004223A4920462DF0A6
:10451000B5FC00283DD00422374920462DF0AEFCE2
:10452000002800F05B810422344920462DF0A6FCCF
:10453000002800F011810322314920462DF09EFC15
:10454000002800F05E8105222E4920462DF096FCC1
:10455000002840F0DE802C4B1870FFF7ABB904F058
:104560008BFCFFF7A7B92948FDF7EEFFFFF7A2B9CB
:10457000284627492DF074FE002800F0AD80254B19
:104580001B68002B00F0A38001237B72BB72FFF736
:1045900091B9043418A920460A2218942EF098FFE5
:1045A00018A904460A2208682EF092FFC1B2E0B2B0
:1045B0000CF04CFCFFF77EB9D05F002010390020D2
:1045C0006C8E0300F86000208C8E030008340020FD
:1045D000948E03009C8E0300F807FF1F007B0300EE
:1045E000345F0020F07B0300687C0300147C030030
:1045F000148F03001C8F0300248F03002C8F0300F3
:10460000508F0300548F0300523900208C7C03002C
:104610005C7C03007821FF1F04340EA920460A2287
:104620000E942EF055FFBC4C031C18BF01230EA99D
:104630000E98E3730A2223742EF04AFF031C18BF5E
:1046400001230EA90A220E9863742EF041FF031C69
:1046500018BF01230EA90A220E98A3742EF038FF6A
:10466000031C18BF01230EA90A220E98E3742EF032
:104670002FFF031C18BF01230EA90A220E982375D1
:104680002EF026FF031C18BF01230EA90A220E9844
:1046900063752EF01DFF031C0EA918BF01230A220B
:1046A0000E98A3752EF014FF0EA9031C18BF01234A
:1046B0000A220868E3752EF00BFF031C18BF0123C4
:1046C0004FF47A70237602F0BFFAFFF7F3B89348FD
:1046D000FDF73AFFFFF7EEB8E578A5F12B035D4251
:1046E00004F104045D41264601343378013B1F2B5D
:1046F000F9D903228A4930462DF090FB002840F07A
:104700002D81854B5D704FF47A7002F09DFAFFF7B2
:10471000D1B80322834920462DF0B0FB002800F0D9
:104720008580B9F13A0F77D004227F4920462DF0D9
:10473000A5FB002840F0B8802379202B66D03D2BC4
:1047400064D07A4B93F8B124002A3FF4B3A80A222C
:1047500083F8F823FFF7AEB804340EA920460E9470
:104760002EF0F8FD0EA9044608682EF0F3FD704BFC
:104770001C60586005462BF083FACDE90201204603
:104780002BF07EFA6B4ACDE90001642118A82DF0C8
:1047900043F818A8FDF7D8FE24F000402BF070FA7B
:1047A0005BA3D3E900232BF04FFD80B925F0004037
:1047B0002BF066FA56A3D3E900232BF045FD4FF00A
:1047C000010300B9034683F001035FFA83F85A4BF3
:1047D00083F87E800CF0DAFBFFF76CB8043418A97C
:1047E00020460A2218942EF073FE18A904460A22C5
:1047F00008682EF06DFE014620460CF09DFAFFF78A
:1048000059B8201D04F044FBFFF754B8611D474818
:1048100005F076F9FFF74EB820462DF091FA2318EF
:1048200013F8012D1F2A2BD80138F9E70EA82CF018
:10483000DFFD18AC3969414A0E9B00910192642159
:104840003F4A029420462CF0E7FF2046FDF77CFE0D
:104850003C4B00933C4A3D4B642120462CF0DCFF4E
:104860002046FDF771FE012300932046A423384A19
:1048700064212CF0D1FF2046FDF766FEFFF71AB841
:1048800023180D210A22661C002521545A709D70A0
:1048900030462DF055FA0146304617F037FA234BD3
:1048A00083F83954FFF706B804222A4920462DF030
:1048B000E5FA002871D12379202B01D03D2B56D168
:1048C000631D0EAD184629460A222B602EF000FE0D
:1048D0002E683378202B074602D02C2B40F018810D
:1048E0000136002300933246394601232E600F48DB
:1048F00006F026FA00943B4618A8174A64212CF0CB
:104900008BFF18A8FDF720FEFEF7D4BFAFF30080A1
:104910007B14AE47E17A843FE820FF1FA08E03009E
:10492000B48E03005C8F0300E48F03000834002082
:10493000CC3B0020348F0300D05F0020901FFF1F6E
:10494000608F0300EF3200208C8F03008021FF1F57
:10495000B08F0300EC8F0300F48F03000322B249F1
:1049600030462DF05BFA68B9B04B9D70CBE623461C
:1049700018A8AF4A64212CF04FFF18A8FDF7E4FDFA
:10498000FEF798BF0422AB4930462DF047FA0028C5
:1049900040F0CA80A54BDD70B5E60522A649204649
:1049A0002DF06CFA002800F0E0800322A349204695
:1049B0002DF064FA002800F091800322A0492046DF
:1049C0002DF05CFA002879D006229E4920462DF071
:1049D00055FA00283CD003229B4920462DF04EFA80
:1049E000C8B93D21201D2CF065FF189070B118A9A1
:1049F00001300A222EF06CFDE378632B00F0A480D6
:104A0000752B00F09A80612B00F0F7808F48FDF73E
:104A10009BFDFEF74FBF03228D4920462DF02EFA55
:104A200088BB04228B4920462DF028FA20B320466B
:104A3000042289492DF022FAC8B9884B1B786BB142
:104A40008748FDF781FD8748FDF77EFDFEF732BF01
:104A5000A11D854811F0D6FFFEF72CBF0CF0EAFD32
:104A60000028F0D08148FDF76FFDFEF723BF04203A
:104A7000FEF724FBFEF71EBF0CF0A4FD7C48FDF7FB
:104A800063FDFEF717BF06227A4920462DF0F6F99E
:104A9000804600287DD1201D3D212CF00BFF0028F1
:104AA00075D0414601300A222EF012FD003018BFA9
:104AB0000120002370703B70FEF7FCBE03342046DB
:104AC00018A90A2218942EF003FD189B9C4215D0B9
:104AD0002146654811F060FFFEF7ECBE0334204626
:104AE00018A90A2218942EF0F3FC189B9C420AD0B5
:104AF00021465D4811F0B4FEFEF7DCBE5A4811F0C5
:104B00008FFEFEF7D7BE584811F050FEFEF7D2BE1A
:104B10000346009418A8584A64212CF07DFE18A87A
:104B2000FDF712FDFEF7C6BE0422544930462DF0B3
:104B300075F980B93D4B5D71E5E50030504B18BF0C
:104B400001201870FEF7B6BEB0FA80F0434B400962
:104B50001870FEF7AFBE04224A4930462DF05EF9C8
:104B6000002857D1314B1D71CDE5053418A90A2213
:104B7000204618942EF0ACFCC0B2003018BF0120C3
:104B800007F0FAFD4048FDF7DFFCFEF793BE012079
:104B90008CE703223D4920462DF070F9002800F0F3
:104BA000BD8003223A4920462DF068F9002800F024
:104BB0009D800322374920462DF060F9002800F03F
:104BC0009C800322344920462DF058F900286DD0EE
:104BD00020462DF0B5F8012803467EF66BAE2F4A2D
:104BE00001946421009518A82CF016FE18A8FDF772
:104BF000ABFC1AF073FBFEF75DBE0028284B14BF18
:104C0000012200221A703EF455AE264B00221A7083
:104C1000FEF750BE0422244930462DF0FFF800284C
:104C200072D1024B9D716EE5B88E0300E820FF1F24
:104C30004C900300BC8E0300689003007C9003003E
:104C400080900300849003008C90030090900300F8
:104C5000DC8E0300E890030040910300E83B002055
:104C600048910300A8910300945F00208C910300F9
:104C7000F0900300F09103001C900300C48E030029
:104C8000580AFF1FCC8E030070900300F8910300B8
:104C9000FC9103000C9203001C9203005C92030041
:104CA000640AFF1FF83E0020D48E03000334204620
:104CB00018A90A220E9418942EF00AFC189C0E9B38
:104CC0000A2205460EA920461C1B18BF01242EF0FF
:104CD000FFFB0E9A189B9A424ED0002C4CD0042811
:104CE0004AD8564B23F81050FEF7E4BDFDF7E2FD1D
:104CF0005348FDF729FCFEF7DDBDFDF779FE51486D
:104D0000FDF722FCFEF7D6BD03224F4930462DF0B9
:104D100085F800283ED14D4BDD71F4E40334204684
:104D200018A90A220E9418942EF0D2FB189C0E9B00
:104D30000EA91D1B4FF00A020746204618BF012589
:104D40002EF0C6FB0E9B189C0A22064618A9184690
:104D50009C420CBF002405F001042EF0B9FB0E9A12
:104D6000189B9A420BD054B177B1C1B2F2B233481A
:104D7000FBF7BCFBFEF79EBD3548FDF7E5FB2F4872
:104D8000FBF780FCFEF796BDC1B22C48FBF7D2FBC7
:104D9000FEF790BD04222F4930462DF03FF810B9A0
:104DA0002A4B1D72AFE402222B4930462DF036F813
:104DB00010B9264B5D72A6E40422284930462DF036
:104DC0002DF810B9214B9D729DE4042224493046F0
:104DD0002DF024F810B91D4BDD7294E40422214912
:104DE00030462DF01BF810B9184B1D738BE40322CD
:104DF0001D4930462DF012F810B9144B5D7382E452
:104E000002221A4930462DF009F810B90F4B9D7354
:104E100079E40522164930462DF000F810B90B4B05
:104E20005D7670E43046052212492CF0F7FF002829
:104E30007FF469AC054B9D7665E400BF906000206F
:104E40000092030010920300DC8E0300E820FF1F95
:104E500020920300E08E0300E88E0300EC8E030036
:104E6000A8A30300F48E0300FC8E0300008F030050
:104E7000048F03000C8F030030B51F2891B0054646
:104E80003C4C09D96369E218C62B107613DC013358
:104E9000E21800216361117694F90B30354A012B39
:104EA00014D00A2D22D00D2D20D06369314CC62B91
:104EB00013DC11B030BD00236361237694F90B300D
:104EC0000122012B84F8E0202A4AEAD11378002B32
:104ED000E7D128461AF0E6FAE3E7234400252648FE
:104EE0001D76FDF731FB656111B030BD94F8E0002F
:104EF000204D68BB6B69002B22DD2B440522187600
:104F00001E4905F118002CF0B9FF30B106221C49EA
:104F100005F118002CF0B2FF28BB1A4B58682BF093
:104F200001FB19492BF00AFC2AF0AAFE174ACDE929
:104F3000000103A832212CF06FFC03A8FDF704FB4D
:104F400094F90B30012B0AD00023636111B030BDFE
:104F500000230F4885F8E030FDF7F6FAF4E70D4836
:104F6000FDF7F2FAF0E705F118004FF0FF31FEF718
:104F70008BFCE5E78C1FFF1FD0920300A09203007B
:104F8000A892030080600020C0E1E44CB0920300CE
:104F900084920300C892030030B51F2891B00546E3
:104FA000394C06D9B4F9E230E218622B82F8E400F9
:104FB0000FDD94F90B30344A012B17D00A2DB4F9C8
:104FC000E23025D00D2D23D0622B2F4C15DC11B0F3
:104FD00030BD01331BB2E218A4F8E23094F90B3073
:104FE0000021012B82F8E410274AE7D11378002B27
:104FF000E4D128461AF056FAE0E723440025234876
:1050000083F8E450FDF7A0FAA4F8E25011B030BDE7
:10501000002B1D4D24DD2B44002083F8E4000522E5
:105020001B4905F1E4002CF029FF30B10622194993
:1050300005F1E4002CF022FFD8B9174B58682BF08B
:1050400071FA16492BF07AFB2AF01AFE144ACDE9C0
:10505000000103A832212CF0DFFB03A8FDF774FA4E
:1050600094F90B30012B0AD00023A4F8E23011B0E0
:1050700030BD05F1E4000521FEF706FCF0E7094824
:10508000FDF762FAF0E700BF8C1FFF1FD09203000C
:10509000A0920300A892030080600020C0E1E44CCD
:1050A000B0920300C89203002DE9F0439FB01AF0BC
:1050B000B3F8142817DC0028064640F00681864E17
:1050C000337803BB854B5B78EBB1854BD6F8481141
:1050D0001A68521AB2F57A6F15D91B68C6F84831AA
:1050E000012333700FE0142600241AF059F8051E2E
:1050F00004F10104A5F10A0304DB752B40F2C5801D
:10510000B442F2DB744E7748734C05F00BFA337BF4
:10511000002B40F0B48016F069FE0A28A8BF0A20D0
:10512000002805466F4F6ADD0024B84652E0C1B240
:105130006C4805F061FA002849D0337B002B43D13D
:10514000D8F8FC93B9F1000F33D0052266494846E0
:105150002CF094FE28B10622644948462CF08EFEBD
:1051600038BB97F900345E4A61491268486803F514
:10517000827347F823202BF0D5F95E492BF0DEFA35
:105180002AF07EFD5C4ACDE90001462105A82CF0FD
:1051900043FB05A82CF0D4FD4FF0000E97F9001446
:1051A000CDF800E0034605AA4E4805F0C9FDD7F842
:1051B000FC9399F80030202B06D92B2B76D097F949
:1051C00000144846FEF760FB464805F0B1FD013487
:1051D000A54214D016F016FE002810DB431E7E2BCD
:1051E000F5D897F8B034002BA1D03378C1B2002B9A
:1051F0009ED1084603911AF055F9039998E7DFF814
:10520000D8800A2505E0C4B22046FFF7C5FE013D5F
:1052100014D012F08DFC002800F1FF330EDB7E2B42
:10522000F5D896F84C31002BEDD098F80030C4B288
:10523000002BE9D120461AF035F9E5E797F83A3422
:10524000284C013B012B02D91FB0BDE8F083244A52
:10525000D4F8F41313685B1AB3F57A7FF4D91368A2
:10526000264A0094642105A82CF0D6FA05A8FDF77B
:105270006BF9042384F83A341FB0BDE8F0830121B0
:105280001F4810F035FE207345E7134E33781BB1ED
:105290000A2D1DD00D2D1BD0114B1B68C6F84831AF
:1052A000E8B200233370FFF7E7FD2CE797F90034ED
:1052B0000093144A4B46462105A82CF0ADFA05A8E8
:1052C000FDF742F9D7F8FC9379E73FF70DAF19E7FF
:1052D0000D48FDF739F9DFE78C1FFF1FE407FF1FBB
:1052E0006C5F002008340020A0920300A892030005
:1052F00080600020C0E1E44CB092030024930300DE
:10530000F860002000930300EC9203002DE9F04FB9
:1053100083B00C4683462CF013FD214B1B7882464C
:10532000EBB994B31F4F0028D7F8008017DD5E4615
:10533000054640F2DC591AF0C1F8041E304609DD7A
:10534000AC42A8BF2C462D1B214619F0E3FF002DCF
:10535000264404DD3B68C8EB03034B45EBD9124BF5
:1053600093F90010052915D0CBB2042B03D90120E5
:1053700003B0BDE8F08F0020009053465A460B481A
:1053800005F0DEFC03B0BDE8F08F0146584619F089
:10539000C1FFE4E75846514612F04CFB0120E7E715
:1053A0008C1FFF1F6C5F0020E407FF1F08340020E4
:1053B00038B50378232B03D0BDE83840FFF7A6BFEC
:1053C000044CFF2394F900502370FFF79FFF2570D2
:1053D00038BD00BFE407FF1F00282DE9F0410C464F
:1053E00003DD2D4B186003F027FC2C4F94B90124EA
:1053F000FE212B4887F89540284D21F001FE08B981
:10540000BDE8F08185F8964000212648BDE8F041CE
:10541000FFF7CEBF3A46DFF880C0DFF890E0012109
:10542000002302F801194FF47A71CCF8081098465D
:10543000CCF804301D4607F11C0007F1550107F1B7
:105440001A0612F8014F84B10B780580493BDBB294
:10545000222B98BF1EF9038011F8013C88BF4FF042
:10546000010808FB03531D46A046B24200F10200AA
:1054700001F10201E5D1B8F1000F0AD100220A4B77
:10548000C7F8902093FBF5F587F89420C7F88C5067
:10549000ADE7CCF80430F1E7EC07FF1FE820FF1F71
:1054A0001C670020A49303007011010058930300AF
:1054B000024B002283F89520704700BFE820FF1FB1
:1054C0002DE9F04F054D2B7B95B01BB1044C94F8A2
:1054D00094303BB115B0BDE8F08F00BFEC07FF1F63
:1054E000E820FF1FD4F89030D4F88C20934280F24B
:1054F000D381686804F1980600FB03F7F119B1F154
:10550000005F0AD20144B1F1005F06D901339A422B
:10551000C4F8903040F3C0810744A28BBA48BB491D
:1055200094F801E000683A440133C4F89030002355
:10553000B05084F8943001F19802BEF1000F40F0B1
:105540006E82A378B14A002B40F04382E378AF4AE1
:10555000002B40F035822379AC4A002B40F02882A2
:1055600063790BB3AA4B93F90000002800F09782EF
:10557000DFF8D892A749D9F800002BF02BF82BF0D0
:1055800005FAA4490FFA80F8D9F804002BF022F8A4
:105590002BF0FCF900B214AAE38C22F82C8DADF8A4
:1055A00026003B441068F050E379984A002B40F005
:1055B0002E82A379954A002B40F01C82237A934ACD
:1055C000002B40F00F82637A904A002B40F0C68196
:1055D000A37A8E4A002B40F0AE81E37A002B00F0D4
:1055E000CE808D4A8D4B5088B3F802E0B3F800802E
:1055F000B2F800C09188CEEB000E9888ADF826E096
:10560000C8EB0C0C081AADF824C0D188B3F806C05A
:10561000B3F808E0ADF82800CCEB0101B2F808C0FF
:105620005889ADF82A10CEEB0C0EB2F80AC0998951
:10563000DB89ADF82CE0C0EB0C00B2F80CC0D289CD
:10564000DFF80CE2ADF82E00D31AC1EB0C01744860
:10565000DFF800C2734ADCF80080ADF83230DEF8C3
:1056600000C0714BD0F800E01068704AADF83010FF
:10567000CDF83480CDF838C0CDF83CE010901268F9
:105680001B78119200228DF84820002B00F0EB814E
:105690003D20019023200790332006901320059091
:1056A0002F2004903F20012303900F208DF84830D5
:1056B0003122212311214FF02D0E4FF01D094FF003
:1056C0000D0C4FF01F0A02904FF0030BDFF888819A
:1056D00098F80080B8F1000F0AD005A90EC9039808
:1056E000DDF810E0DDF808C08DF848B00190D14633
:1056F000DFF8688198F80080B8F1000F04D0019AB3
:105700008DF848C0734649464948007810B18DF875
:1057100048101346474A12780AB18DF84830464877
:105720004649474A474BB4F832E000780978126896
:105730001B688DF84A00BE448DF84B108DF84C2044
:105740008DF84D30B6440DF124080DF14409C446DE
:10575000BCE80F00CC45CEF80000CEF80410CEF81F
:105760000820CEF80C30E0460EF1100EEFD1B8E86C
:105770000700CEF80000CEF80410CEF80820237BF6
:10578000224A002B40F09180637B204A002B40F09E
:105790000981A37B1D4A002B40F0FA80E37B002B9C
:1057A00040F0F080237C002B40F0E680637C002BEF
:1057B00040F0AD80A37C002B40F0A380E37C002B65
:1057C00040F09980237D002B40F08F80637D002B7B
:1057D00040F08580A37D002B7BD1E37D002B72D12F
:1057E000237E002B69D1637E084A002B40F0958010
:1057F000A37E064C002B3FF46DAE134FD7F88030DC
:105800000993D7E922012BE0901FFF1FE820FF1F1B
:10581000C43B002000007A44140AFF1F240AFF1F23
:10582000143A0020F8390020DC09FF1F183A002044
:10583000A1390020A03900209D3900209C3900208A
:105840003C3A0020383A0020D05F0020CC3B0020BA
:10585000A4390020A8390020AC390020FC390020F0
:105860002AF05AFD0A90D7E924012AF055FDD7F80D
:105870009830D5F804E0D4F890700B900C9309ADF3
:105880000FCDB4F850407D1E0EFB05443519305144
:105890006960AA60EB601DE60122002384F8942071
:1058A00084F8953015B0BDE8F08F938E7D4A3B4467
:1058B00003CAF218F050516066E77B4B1821586A12
:1058C000FCF712FE8FE7784B1721186AFCF70CFEE5
:1058D00086E7754B1621D869FCF706FE7DE7724B0B
:1058E0001521D868FCF700FE74E76F4B1421186986
:1058F000FCF7FAFD6AE76C4B13219869FCF7F4FD9D
:1059000060E7694B12215869FCF7EEFD56E7664BDC
:1059100011219868FCF7E8FD4CE7D2F890306868F0
:10592000B2F84E206149013B00FB03203044502275
:105930002BF00EFC5CE7DFF8A4E1B2F830C0BEE863
:105940000F000CEB070E06EB0E0C46F80E00CCF821
:105950000410CCF80820CCF80C303EE654485549E9
:10596000D38D096802680A92099109AA03CA3B44C7
:10597000F218F05051602BE64B4B10215868FCF7A1
:10598000B3FD13E7484B0F211868FCF7ADFD09E79D
:10599000494BB2F838E007CB7744F319F05159601E
:1059A0009A60FBE6D38E454A3B441288F252F0E6F9
:1059B000938C434A3B4403CAF218F0505160CFE540
:1059C000538C404A3B44F11810689288F0508A800A
:1059D000C1E5138C3C4A3B44F11810689288F050A2
:1059E0008A80B3E5938D394A3B4403CAF218F050DC
:1059F0005160E8E53649138D91E805000A92099057
:105A000009AA03CA3B44F218F0505160D6E5538D01
:105A1000304A3B4403CAF218F0505160C9E5DFF840
:105A2000C090DFF8C080DFF880C02B48B1F81EE0DE
:105A300099F80010BCF87CC000788DF82610D8F8D2
:105A40002011ADF824C08DF827000A910DF1240C27
:105A5000BE44BCE80300C8F8203102EB0E0342F854
:105A60000E0059606DE53C20019022200790322005
:105A70000690122005902E2004903E2003900E20C8
:105A80002023302210214FF02C0E4FF01C094FF034
:105A90000C0C4FF01E0A02904FF0020B16E68046E7
:105AA00079E500BF88390020D05F0020F032002067
:105AB0008C600020F833002080600020CA5F002046
:105AC0003C6000204C39002044390020F033002095
:105AD000DC20FF1FD83B002074330020B8330020A7
